:0600000000F040EF00F0EB
:0A000800FFFF7982FFFF74EF14F090
:10001800FFFF7980FFFFD8CF01F0E8CF02F0E0CFF3
:1000280003F0D9CF04F0DACF05F09EBA9DAA16D016
:10003800FFFF9EAAFDD7AECF06F0000E7124D96E41
:10004800DA6A020EDA2206C0DFFF0001C62B712829
:1000580002E1716A01D0712AFFFF9E9AFFFF05C075
:10006800DAFF04C0D9FF03C0E0FF02C0E8FF01C007
:0C007800D8FF79901000FFFFD2EF14F0C9
:1006000000010203040506070F1011152B6465662F
:100610005461626C6F207320726173706973616ED4
:1006200069656D00687474703A2F2F626F6C69642D
:100630002E727500526173706973616E6965004353
:10064000323030302D424900424F4C494400312E67
:100650003031004D4D4D0000FFFF446E4450D96EC7
:10066000DA6A0A0ED926010EDBBE12D0DB5003E196
:10067000460EDE5C0DE34450D96EDA6A0A0ED926C6
:10068000010EDBBE0BD0DB5003E18B0EDE5C06E31C
:10069000FFFF40684168426843685CD1FFFF4450F7
:1006A000D96EDA6A0A0ED926DECF32F0DDCF33F00A
:1006B0006C0E32241E6E070E33201F6E4450D96E0E
:1006C000DA6A080ED926DECF34F0DDCF35F03428D3
:1006D000206E000E3520216E4450D96EDA6A060E67
:1006E000D926DECF22F0DDCF23F021EC12F01EC0A0
:1006F00040F01FC041F020C042F021C043F0070E7F
:100700001F6EB20E1E6E216A010E206E236A226ECB
:1007100021EC12F01E50405E1F50415A2050425AA8
:100720002150435A4450D96EDA6A040ED926DECFDE
:1007300032F0DDCF33F032C034F033C035F0000E8C
:1007400035BEFF0E366E376E40C038F041C039F00E
:1007500042C03AF043C03BF0180E3802F3CF3CF0F1
:10076000F4CF3DF03E6A3F6A3902F3503D26F45023
:100770003E22000E3F223802F3503D26F4503E2226
:10078000000E3F22180E3A02F3503E26F4503F224C
:10079000000E3902F3503E26F4503F22000E38027C
:1007A000F3503E26F4503F22180E3B02F3503F26F2
:1007B000000E3A02F3503F26000E3902F3503F2656
:1007C000000E3802F3503F2634503C24406E355022
:1007D0003D20416E36503E20426E37503F20436EE2
:1007E0004450D96EDA6A020ED926DECF32F0DDCF60
:1007F00033F032C034F033C035F0000E35BEFF0E9A
:10080000366E376E40C038F041C039F042C03AF021
:1008100043C03BF03C0E3802F3CF3CF0F4CF3DF048
:100820003E6A3F6A3902F3503D26F4503E22000EE4
:100830003F223802F3503D26F4503E22000E3F2264
:100840003C0E3A02F3503E26F4503F22000E39028D
:10085000F3503E26F4503F22000E3802F3503E265D
:10086000F4503F223C0E3B02F3503F26000E3A026A
:10087000F3503F26000E3902F3503F26000E380297
:10088000F3503F2634503C24406E35503D20416E9D
:1008900036503E20426E37503F20436E4450D96E52
:1008A000DA6ADECF32F0DDCF33F032C034F033C05D
:1008B00035F0000E35BEFF0E366E376E40C038F094
:1008C00041C039F042C03AF043C03BF03C0E380220
:1008D000F3CF3CF0F4CF3DF03E6A3F6A3902F3506B
:1008E0003D26F4503E22000E3F223802F3503D26B2
:1008F000F4503E22000E3F223C0E3A02F3503E26B8
:10090000F4503F22000E3902F3503E26F4503F22AD
:10091000000E3802F3503E26F4503F223C0E3B02BC
:10092000F3503F26000E3A02F3503F26000E3902E4
:10093000F3503F26000E3802F3503F2634503C243B
:10094000406E35503D20416E36503E20426E37504D
:100950003F20436EFFFF40C02EF041C02FF042C049
:1009600030F043C031F01200FFFFFFFF0C6E0C505F
:1009700001E171D13C0E0C6401D06DD1FFFF0C067A
:100980000C40E8423F0B0D6E0CC009F0030E091637
:10099000D89009340E6E53D10EC009F0092A010E09
:1009A0000A6E092A03D0FFFFD8900A36FFFF092EEE
:1009B000FAD70A1C0B6E0D50900FD96EDA6A0B50E5
:1009C000DF160EC009F0010E0A6E092A03D0FFFFE0
:1009D000D8900A36FFFF092EFAD70A1C0B6E0D506D
:1009E000900FD96EDA6A0B50DF160EC009F0092A93
:1009F000010E0A6E092A03D0FFFFD8900A36FFFFC6
:100A0000092EFAD70A1C0B6E0D50800FD96EDA6AC8
:100A10000B50DF160EC009F0010E0A6E092A03D032
:100A2000FFFFD8900A36FFFF092EFAD75FD00EC01D
:100A300009F0092A010E0A6E092A03D0FFFFD89097
:100A40000A36FFFF092EFAD70D50900FD96EDA6AD9
:100A50000A50DF120EC009F0010E0A6E092A03D0F7
:100A6000FFFFD8900A36FFFF092EFAD70A1C0B6E3B
:100A70000D50900FD96EDA6A0B50DF16085014E053
:100A80000EC009F0092A010E0A6E092A03D0FFFFE1
:100A9000D8900A36FFFF092EFAD70D50800FD96E75
:100AA000DA6A0A50DF1215D00EC009F0092A010EC9
:100AB0000A6E092A03D0FFFFD8900A36FFFF092EDD
:100AC000FAD70A1C0B6E0D50800FD96EDA6A0B50E4
:100AD000DF16FFFF0EC009F0010E0A6E092A03D0CF
:100AE000FFFFD8900A36FFFF092EFAD7FFFF0A1C36
:100AF0000B6E0D50800FD96EDA6A0B50DF16ABD03B
:100B00000EC009F0092A010E0A6E092A03D0FFFF60
:100B1000D8900A36FFFF092EFAD70A1C0B6E0D502B
:100B2000900FD96EDA6A0B50DF160EC009F0010E75
:100B30000A6E092A03D0FFFFD8900A36FFFF092E5C
:100B4000FAD70D50900FD96EDA6A0A50DF120EC034
:100B500009F0092A010E0A6E092A03D0FFFFD89076
:100B60000A36FFFF092EFAD7FFFF0A1C0B6E0D5045
:100B7000800FD96EDA6A0B50DF160850AAE00EC05B
:100B800009F0010E0A6E092A03D0FFFFD8900A3639
:100B9000FFFF092EFAD70D50800FD96EDA6A0A507E
:100BA000DF1259D00EC009F0092A010E0A6E092A77
:100BB00003D0FFFFD8900A36FFFF092EFAD70D5059
:100BC000900FD96EDA6A0A50DF120EC009F0010EDA
:100BD0000A6E092A03D0FFFFD8900A36FFFF092EBC
:100BE000FAD70D50900FD96EDA6A0A50DF1208500A
:100BF00014E00EC009F0092A010E0A6E092A03D07A
:100C0000FFFFD8900A36FFFF092EFAD70D50800F4C
:100C1000D96EDA6A0A50DF120ED00EC009F0092A26
:100C2000010E0A6E092A03D0FFFFD8900A36FFFF93
:100C3000092EFAD799D7FFFF0850A1E14AD7FFFF45
:100C4000075001E1A9D6010A01E1F1D6030A01E149
:100C500057D7010AA7E0FFFF1200FFFFFFFF69EC73
:100C600018F090EC13F0C1EC10F062EC17F007C034
:100C7000C9F108C0CAF109C0CBF10AC0CCF11CEC23
:100C800018F0010E0101D46FD36FCD6BCE6BCF6B1B
:100C9000D06B320EC86FD169D269010E076E000E9B
:100CA000086E070EAAEC0EF0010E076E086E050E18
:100CB000AAEC0EF0FFFF62EC17F007C0DAF108C0F3
:100CC000DBF109C0DCF10AC0DDF1DA0E086E010EBD
:100CD000096EB7EC08F0CF5112E0A6510101DA5DC0
:100CE0000001A7510101DB590001A8510101DC59A4
:100CF0000001A9510101DD5902E362EC10F0000E80
:100D000082B2010E0101D76FD3190BE0DAC1CDF128
:100D1000DBC1CEF1DCC1CFF1DDC1D0F1D7C1D3F160
:100D200038D0CD51DA5D0001E86F0101CE51DB59B9
:100D30000001E96F0101CF51DC590001EA6F0101A7
:100D4000D051DD590001EB6FC8C1ECF0ED6BEE6BDB
:100D5000EF6BE851EC5DE951ED59EA51EE59EB5179
:100D6000EF5917E20101D451D71913E0D7C1D4F1DB
:100D7000D4510FE10001A05104E0010E4CEC16F03B
:100D800008D0685004E0010E9AEC15F002D02DEC6A
:100D900018F0FFFF0101C951DA5D0001E86F0101A0
:100DA000CA51DB590001E96F0101CB51DC59000147
:100DB000EA6F0101CC51DD590001EB6FEB51EA11F3
:100DC00005E1E80EE85D030EE9597DE325EC18F036
:100DD000A05115E065EC18F0D96EDA6A0001A25155
:100DE000DE5CA351DE58A451DE58DE50800AEC6F61
:100DF000A551800AEC5903E3000E4CEC16F0685044
:100E000015E065EC18F0D96EDA6A6C50DE5C6D5056
:100E1000DE586E50DE58DE50800A0001EC6F6F50D5
:100E2000800AEC5903E3000E9AEC15F065EC18F01B
:100E3000D96EDA6ADECFB4F1DDCFB5F1D80E076E28
:100E4000010E086E9DEC17F0000935E00101D85144
:100E5000D11903E1D951D2192EE0D8C1BAF1D9C1C3
:100E6000BBF1D56BD66BD50E076E010E086ED60E94
:100E7000096E010E0A6E8AEC17F0D5510001E86F79
:100E80000101D651AC6FE8C0ADF1D851D9110DE1D7
:100E90004DEC17F0706890EC0CF069500001E86FB1
:100EA00070500101AE6FE8C0AFF1D8C1D1F1D9C126
:100EB000D2F1CEEC11F0DAC1C9F1DBC1CAF1DCC16B
:100EC000CBF1DDC1CCF15D6A5C6ADD0E5E6EAA0E0F
:100ED0005F6E010E606E0F0E616E8C0E626E010E03
:100EE000636E0F0E646EE3EC09F0C4EC12F0E2D610
:100EF000FFFFFE0E7424D96EDA6A000EDA22DF508C
:100F0000156E146AFF0E7424D96EDA6A000EDA22A6
:100F1000DF501410206E1550216E7450FE0FD2EC6D
:100F200013F02050071803E12150081802E0FF0ECB
:100F30001BD1226A256AFFFF2550010F146E14C0D1
:100F4000F6FF060EF76E0800FFFFF55001010119CC
:100F500003E1010E226E04D0252A0E0E2564EBD784
:100F6000FFFF225002E1010EFFD0236A246AD4D091
:100F70000251146E0351286E14C029F00451146EEE
:100F80000551236E14C024F0245003E1110E235C9C
:100F900002E3030EE9D0295010E1100E285C0DE2A7
:100FA00023502824146E24502920156E155005E175
:100FB000110E145CFFFF01E2D3D0FFFF020ED4D06C
:100FC0000251146E0351286E14C029F004C127F099
:100FD000275002E02728DDE12950EFE1100E285CC0
:100FE000E9D70251146E0351286E14C029F0FFFF97
:100FF00028C027F027500001CD5DFFFFDEE3B0D011
:101000000251146E0351286E14C029F0055104C119
:1010100014F0156A14C015F0146A1412145028261E
:101020001550292228C027F027500001CE5DE5D7B2
:101030000251146E0351286E14C029F0055104C1E9
:1010400014F0156A14C015F0146A141214502826EE
:1010500015502922CCD7060E0319AFE10451ADE19A
:101060000505ABE1075106C114F0156A14C015F06F
:10107000146A1412000ED8901436153614C018F0E5
:1010800015C019F019BEFF0E1A6E1B6E095108C16A
:1010900014F0156A14C015F0146A1412000ED890DA
:1010A0001436153614C01CF015C01DF01DBEFF0E01
:1010B0001E6E1F6E1C501824146E1D501920156EC4
:1010C0001E501A20166E1F501B20176E1750161038
:1010D00002E115046FD771D70E0E021901E043D754
:1010E00003C126F0260407E0020E261804E0040ED1
:1010F000261801E04ED7040E261832E1060E0465CC
:101100002FD05BD77F0E02192BE0020529E0100ECD
:10111000021901E03ED724D0FFFF0151010A01E18D
:1011200027D7030A01E124D7010A82E0070A01E177
:1011300067D7010A01E144D7030A01E152D7090A3E
:1011400001E116D71F0A01E173D7010A09E0040A79
:1011500082E03E0AC1E04F0AD5E0010AD8A4030AA2
:10116000FFFF01C1E7F0000EFFFF1200FFFFFFFFCE
:1011700008C0D9FF09C0DAFFDECF0AF0DECF0BF0DE
:10118000DECF0CF0DECF0DF00001B6510A5CAE6F81
:10119000B7510B58AF6FB8510C58B06FB9510D58CB
:1011A000B16FB151B01105E1410EAE5D020EAF5904
:1011B0000FE3010E756E08C0D9FF09C0DAFFDECF5C
:1011C000B6F0DECFB7F0DECFB8F0DECFB9F0EAD0C0
:1011D000755001E1E7D0B151B01106E1810EAE5D6D
:1011E000010EAF5901E2DED0756ADCD0F00E89162F
:1011F000755003E090C08AFF03D0905180198A6E29
:10120000FFFF000EE3EC15F0755003E091C08AFF7C
:1012100004D00001915181198A6EFFFF010EE3ECA9
:1012200015F0755003E092C08AFF04D0000192517E
:1012300082198A6EFFFF020EE3EC15F0755003E091
:101240009CC08AFF04D000019C518C198A6EFFFF5C
:10125000030EE3EC15F08980B0D0F00E89167550BE
:1012600003E093C08AFF03D0935183198A6EFFFF76
:10127000000EE3EC15F0755003E094C08AFF04D033
:101280000001945184198A6EFFFF010EE3EC15F002
:10129000755003E095C08AFF04D00001955185196F
:1012A0008A6EFFFF020EE3EC15F0755003E09DC05F
:1012B0008AFF04D000019D518D198A6EFFFF030E35
:1012C000E3EC15F0898279D0F00E8916755003E0B1
:1012D00096C08AFF03D0965186198A6EFFFF000ED2
:1012E000E3EC15F0755003E097C08AFF04D00001CD
:1012F000975187198A6EFFFF010EE3EC15F07550C8
:1013000003E098C08AFF04D00001985188198A6EC2
:10131000FFFF020EE3EC15F0755003E09EC08AFF5C
:1013200004D000019E518E198A6EFFFF030EE3EC7C
:1013300015F0898442D0F00E8916755003E099C0EB
:101340008AFF03D0995189198A6EFFFF000EE3ECE2
:1013500015F0755003E09AC08AFF04D000019A513D
:101360008A198A6EFFFF010EE3EC15F0755003E059
:101370009BC08AFF04D000019B518B198A6EFFFF2E
:10138000020EE3EC15F0755003E09FC08AFF04D015
:1013900000019F518F198A6EFFFF030EE3EC15F0D9
:1013A00089860BD0FFFFD75101E120D7010A01E167
:1013B00054D7030A89E0010ABEE0FFFF0001D72BE2
:1013C000D7951200FFFFFFFF0001E76B61C0CEF071
:1013D00064C0CDF048EC18F0656E655003E1FFFF86
:1013E000000EC7D0D651651812E065C0D6F0050EC4
:1013F00062EC17F007240001AA6F000E0820AB6F03
:10140000000E0920AC6F000E0A20AD6FE8D762EC29
:1014100017F00001AA51075CAB510858AC510958AC
:10142000AD510A58DCE3D66BC9EC16F0666E040EBB
:10143000666005D034EC18F0FFFF66509AD0FFFFCD
:10144000D5510101001903E034EC18F0C8D729EC9C
:1014500016F0666E34EC18F078EC07F0676E6750A3
:1014600009E0672805E06750C0EC17F074EC15F050
:1014700067507FD062EC17F0070E0101011957E0A9
:10148000000E076E4EEC15F052D05E50D96EDA6A3F
:10149000DECF16F0DDCF17F06DEC0BF06AD05CC03C
:1014A00016F05DC017F06DEC0BF063D062C016F063
:1014B00063C017F064C018F01DEC11F05AD05FC083
:1014C00016F060C017F061C018F01DEC11F051D09B
:1014D0005E5073EC12F04DD062C016F063C017F08E
:1014E00064C018F0A4EC14F044D006EC18F041D01D
:1014F0005E50A4EC0DF03DD062C016F063C017F052
:1015000064C018F0FDEC0FF034D00CEC14F031D0C6
:1015100078EC11F02ED0BCEC0AF02BD025EC0FF0BB
:1015200028D003EC17F025D0ECEC17F022D0FFFF09
:1015300001010151010AA9E0030AB1E0010AB6E084
:10154000070ABDE0010AC4E0030AC6E0010ACDE0D3
:10155000080ACEE01F0AD0E0010AD7E0040AD8E06A
:101560003E0AD9E04F0ADAE0010ADBE0030ADCE0D8
:1015700063D7FFFF1200FFFFFFFF03C116F004C196
:1015800018F00101056B066B080E746E94D0810E85
:10159000046F030E076F480E076E060E086E000EEE
:1015A00044EC14F03F0E076E090E086E010E44EC79
:1015B00014F04E0E076E050E086E020E44EC14F089
:1015C00084D0820E046F040E076F240E076E100E77
:1015D000086E030E44EC14F0100E076E140E086E25
:1015E000040E44EC14F0530E076E040E086E050E44
:1015F00044EC14F0340E076E0B0E086E060E44EC2D
:1016000014F063D0010E076F46D0810E046F480EB0
:10161000076E060E086E185044EC14F056D0810E7A
:10162000046F3F0E076E090E086E185044EC14F05C
:101630004CD0810E046F4E0E076E050E086E1850CA
:1016400044EC14F042D0820E046F240E076E100E8C
:10165000086E185044EC14F038D0820E046F100E4F
:10166000076E140E086E185044EC14F02ED0820E43
:10167000046F530E076E040E086E185044EC14F0FD
:1016800024D0820E046F340E076E0B0E086E1850B5
:1016900044EC14F01AD0FFFF1850B7E0010ABFE085
:1016A000030AC7E0010ACFE0070AD7E0010ADFE03A
:1016B000030AE7E00AD0FFFF1650010A01E167D7ED
:1016C000030A01E17ED7060A9DE0FFFF74C017F010
:1016D00074EC15F017501200FFFFFFFF01010251DB
:1016E000186E0351206E18C021F020C0BEF021C03A
:1016F000BFF00451186E0551256E18C026F025C0A4
:10170000C0F026C0C1F025C018F026C019F0D8904E
:1017100019321832D89019321832D890193218323A
:1017200018501F6E25C018F0070E181601E01F2A6A
:101730001FC002F1030E746E246A226A236A4FD01E
:10174000225020241B6E235021201C6E1BC01DF034
:101750001DC018F016C019F017C01AF0182A04D0CE
:10176000FFFFD8901A321932FFFF182EF9D719A0AF
:1017700015D024C018F0010E196E182A03D0FFFFEF
:10178000D8901936FFFF182EFAD7000E7424D96EA0
:10179000DA6A010EDA221950DF1217D0FFFF24C0D7
:1017A00018F0010E196E182A03D0FFFFD8901936D1
:1017B000FFFF182EFAD7191C1A6E000E7424D96E6A
:1017C000DA6A010EDA221A50DF16FFFF242A070E0A
:1017D000246402D0246A742AFFFF224A232AFFFFCE
:1017E0002550225C26502358ABE325C018F0070E85
:1017F000181601E0742A7450020F1E6E74EC15F076
:101800001E501200FFFFFFFF51EC18F0D96EDA6A8C
:10181000DF50276E61EC18F0D96EDA6ADF50246E63
:1018200059EC18F0D96EDA6ADF50286E285075E04E
:1018300028501F6E206A3C0E216E226A7250215E73
:10184000000E225A1F50215C2250800A236E205025
:10185000800A235862E32750030B256E1F6A27AEC8
:1018600001D01F2A1FA002D025500CE1FFFF000E5F
:10187000076E086E2850B5EC04F024284EE02DECDD
:1018800018F04BD055EC18F0D96EDA6ADF50266E9E
:1018900026500BE125C007F02744E846030B010B57
:1018A000086E2850B5EC04F028D028C0A1F0010E35
:1018B0000001A06F65EC18F0D96EDA6ADECF1FF078
:1018C000DECF20F0DECF21F0DECF22F026501F2425
:1018D0000001A26F000E2020A36F000E2120A46F34
:1018E000000E2220A56F030E076E2744E846030B67
:1018F000010B086E2850B5EC04F0FFFF5DEC18F00A
:10190000D96EDA6ADF50176E186A245095EC0FF022
:10191000010E076E000E4EEC15F0FFFF1200FFFFE8
:10192000FFFF765001E184D00B0E076E086A9DEC34
:1019300017F000097DE0702802E1706A01D0702A7A
:10194000FFFF6950096E70500101AE6F09C0AFF121
:101950007650705C0CE370686A6A6B6AB06BB16B4E
:101960006950096E7050AE6F09C0AFF161D0705010
:10197000020DF3500B0FA96EA680A8CF0DF00D50ED
:101980001F0B3C0DF3CF6AF0F4CF6BF00D38E8423B
:10199000070B0001C26FC36B1AD0C36B0A0E11D0C4
:1019A000C36B1E0E0ED0C36B3C0E0BD0010EC36F6B
:1019B0002C0E07D0020EC36FD00E03D0070EC36FDC
:1019C000080EFFFFC26F19D0C269C36916D0FFFFAE
:1019D000C2C009F0C3C00AF00A500FE10950010A61
:1019E000DCE0030ADDE0010ADEE0070ADFE0010ACD
:1019F000E1E0030AE3E0010AE7E0FFFF7050020DB7
:101A0000F3500C0FA96EA680A8CF0DF00D503F0B20
:101A10006A26000E6B220D44E846030BD16F6A5014
:101A20000B5C6B500C5887E26AC0B0F16BC0B1F12F
:101A3000FFFF1200FFFFFFFFD59E0BC0D9FF0CC0B8
:101A4000DAFFDF50786E0DC0D9FF0EC0DAFFDF502D
:101A5000776E78503C0D7750F3240001C46F000E70
:101A6000F420C56F0FC0D9FF10C0DAFFDF501D6E24
:101A7000060E076E1D506DEC16F00001C86F060EC5
:101A8000076E1D5037EC17F0116E115006081E6ED0
:101A90001EC011F0126A136A146ADC0E1102F3CF31
:101AA00015F0F4CF16F0176A186A1202F3501626D2
:101AB000F4501722000E1822D90E1102F3501626E8
:101AC000F4501722000E1822DC0E1302F3501726D2
:101AD000F4501822D90E1202F3501726F45018228F
:101AE000FF0E1102F3501726F4501822DC0E1402D8
:101AF000F3501826D90E1302F3501826FF0E1202C7
:101B0000F3501826FF0E1102F3501826000E15246C
:101B1000196E000E16201A6E010E17201B6E000E95
:101B200018201C6E1AC019F01BC01AF01CC01BF044
:101B30001C6A1BBE1C681950D76E1E50DC0DF3CFFB
:101B4000D6FFD58E1200FFFFFFFF246E0101025168
:101B5000166E0351206E16C021F020C0BEF021C0C9
:101B6000BFF00451166E0551226E16C023F022C03C
:101B7000C0F023C0C1F0286A070E1F6E266A276ACC
:101B800058D0265020241B6E275021201C6E1BC0CD
:101B900025F028C016F0000E1F24D96EDA6A010E57
:101BA000DA22DF50176E162A03D0FFFFD8901732C3
:101BB000FFFF162EFAD71750010B1E6E1E5016E0AF
:101BC00025C016F0010E176E186A162A04D0FFFF02
:101BD000D89017361836FFFF162EF9D72450D96E35
:101BE000DA6A1750DE121850DD1219D025C016F02F
:101BF000010E176E186A162A04D0FFFFD890173608
:101C00001836FFFF162EF9D7171C196E181C1A6EFE
:101C10002450D96EDA6A1950DE161A50DD16FFFF0D
:101C2000282A070E286402D0286A1F2AFFFF264AA6
:101C3000272AFFFF2250265C23502758A2E3060ED6
:101C4000746E7450020F1D6E74EC15F01D5012006E
:101C5000FFFFFFFF0E50126E0F50136E146A156ACD
:101C60006D0E1202F3CF16F0F4CF17F0186A196A4E
:101C70001302F3501726F4501822000E1922010EF9
:101C80001202F3501726F4501822000E19226D0E7E
:101C90001402F3501826F4501922010E1302F350C7
:101CA0001826F4501922000E1202F3501826F45090
:101CB00019226D0E1502F3501926010E1402F3506D
:101CC0001926000E1302F3501926000E1202F350CB
:101CD000192616C01AF017C01BF018C01CF019C046
:101CE0001DF00EC007F00FC008F00A6A640E096EFE
:101CF000FEEC14F00EC012F00FC013F0D8901332A7
:101D00001232D890133212320750125E0850135A12
:101D100012501A2613501B22000E1C221D220EC028
:101D200007F00FC008F0010E0A6E900E096EFEEC6F
:101D300014F007501A2608501B22000E1C221D22E8
:101D40001AC00EF01BC00FF01CC010F01DC011F027
:101D5000000CFFFFFFFF0E6E070E0E6401D072D065
:101D6000FFFF075010E00EC009F0010E0A6E092AAD
:101D700003D0FFFFD8900A36FFFF092EFAD70A508A
:101D800000019F130FD00EC009F0010E0A6E092A40
:101D900003D0FFFFD8900A36FFFF092EFAD70A1C9E
:101DA00000019F17FFFF085010E00EC009F0010E60
:101DB0000A6E092A03D0FFFFD8900A36FFFF092ECA
:101DC000FAD70A5000018F130FD00EC009F0010E90
:101DD0000A6E092A03D0FFFFD8900A36FFFF092EAA
:101DE000FAD70A1C00018F17FFFF075014E00EC03E
:101DF00009F0010E0A6E0B6A092A04D0FFFFD89081
:101E00000A360B36FFFF092EF9D70A500001DD1301
:101E10000B50DE1317D00EC009F0010E0A6E0B6ACC
:101E2000092A04D0FFFFD8900A360B36FFFF092E8F
:101E3000F9D70A1C0C6E0B1C0D6E0C500001DD173F
:101E40000D50DE17FFFF1200FFFFFFFF0A0E746E3A
:101E500002C1D0F058D0FF005FD003C1D5F0FFFF22
:101E6000A6B2FDD7010EA96ED5C0A8FFD890F2BECC
:101E7000D880F29EA684550EA76EAA0EA76EA682E3
:101E8000A69401E3F28E010E076E000E4EEC15F0E3
:101E900043D0040E0B6E010E0C6E050E0D6E010E7E
:101EA0000E6E070E0F6E010E106E1BEC0DF0640E21
:101EB00001010925546E556A000E552208C152F0E1
:101EC000536A06C150F0516A04C14EF04F6A05C111
:101ED0004CF04D6A07C14AF04B6A4A0E2CEC03F0F5
:101EE0002EC045F02FC046F030C047F031C048F05A
:101EF000450ED0EC17F00001C981010E076E000EEF
:101F00004EEC15F009D0FFFF0001D051010AA5E009
:101F1000110ABFE06F0A9FE0FFFF7450020F496E85
:101F200074EC15F049501200FFFFFFFF1D6E000119
:101F3000D4511D5C60E21750181005E1BA6BBB6B01
:101F4000BC6BBD6B22D0172807E1182805E1BA69E0
:101F5000BB69BC69BD6919D065EC18F0D96EDA6A45
:101F6000DECF19F0DECF1AF0DECF1BF0DECF1CF093
:101F7000175019240001BA6F18501A20BB6F000EB9
:101F80001B20BC6F000E1C20BD6FFFFFCB511D241A
:101F9000A96EA680A8CF1EF01E50CAC019F01A6AFA
:101FA0001926000E1A221ABE02D01A0424E2FFFFDC
:101FB000CA511E24A96EA680A8CFD3F0CA511E24F0
:101FC000196E1928736ED351196E73500101B86FD1
:101FD00019C0B9F10001D351030D7350F326000E5F
:101FE000F422F4BE02D0F40406E2FFFFD26B010E2D
:101FF000CF6F62EC10F01200FFFFFFFF01010351F1
:1020000002C119F01A6A19C01AF0196A1910206E63
:102010001A50216E20C0BEF021C0BFF005C122F0D1
:1020200022C0C0F00001C16B0101046B22C005F1A8
:10203000060E746E236A2CD02350020D080EF32472
:10204000D96E010EF420DA6EDF50196E2350020DA6
:10205000070EF324D96E010EF420DA6EDF501A6EEB
:1020600019501D6E1AC01EF023502024196E000E48
:1020700021201A6ED89019361A3619501624D96EA6
:102080001A501720DA6E1DC0DEFF1EC0DDFF232AA6
:10209000FFFF2250235C0EE21850196E1A6A23507B
:1020A00020241B6E000E21201C6E19501B5C1A5040
:1020B0001C58C2E37450020F1F6E74EC15F01F50D1
:1020C0001200FFFFFFFF0001D351D25D16E3D26B78
:1020D00065EC18F0D96EDA6A0001BA51DE5CBB51CA
:1020E000DE58BC51DE58DE50800A136EBD51800AA6
:1020F000135803E32DEC18F041D0D251030DF350E7
:102100007324A96EA680A8CF14F0156A060EFFFFEF
:10211000D89014361536E82EFAD762EC17F0145022
:1021200007240001A66F15500820A76F000E092094
:10213000A86F000E0A20A96FD251030DF35073242B
:102140000F6E0F28A96EA680A8CFCBFFD251030D2A
:10215000F3507324020FA96EA680A8CF16F0D22BDD
:10216000165002E0CB5003E1CA94948407D016C005
:1021700007F0086A1EEC17F09494CA84FFFF12005F
:10218000FFFFFFFF77EC17F0020EA96EA680A8CF25
:10219000D8F0010EA96EA680A8CF13F0132802E193
:1021A0007F0E136E0C6A0D6A135012EC18F0030EBA
:1021B000A96EA680A8CF72F0722801E1726A3C0E67
:1021C000726404D0020EB0EC17F034D0FFFF0A0E98
:1021D000A96EA680A8CF76F0762801E1766A7650BF
:1021E000725C04E2030EB0EC17F024D07650020DBE
:1021F000F3500B0F126E12C0A9FFA680A8CFD4F027
:10220000D42902E1D46B05D01228CB6FCB51D42551
:10221000CA6FFFFFD451106E76500101B66F10C027
:10222000B7F10001A06B6A6A6B6A686A69687068D6
:1022300090EC0CF0FFFF1200FFFFFFFF03C120F046
:1022400020C0BEF00001BF6B01010451196E0551A1
:102250001E6E19C01FF01EC0C0F01FC0C1F01E507E
:102260001E24026F030E746E20C021F02AD0000ECF
:102270007424D96EDA6A010EDA222150020DF3506D
:102280001624E16EF4501720E26EE6CF19F0E5CF88
:102290001AF01AC019F01A6A1950DF6E742A215008
:1022A000020DF3501624D96EF4501720DA6E000E8A
:1022B0007424E16EE26A010EE222DFCFE7FF742AA6
:1022C000212AFFFF20501E24196E000E1F201A6EB7
:1022D00021501B6E1C6A19501B5C1A501C58C7E316
:1022E0007450020F1D6E74EC15F01D501200FFFFAC
:1022F000FFFF02C118F00101075106C116F0176A6D
:1023000016C017F0166A1612D89016341A6E1734C3
:102310001B6E1AC0BEF01BC0BFF0095108C116F0F9
:10232000176A16C017F0166A1612D89016341C6E6B
:1023300017341D6E1CC0C0F01DC0C1F01828746E8B
:102340001E6A1CD0FFFFA6B2FDD71E501A24A96E2C
:102350000A0E1E24D96EDA6A010EDA22DF50A86E48
:10236000D890F2BED880F29EA684550EA76EAA0E13
:10237000A76EA682A69401E3F28E1E2AFFFF1E50CE
:10238000166E176A1C50165C1D501758DBE374C09C
:1023900019F074EC15F019501200FFFFFFFF7028C0
:1023A0004EE0230E076E086A9DEC17F0000947E027
:1023B00023506A1844E124506B1841E1685007E04B
:1023C000020E076E086A42EC18F0B5EC04F070C01B
:1023D00069F0010E686E030E076E010E086E42EC86
:1023E00018F0B5EC04F00001D15107E0C2C017F0BD
:1023F000C3C018F0D10595EC0FF065EC18F0D96E5C
:10240000DA6ADECF1FF0DECF20F0DECF21F0DECFA4
:1024100022F00001D8511F246C6E000E20206D6E3A
:10242000000E21206E6E000E22206F6E90EC0CF0DC
:1024300069501F6E70500101AE6F1FC0AFF11200E6
:10244000FFFFFFFF20C00EF021C00FF006EC16F0DA
:1024500022500E2623500F220EC02AF00FC02BF060
:102460002C6A2D6A215003E1030E205C21E31EC07B
:102470000CF01FC00DF028EC15F00C500D1003E10E
:10248000296A020E02D0296A010EFFFF286E28C0B9
:1024900024F029C025F0000E25BEFF0E266E276E03
:1024A00024502A5E25502B5A26502C5A27502D5A3C
:1024B0001E06D8A01F061EC00EF01FC00FF029EC8C
:1024C0000EF00E502A260F502B2210502C221150A5
:1024D0002D222AC01EF02BC01FF02CC020F02DC0D2
:1024E00021F01200FFFFFFFF1E6E01010251166E68
:1024F00003511C6E16C01DF01CC0BEF01DC0BFF005
:102500000001C16B010EC06F1C500F0B1F6E01014B
:10251000042916E11FC016F0010E176E186A162A5C
:1025200004D0FFFFD89017361836FFFF162EF9D7C4
:102530001E50D96EDA6A1750DE121850DD1219D00B
:102540001FC016F0010E176E186A162A04D0FFFF7E
:10255000D89017361836FFFF162EF9D7171C196EAC
:10256000181C1A6E1E50D96EDA6A1950DE161A50EF
:10257000DD16FFFF060E746E7450020F1B6E74ECB6
:1025800015F01B501200FFFFFFFF2D0E076E310EDE
:10259000086E2F0EABEC16F0326E3250D96EDA6A3E
:1025A000DF5036E029682A682FC02BF030C02CF0AD
:1025B00029502B262A502C222B502D262C502E22EF
:1025C0003250D96EDA6A640EDE180CE1100E311842
:1025D0001FE1000E076E086E050EAAEC0EF090ECDF
:1025E0000CF016D03250D96EDA6A650EDE1803E1AF
:1025F0004EEC13F00DD03250D96EDA6A150EDE189B
:1026000007E1C1EC10F0010E076E000E4EEC15F064
:10261000FFFF1200FFFFFFFF51EC18F0D96EDA6ADE
:10262000DF50216E61EC18F0D96EDA6ADF50206E4F
:102630002150070B226E040E226401D02CD0FFFF24
:102640001F6A21AE01D01F2A1FB00BD0000E076EEB
:10265000086E2250AAEC0EF020281DE02DEC18F098
:102660001AD0FFFF010E076E2144E846030B010B51
:10267000086E2250AAEC0EF05DEC18F0D96EDA6A02
:10268000DF50176E186A205095EC0FF0010E076EA0
:10269000000E4EEC15F0FFFF1200FFFFFFFF2FD0E2
:1026A000766AFFFFA6B2FDD70A0EA96EA86AD89077
:1026B000F2BED880F29EA684550EA76EAA0EA76E13
:1026C000A682A69401E3F28E010E076E000E4EEC78
:1026D00015F023D003EC0CF020D05DEC18F0D96E8F
:1026E000DA6ADF50176E186A51EC18F0D96EDA6AA0
:1026F000DF5095EC0FF011D00BEC13F00ED0FFFF74
:102700004DEC18F0D96EDA6ADF50800AC9E0020A8F
:10271000E1E0010AF1E0120AE0E0FFFF1200FFFF32
:10272000FFFFF28CF28ED08ECD8ECD94CD92CF0E57
:10273000CD169D809F80F60ECF6E3C0ECE6E9E9085
:10274000CD80D59CD59AD596070ED512F28AF18404
:102750001B0ED76E280ED66EF2943BEC18F0F9ECF7
:1027600017F09D8A9F9A076AFFFF0750020DAA0E75
:10277000F324D96E010EF420DA6EDE6ADD6A072AD0
:102780000E0E0764F1D7936A89908992899489968D
:1027900092909292929492969486948294908B9432
:1027A0001200FFFFFFFF0B6E12681368106A1ED045
:1027B000000E1024D96EDA6A010EDA22DF50121AE6
:1027C000010E116EFFFF010E12140E6E0F6AD890EB
:1027D000133212320E500F1004E0010E121AA00E26
:1027E000131A112A080E1164EDD7102AFFFF0B509F
:1027F000105CDEE313C00CF00D6A12500A6E096A19
:102800000C500910126E0D500A10136E12C007F012
:1028100013C008F01200FFFFFFFF040E0101026F5A
:10282000030E746E000E7424D96EDA6A010EDA2279
:10283000010EDF6E742A000E7424D96EDA6A010E5E
:10284000DA22010EDF6E742A000E7424D96EDA6A61
:10285000010EDA22010EDF6E742A000E7424D96E86
:10286000DA6A010EDA22DF6A742A000E7424D96E45
:10287000DA6A010EDA22DF68742A74C016F074EC8A
:1028800015F016501200FFFFFFFF0A6E0806000E3B
:102890007424D96EDA6A010EDA220AC0DFFF742AC4
:1028A000000E7424D96EDA6A010EDA2208C0DFFF46
:1028B000742A0B6A13D007500B24096E09C0F6FF67
:1028C000060EF76E000E7424D96EDA6A010EDA2253
:1028D0000800FFFFF5CFDFFF0B2A742AFFFF085027
:1028E0000B5CE9E31200FFFFFFFF9EB09DA00CD040
:1028F0009E900001B22B000EB323B423B523F60E35
:10290000CF6E3C0ECE6E1CD0FFFFF2A419D0F29415
:102910000001C82B0A0EC8190FE1C86B772AC44BF7
:10292000C52B3C0E771808E1776A782A180E7818BC
:1029300003E1C46BC56B786A1B0ED76E280ED66E8A
:10294000FFFF79921100FFFFFFFF01010251196E95
:1029500003511E6E19C01FF01EC0BEF01FC0BFF095
:102960000001C16B010EC06F01010451196E0551C8
:102970001B6E19C01CF0D8901E34D96E1F34DA6E4D
:102980001650D9261750DA221BC0DEFF1CC0DDFF0F
:10299000060E746E7450020F1D6E74EC15F01D500F
:1029A0001200FFFF02EE00F011EE00F0EE6AE550BB
:1029B000E150FCE1E250FAE101EE00F0C80EEE6AEF
:1029C000E806FDE100EE80F0680EEE6AE806FDE143
:1029D00000EE68F0100EEE6AE806FDE1DA0EF66E23
:1029E000300EF76E000EF86E0900F5CF78F0799092
:1029F0007992000EF86E00012EEF06F0FFFF0C6AD0
:102A00000D6A09500A101EE0010E0B6E05D0FFFF83
:102A1000D89009360A360B2AFFFF0AAEF8D7FFFF17
:102A2000D8900C360D360950075C0A50085805E35B
:102A30000950075E0A50085A0C80D8900A320932B1
:102A40000B2EEDD70CC007F00DC008F01200FFFFF1
:102A5000FFFF010E0F6E0CC007F00DC008F00A6EEC
:102A6000900E096EBFEC15F00750081012E00CC074
:102A70000EF0030E0E160CE10CC007F00DC008F0AE
:102A80000A6A640E096EBFEC15F00750081001E1E8
:102A90000F6A0FC00CF00D6A1200FFFFFFFF0A6EF5
:102AA000075010E00AC008F0010E096E082A03D092
:102AB000FFFFD8900936FFFF082EFAD70950000112
:102AC000CC130FD00AC008F0010E096E082A03D0FB
:102AD000FFFFD8900936FFFF082EFAD7091C000126
:102AE000CC17FFFF1200FFFFFFFF7450D2EC13F072
:102AF00007C014F008C015F0000E7424D96EDA6A0D
:102B0000010EDA2215C0DFFF742A000E7424D96E7C
:102B1000DA6A010EDA2214C0DFFF742A000E076E93
:102B2000010E086E74C009F08CEC16F0746A62EF46
:102B300017F0FFFFFFFF116E68501FE0115003E117
:102B4000136A020E02D0136A010EFFFF126E12C04A
:102B500007F0086A42EC18F0B5EC04F0686A69689E
:102B60006C6A6D6A6E6A6F6A2DEC18F069500F6EB0
:102B700070500101AE6F0FC0AFF11200FFFFFFFFF9
:102B800009500A101AE0010E0B6E05D0FFFFD89015
:102B900009360A360B2AFFFF0AAEF8D7FFFF0950A5
:102BA000075C0A50085804E30950075E0A50085AA7
:102BB000D8900A3209320B2EF1D707C007F008C0AF
:102BC00008F01200FFFFFFFF076E14D0899892985B
:102BD0008988928818D08B9694968B86948613D089
:102BE0008B9094908B8094800ED08B9294928B8259
:102BF000948209D0FFFF0750E9E0010AECE0030AE4
:102C0000EFE0010AF2E0FFFF1200FFFFFFFFF10E0D
:102C1000106E0B0E116E10500E02F3CF12F0F4CFA7
:102C200013F00F02F350132611500E02F350132627
:102C3000410E1224076EF40E1320086E0A6A640E09
:102C4000096EFEEC14F007C00EF008C00FF0120081
:102C5000FFFFFFFF096A040E746E11D0E7EC16F057
:102C6000086E000E7424D96EDA6A010EDA2208C0EA
:102C7000DFFF742A8B0E746402D0010E096EFFFF11
:102C800048EC18F00009EAE1095002E0FD0E01D01D
:102C90007450FFFF1200FFFFFFFF0F6E0001A051F5
:102CA0001AE00F5004E1000E116E020E03D0000E68
:102CB000116E010EFFFF106E10C007F0000E086EBF
:102CC000A151B5EC04F00001A06BA26BA36BA46B47
:102CD000A56B2DEC18F01200FFFFFFFF086E0A6ACB
:102CE000075017E0010E096E04D0FFFFD890073699
:102CF000092AFFFF07AEF9D7FFFFD8900A36075021
:102D0000085C03E30750085E0A80D8900732092E5A
:102D1000F3D70A501200FFFFFFFF8B8A060EFFFF5A
:102D2000E82EFDD700F00A6A0CD0FFFFACA2FDD759
:102D30000A500724D96E000E0820DA6EDF50AD6EFF
:102D40000A2AFFFF09500A5CF0E3FFFFACA2FDD79F
:102D50008B9A1200FFFFFFFF096E095007E0095030
:102D6000D96EDA6ABEC0DEFFBFC0DDFF075007E0E4
:102D70000750D96EDA6AC0C0DEFFC1C0DDFF08505F
:102D800005E00850D96EDA6AD0C0DFFFE70E120006
:102D9000FFFFFFFF746A096AFFFF48EC18F00009A3
:102DA00002E1FB0E11D0E7EC16F0086E000E742461
:102DB000D96EDA6A010EDA2208C0DFFF742A092A06
:102DC000030E0964E9D77450FFFF1200FFFFFFFFF5
:102DD000F29E0001C65112E0000EC725D96EDA6AD4
:102DE000020EDA22DF50076EC607C72902E1C76B61
:102DF00001D0C72BFFFFF28E075002D0F28E000EDB
:102E0000FFFF1200FFFFFFFF0A0E746E02C1E6F023
:102E100003C1E5F004C1DFF005C1E0F006C1E1F057
:102E200007C1E2F008C1E3F009C1E4F07450020FF9
:102E3000166E74EC15F016501200FFFFFFFF07C06E
:102E400009F0030E0916093ABD500918CF0B0918ED
:102E5000BD6E07C009F008C00AF0D8900A320932E6
:102E6000D8900A3209320950BE6E1200FFFFFFFFF0
:102E7000086E080E096E0A6AFFFFD89008340A34FB
:102E80000A6ED890083607500A5C02E307500A5EC3
:102E9000092EF2D70A501200FFFFFFFF72503D08C3
:102EA0000F6EFFFF3C0E0F6401D009D0FFFF000E34
:102EB000076E086E0F50B5EC04F00F2AF2D7FFFF33
:102EC0001200FFFFFFFFF29EB2C00BF0B3C00CF088
:102ED000B4C00DF0B5C00EF0F28E0BC007F00CC000
:102EE00008F00DC009F00EC00AF01200FFFFFFFF4E
:102EF000076AFFFF0750900FD96EDA6ADF6A075042
:102F0000800FD96EDA6ADF6A072A0E0E0764F1D7DE
:102F10000E0CFFFFFFFF78280EE0F29E07C0D9FFDE
:102F200008C0DAFF78C0DFFF09C0D9FF0AC0DAFFA6
:102F300077C0DFFFF28E1200FFFFFFFF782802E16B
:102F4000000E0BD0F29E07C0D9FF08C0DAFFC4C044
:102F5000DEFFC5C0DDFFF28E010EFFFF1200FFFF96
:102F6000FFFF0F6E010E076E086E060EAAEC0EF044
:102F7000020E076E010E086E0F50B5EF04F0FFFF52
:102F8000FFFF076E01C108F0D5C000F10850800FA7
:102F90000101016F07C002F1030E746E030CFFFF05
:102FA000FFFF076E0750D96EDA6ADECFD9F0DECFA9
:102FB000DAF0DECFDBF0DECFDCF01200FFFFFFFF48
:102FC0000B6E0001C96BC9830BC0D5F0040E0760FE
:102FD00000D0FFFF1200FFFFFFFFC9C002F1030E88
:102FE000746E7450020F166E74EC15F016501200C9
:102FF000FFFFFFFFAC6AAC8AAC84400EAF6EAB6AD9
:10300000AB8EAB88949A8B9A1200FFFFFFFFCCC067
:1030100002F1030E746E74C016F074EC15F01650C5
:103020001200FFFFFFFF0E6E0CC007F00DC008F08E
:103030000E50DFEF17F0FFFFFFFF0F0EBD12CB6842
:10304000CA82CA9094941200FFFFFFFFD92B000E92
:10305000DA23DB23DC23000CFFFFFFFF0001CF6B33
:10306000CA9494841200FFFFFFFFF29E3BEC18F01D
:10307000F28E1200FFFFFFFF716A0001C76BC66B83
:103080001200FFFFFFFF7250695C3D0F1200FFFF4F
:10309000FFFF0001C6511200FFFFFFFFE60E120006
:1030A000FFFFFFFFE50E1200FFFFFFFFE20E120021
:1030B000FFFFFFFFE10E1200FFFFFFFFE00E120017
:1030C000FFFFFFFFDF0E1200FFFFFFFFD90E120010
:0B30D000FFFFFFFF1200FFFFFFFFFFEC
:020000040020DA
:08000000000100FFFFFFFFFFFC
:020000040030CA
:0E000000FF22070EFF0185FF0FC00FE00F402B
:0200000400F00A
:10000000117FFF0609FF01041003FF1517090B06F6
:0800100009000130200000008E
:00000001FF
