:0600000000F040EF00F0EB
:0A000800FFFF7882FFFF8AEF13F07C
:10001800FFFF7880FFFFD8CF01F0E8CF02F0E0CFF4
:1000280003F0D9CF04F0DACF05F09EBA9DAA16D016
:10003800FFFF9EAAFDD7AECF06F0000E0001C8252F
:10004800D96EDA6A020EDA2206C0DFFFC92BC82988
:1000580002E1C86B01D0C82BFFFF9E9AFFFF05C0C5
:10006800DAFF04C0D9FF03C0E0FF02C0E8FF01C007
:0C007800D8FF78901000FFFFFAEF12F0A4
:1006000000010203040506070F1011152B54616247
:100610006C6F207320726173706973616E69656DB0
:10062000207475726F005461626C6F207320726168
:1006300073706973616E69656D00687474703A2FC8
:100640002F626F6C69642E727500526173706973EA
:10065000616E69650043323030302D424900424FAF
:100660004C494400312E3031004D4D4D0000FFFF0C
:10067000446E4450D96EDA6A0A0ED926010EDBBEEA
:1006800012D0DB5003E1460EDE5C0DE34450D96E20
:10069000DA6A0A0ED926010EDBBE0BD0DB5003E16D
:1006A0008B0EDE5C06E3FFFF4068416842684368EA
:1006B0005CD1FFFF4450D96EDA6A0A0ED926DECF2C
:1006C00032F0DDCF33F06C0E32241E6E070E332075
:1006D0001F6E4450D96EDA6A080ED926DECF34F088
:1006E000DDCF35F03428206E000E3520216E4450C9
:1006F000D96EDA6A060ED926DECF22F0DDCF23F0DE
:1007000021EC11F01EC040F01FC041F020C042F0AB
:1007100021C043F0070E1F6EB20E1E6E216A010E3D
:10072000206E236A226E21EC11F01E50405E1F5095
:10073000415A2050425A2150435A4450D96EDA6AE5
:10074000040ED926DECF32F0DDCF33F032C034F0E4
:1007500033C035F0000E35BEFF0E366E376E40C02A
:1007600038F041C039F042C03AF043C03BF0180EB7
:100770003802F3CF3CF0F4CF3DF03E6A3F6A3902D5
:10078000F3503D26F4503E22000E3F223802F35033
:100790003D26F4503E22000E3F22180E3A02F3503E
:1007A0003E26F4503F22000E3902F3503E26F4500C
:1007B0003F22000E3802F3503E26F4503F22180E1E
:1007C0003B02F3503F26000E3A02F3503F26000E44
:1007D0003902F3503F26000E3802F3503F263450C2
:1007E0003C24406E35503D20416E36503E20426ED6
:1007F00037503F20436E4450D96EDA6A020ED92634
:10080000DECF32F0DDCF33F032C034F033C035F01C
:10081000000E35BEFF0E366E376E40C038F041C058
:1008200039F042C03AF043C03BF03C0E3802F3CFFF
:100830003CF0F4CF3DF03E6A3F6A3902F3503D266A
:10084000F4503E22000E3F223802F3503D26F45071
:100850003E22000E3F223C0E3A02F3503E26F45058
:100860003F22000E3902F3503E26F4503F22000E84
:100870003802F3503E26F4503F223C0E3B02F35028
:100880003F26000E3A02F3503F26000E3902F35085
:100890003F26000E3802F3503F2634503C24406E71
:1008A00035503D20416E36503E20426E37503F203D
:1008B000436E4450D96EDA6ADECF32F0DDCF33F0CA
:1008C00032C034F033C035F0000E35BEFF0E366E48
:1008D000376E40C038F041C039F042C03AF043C0F2
:1008E0003BF03C0E3802F3CF3CF0F4CF3DF03E6AD3
:1008F0003F6A3902F3503D26F4503E22000E3F225B
:100900003802F3503D26F4503E22000E3F223C0EAA
:100910003A02F3503E26F4503F22000E3902F350C3
:100920003E26F4503F22000E3802F3503E26F4508B
:100930003F223C0E3B02F3503F26000E3A02F3509A
:100940003F26000E3902F3503F26000E3802F350C6
:100950003F2634503C24406E35503D20416E365089
:100960003E20426E37503F20436EFFFF40C02EF0C6
:1009700041C02FF042C030F043C031F01200FFFF01
:10098000FFFF0C6E0C5001E171D13C0E0C6401D0E4
:100990006DD1FFFF0C060C40E8423F0B0D6E0CC002
:1009A00009F0030E0916D89009340E6E53D10EC00B
:1009B00009F0092A010E0A6E092A03D0FFFFD89018
:1009C0000A36FFFF092EFAD70A1C0B6E0D50900F46
:1009D000D96EDA6A0B50DF160EC009F0010E0A6EEE
:1009E000092A03D0FFFFD8900A36FFFF092EFAD755
:1009F0000A1C0B6E0D50900FD96EDA6A0B50DF1681
:100A00000EC009F0092A010E0A6E092A03D0FFFF61
:100A1000D8900A36FFFF092EFAD70A1C0B6E0D502C
:100A2000800FD96EDA6A0B50DF160EC009F0010E86
:100A30000A6E092A03D0FFFFD8900A36FFFF092E5D
:100A4000FAD75FD00EC009F0092A010E0A6E092AF2
:100A500003D0FFFFD8900A36FFFF092EFAD70D50BA
:100A6000900FD96EDA6A0A50DF120EC009F0010E3B
:100A70000A6E092A03D0FFFFD8900A36FFFF092E1D
:100A8000FAD70A1C0B6E0D50900FD96EDA6A0B5014
:100A9000DF16085014E00EC009F0092A010E0A6E94
:100AA000092A03D0FFFFD8900A36FFFF092EFAD794
:100AB0000D50800FD96EDA6A0A50DF1215D00EC0C1
:100AC00009F0092A010E0A6E092A03D0FFFFD89007
:100AD0000A36FFFF092EFAD70A1C0B6E0D50800F45
:100AE000D96EDA6A0B50DF16FFFF0EC009F0010E57
:100AF0000A6E092A03D0FFFFD8900A36FFFF092E9D
:100B0000FAD7FFFF0A1C0B6E0D50800FD96EDA6A00
:100B10000B50DF16ABD00EC009F0092A010E0A6E89
:100B2000092A03D0FFFFD8900A36FFFF092EFAD713
:100B30000A1C0B6E0D50900FD96EDA6A0B50DF163F
:100B40000EC009F0010E0A6E092A03D0FFFFD890EB
:100B50000A36FFFF092EFAD70D50900FD96EDA6AC8
:100B60000A50DF120EC009F0092A010E0A6E092A86
:100B700003D0FFFFD8900A36FFFF092EFAD7FFFFF8
:100B80000A1C0B6E0D50800FD96EDA6A0B50DF16FF
:100B90000850AAE00EC009F0010E0A6E092A03D01F
:100BA000FFFFD8900A36FFFF092EFAD70D50800FAD
:100BB000D96EDA6A0A50DF1259D00EC009F0092A3C
:100BC000010E0A6E092A03D0FFFFD8900A36FFFFF4
:100BD000092EFAD70D50900FD96EDA6A0A50DF123B
:100BE0000EC009F0010E0A6E092A03D0FFFFD8904B
:100BF0000A36FFFF092EFAD70D50900FD96EDA6A28
:100C00000A50DF12085014E00EC009F0092A010E44
:100C10000A6E092A03D0FFFFD8900A36FFFF092E7B
:100C2000FAD70D50800FD96EDA6A0A50DF120ED053
:100C30000EC009F0092A010E0A6E092A03D0FFFF2F
:100C4000D8900A36FFFF092EFAD799D7FFFF085030
:100C5000A1E14AD7FFFF075001E1A9D6010A01E14E
:100C6000F1D6030A01E157D7010AA7E0FFFF1200FE
:100C7000FFFFFFFF0C6E0C50D96EDA6ADECF08F072
:100C8000DECF09F0DECF0AF0DECF0BF00001B45169
:100C9000085CA86FB5510958A96FB6510A58AA6FD8
:100CA000B7510B58AB6FC651086EC751096E0A6A2F
:100CB0000B6AA851085CA9510958AA510A58AB51AE
:100CC0000B580EE2010E736E0C50D96EDA6ADECF4D
:100CD000B4F0DECFB5F0DECFB6F0DECFB7F0F1D0B6
:100CE000735001E1EED0C451086EC551096E0A6A15
:100CF0000B6AA851085CA9510958AA510A58AB516E
:100D00000B5801E3DED0736ADCD0F00E8916735005
:100D100003E090C08AFF03D0905180198A6EFFFFD4
:100D2000000E99EC14F0735003E091C08AFF04D0D8
:100D30000001915181198A6EFFFF010E99EC14F0A8
:100D4000735003E092C08AFF04D0000192518219CF
:100D50008A6EFFFF020E99EC14F0735003E09CC002
:100D60008AFF04D000019C518C198A6EFFFF030E8C
:100D700099EC14F08980B0D0F00E8916735003E01E
:100D800093C08AFF03D0935183198A6EFFFF000E30
:100D900099EC14F0735003E094C08AFF04D0000172
:100DA000945184198A6EFFFF010E99EC14F0735070
:100DB00003E095C08AFF04D00001955185198A6E21
:100DC000FFFF020E99EC14F0735003E09DC08AFF00
:100DD00004D000019D518D198A6EFFFF030E99EC1E
:100DE00014F0898279D0F00E8916735003E096C012
:100DF0008AFF03D0965186198A6EFFFF000E99EC88
:100E000014F0735003E097C08AFF04D0000197519B
:100E100087198A6EFFFF010E99EC14F0735003E0FE
:100E200098C08AFF04D00001985188198A6EFFFF8C
:100E3000020E99EC14F0735003E09EC08AFF04D0B8
:100E400000019E518E198A6EFFFF030E99EC14F07B
:100E5000898442D0F00E8916735003E099C08AFF4E
:100E600003D0995189198A6EFFFF000E99EC14F096
:100E7000735003E09AC08AFF04D000019A518A1986
:100E80008A6EFFFF010E99EC14F0735003E09BC0D3
:100E90008AFF04D000019B518B198A6EFFFF020E5E
:100EA00099EC14F0735003E09FC08AFF04D0000156
:100EB0009F518F198A6EFFFF030E99EC14F08986FB
:100EC0000BD0FFFFD65101E120D7010A01E154D731
:100ED000030A89E0010ABEE0FFFF0001D62BD69588
:100EE0001200FFFFFFFFFE0E7224D96EDA6A000EB9
:100EF000DA22DF50156E146AFF0E7224D96EDA6A98
:100F0000000EDA22DF501410206E1550216E725040
:100F1000FE0F55EC12F02050071803E1215008187D
:100F200002E0FF0E0CD1226A256AFFFF2550010F57
:100F3000146E14C0F6FF060EF76E0800FFFFF550A2
:100F40000101011903E1010E226E04D0252A0B0EC6
:100F50002564EBD7FFFF225002E1010EF0D0236A97
:100F6000246ACAD00251146E0351286E14C029F0AD
:100F70000451146E0551236E14C024F0245003E173
:100F8000110E235C02E3030EDAD0295010E1100E9B
:100F9000285C0DE223502824146E24502920156E5D
:100FA000155005E1110E145CFFFF01E2C4D0FFFFF4
:100FB000020EC5D00251146E0351286E14C029F0E0
:100FC00004C127F0275002E02728DDE12950EFE196
:100FD000100E285CE9D70251146E0351286E14C01C
:100FE00029F0FFFF28C027F027500001CC5DFFFF4C
:100FF000DEE3A1D00251146E0351286E14C029F013
:10100000055104C114F0156A14C015F0146A1412C5
:10101000145028261550292228C027F027500001F7
:10102000CD5DE5D70251146E0351286E14C029F02E
:10103000055104C114F0156A14C015F0146A141295
:101040001450282615502922CCD7060E0319AFE1DB
:101050000451ADE10505ABE1075106C114F0156A75
:1010600014C015F0146A1412000ED89014361536F8
:1010700014C018F015C019F019BEFF0E1A6E1B6EC1
:10108000095108C114F0156A14C015F0146A14123D
:10109000000ED8901436153614C01CF015C01DF083
:1010A0001DBEFF0E1E6E1F6E1C501824146E1D50A8
:1010B0001920156E1E501A20166E1F501B20176E19
:1010C0001750161002E115046FD771D70E0E0219D2
:1010D00001E043D703C126F0260407E0020E2618DC
:1010E00004E0040E261801E04ED7040E261823E172
:1010F000060E046520D05BD7FFFF0151010A01E114
:1011000031D7030A01E12ED7010A8CE0070A01E179
:1011100071D7010A01E14ED7030A01E15CD7090A40
:1011200001E120D71F0A01E17DD7010A04E0040A8A
:101130008CE03E0ACBE0FFFF01C1DFF0000EFFFFB5
:101140001200FFFFFFFF6EEC16F013EC12F0C4EC80
:1011500011F0CCEC15F007C0E7F008C0E8F009C0CA
:10116000E9F00AC0EAF04EEC16F00001EB69010E5E
:10117000076E000E086E070E03EC0EF0010E076EF0
:10118000086E050E03EC0EF0FFFFCCEC15F007C067
:10119000EDF008C0EEF009C0EFF00AC0F0F0ED0E7F
:1011A00039EC06F0CE510BE0A051ED5DA151EE59A6
:1011B000A251EF59A351F05902E374EC10F082B23E
:1011C00008D0762804E0010EDEEC14F002D013EC17
:1011D00016F0FFFF0001E751ED5D6A6EE851EE5930
:1011E0006B6EE951EF596C6EEA51F0596D6E6D50AE
:1011F0006C1005E1E80E6A5C030E6B584AE357EC8D
:1012000016F0762815E066EC16F0D96EDA6A000161
:10121000AC51DE5CAD51DE58AE51DE58DE50800A76
:101220006E6EAF51800A6E5803E3000EDEEC14F0D0
:1012300066EC16F0D96EDA6ADECFB4F1DDCFB5F127
:101240000001EC6BF16BF10E076EEC0EB6EC15F0D5
:1012500000090FE00001F151EB190BE0EC516A6E4F
:10126000F1510101AC6F6AC0ADF1F1C0EBF0BBEC24
:101270000FF00001EC516A6EF1510101B26F6AC0CA
:10128000B3F1EDC0E7F0EEC0E8F0EFC0E9F0F0C078
:10129000EAF0BCC02AF0BDC02BF0DD0E2C6EAA0E09
:1012A0002D6E010E2E6E0F0E2F6E8C0E306E010EF7
:1012B000316E0F0E326E60EC09F0C9EC0AF064D7A3
:1012C000FFFF0001DF6B2FC0CDF032C0CCF06AEC25
:1012D00016F0336E335003E1FFFF000EA6D0D3515A
:1012E000331812E033C0D3F0050ECCEC15F0072410
:1012F0000001A46F000E0820A56F000E0920A66F44
:10130000000E0A20A76FE8D7CCEC15F00001A4511D
:10131000075CA5510858A6510958A7510A58DCE3A3
:10132000D36BBCEC14F0346E040E346003D0FFFFBA
:1013300034507BD0FFFFD25101010019CDE172EC96
:1013400007F0356E355009E0352805E03550F4ECEE
:1013500015F02CEC14F0355068D0CCEC15F049D0D9
:101360002C50D96EDA6ADECF16F0DDCF17F064ECC0
:101370000BF05BD02AC016F02BC017F064EC0BF01A
:1013800054D030C016F031C017F032C018F019EC4C
:1013900010F04BD02DC016F02EC017F02FC018F053
:1013A00019EC10F042D02C5073EC11F03ED030C04C
:1013B00016F031C017F032C018F05CEC13F035D0E5
:1013C0002EEC16F032D02C507FEC0CF02ED030C02A
:1013D00016F031C017F032C018F0F3EC0EF025D043
:1013E0008FEC12F022D0CBEC10F01FD018EC0AF0EA
:1013F0001CD0FFFF01010151010AB2E0030ABAE06B
:10140000010ABFE0070AC6E0010ACDE0030ACFE007
:10141000010AD6E0080AD7E01F0AD9E0010AE0E095
:10142000040AE1E03E0AE2E082D7FFFF1200FFFF7C
:10143000FFFF03C116F004C118F00101056B066B34
:10144000080E726E94D0810E046F030E076F5E0E4D
:10145000076E060E086E000E2CEC13F0550E076E8C
:10146000090E086E010E2CEC13F0640E076E050ECB
:10147000086E020E2CEC13F084D0820E046F040E62
:10148000076F3A0E076E100E086E030E2CEC13F069
:10149000260E076E140E086E040E2CEC13F0690E67
:1014A000076E040E086E050E2CEC13F04A0E076E44
:1014B0000B0E086E060E2CEC13F063D0010E076FB6
:1014C00046D0810E046F5E0E076E060E086E185031
:1014D0002CEC13F056D0810E046F550E076E090EDA
:1014E000086E18502CEC13F04CD0810E046F640E73
:1014F000076E050E086E18502CEC13F042D0820EC9
:10150000046F3A0E076E100E086E18502CEC13F094
:1015100038D0820E046F260E076E140E086E185017
:101520002CEC13F02ED0820E046F690E076E040EA1
:10153000086E18502CEC13F024D0820E046F4A0E63
:10154000076E0B0E086E18502CEC13F01AD0FFFF2C
:101550001850B7E0010ABFE0030AC7E0010ACFE074
:10156000070AD7E0010ADFE0030AE7E00AD0FFFF3D
:101570001650010A01E167D7030A01E17ED7060A86
:101580009DE0FFFF72C017F02CEC14F01750120012
:10159000FFFFFFFFE10E076EE40E89EC15F000017E
:1015A000E66FE651D96EDA6ADF5001E18AD06668EB
:1015B0006768E4C068F0E5C069F066506826675067
:1015C00069226850E1276950E223E651D96EDA6A50
:1015D000060EDE1806E0E651D96EDA6A100EDE1845
:1015E00062E1E451E5115FE18DC1E0F046D0FF001A
:1015F00068D071EC15F0010E076E000E06EC14F0C9
:101600004CD0D86BFFFFA6B2FDD7120EA96EA86A08
:10161000D890F2BED880F29EA684550EA76EAA0E70
:10162000A76EA682A69401E3F28E010E076E000E4D
:1016300006EC14F032D08EC1E3F0E351030B076ED9
:10164000E341E8423F0B010B086E01018F51C0ECF2
:1016500004F001018E6B8F6B010E076E000E06EC1D
:1016600014F01BD08EC115F0166A01018C517EEC6E
:101670000EF013D0C6EC12F010D0FFFFE051010ABB
:101680000CE0110AB6E06F0AB2E0FF0ABAE0020A03
:10169000D2E0010AEFE0120AE5E0FFFF01018C6BE6
:1016A0008D6B8E6B8F6B0001E651D96EDA6A150E69
:1016B000DE1807E1C4EC11F0010E076E000E06EC17
:1016C00014F0FFFF1200FFFFFFFF01010251186E2F
:1016D0000351206E18C021F020C0BEF021C0BFF021
:1016E0000451186E0551256E18C026F025C0C0F0B3
:1016F00026C0C1F025C018F026C019F0D8901932C4
:101700001832D89019321832D8901932183218502D
:101710001F6E25C018F0070E181601E01F2A1FC003
:1017200002F1030E726E246A226A236A4FD022509D
:1017300020241B6E235021201C6E1BC01DF01DC0D9
:1017400018F016C019F017C01AF0182A04D0FFFFBD
:10175000D8901A321932FFFF182EF9D719A015D0D8
:1017600024C018F0010E196E182A03D0FFFFD8907C
:101770001936FFFF182EFAD7000E7224D96EDA6AD6
:10178000010EDA221950DF1217D0FFFF24C018F023
:10179000010E196E182A03D0FFFFD8901936FFFFEB
:1017A000182EFAD7191C1A6E000E7224D96EDA6A36
:1017B000010EDA221A50DF16FFFF242A070E2464D6
:1017C00002D0246A722AFFFF224A232AFFFF2550F3
:1017D000225C26502358ABE325C018F0070E1816DC
:1017E00001E0722A7250020F1E6E2CEC14F01E5093
:1017F0001200FFFFFFFF0001D8517EE00C0E076EC4
:101800000B0EB6EC15F0000977E0752802E1756A59
:1018100001D0752AFFFF7650096E75500101AE6F39
:1018200009C0AFF10001D851755C07E37568D56B4D
:10183000D46B0101B06BB16B5FD07550020DF350EA
:10184000130FA96EA680A8CF0DF00D501F0BD46FFB
:101850000D38E842070BC26FC36B1AD0C36B0A0E78
:1018600011D0C36B1E0E0ED0C36B3C0E0BD0010EFD
:10187000C36F2C0E07D0020EC36FD00E03D0070E1D
:10188000C36F080EFFFFC26F19D0C269C36916D0BB
:10189000FFFFC2C009F0C3C00AF00A500FE10950AF
:1018A000010ADCE0030ADDE0010ADEE0070ADFE00E
:1018B000010AE1E0030AE3E0010AE7E0FFFF7550F7
:1018C000020DF350140FA96EA680A8CF0DF00D5095
:1018D0003F0BD56F0D44E846030BCF6FD451096E13
:1018E000D5510101B06F09C0B1F10B500001D45DB9
:1018F0008CE3D5510C5C89E2FFFF1200FFFFFFFF74
:10190000246E01010251166E0351206E16C021F0A3
:1019100020C0BEF021C0BFF00451166E0551226EEA
:1019200016C023F022C0C0F023C0C1F0286A070E01
:101930001F6E266A276A58D0265020241B6E275017
:1019400021201C6E1BC025F028C016F0000E1F249D
:10195000D96EDA6A010EDA22DF50176E162A03D02A
:10196000FFFFD8901732FFFF162EFAD71750010B42
:101970001E6E1E5016E025C016F0010E176E186A76
:10198000162A04D0FFFFD89017361836FFFF162E00
:10199000F9D72450D96EDA6A1750DE121850DD12CA
:1019A00019D025C016F0010E176E186A162A04D039
:1019B000FFFFD89017361836FFFF162EF9D7171CE1
:1019C000196E181C1A6E2450D96EDA6A1950DE1678
:1019D0001A50DD16FFFF282A070E286402D0286A55
:1019E0001F2AFFFF264A272AFFFF2250265C23508A
:1019F0002758A2E3060E726E7250020F1D6E2CEC79
:101A000014F01D501200FFFFFFFF0E50126E0F501A
:101A1000136E146A156A6D0E1202F3CF16F0F4CF2E
:101A200017F0186A196A1302F3501726F450182297
:101A3000000E1922010E1202F3501726F45018223C
:101A4000000E19226D0E1402F3501826F4501922BC
:101A5000010E1302F3501826F4501922000E120240
:101A6000F3501826F45019226D0E1502F350192662
:101A7000010E1402F3501926000E1302F35019261A
:101A8000000E1202F350192616C01AF017C01BF0F0
:101A900018C01CF019C01DF00EC007F00FC008F0F0
:101AA0000A6A640E096EB6EC13F00EC012F00FC095
:101AB00013F0D89013321232D890133212320750EA
:101AC000125E0850135A12501A2613501B22000E91
:101AD0001C221D220EC007F00FC008F0010E0A6E76
:101AE000900E096EB6EC13F007501A2608501B2210
:101AF000000E1C221D221AC00EF01BC00FF01CC0CD
:101B000010F01DC011F0000CFFFFFFFF196ED59EF5
:101B10001950D96EDA6ADF50776E0B50D96EDA6AD7
:101B2000DF50746E0C50D96EDA6ADF501A6E060EF2
:101B3000076E1A50FFEC14F00001CA6F060E076E14
:101B40001A50A0EC15F00D6E0D5006081B6E1BC050
:101B50000DF00E6A0F6A106ADB0E0D02F3CF11F062
:101B6000F4CF12F0136A146A0E02F3501226F450E6
:101B70001322000E1422D90E0D02F3501226F45037
:101B80001322000E1422DB0E0F02F3501326F45022
:101B90001422D90E0E02F3501326F4501422FF0E15
:101BA0000D02F3501326F4501422DB0E1002F350F2
:101BB0001426D90E0F02F3501426FF0E0E02F35016
:101BC0001426FF0E0D02F3501426000E1124156E7C
:101BD000000E1220166E010E1320176E000E142038
:101BE000186E16C015F017C016F018C017F0186A56
:101BF00017BE18681550D76E1B50DB0DF3CFD6FFFC
:101C0000D58E1200FFFFFFFF0E6E070E0E6401D08F
:101C100072D0FFFF075010E00EC009F0010E0A6EEF
:101C2000092A03D0FFFFD8900A36FFFF092EFAD702
:101C30000A5000019F130FD00EC009F0010E0A6E6A
:101C4000092A03D0FFFFD8900A36FFFF092EFAD7E2
:101C50000A1C00019F17FFFF085010E00EC009F09A
:101C6000010E0A6E092A03D0FFFFD8900A36FFFF43
:101C7000092EFAD70A5000018F130FD00EC009F0B9
:101C8000010E0A6E092A03D0FFFFD8900A36FFFF23
:101C9000092EFAD70A1C00018F17FFFF075014E026
:101CA0000EC009F0010E0A6E0B6A092A04D0FFFF6C
:101CB000D8900A360B36FFFF092EF9D70A500001DB
:101CC000DD130B50DE1317D00EC009F0010E0A6EA3
:101CD0000B6A092A04D0FFFFD8900A360B36FFFFA3
:101CE000092EF9D70A1C0C6E0B1C0D6E0C5000014E
:101CF000DD170D50DE17FFFF1200FFFFFFFF1B6E09
:101D000071501B5C6EE21550161006E10001B86BB5
:101D1000B96BBA6BBB6B23D0152808E1162806E116
:101D20000001B869B969BA69BB6919D066EC16F0E7
:101D3000D96EDA6ADECF17F0DECF18F0DECF19F0F9
:101D4000DECF1AF0155017240001B86F1650182076
:101D5000B96F000E1920BA6F000E1A20BB6FFFFF7B
:101D60001B508D0FA96EA680A8CF1CF01C5071C00F
:101D700017F0186A1726000E18228C0E1726000E70
:101D8000182218BE02D018042CE2FFFF71501C2448
:101D90008D0FA96EA680A8CFD1F071501C248E0F94
:101DA000706ED151176E70500101B86F17C0B9F144
:101DB0000001D151030D7050F326000EF422F4BE41
:101DC00002D0F4040EE2FFFFD06B010ECE6F74EC74
:101DD00010F07150176E0001CE510101B66F17C09F
:101DE000B7F11200FFFFFFFF0101035102C119F01B
:101DF0001A6A19C01AF0196A1910206E1A50216E49
:101E000020C0BEF021C0BFF005C122F022C0C0F04A
:101E10000001C16B0101046B22C005F1060E726E58
:101E2000236A2CD02350020D080EF324D96E010E24
:101E3000F420DA6EDF50196E2350020D070EF324E2
:101E4000D96E010EF420DA6EDF501A6E19501D6E35
:101E50001AC01EF023502024196E000E21201A6E85
:101E6000D89019361A3619501624D96E1A501720E0
:101E7000DA6E1DC0DEFF1EC0DDFF232AFFFF2250E9
:101E8000235C0EE21850196E1A6A235020241B6E30
:101E9000000E21201C6E19501B5C1A501C58C2E306
:101EA0007250020F1F6E2CEC14F01F501200FFFF37
:101EB000FFFF4D6E4650D96EDA6ADECF47F0DDCFB8
:101EC00048F048C047F0486A640E4724586E000E38
:101ED0004820596E4650D96EDA6ADECF47F0DDCF22
:101EE00048F04750566E576A4550D96EDA6ADECFD1
:101EF00047F0DDCF48F04850546E556A4D50D96ECA
:101F0000DA6ADECF47F0DDCF48F04850526E536AB0
:101F10004D50D96EDA6ADECF47F0DDCF48F047503A
:101F2000506E516A4550D96EDA6ADECF47F0DDCF88
:101F300048F047504E6E4F6A500E0B6E4E0E0C6EB0
:101F40004E0E040F85EC0DF04E0E37EC03F02EC054
:101F500049F02FC04AF030C04BF031C04CF0490E70
:101F600004EC16F0000E076E086E050E03EC0EF082
:101F7000FAEF0BF0FFFFFFFF752859E0220E076E06
:101F8000210EB6EC15F0000952E021500CE1225070
:101F90000AE1E1EC15F0756876501D6E755001018F
:101FA000AE6F1DC0AFF121500001D41940E12250A5
:101FB000D5193DE1762806E0020E076E086A7628FC
:101FC000C0EC04F075C076F0030E076E010E086ECB
:101FD0007628C0EC04F00001CF5107E0C2C015F034
:101FE000C3C016F0CF057EEC0EF066EC16F0D96E8D
:101FF000DA6ADECF1DF0DECF1EF0DECF1FF0DECFBF
:1020000020F00001D7511D24AC6F000E1E20AD6FD3
:10201000000E1F20AE6F000E2020AF6FFAEC0BF009
:1020200076501D6E75500101AE6F1DC0AFF11200EC
:10203000FFFFFFFF03C120F020C0BEF00001BF6B17
:1020400001010451196E05511E6E19C01FF01EC00A
:10205000C0F01FC0C1F01E501E24026F030E726E2E
:1020600020C021F02AD0000E7224D96EDA6A010E47
:10207000DA222150020DF3501624E16EF45017209D
:10208000E26EE6CF19F0E5CF1AF01AC019F01A6A1D
:102090001950DF6E722A2150020DF3501624D96EAA
:1020A000F4501720DA6E000E7224E16EE26A010E1F
:1020B000E222DFCFE7FF722A212AFFFF20501E24F1
:1020C000196E000E1F201A6E21501B6E1C6A1950CB
:1020D0001B5C1A501C58C7E37250020F1D6E2CEC8B
:1020E00014F01D501200FFFFFFFFD151D05D16E329
:1020F000D06B66EC16F0D96EDA6A0001B851DE5C7E
:10210000B951DE58BA51DE58DE50800A136EBB5109
:10211000800A135803E313EC16F03AD0D051030DA4
:10212000F3507024A96EA680A850106E0F6ACCECF4
:1021300015F00F5007240001A06F10500820A16F68
:10214000000E0920A26F000E0A20A36FD051030DCC
:10215000F35070240F6E0F28A96EA680A8CFCBFF76
:10216000D051030DF3507024020FA96EA680A8CFA2
:1021700014F0D02B145002E0CB5003E1CA949484A5
:1021800007D014C007F0086A58EC15F09494CA847C
:10219000FFFF1200FFFFFFFF02C118F0010107510E
:1021A00006C116F0176A16C017F0166A1612D890F4
:1021B00016341A6E17341B6E1AC0BEF01BC0BFF067
:1021C000095108C116F0176A16C017F0166A1612E0
:1021D000D89016341C6E17341D6E1CC0C0F01DC084
:1021E000C1F01828726E1E6A1CD0FFFFA6B2FDD780
:1021F0001E501A24A96E0A0E1E24D96EDA6A010E28
:10220000DA22DF50A86ED890F2BED880F29EA68463
:10221000550EA76EAA0EA76EA682A69401E3F28EB3
:102220001E2AFFFF1E50166E176A1C50165C1D50AA
:102230001758DBE372C019F02CEC14F0195012009F
:10224000FFFFFFFF20C00EF021C00FF076EC14F06E
:1022500022500E2623500F220EC02AF00FC02BF062
:102260002C6A2D6A215003E1030E205C21E31EC07D
:102270000CF01FC00DF0E0EC13F00C500D1003E15A
:10228000296A020E02D0296A010EFFFF286E28C0BB
:1022900024F029C025F0000E25BEFF0E266E276E05
:1022A00024502A5E25502B5A26502C5A27502D5A3E
:1022B0001E06D8A01F061EC00EF01FC00FF004ECB3
:1022C0000DF00E502A260F502B2210502C221150A8
:1022D0002D222AC01EF02BC01FF02CC020F02DC0D4
:1022E00021F01200FFFFFFFF1E6E01010251166E6A
:1022F00003511C6E16C01DF01CC0BEF01DC0BFF007
:102300000001C16B010EC06F1C500F0B1F6E01014D
:10231000042916E11FC016F0010E176E186A162A5E
:1023200004D0FFFFD89017361836FFFF162EF9D7C6
:102330001E50D96EDA6A1750DE121850DD1219D00D
:102340001FC016F0010E176E186A162A04D0FFFF80
:10235000D89017361836FFFF162EF9D7171C196EAE
:10236000181C1A6E1E50D96EDA6A1950DE161A50F1
:10237000DD16FFFF060E726E7250020F1B6E2CEC04
:1023800014F01B501200FFFFFFFF0A0EA96EA6807B
:10239000A8CFD7F00F0EA96EA680A8500F6E106AB6
:1023A000060EFFFFD8900F361036E82EFAD70FC072
:1023B000C4F010C0C5F0100EA96EA680A8500F6E14
:1023C000106A060EFFFFD8900F361036E82EFAD7A7
:1023D0000FC0C6F010C0C7F0120EA96EA680A8CF1D
:1023E000D8F08C0EA96EA680A8CF71F0712801E1FB
:1023F000716A010EA96EA6800C6A0D6AA8503AECAB
:1024000016F0E1EC15F075680001D56B7668FAEC12
:102410000BF071500F6E0001CE510101B66F0FC06D
:10242000B7F11200FFFFFFFFF28CF28ED08ECD8E3F
:10243000CD94CD92CF0ECD169D809F80F60ECF6E9F
:102440003C0ECE6E9E90CD80D59CD59AD596070E2B
:10245000D512F28AF1841B0ED76E220ED66EF2943C
:102460005FEC16F021EC16F09D8A9F9A076AFFFF39
:102470000750020DAA0EF324D96E010EF420DA6E75
:10248000DE6ADD6A072A0E0E0764F1D7936A899027
:102490008992899489969290929292949296948637
:1024A000948294908B941200FFFFFFFF0F6E1268CE
:1024B0001368106A1ED0000E1024D96EDA6A010E5D
:1024C000DA22DF50121A010E116EFFFF010E1214F4
:1024D0000D6E0E6AD890133212320D500E1004E0B9
:1024E000010E121AA00E131A112A080E1164EDD74C
:1024F000102AFFFF0F50105CDEE313C00BF00C6AD4
:1025000012500A6E096A0B500910126E0C500A1014
:10251000136E12C007F013C008F01200FFFFFFFF98
:102520001B0E0101026F030E726E186AFFFF185036
:102530000D0F166E16C0F6FF060EF76E000E722413
:10254000D96EDA6A010EDA220800FFFFF5CFDFFF4D
:10255000182A722A180E1864E9D7000E7224D96E50
:10256000DA6A010EDA22210EDF6E722A000E722460
:10257000D96EDA6A010EDA223E0EDF6E722A72C05E
:1025800017F02CEC14F017501200FFFFFFFF8CC166
:102590001EF01E50070B1F6E040E1F6401D027D0C3
:1025A000FFFF1D6A1EAE01D01D2A1DB009D0000E0E
:1025B000076E086E1F5003EC0EF013EC16F017D0E8
:1025C000FFFF010E076E1E44E846030B010B086E69
:1025D0001F5003EC0EF08EC115F0166A01018F51E9
:1025E0007EEC0EF0010E076E000E06EC14F0FFFFFD
:1025F0001200FFFF02EE00F011EE00F0EE6AE5506F
:10260000E150FCE1E250FAE101EE00F0C80EEE6AA2
:10261000E806FDE100EE80F0600EEE6AE806FDE1FE
:10262000746A736A726A716A706A6F6AE20EF66E31
:102630002C0EF76E000EF86E0900F5CF75F009004C
:10264000F5CF76F00900F5CF77F078907892000E0C
:10265000F86E0001A2EF08F0FFFF0A6E0806000EF8
:102660007224D96EDA6A010EDA220AC0DFFF722AFA
:10267000000E7224D96EDA6A010EDA2208C0DFFF7A
:10268000722A0B6A13D007500B24096E09C0F6FF9B
:10269000060EF76E000E7224D96EDA6A010EDA2287
:1026A0000800FFFFF5CFDFFF0B2A722AFFFF08505B
:1026B0000B5CE9E31200FFFFFFFF01010251196EFD
:1026C00003511E6E19C01FF01EC0BEF01FC0BFF028
:1026D0000001C16B010EC06F01010451196E05515B
:1026E0001B6E19C01CF0D8901E34D96E1F34DA6EE0
:1026F0001650D9261750DA221BC0DEFF1CC0DDFFA2
:10270000060E726E7250020F1D6E2CEC14F01D50EE
:102710001200FFFFFFFF9EB09DA00CD09E90000115
:10272000B02B000EB123B223B323F60ECF6E3C0EB6
:10273000CE6E18D0FFFFF2A415D0F2940001CA2B80
:102740000A0ECA190BE1CA6B742A3C0E741806E112
:10275000746A772A180E771801E1776A1B0ED76E14
:10276000220ED66EFFFF78921100FFFFFFFF0C6A6A
:102770000D6A09500A101EE0010E0B6E05D0FFFF16
:10278000D89009360A360B2AFFFF0AAEF8D7FFFFAA
:10279000D8900C360D360950075C0A50085805E3EE
:1027A0000950075E0A50085A0C80D8900A32093244
:1027B0000B2EEDD70CC007F00DC008F01200FFFF84
:1027C000FFFF010E0F6E0CC007F00DC008F00A6E7F
:1027D000900E096E52EC14F00750081012E00CC075
:1027E0000EF0030E0E160CE10CC007F00DC008F041
:1027F0000A6A640E096E52EC14F00750081001E1E9
:102800000F6A0FC00CF00D6A1200FFFFFFFF0A6E87
:10281000075010E00AC008F0010E096E082A03D024
:10282000FFFFD8900936FFFF082EFAD709500001A4
:10283000CB130FD00AC008F0010E096E082A03D08E
:10284000FFFFD8900936FFFF082EFAD7091C0001B8
:10285000CB17FFFF1200FFFFFFFF725055EC12F085
:1028600007C014F008C015F0000E7224D96EDA6AA1
:10287000010EDA2215C0DFFF722A000E7224D96E13
:10288000DA6A010EDA2214C0DFFF722A000E076E28
:10289000010E086E72C009F01EEC15F0726ACCEFE2
:1028A00015F0FFFFFFFF09500A101AE0010E0B6E32
:1028B00005D0FFFFD89009360A360B2AFFFF0AAE73
:1028C000F8D7FFFF0950075C0A50085804E3095085
:1028D000075E0A50085AD8900A3209320B2EF1D7F7
:1028E00007C007F008C008F01200FFFFFFFFF10E5D
:1028F000106E0B0E116E10500E02F3CF12F0F4CFCB
:1029000013F00F02F350132611500E02F35013264A
:10291000410E1224076EF40E1320086E0A6A640E2C
:10292000096EB6EC13F007C00EF008C00FF01200ED
:10293000FFFFFFFF076E14D08998929889889288CC
:1029400018D08B9694968B86948613D08B90949007
:102950008B8094800ED08B9294928B82948209D03B
:10296000FFFF0750E9E0010AECE0030AEFE0010A8B
:10297000F2E0FFFF1200FFFFFFFF096A726A11D049
:102980003DEC15F0086E000E7224D96EDA6A010E65
:10299000DA2208C0DFFF722A8B0E726402D0010EA9
:1029A000096EFFFF6AEC16F00009EAE1095002E047
:1029B000FD0E01D07250FFFF1200FFFFFFFF116EEE
:1029C000115003E1136A020E02D0136A010EFFFFD9
:1029D000126E12C007F0086A7628C0EC04F0766820
:1029E0000001AC6BAD6BAE6BAF6B13EC16F07650B9
:1029F0000F6E7550AE6F0FC0AFF11200FFFFFFFFFB
:102A0000086E0A6A075017E0010E096E04D0FFFF36
:102A1000D8900736092AFFFF07AEF9D7FFFFD890F5
:102A20000A360750085C03E30750085E0A80D89016
:102A30000732092EF3D70A501200FFFFFFFF8B8ADF
:102A4000060EFFFFE82EFDD700F00A6A0CD0FFFF4C
:102A5000ACA2FDD70A500724D96E000E0820DA6E0A
:102A6000DF50AD6E0A2AFFFF09500A5CF0E3FFFF5A
:102A7000ACA2FDD78B9A1200FFFFFFFFF29EC95157
:102A800012E0000E6F24D96EDA6A020EDA22DF50ED
:102A9000076EC9076F2802E16F6A01D06F2AFFFF36
:102AA000F28E075002D0F28E000EFFFF1200FFFFE1
:102AB000FFFF07C009F0030E0916093ABD500918B7
:102AC000CF0B0918BD6E07C009F008C00AF0D890F6
:102AD0000A320932D8900A3209320950BE6E120009
:102AE000FFFFFFFF8EC160F08FC161F090C162F007
:102AF00091C163F092C164F093C165F0620E456EBE
:102B0000640E466E600E58EC0FF00001BC8112009E
:102B1000FFFFFFFF096E095007E00950D96EDA6A1E
:102B2000BEC0DEFFBFC0DDFF075007E00750D96E13
:102B3000DA6AC0C0DEFFC1C0DDFFDF0E1200FFFF9A
:102B4000FFFF086E080E096E0A6AFFFFD89008346E
:102B50000A340A6ED890083607500A5C02E3075020
:102B60000A5E092EF2D70A501200FFFFFFFF086E1F
:102B7000772802E1000E0DD0F29E0850D96EDA6A75
:102B800077C0DFFF0750D96EDA6A74C0DFFFF28EBC
:102B9000010EFFFF1200FFFFFFFFF29EB0C00BF01F
:102BA000B1C00CF0B2C00DF0B3C00EF0F28E0BC08D
:102BB00007F00CC008F00DC009F00EC00AF01200BA
:102BC000FFFFFFFF076AFFFF0750900FD96EDA6A19
:102BD000DF6A0750800FD96EDA6ADF6A072A0E0EA5
:102BE0000764F1D70E0CFFFFFFFF076E01C108F06D
:102BF000D2C000F10850800F0101016F07C002F13F
:102C0000030E726E030CFFFFFFFF076E0750D96EB5
:102C1000DA6ADECFD9F0DECFDAF0DECFDBF0DECF5E
:102C2000DCF01200FFFFFFFF0001CE6BCA9494841A
:102C30007150076ECE510101B66F07C0B7F1120097
:102C4000FFFFFFFFAC6AAC8AAC84400EAF6EAB6A8C
:102C5000AB8EAB88949A8B9A1200FFFFFFFFCBC01C
:102C600002F1030E726E72C016F02CEC14F01650C6
:102C70001200FFFFFFFF0E6E0CC007F00DC008F042
:102C80000E5044EF16F0FFFFFFFF0B6E0BC0D2F0AB
:102C9000040E076000D0FFFF1200FFFFFFFF0F0EC2
:102CA000BD12CB68CA82CA9094941200FFFFFFFF46
:102CB000D92B000EDA23DB23DC23000CFFFFFFFF00
:102CC0000001C86B6F6AC96B1200FFFFFFFFD90ECE
:102CD0001200FFFFFFFFC9511200FFFFFFFF1200AC
:052CE000FFFFFFFFFFF4
:022CE600FFFFEE
:020000040020DA
:08000000000100FFFFFFFFFFFC
:020000040030CA
:0E000000FF22070EFF0185FF0FC00FE00F402B
:0200000400F00A
:10000000110A800F80FF01041003FF1517090B066A
:0800100009000130200000008E
:00000001FF
