:0600000000F07AEF00F0B1
:10000800FFFF5F82FFFFFACF01F0FBCF02F018EF8E
:1000180016F05F80FFFFD8CF0FF0E8CF10F0E0CFE9
:1000280011F0FACF12F0FBCF13F0E9CF14F0EACFBA
:1000380015F0E1CF16F0E2CF17F0D9CF18F0DACFEC
:1000480019F0F3CF1AF0F4CF1BF0F6CF1CF0F7CF6E
:100058001DF0F8CF1EF0F5CF1FF09EAA21D09DBA53
:1000680005D01ED0FFFF9EAAFDD718D0FFFF9EAA7D
:10007800FDD7AECF20F04250010D000EF324D96E0B
:10008800020EF420DA6E20C0DFFF432A4228D8A4EB
:1000980003D0000E426E02D0FFFF422AFFFF9E9A55
:1000A800FFFF1FC0F5FF1EC0F8FF1DC0F7FF1CC0F3
:1000B800F6FF1BC0F4FF1AC0F3FF19C0DAFF18C01F
:1000C800D9FF17C0E2FF16C0E1FF15C0EAFF14C050
:1000D800E9FF13C0FBFF12C0FAFF11C0E0FF10C018
:1000E800E8FF0FC0D8FF5F901000FFFFEBEF1DF097
:1000F800FFFF276E010EA96EA680A8CF28F028283A
:10010800D8A402D07F0E286EFFFF27C021F026C09A
:1001180022F0285079EC1FF01200FFFFFFFF5E2845
:10012800D8B40ED0F29E21C0D9FF22C0DAFF5EC03B
:10013800DFFF23C0D9FF24C0DAFF58C0DFFFF28EEB
:10014800FFFF1200FFFFFFFF5E28D8A402D0000EB9
:100158000CD0FFFFF29E21C0D9FF22C0DAFFE8C011
:10016800DEFFE9C0DDFFF28E010EFFFF1200FFFF88
:10017800FFFF21502302F3CF25F0F4CF26F02150C2
:100188002402F350262622502302F350262625C0A7
:1001980021F026C022F01200FFFFFFFFF29EDCC014
:1001A80025F0DDC026F0DEC027F0DFC028F0F28E93
:1001B80025C021F026C022F027C023F028C024F053
:1001C8001200FFFFFFFF296E010E216E010E226E45
:1001D800060EA0EC14F0020E216E010E226E2950BC
:1001E8005CEC05F01200FFFFFFFF216E2BC122F02F
:1001F800F0C02AF12250800F01012B6F21C02CF191
:10020800030E536E1200FFFFFFFF21C0D9FF22C06B
:10021800DAFFDECFF2F1DECFF3F1DECFF4F1DECF9D
:10022800F5F11200FFFFFFFF000EAC6EAC8AAC8444
:10023800400EAF6E000EAB6EAB8EAB88949A8B9A65
:100248001200FFFFFFFF46C02CF1030E536E535000
:10025800020F306E81EC1CF030501200FFFFFFFFE0
:1002680049C02CF1030E536E53C030F081EC1CF0E2
:1002780030501200FFFFFFFFBD80BD82BD84BD86E8
:10028800CB68CA82CA9094941200FFFFFFFF000E49
:100298000001EF6FCA949484000E0001EE6F120003
:1002A800FFFFFFFF010E0101F227000EF323F423E5
:1002B800F5231200FFFFFFFF000E426E000E446E92
:1002C800000E436E1200FFFFFFFF5C0E216E000E52
:1002D800226E1200FFFFFFFF5B0E216E000E226EE2
:1002E8001200FFFFFFFFFA0E216E000E226E1200B1
:1002F800FFFFFFFFF90E216E000E226E1200FFFFB6
:10030800FFFF5A0E216E000E226E1200FFFFFFFF44
:10031800590E216E000E226E1200FFFFFFFFF20E33
:10032800216E010E226E1200FFFFFFFF4D500008E4
:100338003A243D0F1200FFFFFFFFF29E5FEC01F031
:10034800F28E1200FFFFFFFF43501200FFFFFFFF76
:070358001200FFFFFFFFFF91
:1006000000010203040506070F101114152B646581
:10061000665461626C6F20732072617370697361DC
:100620006E69656D00687474703A2F2F626F6C6923
:10063000642E727500526173706973616E69650032
:1006400043323030302D424900424F4C4944003152
:090650002E3031004D4D4D00002B
:10065A00FFFFFE0E0001806FFF0E0001816F5350F5
:10066A000001826F836B0001805100018227000123
:10067A008151000183232A0E00018225D96E010EC1
:10068A0000018321DA6EDF500001846F000184517A
:10069A000001866F856BFF0E0001876FFF0E000158
:1006AA00886F53500001896F8A6B000187510001DE
:1006BA0089270001885100018A232A0E0001892511
:1006CA00D96E010E00018A21DA6EDF5000018B6FAC
:1006DA0000018B51000185110001946F00018651C0
:1006EA000001956F5350FE0F70EC1BF000019451FE
:1006FA00211805E1000195512218D8B405D001014D
:10070A00284B292BFF0ED0D1FFFF000E0001966F58
:10071A00000E00019A6FFFFF0F0E00019A6501D0CB
:10072A0019D0FFFF00019A51010D010EF324F66E54
:10073A00060EF420F76E0800FFFFF55001012B1991
:10074A00D8A404D0010E0001966F04D0FFFF000167
:10075A009A2BE1D7FFFF000196510001D8A404D0DB
:10076A000101284B292B3CD1FFFF000E00019E6F8F
:10077A00000E9D6F000E0001996F000E986F63D1F5
:10078A00FFFF01012C510001806F01012D51000171
:10079A009D6F80C09EF001012E510001806F010102
:1007AA002F510001986F80C099F00001995135E1ED
:1007BA00110E0001985DD8B043D100019E5138E175
:1007CA00100E00019D5DD8B029D100019851000199
:1007DA009D250001806F0001995100019E210001B1
:1007EA00816F0001815124E1110E0001805D1DD04D
:1007FA00FFFF01012C510001806F01012D51000101
:10080A009D6F80C09EF02EC19CF000019C5100019A
:10081A00D8B404D000019C29D8A412D1FFFF00014A
:10082A009E5106E1100E00019D5DFFFFD8A038D150
:10083A00F5D0FFFF01012C510001806F01012D51FC
:10084A0000019D6F80C09EF0FFFF9DC09CF00001DB
:10085A009C514A5CFFFFD8B023D1E0D0FFFF0101D1
:10086A002C510001806F01012D5100019D6F80C044
:10087A009EF001012F512EC180F00001816B80C0D2
:10088A0081F00001806B00018013000E81130001CA
:10089A00805100019D270001815100019E239DC0C6
:1008AA009CF000019C514B5CD5D7FFFF01012C51F4
:1008BA000001806F01012D5100019D6F80C09EF0E3
:1008CA0001012F512EC180F00001816B80C081F09F
:1008DA000001806B00018013000E8113000180511A
:1008EA0000019D270001815100019E23ADD7FFFF22
:1008FA0085EC0EF00001976F000197510001D8B402
:10090A00CFD000019751D0D0FFFF060E01012D195B
:10091A00D8A484D001012E51D8A480D001012F057A
:10092A00D8A47CD00101315130C180F00001816B23
:10093A0080C081F00001806B00018013000E8113DA
:10094A00D89000018037813780C08CF081C08DF04B
:10095A000001000E8DBFFF0E8E6F8F6F01013351A4
:10096A0032C180F00001816B80C081F00001806B90
:10097A0000018013000E8113D8900001803781375F
:10098A0080C090F081C091F00001000E91BFFF0E6F
:10099A00926F936F0001905100018C250001806FC6
:1009AA000001915100018D210001816F00019251D6
:1009BA0000018E210001826F0001935100018F21F5
:1009CA000001836F000183510001821127E10001B8
:1009DA0081052BD7FFFF0E0E01012C19D8B403D0C5
:1009EA00FFFF010E61D0FFFF2DC19BF000019B05A7
:1009FA00D8B40AD0020E00019B19D8B405D0040E4F
:100A0A0000019B19D8A41CD0FFFF040E00019B19FA
:100A1A00D8A446D0060E01012E6542D0FFFF020E71
:100A2A0043D0FFFF7F0E01012C19D8B439D0010140
:100A3A002C05D8B435D0100E01012C19D8B430D0F9
:100A4A00FFFF030E31D0FFFF01012B51010AD8B479
:100A5A0097D6030AD8B494D6010AD8B426D7070A77
:100A6A00D8B4FCD6010AD8B4C3D6030AD8B4E1D69E
:100A7A00090AD8B485D61F0AD8B417D7010AD8B438
:100A8A000FD0050AD8B433D7010AD8B43DD73E0AE5
:100A9A00D8B4A0D74F0AD8B4C4D7010AD8A4030A35
:100AAA00FFFF2BC15DF0000EFFFF1200FFFFFFFFEB
:100ABA00266E2650D8B4FFD13C0E266401D0FBD155
:100ACA00FFFF26062640E8423F0B276E26C023F08A
:100ADA00030E2316D8902334286EDFD1FFFF28C0D7
:100AEA0023F0010E2326010E246E232A03D0FFFFD2
:100AFA00D8902436FFFF232EFAD72450FF0A256EFA
:100B0A002750010DC20EF324D96E000EF420DA6EBE
:100B1A002550DF1628C023F0010E246E232A03D0A5
:100B2A00FFFFD8902436FFFF232EFAD72450FF0A5E
:100B3A00256E2750010DC20EF324D96E000EF42043
:100B4A00DA6E2550DF1628C023F0010E2326010E87
:100B5A00246E232A03D0FFFFD8902436FFFF232ECA
:100B6A00FAD72450FF0A256E2750010D000EF324F0
:100B7A00D96E010EF420DA6E2550DF1628C023F054
:100B8A00010E246E232A03D0FFFFD8902436FFFFDC
:100B9A00232EFAD773D1FFFF28C023F0010E232694
:100BAA00010E246E232A03D0FFFFD8902436FFFFBC
:100BBA00232EFAD72750010DC20EF324D96E000E48
:100BCA00F420DA6E2450DF1228C023F0010E246EBE
:100BDA00232A03D0FFFFD8902436FFFF232EFAD70B
:100BEA002450FF0A256E2750010DC20EF324D96E38
:100BFA00000EF420DA6E2550DF162250D8B419D030
:100C0A0028C023F0010E2326010E246E232A03D0C6
:100C1A00FFFFD8902436FFFF232EFAD72750010D65
:100C2A00000EF324D96E010EF420DA6E2450DF127E
:100C3A001CD0FFFF28C023F0010E2326010E246ECC
:100C4A00232A03D0FFFFD8902436FFFF232EFAD79A
:100C5A002450FF0A256E2750010D000EF324D96E89
:100C6A00010EF420DA6E2550DF16FFFF28C023F0AC
:100C7A00010E246E232A03D0FFFFD8902436FFFFEB
:100C8A00232EFAD7FBD0FFFF28C023F0010E23261C
:100C9A00010E246E232A03D0FFFFD8902436FFFFCB
:100CAA00232EFAD72450FF0A256E2750010DC20EB3
:100CBA00F324D96E000EF420DA6E2550DF1628C010
:100CCA0023F0010E246E232A03D0FFFFD890243686
:100CDA00FFFF232EFAD72750010DC20EF324D96E37
:100CEA00000EF420DA6E2450DF1228C023F0010E21
:100CFA002326010E246E232A03D0FFFFD890243620
:100D0A00FFFF232EFAD72450FF0A256E2750010D24
:100D1A00000EF324D96E010EF420DA6E2550DF1688
:100D2A002250D8B40DD028C023F0010E246E232AF5
:100D3A0003D0FFFFD8902436FFFF232EFAD785D0A1
:100D4A00FFFF28C023F0010E246E232A03D0FFFFE1
:100D5A00D8902436FFFF232EFAD790D0FFFF28C061
:100D6A0023F0010E2326010E246E232A03D0FFFF4F
:100D7A00D8902436FFFF232EFAD72750010DC20E32
:100D8A00F324D96E000EF420DA6E2450DF1228C044
:100D9A0023F0010E246E232A03D0FFFFD8902436B5
:100DAA00FFFF232EFAD72750010DC20EF324D96E66
:100DBA00000EF420DA6E2450DF122250D8B419D073
:100DCA0028C023F0010E2326010E246E232A03D005
:100DDA00FFFFD8902436FFFF232EFAD72750010DA4
:100DEA00000EF324D96E010EF420DA6E2450DF12BD
:100DFA001CD0FFFF28C023F0010E2326010E246E0B
:100E0A00232A03D0FFFFD8902436FFFF232EFAD7D8
:100E1A002450FF0A256E2750010D000EF324D96EC7
:100E2A00010EF420DA6E2550DF16FFFF2250D8B4E7
:100E3A0018D028C023F0010E246E232A03D0FFFF06
:100E4A00D8902436FFFF232EFAD7FFFF2750010D33
:100E5A00000EF324D96E010EF420DA6E2450DF124C
:100E6A002AD0FFFF28C023F0010E246E232A03D0C4
:100E7A00FFFFD8902436FFFF232EFAD7FFFF245016
:100E8A00FF0A256E2750010D000EF324D96E010EBC
:100E9A00F420DA6E2550DF160ED0FFFF2150000A2B
:100EAA00D8B41CD6010AD8B476D6030AD8B4EBD67D
:100EBA00010AD8B453D7FFFF1200FFFFFFFFABECC4
:100ECA0001F0D7EC1AF006EC19F0D1EC00F021C0D1
:100EDA000DF322C00EF323C00FF324C010F33FEC2E
:100EEA0001F0010E0301196F010E0301186F000EC4
:100EFA000301116F000E126F000E136F000E146FB4
:100F0A00320E0301156F030116691769010E216E6E
:100F1A00000E226E070EA0EC14F0010E216E010ED7
:100F2A00226E050EA0EC14F0FFFFD1EC00F021C0F8
:100F3A001FF322C020F323C021F324C022F31F0E83
:100F4A00226E030E236E42EC09F00001EF51D8B471
:100F5A0013D00101105103011F5D01011151030159
:100F6A0020590101125103012159010113510301B1
:100F7A002259D8B0A5EC15F0FFFF000E82B2010E7F
:100F8A0003011C6F0301185103011C19D8B40BD0BB
:100F9A001FC311F320C312F321C313F322C314F3A3
:100FAA001CC318F36BD0FFFF11C300F312C301F384
:100FBA0013C302F314C303F30301001F011F021F2B
:100FCA00031F002B000E01230223032303011F51D9
:100FDA00030100250301046F0301205103010121CC
:100FEA000301056F03012151030102210301066F69
:100FFA0003012251030103210301076F15C308F3FB
:10100A000301096B0A6B0B6B030104510301085DB1
:10101A0003010551030109590301065103010A5944
:10102A000301075103010B59D8B028D00301195104
:10103A0003011C19D8B422D01CC319F30301195196
:10104A000301D8A417D0010E03010C6F0001D2517D
:10105A00D8B404D0010E43EC1EF010D0FFFF395073
:10106A00D8B404D0010E2BEC1DF008D0FFFF4AECD7
:10107A0001F004D0FFFF000E03010C6FFFFF0DC348
:10108A0000F30EC301F30FC302F310C303F303010A
:10109A00001F011F021F031F002B000E0123022342
:1010AA00032303011F51030100250301046F0301F8
:1010BA002051030101210301056F0301215103019D
:1010CA0002210301066F03012251030103210301D7
:1010DA00076F030107510301061108E1E80E030136
:1010EA00045D030E03010559D8A0A0D055EC01F008
:1010FA000001D251D8B41DD092EC01F021C0D9FF21
:10110A0022C0DAFF0001D451DE5C0001D551DE585D
:10111A000001D651DE58DE50800A0301046F000137
:10112A00D751800A03010459D8A003D0000E43EC1A
:10113A001EF0FFFF3950D8B419D092EC01F021C04B
:10114A00D9FF22C0DAFF3D50DE5C3E50DE583F50E8
:10115A00DE58DE50800A0301046F4050800A030102
:10116A000459D8A003D0000E2BEC1DF0FFFF92EC1F
:10117A0001F021C0D9FF22C0DAFFDECFDEF1DDCFD8
:10118A00DFF11D0E216E030E226EA7EC00F000099E
:10119A00D8B443D003011D510301161906E1030116
:1011AA001E5103011719D8B438D01DC3E4F11EC368
:1011BA00E5F1000E03011A6F000E03011B6F1A0EF0
:1011CA00216E030E226E1B0E236E030E246E92EC0A
:1011DA0000F003011A510301006F03011B510101C1
:1011EA00D66F00C3D7F103011D5103011E11D8A404
:1011FA000DD0E9EC1FF04168FDEC11F03A50030103
:10120A00006F41500101D86F00C3D9F1FFFF1DC320
:10121A0016F31EC317F3A2EC18F0FFFF1FC30DF35A
:10122A0020C30EF321C30FF322C310F3FFFFE0C064
:10123A00B5F0E1C0B6F0F70E0001B76F000E00017D
:10124A00B86FD40E0001B96F010E0001BA6F0F0E0C
:10125A000001BB6FB60E0001BC6F010E0001BD6F2D
:10126A000F0E0001BE6F0BEC0CF00001EC6FED6B82
:10127A00ECBFED07CFEC17F057D6FFFF22C0D9FF1E
:10128A0023C0DAFFDECF24F0DECF25F0DECF26F052
:10129A00DECF27F01CC128F01DC129F01EC12AF09B
:1012AA001FC12BF0281E291E2A1E2B1E282A000EBB
:1012BA0029222A222B22245028240001D86F2550C3
:1012CA0029200001D96F26502A200001DA6F275001
:1012DA002B200001DB6F0001DB510001DA1108E16C
:1012EA00410E0001D85D020E0001D959D8A00FD0D5
:1012FA00010E546E22C0D9FF23C0DAFFDECF1CF1E3
:10130A00DECF1DF1DECF1EF1DECF1FF128D1FFFFA8
:10131A005450D8B424D10001DB510001DA1108E19C
:10132A00810E0001D85D010E0001D959D8A017D14C
:10133A00000E546E14D1FFFFF00E89165450D8B423
:10134A0003D0C2C08AFF06D0FFFF0001C2510101CB
:10135A0000198A6EFFFF000E6FEC1EF05450D8B4CD
:10136A0003D0C3C08AFF06D0FFFF0001C3510101A9
:10137A0001198A6EFFFF010E6FEC1EF05450D8B4AB
:10138A0003D0C4C08AFF06D0FFFF0001C451010187
:10139A0002198A6EFFFF020E6FEC1EF05450D8B489
:1013AA0003D0CEC08AFF06D0FFFF0001CE51010153
:1013BA000C198A6EFFFF030E6FEC1EF08980DDD0D8
:1013CA00FFFFF00E89165450D8B403D0C5C08AFF67
:1013DA0006D0FFFF0001C551010103198A6EFFFF04
:1013EA00000E6FEC1EF05450D8B403D0C6C08AFF6A
:1013FA0006D0FFFF0001C651010104198A6EFFFFE2
:10140A00010E6FEC1EF05450D8B403D0C7C08AFF47
:10141A0006D0FFFF0001C751010105198A6EFFFFBF
:10142A00020E6FEC1EF05450D8B403D0CFC08AFF1E
:10143A0006D0FFFF0001CF5101010D198A6EFFFF8F
:10144A00030E6FEC1EF0898298D0FFFFF00E89160A
:10145A005450D8B403D0C8C08AFF06D0FFFF000199
:10146A00C851010106198A6EFFFF000E6FEC1EF0CB
:10147A005450D8B403D0C9C08AFF06D0FFFF000178
:10148A00C951010107198A6EFFFF010E6FEC1EF0A8
:10149A005450D8B403D0CAC08AFF06D0FFFF000157
:1014AA00CA51010108198A6EFFFF020E6FEC1EF085
:1014BA005450D8B403D0D0C08AFF06D0FFFF000131
:1014CA00D05101010E198A6EFFFF030E6FEC1EF058
:1014DA00898453D0FFFFF00E89165450D8B403D034
:1014EA00CBC08AFF06D0FFFF0001CB5101010919C9
:1014FA008A6EFFFF000E6FEC1EF05450D8B403D072
:10150A00CCC08AFF06D0FFFF0001CC5101010A19A5
:10151A008A6EFFFF010E6FEC1EF05450D8B403D050
:10152A00CDC08AFF06D0FFFF0001CD5101010B1982
:10153A008A6EFFFF020E6FEC1EF05450D8B403D02F
:10154A00D1C08AFF06D0FFFF0001D15101010F1956
:10155A008A6EFFFF030E6FEC1EF089860ED0FFFF26
:10156A005550000AD8B4E7D6010AD8B429D7030AD5
:10157A00D8B46BD7010AD8B4ADD7FFFF552A559412
:10158A001200FFFFFFFF000120EE0AF09051D9265A
:10159A009151DA22010EDBBE18D0010EDB5004E1B4
:1015AA00460EDE5CD8A011D0000120EE0AF0905160
:1015BA00D9269151DA22010EDBBE0ED0010EDB5084
:1015CA0004E18B0EDE5CD8A007D0FFFF00019A6908
:1015DA009B699C699D690FD1FFFF000120EE0AF00B
:1015EA009051D9269151DA22DECF94F0DDCF95F0D1
:1015FA006C0E000194250001806F070E00019521F1
:10160A000001816F000120EE08F09051D926915116
:10161A00DA22DECF96F0DDCF97F0010E0001962593
:10162A000001826F000E000197210001836F000103
:10163A0020EE06F09051D9269151DA22DECF84F0BD
:10164A00DDCF85F0F5EC16F080C09AF081C09BF0F2
:10165A0082C09CF083C09DF0070E0001816FB20E1C
:10166A00806F000E0001836F010E826F000E000171
:10167A00856F010E846FF5EC16F0000180510001B0
:10168A009A5F0001815100019B5B000182510001B8
:10169A009C5B0001835100019D5B000120EE04F078
:1016AA009051D9269151DA22DECF94F0DDCF95F010
:1016BA0094C096F095C097F0000E000197BFFF0EF8
:1016CA00986F996F9AC021F09BC022F09CC023F0BA
:1016DA009DC024F0180E256E000E266E000E276E91
:1016EA00000E286EBCEC1DF0000196512124000169
:1016FA009A6F00019751222000019B6F00019851B7
:10170A00232000019C6F00019951242000019D6F44
:10171A00000120EE02F09051D9269151DA22DECF53
:10172A0094F0DDCF95F094C096F095C097F0000E36
:10173A00000197BFFF0E986F996F9AC021F09BC066
:10174A0022F09CC023F09DC024F03C0E256E000EB2
:10175A00266E000E276E000E286EBCEC1DF00001EE
:10176A009651212400019A6F00019751222000010D
:10177A009B6F00019851232000019C6F0001995131
:10178A00242000019D6F90C0D9FF91C0DAFFDECFFF
:10179A0094F0DDCF95F094C096F095C097F0000EC6
:1017AA00000197BFFF0E986F996F9AC021F09BC0F6
:1017BA0022F09CC023F09DC024F03C0E256E000E42
:1017CA00266E000E276E000E286EBCEC1DF000017E
:1017DA009651212400019A6F00019751222000019D
:1017EA009B6F00019851232000019C6F00019951C1
:1017FA00242000019D6FFFFF9AC090F09BC091F0DA
:10180A009CC092F09DC093F01200FFFFFFFF000EF4
:10181A005D6EBBC04BF0BEC04AF0A7EC01F0000100
:10182A00BF6F0001BF510001D8B445D00001F25189
:10183A000001BF19D8B415D0BFC0F2F0050ED1EC23
:10184A0000F021240101146F000E22200101156FFE
:10185A00000E23200101166F000E24200101176FCC
:10186A002AD0FFFFD1EC00F001011451215C0101E3
:10187A0015512258010116512358010117512458B4
:10188A00D8A019D0000E0001F26FC3EC1EF00001BF
:10189A00C16FC1C0F1F0040E0001C16103D0A0EC18
:1018AA0001F0F0D0FFFF0001F05101012A19D8B46C
:1018BA0005D0A0EC01F0FFFF000EE7D0FFFF8CEC93
:1018CA001DF00001C16FA0EC01F0C1C0F1F02DECD8
:1018DA0003F00001C06F0001C0510001D8B410D05C
:1018EA000001C029D8B406D00001C051F8EC00F0BC
:1018FA0081EC1CF0FFFFC0C0F1F00001C051C5D05F
:10190A00FFFFD1EC00F00001EA5121240101186F18
:10191A000001EB5122200101196F000E2320010161
:10192A001A6F000E242001011B6F000E0001F16FD7
:10193A00070E01012B19D8B472D0000E216E000EC9
:10194A00EBEC1EF06CD0FFFFB7C0D9FFB8C0DAFFCE
:10195A00DECF30F0DDCF31F035EC11F096D0FFFF5D
:10196A00B5C030F0B6C031F035EC11F08ED0FFFFC3
:10197A00BCC030F0BDC031F0BEC032F087EC16F00A
:10198A0084D0FFFFB9C030F0BAC031F0BBC032F02A
:10199A0087EC16F07AD0FFFFB7C030F0B8C031F04C
:1019AA00C5EC19F072D0FFFFBCC030F0BDC031F0F9
:1019BA00BEC032F0C2EC1CF068D0FFFF33EC01F07D
:1019CA0064D0FFFFB7C030F0B8C031F0BEEC12F0FF
:1019DA005CD0FFFFBCC030F0BDC031F0BEC032F0F9
:1019EA006DEC13F052D0FFFFBAEC1BF04ED0FFFFA4
:1019FA004DEC0DF04AD0FFFF39EC18F046D0FFFF4E
:101A0A0074EC0FF042D0FFFF16EC14F03ED0FFFF4B
:101A1A00B5EC1FF03AD0FFFF26EC01F036D0FFFFFD
:101A2A0001012B51010AD8B48ED7030AD8B497D72B
:101A3A00010AD8B49CD7070AD8B4A3D7010AD8B4E4
:101A4A00AAD7030AD8B4AFD7010AD8B4B6D7080AB6
:101A5A00D8B4B7D71F0AD8B4BCD7010AD8B4C3D7E9
:101A6A00050AD8B4C4D7010AD8B4C5D73E0AD8B42F
:101A7A00C6D74F0AD8B4C7D7010AD8B4C8D7030AF9
:101A8A00D8B4C9D7FFFF0001C151FFFF1200FFFF01
:101A9A00FFFF2CC18AF0000E00018E6F000E0001BC
:101AAA008D6F3ED0FFFF00018D51010D850EF3248D
:101ABA00D96E000EF420DA6E00018E51306E316A52
:101ACA00070E3026000E31222A0E3024E16E010E56
:101ADA003120E26EE750326ED8903234DF6E000168
:101AEA008D51010D800EF324D96E000EF420DA6EAA
:101AFA0000018E51306E316A090E3026000E3122F5
:101B0A002A0E3024E16E010E3120E26EE750326E69
:101B1A00D8903234DF6E00018D2B070E00018E271C
:101B2A00FFFF00018A5100018E5DD8A0BBD7030ECA
:101B3A0000018E6F000E01012C6F000E0001E36F91
:101B4A00E269000E0001E56F000EE46F000E00016D
:101B5A008F6FBFD0FFFF00018E51010D2A0EF324B3
:101B6A00D96E010EF420DA6E00018F51010D800E3C
:101B7A00F324E16E000EF420E26EE750306E302856
:101B8A00DF6E00018E2B00018E51010D2A0EF32407
:101B9A00D96E010EF420DA6E060EDF6E00018E2B6E
:101BAA0000018F51010D850EF324D96E000EF42029
:101BBA00DA6EDF50306E316A0001E251305C0001AA
:101BCA00E3513158D8B00FD000018F51010D850E65
:101BDA00F324D96E000EF420DA6EDF50306E3050E6
:101BEA000001E26FE36BFFFF000E00018C6F1ED055
:101BFA00FFFF00018F51010D850EF324D96E000EEF
:101C0A00F420DA6EDF5000018C25A96EA68000014F
:101C1A008E51010D2A0EF324D96E010EF420DA6ECC
:101C2A00A8CFDFFF00018E2B00018C2BFFFF0001E4
:101C3A008F51010D800EF324D96E000EF420DA6E56
:101C4A00DE5000018C5DD8A0D3D700018F51010D61
:101C5A00850EF324D96E000EF420DA6EDF50306E52
:101C6A00316A00018F51010D800EF324D96E000EE6
:101C7A00F420DA6EDF50326E32503026000E3122F6
:101C8A0030500001E45D31500001E559D8B01ED052
:101C9A0000018F51010D800EF324D96E000EF4203D
:101CAA00DA6EDF50306E00018F51010D850EF3247C
:101CBA00D96E000EF420DA6EDF50316E31503024C6
:101CCA000001E46F0001E56B0001E537FFFF000149
:101CDA008F2BFFFF00018D5100018F5DD8A03AD7ED
:101CEA0000018E51FE0F01012C6F01012C29536E48
:101CFA0053C08BF081EC1CF000018B511200FFFFE6
:101D0A00FFFF2CC133F0060E336403D0F50E3364A3
:101D1A0003D0FFFF030EE0D0FFFF000E346E000E6B
:101D2A002D6E000E2E6ED2D0FFFF3450216E226A25
:101D3A00030E2126000E22222A0E2124D96E010E1C
:101D4A002220DA6E060EDE18D8A4BDD03450216ED9
:101D5A00226A040E2126000E22222A0E2124D96E7E
:101D6A00010E2220DA6EDF50D8A4ADD03450216E95
:101D7A00226A050E2126000E22222A0E2124D96E5D
:101D8A00010E2220DA6EDE04D8A49DD03450216ED2
:101D9A00226A060E2126000E22222A0E2124D96E3C
:101DAA00010E2220DA6EDF50236E2350256E246A3C
:101DBA003450266E276A070E2626000E27222A0E80
:101DCA002624D96E010E2720DA6EDF50286E28509D
:101DDA002412000E2512D8902436253624C029F064
:101DEA0025C02AF0000E2ABEFF0E2B6E2C6E345030
:101DFA00216E226A080E2126000E22222A0E212492
:101E0A00D96E010E2220DA6EDF50236E2350256E22
:101E1A00246A3450266E276A090E2626000E2722C7
:101E2A002A0E2624D96E010E2720DA6EDF50286E7C
:101E3A0028502412000E2512D8902436253624C0A4
:101E4A002FF025C030F0000E30BEFF0E316E326E1C
:101E5A002F502924216E30502A20226E31502B20F7
:101E6A00236E32502C20246E245023102CE122049D
:101E7A00D8B029D02E502F24216E000E3020226E89
:101E8A00000E3120236E000E3220246E020E212411
:101E9A00256E000E2220266E000E2320276E000ECD
:101EAA002420286E2850271026100DE18A0E255C62
:101EBA00D8B009D02F50020F2E26070E34262D2A0D
:101ECA00050E2D6403D0FFFF020E06D0FFFF33502C
:101EDA00345CD8A029D7000EFFFF1200FFFFFFFFD6
:101EEA002DC130F02EC132F0000E01012F6F000E0D
:101EFA000101306F080E536ECED0FFFF810E010133
:101F0A002E6F030E0101316F490E216E060E226EED
:101F1A00060E236E000E40EC1CF0400E216E060EDB
:101F2A00226E090E236E010E40EC1CF04F0E216E3C
:101F3A00060E226E050E236E020E40EC1CF0B6D081
:101F4A00FFFF820E01012E6F040E0101316F250E73
:101F5A00216E060E226E100E236E030E40EC1CF04C
:101F6A00110E216E060E226E140E236E040E40EC24
:101F7A001CF0540E216E060E226E040E236E050E00
:101F8A0040EC1CF0350E216E060E226E0B0E236EEF
:101F9A00060E40EC1CF08AD0FFFF010E0101316FE2
:101FAA0062D0FFFF810E01012E6F490E216E060ECF
:101FBA00226E060E236E325040EC1CF077D0FFFFE3
:101FCA00810E01012E6F400E216E060E226E090E41
:101FDA00236E325040EC1CF069D0FFFF810E0101E4
:101FEA002E6F4F0E216E060E226E050E236E325094
:101FFA0040EC1CF05BD0FFFF820E01012E6F250E14
:10200A00216E060E226E100E236E325040EC1CF02A
:10201A004DD0FFFF820E01012E6F110E216E060EAA
:10202A00226E140E236E325040EC1CF03FD0FFFF9C
:10203A00820E01012E6F540E216E060E226E040EC0
:10204A00236E325040EC1CF031D0FFFF820E0101AA
:10205A002E6F350E216E060E226E0B0E236E325037
:10206A0040EC1CF023D0FFFF3250000AD8B499D7B5
:10207A00010AD8B4A4D7030AD8B4AFD7010AD8B48E
:10208A00BAD7070AD8B4C5D7010AD8B4D0D7030A31
:10209A00D8B4DBD70BD0FFFF3050010AD8B42DD704
:1020AA00030AD8B44DD7060AD8B476D7FFFF53C06F
:1020BA0031F081EC1CF031501200FFFFFFFF6FEC92
:1020CA0001F021C0D9FF22C0DAFFDF500001886F7A
:1020DA008BEC01F021C0D9FF22C0DAFFDF500001EA
:1020EA00856F7DEC01F021C0D9FF22C0DAFFDF50F5
:1020FA000001896F000189510001D8B4AED00001F6
:10210A0089510001806F816B4D500001826F836B92
:10211A000001821F831F824B832B3C0E0001822702
:10212A00000E8323000180510001825D000183516A
:10213A00800A0001846F00018151800A00018459DC
:10214A00D8A08BD000018851030B0001866F0001D3
:10215A00806B88AF02D00001802B000180A105D0DE
:10216A00000186510001D8A410D0FFFF000E216E95
:10217A00000E226E000189515CEC05F000018529F0
:10218A00D8B46BD04AEC01F068D0FFFF76EC01F0CE
:10219A0021C0D9FF22C0DAFFDF500001876F00019A
:1021AA0087510001D8A40DD086C021F000018845CE
:1021BA00E846030B010B226E000189515CEC05F025
:1021CA0035D0FFFF89C0D3F0010E0001D26F92EC27
:1021DA0001F021C0D9FF22C0DAFFDECF80F0DECFC6
:1021EA0081F0DECF82F0DECF83F00001875100015B
:1021FA0080250001D46F000E000181210001D56FF6
:10220A00000E000182210001D66F000E0001832119
:10221A000001D76F030E216E00018845E846030BC3
:10222A00010B226E000189515CEC05F0FFFF84EC82
:10223A0001F021C0D9FF22C0DAFFDF500001806F10
:10224A0000018051316E326A0001855127EC15F088
:10225A00010E216E000EEBEC1EF0FFFF1200FFFFD5
:10226A00FFFF01012C51326E01012D510001856FD2
:10227A0032C086F085C0E2F086C0E3F001012E513B
:10228A00326E01012F5100018A6F32C08BF08AC071
:10229A00E4F08BC0E5F08AC032F08BC033F0D890FE
:1022AA0033323232D89033323232D89033323232F9
:1022BA0032500001846F070E00018A15326E000E3B
:1022CA0000018B15336E32503310D8B402D000019E
:1022DA00842BFFFF84C02CF1030E536E000E000105
:1022EA00896F000E0001886F000E876F60D0FFFFB4
:1022FA0000018751000185250001806F0001885186
:10230A00000186210001816F80C082F082C032F014
:10231A0030C033F031C034F0322A04D0FFFFD890F5
:10232A0034323332FFFF322EF9D733A017D089C0A7
:10233A0032F0010E336E322A03D0FFFFD8903336C3
:10234A00FFFF322EFAD75350010D2A0EF324D96E0D
:10235A00010EF420DA6E3350DF121AD0FFFF89C063
:10236A0032F0010E336E322A03D0FFFFD890333693
:10237A00FFFF322EFAD73350FF0A346E5350010D45
:10238A002A0EF324D96E010EF420DA6E3450DF16C9
:10239A00FFFF0001892B070E0001896504D0000E9A
:1023AA000001896F532AFFFF0001874B882BFFFF2B
:1023BA0000018A510001875D00018B510001885993
:1023CA00D8A095D7070E00018A15326E000E0001BB
:1023DA008B15336E32503310D8A4532A5350020F40
:1023EA000001836F81EC1CF0000183511200FFFF92
:1023FA00FFFF5750D8B4BAD0250E216E000E226EB8
:10240A00A7EC00F00009D8B4B1D0FFFF4128D8A446
:10241A0003D0000E416E02D0FFFF412AFFFF3A505F
:10242A00236E41500101D86F23C0D9F15750415C46
:10243A00D8A012D04168000E3C6E000E3B6E000E12
:10244A000101DB6F000EDA6F3A50236E4150010131
:10245A00D86F23C0D9F18AD0FFFF4150020DF35043
:10246A000B0FA96EA680A8CF27F027C023F01F0E56
:10247A00231623503C0DF3CF3BF0F4CF3CF027C09A
:10248A0023F0050E246EFFFFD8902332242EFBD7AB
:10249A0023500001E66FE76B2BD0FFFF000E00010F
:1024AA00E76F0A0E1DD0FFFF000E0001E76F1E0E38
:1024BA0017D0FFFF000E0001E76F3C0E11D0FFFF9F
:1024CA00010E0001E76F2C0E0BD0FFFF020E000178
:1024DA00E76FD00E05D0FFFF070E0001E76F080E69
:1024EA00FFFFE66F24D0FFFF0001E669E7691FD00E
:1024FA00FFFFE6C023F0E7C024F02450000AD8A466
:10250A0016D02350010AD8B4C8D7030AD8B4CBD7F7
:10251A00010AD8B4CED7070AD8B4D1D7010AD8B499
:10252A00D4D7030AD8B4D7D7010AD8B4DCD7FFFF67
:10253A004150020DF3500C0FA96EA680A8CF27F0C8
:10254A0027C023F03F0E231623503B26000E3C22C1
:10255A002744E846030B4E6E3B50255C3C502658F8
:10256A00D8B053D73BC0DAF13CC0DBF1FFFF120011
:10257A00FFFFFFFF01012C51326E01012D510001B5
:10258A00856F32C086F085C0E2F086C0E3F00101B3
:10259A002E51326E01012F510001876F32C088F02F
:1025AA0087C0E4F088C0E5F0000E00018C6F070ECA
:1025BA000001846F000E00018B6F000E8A6F71D0CC
:1025CA00FFFF00018A51000185250001806F00018B
:1025DA008B51000186210001816F80C089F08CC077
:1025EA0032F000018451010D2A0EF324D96E010E36
:1025FA00F420DA6EDF50336E322A03D0FFFFD89010
:10260A003332FFFF322EFAD73350010B0001836FAA
:10261A00000183510001D8B418D089C032F0010EEC
:10262A00336E000E346E322A04D0FFFFD890333650
:10263A003436FFFF322EF9D730C0D9FF31C0DAFF66
:10264A003350DE123450DD121CD0FFFF89C032F045
:10265A00010E336E000E346E322A04D0FFFFD8907A
:10266A0033363436FFFF322EF9D7331C356E341C1D
:10267A00366E30C0D9FF31C0DAFF3550DE1636501B
:10268A00DD16FFFF00018C2B070E00018C6505D0BB
:10269A00000E00018C6F0001842BFFFF00018A4BA2
:1026AA008B2BFFFF0001875100018A5D00018851D1
:1026BA0000018B59D8A084D7060E536E5350020FCF
:1026CA000001826F81EC1CF0000182511200FFFFB1
:1026DA00FFFF01012D512CC180F00001816B80C0E8
:1026EA0081F00001806B0001801100018A6F0001F6
:1026FA00815100018B6F8AC0E2F08BC0E3F02FC1D9
:10270A008CF08CC0E4F00001E56B000E01012E6F25
:10271A008CC02FF1060E536E000E00018D6F56D03D
:10272A00FFFF00018D510001806F816BD89000017D
:10273A0080378137080E00018027000E81232A0E78
:10274A0000018025D96E010E00018121DA6EDF5069
:10275A000001826F00018D510001836F846BD89054
:10276A00000183378437070E00018327000E842374
:10277A002A0E00018325D96E010E00018421DA6E2A
:10278A00DF500001856F000182510001876F85C00B
:10279A0088F000018D5100018A250001806F000E2A
:1027AA0000018B210001816FD890000180378137A9
:1027BA00000180513024D96E000181513120DA6E36
:1027CA0087C0DEFF88C0DDFF00018D2BFFFF0001FF
:1027DA008C5100018D5DD8B019D032500001806F44
:1027EA00816B00018D5100018A250001826F000E64
:1027FA0000018B210001836F000180510001825D7D
:10280A000001815100018359D8A08AD7FFFF535094
:10281A00020F0001896F81EC1CF00001895112003E
:10282A00FFFFFFFF0A0E536E2CC14CF06ED0FFFF64
:10283A00FF0076D0FFFF2DC1F0F0FFFFA6B2FDD753
:10284A00010EA96EF0C0A8FFA69EA69CD890F2BE63
:10285A00D880F29EA684550EA76EAA0EA76EA682EF
:10286A00A694D8B0F28EFFFFA6B2FDD7010E216E54
:10287A00000EEBEC1EF054D0FFFF2E0E2D6E010E53
:10288A002E6E2F0E2F6E010E306E310E316E010E2E
:10289A00326E62EC17F0640E010133250001AD6F50
:1028AA000001AE6B000EAE2332C1ABF00001AC6B7F
:1028BA0030C1A9F00001AA6B2EC1A7F00001A86BD4
:1028CA002FC1A5F00001A66B31C1A3F00001A46BD2
:1028DA00A30E0001906F000E0001916FC7EC0AF081
:1028EA0090C09EF091C09FF092C0A0F093C0A1F05A
:1028FA009E0E216E000E226E08EC01F04680010E3B
:10290A00216E000EEBEC1EF00BD0FFFF4C50010ABB
:10291A00D8B490D7110AD8B4AFD76F0AD8B487D72A
:10292A00FFFF5350020F0001A26F81EC1CF000015F
:10293A00A2511200FFFFFFFF286E070E286401D084
:10294A007ED0FFFF2150D8B410D028C023F0010E4A
:10295A00246E232A03D0FFFFD8902436FFFF232EAC
:10296A00FAD724500001D11311D0FFFF28C023F059
:10297A00010E246E232A03D0FFFFD8902436FFFFCE
:10298A00232EFAD72450FF0A0001D117FFFF225045
:10299A00D8B410D028C023F0010E246E232A03D005
:1029AA00FFFFD8902436FFFF232EFAD724500101C7
:1029BA000F1311D0FFFF28C023F0010E246E232A23
:1029CA0003D0FFFFD8902436FFFF232EFAD72450D6
:1029DA00FF0A01010F17FFFF2150D8B416D028C0F3
:1029EA0023F0010E246E000E256E232A04D0FFFF69
:1029FA00D89024362536FFFF232EF9D7245000011C
:102A0A00F71325500001F8131AD0FFFF28C023F04E
:102A1A00010E246E000E256E232A04D0FFFFD890E3
:102A2A0024362536FFFF232EF9D7241C266E251CB3
:102A3A00276E26500001F71727500001F817FFFFED
:102A4A001200FFFFFFFF376E5250375CD8B075D0C7
:102A5A0031503210D8A409D0000E0101206F000EA7
:102A6A00216F000E226F000E2AD0FFFF312809E1E4
:102A7A003228D8A406D00101206921692269236974
:102A8A0020D0FFFF92EC01F021C0D9FF22C0DAFF6B
:102A9A00DECF33F0DECF34F0DECF35F0DECF36F0E6
:102AAA00315033240101206F325034200101216F4B
:102ABA00000E35200101226F000E36200101FFFFB2
:102ACA00236FFFFF48503724A96EA680A8CF38F09D
:102ADA00385047C033F0346A3326000E342234BEED
:102AEA0003D03404D8B029D0FFFF47503824A96E48
:102AFA00A680A8CF51F047503824336E3328506E41
:102B0A005150336E50500101E26F33C0E3F151501E
:102B1A00030D5050336E346AF3503326F450342286
:102B2A0034BE03D03404D8B008D0FFFF000E4F6E75
:102B3A00010E0001EF6FA5EC15F0FFFF1200FFFF79
:102B4A00FFFF51504F5CD8A01DD0000E4F6E92EC83
:102B5A0001F021C0D9FF22C0DAFF01012051DE5C59
:102B6A0001012151DE5801012251DE58DE50800A4E
:102B7A002D6E01012351800A2D58D8A003D04AECAA
:102B8A0001F04ED0FFFF4F50030DF3505024A96EB1
:102B9A00A680A8CF2EF02F6A060EFFFFD8902E36F9
:102BAA002F36E82EFAD7D1EC00F02E50212401015D
:102BBA00106F2F5022200101116F000E23200101F6
:102BCA00126F000E24200101136F4F50030DF350B2
:102BDA005024296E2928A96EA680A8CFCBFF4F5072
:102BEA00030DF3505024020FA96EA680A8CF30F02F
:102BFA004F2A3050D8B403D0CB50D8A405D0FFFF09
:102C0A00CA949484000E09D0FFFF30C021F0226AD2
:102C1A00D0EC1FF09494CA84010EFFFF0001EE6FFE
:102C2A00FFFF1200FFFFFFFFE9CF03F0EACF04F036
:102C3A00E1CF05F0E2CF06F0D9CF07F0DACF08F0FE
:102C4A00F3CF09F0F4CF0AF0F6CF0BF0F7CF0CF080
:102C5A00F8CF0DF0F5CF0EF09EB09DA00DD09E904E
:102C6A00010E0001DC27000EDD23DE23DF23F60E32
:102C7A00CF6E3C0ECE6E26D0FFFFF2A423D0F29484
:102C8A00452A0A0E4518D8A418D0000E456E582AAF
:102C9A000001E84BE92B3C0E5818D8A40ED0000EC0
:102CAA00586E5E2A180E5E18D8A407D0000E0001CE
:102CBA00E96F000EE86F000E5E6EFFFF1B0ED76E07
:102CCA00280ED66EFFFF0EC0F5FF0DC0F8FF0CC030
:102CDA00F7FF0BC0F6FF0AC0F4FF09C0F3FF08C0F4
:102CEA00DAFF07C0D9FF06C0E2FF05C0E1FF04C052
:102CFA00EAFF03C0E9FF02C0FBFF01C0FAFF5F92CF
:102D0A001100FFFFFFFF2DC183F083C0E2F0000135
:102D1A00E36B01012E51336E01012F510001816FC6
:102D2A0033C082F081C0E4F082C0E5F00001815135
:102D3A00812501012C6F030E536E83C084F032D0BB
:102D4A00FFFF5350010D2A0EF324D96E010EF42011
:102D5A00DA6E00018451020DF3503024E16EF45012
:102D6A003120E26EE6CF33F0E5CF34F034C033F0F1
:102D7A00346A3350DF6E532A00018451020DF35036
:102D8A003024D96EF4503120DA6E5350010D2A0ED8
:102D9A00F324E16E010EF420E26EDFCFE7FF532A3F
:102DAA000001842BFFFF0001835100018125336E4E
:102DBA00000E00018221346E00018451356E366A9C
:102DCA003350355C34503658D8A0BAD75350020F16
:102DDA000001806F81EC1CF0000180511200FFFF9E
:102DEA00FFFF82C02EF083C02FF098EC1FF0000185
:102DFA0084512E26000185512F222EC08CF02FC01F
:102E0A008DF000018E6B8F6B0001835105E1030E7B
:102E1A000001825DD8A030D080C026F081C027F0A2
:102E2A00F9EC1CF026502710D8A405D0000E00019A
:102E3A008B6F020E05D0FFFF000E00018B6F010E93
:102E4A00FFFF8A6F8AC086F08BC087F0000E0001F0
:102E5A0087BFFF0E886F896F0001865100018C5F62
:102E6A000001875100018D5B0001885100018E5BD2
:102E7A000001895100018F5BFFFF00018007D8A084
:102E8A00810780C02EF081C02FF07EEC1AF02E5000
:102E9A0000018C272F5000018D23305000018E2312
:102EAA00315000018F238CC080F08DC081F08EC01C
:102EBA0082F08FC083F01200FFFFFFFFD59E2DC066
:102ECA00D9FF2EC0DAFFDF505E6E2FC0D9FF30C0A7
:102EDA00DAFFDF50586E5E503C0D5850F324000163
:102EEA00E86F000EF4200001E96F31C0D9FF32C04B
:102EFA00DAFFDF50376E37C021F0226A000E246EE7
:102F0A00060E236E24EC1BF02150456E37C021F0CB
:102F1A00226A000E246E060E236EFEEC1BF0215070
:102F2A000008060F386E3850216E226A236A246A16
:102F3A00240E256E260E266E000E276E000E286EB3
:102F4A00BCEC1DF0211E221E231E241E212A000E67
:102F5A00222223222422000E2124336E000E222054
:102F6A00346E010E2320356E000E2420366E34C0D6
:102F7A0033F035C034F036C035F0366A35BE3668BF
:102F8A003350D76E3850240DF3500008D66ED58EC4
:102F9A001200FFFFFFFF910E216E000E226E8F0EB0
:102FAA00236E000E246E930E256E000E266E17EC0D
:102FBA001EF021C094F022C095F094C0D9FF95C0AC
:102FCA00DAFFDF50D8B44DD0FF0E00018B6FFF0E31
:102FDA0000018C6F91C08DF092C08EF000018B5170
:102FEA0000018D2700018C5100018E2300018D51B3
:102FFA0000018F2700018E510001902394C0D9FF50
:10300A0095C0DAFF640EDE18D8A40FD0100E0001A6
:10301A009319D8A426D0000E216E000E226E050E3A
:10302A00A0EC14F0FDEC11F01CD0FFFF94C0D9FF06
:10303A0095C0DAFF650EDE18D8A403D068EC19F043
:10304A0010D0FFFF94C0D9FF95C0DAFF150EDE1825
:10305A00D8A407D006EC19F0010E216E000EEBEC95
:10306A001EF0FFFF1200FFFFFFFF2CC132F001012B
:10307A00315130C130F0316A30C031F0306A30122B
:10308A00000E3112D8903034346E3134356E34C07B
:10309A00E2F035C0E3F00101335132C130F0316A58
:1030AA0030C031F0306A3012000E3112D89030340C
:1030BA00366E3134376E36C0E4F037C0E5F0322868
:1030CA00536E000E386E25D0FFFFA6B2FDD73850DA
:1030DA003424A96E3850306E316A0A0E3026000E3A
:1030EA0031222A0E3024D96E010E3120DA6EDF50D9
:1030FA00A86EA69EA69CD890F2BED880F29EA68400
:10310A00550EA76EAA0EA76EA682A694D8B0F28E06
:10311A00382AFFFF3850306E316A3650305C3750EB
:10312A003158D8A0D1D7FFFFA6B2FDD753C033F08C
:10313A0081EC1CF033501200FFFFFFFF4128D8B486
:10314A005DD0840E216E000E226EA7EC00F00009FD
:10315A00D8B454D0000184513B1850E10001855184
:10316A003C18D8A44BD03950D8B408D0020E216EDE
:10317A00000E226E99EC01F05CEC05F0FFFF41C0F5
:10318A003AF0010E396E030E216E010E226E99EC91
:10319A0001F05CEC05F04E50D8B407D0E6C031F02F
:1031AA00E7C032F04E0427EC15F0FFFF92EC01F075
:1031BA0021C0D9FF22C0DAFFDECF80F0DECF81F056
:1031CA00DECF82F0DECF83F05650000180253D6EBF
:1031DA00000E000181213E6E000E000182213F6E29
:1031EA00000E00018321406EFDEC11F03A500001FF
:1031FA00806F41500101D86F80C0D9F1FFFF1200E2
:10320A00FFFFFFFF35EC1FF0020EA96EA680A8CFC4
:10321A0056F0000E266E000E7CEC00F0030EA96E2E
:10322A00A680A8CF4DF04D28D8A402D0000E4D6E2E
:10323A00FFFF3C0E4D6404D0020EE6EC00F040D0D5
:10324A00FFFF0A0EA96EA680A8CF57F05728D8A468
:10325A0002D0000E576EFFFF57504D5CD8B004D015
:10326A00030EE6EC00F02CD0FFFF5750020DF3508E
:10327A000B0F2C6E2CC0A9FFA680A8CF52F05228A3
:10328A00D8A403D0000E526E06D0FFFF2C28486E39
:10329A0048505224476EFFFF52502A6E5750010180
:1032AA00E06F2AC0E1F1000E0001D26F000E3C6E01
:1032BA00000E3B6E000E396E3A684168FDEC11F063
:1032CA00FFFF1200FFFFFFFF44D0FFFF000E576E03
:1032DA00FFFFA6B2FDD70A0EA96E000EA86EA69E23
:1032EA00A69CD890F2BED880F29EA684550EA76EF0
:1032FA00AA0EA76EA682A694D8B0F28EFFFFA6B237
:10330A00FDD706EC19F0010E216E000EEBEC1EF053
:10331A0034D0FFFF63EC10F030D0FFFF84EC01F0F3
:10332A0021C0D9FF22C0DAFFDF5000018A6F0001F5
:10333A008A51316E326A6FEC01F021C0D9FF22C086
:10334A00DAFFDF5027EC15F018D0FFFF22EC1AF055
:10335A0014D0FFFF68EC01F021C0D9FF22C0DAFFC8
:10336A00DF50800AD8B4B1D7020AD8B4D2D7010A3A
:10337A00D8B4EBD7120AD8B4D0D7FFFF1200FFFF98
:10338A00FFFF01012C51326E01012D510001816FA5
:10339A0032C082F081C0E2F082C0E3F0000E000188
:1033AA00E56F010EE46F000181510F0B0001836F7D
:1033BA0001012E29D8A418D083C032F0010E336E31
:1033CA00000E346E322A04D0FFFFD89033363436DA
:1033DA00FFFF322EF9D730C0D9FF31C0DAFF3350A0
:1033EA00DE123450DD121CD0FFFF83C032F0010E12
:1033FA00336E000E346E322A04D0FFFFD890333673
:10340A003436FFFF322EF9D7331C356E341C366E34
:10341A0030C0D9FF31C0DAFF3550DE163650DD161E
:10342A00FFFF060E536E5350020F0001806F81ECAE
:10343A001CF0000180511200FFFFFFFF6FEC01F04A
:10344A0021C0D9FF22C0DAFFDF500001826F8BEC66
:10345A0001F021C0D9FF22C0DAFFDF500001816FDD
:10346A0000018251070B0001836F040E000183657E
:10347A0001D03CD0FFFF0001806B82AF02D0000177
:10348A00802B000180B10FD0000E216E000E226E3B
:10349A0000018351A0EC14F000018129D8B426D090
:1034AA004AEC01F023D0FFFF010E216E0001824594
:1034BA00E846030B010B226E00018351A0EC14F0C5
:1034CA0084EC01F021C0D9FF22C0DAFFDF500001ED
:1034DA00806F00018051316E326A0001815127EC00
:1034EA0015F0010E216E000EEBEC1EF0FFFF12002C
:1034FA00FFFFFFFF2EC021F02FC022F0236A246AAB
:10350A006D0E256E010E266E000E276E000E286EB9
:10351A00BCEC1DF021C034F022C035F023C036F0D7
:10352A0024C037F02EC027F02FC028F0000E2A6ED4
:10353A00640E296E5CEC1DF0271E281E274A282AD5
:10354A002EC032F02FC033F0D89033323232D890B6
:10355A003332323227503226285033223250342620
:10356A0033503522000E3622000E37222EC027F0A5
:10357A002FC028F0010E2A6E900E296E5CEC1DF009
:10358A002750342628503522000E3622000E3722C4
:10359A0034C02EF035C02FF036C030F037C031F0CD
:1035AA001200FFFFFFFFD080D082F28CF28ED08E05
:1035BA00CD8ECD94CD92CF0ECD169D809F80F60EE6
:1035CA00CF6E3C0ECE6E9E90CD80D59CD59AD59668
:1035DA00D580D582D584F28AF1841B0ED76E280E47
:1035EA00D66EF2945FEC01F017EC01F09D8A9F9A77
:1035FA00000E216EFFFF0E0E216401D00FD0FFFFD7
:10360A002150020DD40EF324D96E010EF420DA6E85
:10361A00000EDE6E000EDD6E212AECD7FFFF000ED3
:10362A00936E8990899289948996929092929294B3
:10363A0092969486948294908B941200FFFFFFFFD7
:10364A00000E266E24AE06D0236C241ED8B0242A7F
:10365A00010E266EFFFF22AE06D0216C221ED8B0C4
:10366A00222A010E261AFFFF000E286E000E276E70
:10367A0023502410D8B420D0010E256E05D0FFFFA8
:10368A00D89023362436252AFFFF24AEF8D7FFFF29
:10369A00D890273628362350215C24502258D8A0A7
:1036AA0005D02350215E2450225A2780FFFFD8904C
:1036BA0024322332252EEBD7FFFF2650D8B404D06C
:1036CA00276C281ED8B0282AFFFF27C021F028C05F
:1036DA0022F01200FFFFFFFF256E2C682D68000EF6
:1036EA002A6E2CD0FFFF2A50010D2A0EF324D96E20
:1036FA00010EF420DA6EDF50236E2C5023182C6E44
:10370A002D502D6E010E2B6EFFFF080E2B6401D07B
:10371A0013D0FFFF010E2C14286E296AD8902D327F
:10372A002C3228502910D8B404D0010E2C1AA00E1D
:10373A002D1AFFFF2B2AE8D7FFFF2A2AFFFF255061
:10374A002A5CD8A0CFD72D50266E276A2C50246E1B
:10375A00236A265023102C6E275024102D6E2CC05D
:10376A0021F02DC022F01200FFFFFFFF040E01011D
:10377A002C6F030E536E5350010D2A0EF324D96E8B
:10378A00010EF420DA6E010EDF6E532A5350010D3A
:10379A002A0EF324D96E010EF420DA6E010EDF6EC2
:1037AA00532A5350010D2A0EF324D96E010EF42028
:1037BA00DA6E010EDF6E532A5350010D2A0EF324DE
:1037CA00D96E010EF420DA6E000EDF6E532A5350C2
:1037DA00010D2A0EF324D96E010EF420DA6EFF0EC3
:1037EA00DF6E532A53C030F081EC1CF030501200C7
:1037FA00FFFFFFFF000E266E22AE06D0216C221EAE
:10380A00D8B0222A010E266EFFFF24AE04D0236C04
:10381A00241ED8B0242AFFFF23502410D8B41CD069
:10382A00010E256E05D0FFFFD89023362436252AAF
:10383A00FFFF24AEF8D7FFFF2350215C2450225803
:10384A00D8A004D02350215E2450225AFFFFD890DA
:10385A0024322332252EEFD7FFFF2650D8B404D0C6
:10386A00216C221ED8B0222AFFFF21C021F022C0DB
:10387A0022F01200FFFFFFFF266E23065350010DB0
:10388A002A0EF324D96E010EF420DA6E26C0DFFF69
:10389A00532A5350010D2A0EF324D96E010EF42037
:1038AA00DA6E23C0DFFF532A000E276E1DD0FFFFFA
:1038BA002750010D21C024F022C025F0F350242600
:1038CA00F450252224C0F6FF25C0F7FF5350010DFE
:1038DA002A0EF324D96E010EF420DA6E0800FFFFD7
:1038EA00F5CFDFFF272A532AFFFF2350275CD8B0E2
:1038FA001200FFFFDCD7FFFFFFFF535070EC1BF0F5
:10390A0021C02EF022C02FF05350010D2A0EF324AD
:10391A00D96E010EF420DA6E2F50DF6E532A5350FF
:10392A00010D2A0EF324D96E010EF420DA6E2EC090
:10393A00DFFF532A2A0E216E010E226E53C023F096
:10394A0012EC1FF0000E536ED1EC00F00001EA51A8
:10395A0021240101186F0001EB5122200101196F86
:10396A00000E232001011A6F000E242001011B6F93
:10397A000101264B272B1200FFFFFFFF01012C51EB
:10398A00336E01012D510001836F33C084F083C06F
:10399A00E2F084C0E3F0000E0001E56F010EE46F6F
:1039AA0001012E51336E01012F510001806F33C086
:1039BA0081F0D89000018335D96E00018435DA6E22
:1039CA003050D9263150DA2280C0DEFF81C0DDFFB7
:1039DA00060E536E5350020F0001826F81EC1CF0E9
:1039EA00000182511200FFFFFFFF010E2A6E26C05E
:1039FA0021F027C022F0010E246E900E236E9BEC5C
:103A0A001EF021502210D8B41BD0030E2614286EA3
:103A1A00000E2714296E28502910D8A40ED026C0CB
:103A2A0021F027C022F0000E246E640E236E9BEC58
:103A3A001EF021502210D8A403D0FFFF000E2A6ED8
:103A4A00FFFF2AC026F0276A1200FFFFFFFF2B6E36
:103A5A003950D8B429D02B50D8A404D0000E2D6EDA
:103A6A00020E04D0FFFF000E2D6E010EFFFF2C6E1A
:103A7A002CC021F0000E226E99EC01F05CEC05F0EE
:103A8A00000E396E3A68000E3D6E000E3E6E000E54
:103A9A003F6E000E406E4AEC01F03A50296E4150DA
:103AAA000101D86F29C0D9F1FFFF1200FFFFFFFF04
:103ABA00000E2D6E000E2C6E29502A10D8B420D07C
:103ACA00010E2B6E05D0FFFFD89029362A362B2AF5
:103ADA00FFFF2AAEF8D7FFFFD8902C362D36295093
:103AEA00275C2A502858D8A005D02950275E2A508A
:103AFA00285A2C80FFFFD8902A3229322B2EEBD756
:103B0A00FFFF2CC027F02DC028F01200FFFFFFFF97
:103B1A00000E236E040E536E14D0FFFF57EC1FF0F5
:103B2A00226E5350010D2A0EF324D96E010EF42091
:103B3A00DA6E22C0DFFF532A8B0E536402D0010EC5
:103B4A00236EFFFFA7EC01F00009D8A4E6D7010114
:103B5A00244B252B2350D8B405D00101284B292BFF
:103B6A00FD0E02D0FFFF5350FFFF1200FFFFFFFFC1
:103B7A00000E296E000E2A6E000E2B6E000E2C6EA1
:103B8A00FFFF21A008D02550292626502A22275097
:103B9A002B2228502C22FFFFD8902536263627368E
:103BAA002836D89024322332223221322150221050
:103BBA0023102410D8A4E4D729C021F02AC022F067
:103BCA002BC023F02CC024F01200FFFF02EE00F0FD
:103BDA0011EE00F0EE6AE550E150FCE1E250FAE144
:103BEA0001EE00F0F60EEE6AE806FDE100EEC2F024
:103BFA003B0EEE6AE806FDE100EE39F0250EEE6AAC
:103C0A00E806FDE15E0EF66E030EF76E000EF86E24
:103C1A000900F5CF5EF05F905F92000EF86E00012A
:103C2A0063EF07F0FFFF21502210D8B408D021C05B
:103C3A00D9FF22C0DAFFE2C0DEFFE3C0DDFFFFFFEB
:103C4A0023502410D8B408D023C0D9FF24C0DAFFE7
:103C5A00E4C0DEFFE5C0DDFFFFFF25502610D8B423
:103C6A0006D025C0D9FF26C0DAFF4CC0DFFFFFFF10
:103C7A005D0E216E000E226E1200FFFFFFFF296EFD
:103C8A000001D251D8B423D02950D8A404D0000EB0
:103C9A002B6E020E04D0FFFF000E2B6E010EFFFFEB
:103CAA002A6E2AC021F0000E226E0001D3515CEC6C
:103CBA0005F0000E0001D26F000E0001D46F000E55
:103CCA00D56F000ED66F000ED76F4AEC01F0FFFFDA
:103CDA001200FFFFFFFF216E18D0FFFF899892980C
:103CEA008988928820D0FFFF8B9694968B8694863B
:103CFA001AD0FFFF8B9094908B80948014D0FFFF92
:103D0A008B9294928B8294820ED0FFFF2150000AEC
:103D1A00D8B4E3D7010AD8B4E6D7030AD8B4E9D7A6
:103D2A00010AD8B4ECD7FFFF1200FFFFFFFF2350B0
:103D3A002410D8B41CD0010E256E05D0FFFFD890F0
:103D4A0023362436252AFFFF24AEF8D7FFFF235057
:103D5A00215C24502258D8A004D02350215E24503C
:103D6A00225AFFFFD89024322332252EEFD7FFFFA5
:103D7A0021C021F022C022F01200FFFFFFFF000E37
:103D8A00536E000E236EFFFF030E236401D019D079
:103D9A00FFFFA7EC01F00009D8A402D0FB0E13D054
:103DAA00FFFF57EC1FF0226E5350010D2A0EF32429
:103DBA00D96E010EF420DA6E22C0DFFF532A232ABD
:103DCA00E2D7FFFF5350FFFF1200FFFFFFFF246EF1
:103DDA002150D8B40FD024C022F0010E236E222A1B
:103DEA0003D0FFFFD8902336FFFF222EFAD72350A5
:103DFA00491210D0FFFF24C022F0010E236E222A9E
:103E0A0003D0FFFFD8902336FFFF222EFAD7235084
:103E1A00FF0A4916FFFF1200FFFFFFFF8B8A060EFB
:103E2A00FFFFE82EFDD700F0000E246E0ED0FFFF34
:103E3A00ACA2FDD72450010DF3502124D96EF450C1
:103E4A002220DA6EDF50AD6E242AFFFF2350245C55
:103E5A00D8A0EDD7FFFFACA2FDD78B9A1200FFFFC7
:103E6A00FFFF000E216EFFFF0E0E216401D017D056
:103E7A00FFFF2150010DC20EF324D96E000EF4206B
:103E8A00DA6E000EDF6E2150010D000EF324D96E9A
:103E9A00010EF420DA6E000EDF6E212AE4D7FFFF4E
:103EAA001200FFFFFFFFF29E4350D8B417D04450D0
:103EBA00010D000EF324D96E020EF420DA6EDF50E3
:103ECA00216E43064428D8A403D0000E446E02D0C3
:103EDA00FFFF442AFFFFF28E215003D0FFFFF28E2C
:103EEA00000EFFFF1200FFFFFFFF236E000E466E5B
:103EFA00468223C0F0F0040E216004D021C024F0D1
:103F0A00256A05D0FFFF000E256E000E246EFFFF06
:103F1A0024C0F3F022C0F5F0030E0001EB6FE80EA7
:103F2A00EA6F1200FFFFFFFF2EC021F02FC022F020
:103F3A000B0E246EF10E236EBCEC00F0410E212410
:103F4A00276EF40E2220286E000E2A6E640E296E49
:103F5A005CEC1DF027C02EF028C02FF01200FFFFE6
:103F6A00FFFF0A0E536E2CC15CF02DC15BF02EC10F
:103F7A0059F02FC15AF030C1F9F031C1FAF032C10B
:103F8A00FBF033C1FCF05350020F306E81EC1CF091
:103F9A0030501200FFFFFFFF21C023F0030E23164B
:103FAA00233ABD502318CF0B2318BD6E21C023F02E
:103FBA0022C024F0D89024322332D89024322332DB
:103FCA002350BE6E1200FFFFFFFF4D5000083D0F49
:103FDA00296EFFFF3C0E296401D00AD0FFFF000EB4
:103FEA00216E000E226E29505CEC05F0292AF1D7C9
:063FFA00FFFF1200FFFFB3
:020000040020DA
:08000000000100FFFFFFFFFFFC
:020000040030CA
:0E000000FF22070EFF0185FF0FC00FE00F402B
:0200000400F00A
:10000000117FFF0609FF01041003FF1517090B06F6
:0800100009000130200000008E
:00000001FF
