:0600000000F040EF00F0EB
:0A000800FFFF7682FFFFB8EF13F050
:10001800FFFF7680FFFFD8CF01F0E8CF02F0E0CFF6
:1000280003F0D9CF04F0DACF05F09EBA9DAA16D016
:10003800FFFF9EAAFDD7AECF06F0000E0001C62531
:10004800D96EDA6A020EDA2206C0DFFFC72BC6298C
:1000580002E1C66B01D0C62BFFFF9E9AFFFF05C0C9
:10006800DAFF04C0D9FF03C0E0FF02C0E8FF01C007
:0C007800D8FF76901000FFFF56EF13F049
:1006000000010203040506070F1011152B6465662F
:100610005461626C6F207320726173706973616ED4
:1006200069656D00687474703A2F2F626F6C69642D
:100630002E727500526173706973616E6965004353
:10064000323030302D424900424F4C494400312E67
:100650003031004D4D4D0000FFFF446E4450D96EC7
:10066000DA6A0A0ED926010EDBBE12D0DB5003E196
:10067000460EDE5C0DE34450D96EDA6A0A0ED926C6
:10068000010EDBBE0BD0DB5003E18B0EDE5C06E31C
:10069000FFFF40684168426843685CD1FFFF4450F7
:1006A000D96EDA6A0A0ED926DECF32F0DDCF33F00A
:1006B0006C0E32241E6E070E33201F6E4450D96E0E
:1006C000DA6A080ED926DECF34F0DDCF35F03428D3
:1006D000206E000E3520216E4450D96EDA6A060E67
:1006E000D926DECF22F0DDCF23F078EC11F01EC04A
:1006F00040F01FC041F020C042F021C043F0070E7F
:100700001F6EB20E1E6E216A010E206E236A226ECB
:1007100078EC11F01E50405E1F50415A2050425A52
:100720002150435A4450D96EDA6A040ED926DECFDE
:1007300032F0DDCF33F032C034F033C035F0000E8C
:1007400035BEFF0E366E376E40C038F041C039F00E
:1007500042C03AF043C03BF0180E3802F3CF3CF0F1
:10076000F4CF3DF03E6A3F6A3902F3503D26F45023
:100770003E22000E3F223802F3503D26F4503E2226
:10078000000E3F22180E3A02F3503E26F4503F224C
:10079000000E3902F3503E26F4503F22000E38027C
:1007A000F3503E26F4503F22180E3B02F3503F26F2
:1007B000000E3A02F3503F26000E3902F3503F2656
:1007C000000E3802F3503F2634503C24406E355022
:1007D0003D20416E36503E20426E37503F20436EE2
:1007E0004450D96EDA6A020ED926DECF32F0DDCF60
:1007F00033F032C034F033C035F0000E35BEFF0E9A
:10080000366E376E40C038F041C039F042C03AF021
:1008100043C03BF03C0E3802F3CF3CF0F4CF3DF048
:100820003E6A3F6A3902F3503D26F4503E22000EE4
:100830003F223802F3503D26F4503E22000E3F2264
:100840003C0E3A02F3503E26F4503F22000E39028D
:10085000F3503E26F4503F22000E3802F3503E265D
:10086000F4503F223C0E3B02F3503F26000E3A026A
:10087000F3503F26000E3902F3503F26000E380297
:10088000F3503F2634503C24406E35503D20416E9D
:1008900036503E20426E37503F20436E4450D96E52
:1008A000DA6ADECF32F0DDCF33F032C034F033C05D
:1008B00035F0000E35BEFF0E366E376E40C038F094
:1008C00041C039F042C03AF043C03BF03C0E380220
:1008D000F3CF3CF0F4CF3DF03E6A3F6A3902F3506B
:1008E0003D26F4503E22000E3F223802F3503D26B2
:1008F000F4503E22000E3F223C0E3A02F3503E26B8
:10090000F4503F22000E3902F3503E26F4503F22AD
:10091000000E3802F3503E26F4503F223C0E3B02BC
:10092000F3503F26000E3A02F3503F26000E3902E4
:10093000F3503F26000E3802F3503F2634503C243B
:10094000406E35503D20416E36503E20426E37504D
:100950003F20436EFFFF40C02EF041C02FF042C049
:1009600030F043C031F01200FFFFFFFF0C6E0C505F
:1009700001E171D13C0E0C6401D06DD1FFFF0C067A
:100980000C40E8423F0B0D6E0CC009F0030E091637
:10099000D89009340E6E53D10EC009F0092A010E09
:1009A0000A6E092A03D0FFFFD8900A36FFFF092EEE
:1009B000FAD70A1C0B6E0D50900FD96EDA6A0B50E5
:1009C000DF160EC009F0010E0A6E092A03D0FFFFE0
:1009D000D8900A36FFFF092EFAD70A1C0B6E0D506D
:1009E000900FD96EDA6A0B50DF160EC009F0092A93
:1009F000010E0A6E092A03D0FFFFD8900A36FFFFC6
:100A0000092EFAD70A1C0B6E0D50800FD96EDA6AC8
:100A10000B50DF160EC009F0010E0A6E092A03D032
:100A2000FFFFD8900A36FFFF092EFAD75FD00EC01D
:100A300009F0092A010E0A6E092A03D0FFFFD89097
:100A40000A36FFFF092EFAD70D50900FD96EDA6AD9
:100A50000A50DF120EC009F0010E0A6E092A03D0F7
:100A6000FFFFD8900A36FFFF092EFAD70A1C0B6E3B
:100A70000D50900FD96EDA6A0B50DF16085014E053
:100A80000EC009F0092A010E0A6E092A03D0FFFFE1
:100A9000D8900A36FFFF092EFAD70D50800FD96E75
:100AA000DA6A0A50DF1215D00EC009F0092A010EC9
:100AB0000A6E092A03D0FFFFD8900A36FFFF092EDD
:100AC000FAD70A1C0B6E0D50800FD96EDA6A0B50E4
:100AD000DF16FFFF0EC009F0010E0A6E092A03D0CF
:100AE000FFFFD8900A36FFFF092EFAD7FFFF0A1C36
:100AF0000B6E0D50800FD96EDA6A0B50DF16ABD03B
:100B00000EC009F0092A010E0A6E092A03D0FFFF60
:100B1000D8900A36FFFF092EFAD70A1C0B6E0D502B
:100B2000900FD96EDA6A0B50DF160EC009F0010E75
:100B30000A6E092A03D0FFFFD8900A36FFFF092E5C
:100B4000FAD70D50900FD96EDA6A0A50DF120EC034
:100B500009F0092A010E0A6E092A03D0FFFFD89076
:100B60000A36FFFF092EFAD7FFFF0A1C0B6E0D5045
:100B7000800FD96EDA6A0B50DF160850AAE00EC05B
:100B800009F0010E0A6E092A03D0FFFFD8900A3639
:100B9000FFFF092EFAD70D50800FD96EDA6A0A507E
:100BA000DF1259D00EC009F0092A010E0A6E092A77
:100BB00003D0FFFFD8900A36FFFF092EFAD70D5059
:100BC000900FD96EDA6A0A50DF120EC009F0010EDA
:100BD0000A6E092A03D0FFFFD8900A36FFFF092EBC
:100BE000FAD70D50900FD96EDA6A0A50DF1208500A
:100BF00014E00EC009F0092A010E0A6E092A03D07A
:100C0000FFFFD8900A36FFFF092EFAD70D50800F4C
:100C1000D96EDA6A0A50DF120ED00EC009F0092A26
:100C2000010E0A6E092A03D0FFFFD8900A36FFFF93
:100C3000092EFAD799D7FFFF0850A1E14AD7FFFF45
:100C4000075001E1A9D6010A01E1F1D6030A01E149
:100C500057D7010AA7E0FFFF1200FFFFFFFFFE0EBC
:100C60006F24D96EDA6A000EDA22DF50156E146A2C
:100C7000FF0E6F24D96EDA6A000EDA22DF501410EC
:100C8000206E1550216E6F50FE0FE3EC12F02050D5
:100C9000071803E12150081802E0FF0E1BD1226A59
:100CA000256AFFFF2550010F146E14C0F6FF060ED3
:100CB000F76E0800FFFFF5500101011903E1010E75
:100CC000226E04D0252A0E0E2564EBD7FFFF22509A
:100CD00002E1010EFFD0236A246AD4D00251146EBF
:100CE0000351286E14C029F00451146E0551236E6F
:100CF00014C024F0245003E1110E235C02E3030E20
:100D0000E9D0295010E1100E285C0DE22350282470
:100D1000146E24502920156E155005E1110E145C37
:100D2000FFFF01E2D3D0FFFF020ED4D00251146EB8
:100D30000351286E14C029F004C127F0275002E0A7
:100D40002728DDE12950EFE1100E285CE9D7025198
:100D5000146E0351286E14C029F0FFFF28C027F03D
:100D600027500001CE5DFFFFDEE3B0D00251146ECC
:100D70000351286E14C029F0055104C114F0156AFE
:100D800014C015F0146A1412145028261550292284
:100D900028C027F027500001CF5DE5D70251146E1F
:100DA0000351286E14C029F0055104C114F0156ACE
:100DB00014C015F0146A1412145028261550292254
:100DC000CCD7060E0319AFE10451ADE10505ABE147
:100DD000075106C114F0156A14C015F0146A1412F4
:100DE000000ED8901436153614C018F015C019F03E
:100DF00019BEFF0E1A6E1B6E095108C114F0156A58
:100E000014C015F0146A1412000ED890143615365A
:100E100014C01CF015C01DF01DBEFF0E1E6E1F6E0F
:100E20001C501824146E1D501920156E1E501A20C7
:100E3000166E1F501B20176E1750161002E1150476
:100E40006FD771D70E0E021901E043D703C126F008
:100E5000260407E0020E261804E0040E261801E01E
:100E60004ED7040E261832E1060E04652FD05BD74C
:100E70007F0E02192BE0020529E0100E021901E095
:100E80003ED724D0FFFF0151010A01E127D7030A11
:100E900001E124D7010A82E0070A01E167D7010ACC
:100EA00001E144D7030A01E152D7090A01E116D74B
:100EB0001F0A01E173D7010A09E0040A82E03E0A31
:100EC000C1E04F0AD5E0010AD8A4030AFFFF01C11F
:100ED000E8F0000EFFFF1200FFFFFFFF0C6E0C504A
:100EE000D96EDA6ADECF08F0DECF09F0DECF0AF085
:100EF000DECF0BF00001B451085CA86FB551095862
:100F0000A96FB6510A58AA6FB7510B58AB6FAB51C6
:100F1000AA1105E1410EA85D020EA9590EE3010ECA
:100F2000706E0C50D96EDA6ADECFB4F0DECFB5F059
:100F3000DECFB6F0DECFB7F0EAD0705001E1E7D0F7
:100F4000AB51AA1106E1810EA85D010EA95901E27B
:100F5000DED0706ADCD0F00E8916705003E090C0CD
:100F60008AFF03D0905180198A6EFFFF000EF9ECC2
:100F700014F0705003E091C08AFF04D00001915139
:100F800081198A6EFFFF010EF9EC14F0705003E036
:100F900092C08AFF04D00001925182198A6EFFFF2D
:100FA000020EF9EC14F0705003E09CC08AFF04D0EC
:100FB00000019C518C198A6EFFFF030EF9EC14F0AE
:100FC0008980B0D0F00E8916705003E093C08AFF7C
:100FD00003D0935183198A6EFFFF000EF9EC14F0D1
:100FE000705003E094C08AFF04D00001945184192A
:100FF0008A6EFFFF010EF9EC14F0705003E095C00B
:101000008AFF04D00001955185198A6EFFFF020EF8
:10101000F9EC14F0705003E09DC08AFF04D0000189
:101020009D518D198A6EFFFF030EF9EC14F0898231
:1010300079D0F00E8916705003E096C08AFF03D075
:10104000965186198A6EFFFF000EF9EC14F070506D
:1010500003E097C08AFF04D00001975187198A6E78
:10106000FFFF010EF9EC14F0705003E098C08AFF06
:1010700004D00001985188198A6EFFFF020EF9EC26
:1010800014F0705003E09EC08AFF04D000019E510E
:101090008E198A6EFFFF030EF9EC14F0898442D09A
:1010A000F00E8916705003E099C08AFF03D0995161
:1010B00089198A6EFFFF000EF9EC14F0705003E0FE
:1010C0009AC08AFF04D000019A518A198A6EFFFFE4
:1010D000010EF9EC14F0705003E09BC08AFF04D0BD
:1010E00000019B518B198A6EFFFF020EF9EC14F080
:1010F000705003E09FC08AFF04D000019F518F19F8
:101100008A6EFFFF030EF9EC14F089860BD0FFFF07
:10111000D85101E120D7010A01E154D7030A89E03F
:10112000010ABEE0FFFF0001D82BD8951200FFFF97
:10113000FFFF0001E86B61C0CFF064C0CEF02AEC85
:1011400017F0656E655003E1FFFF000EBFD0D75169
:10115000651812E065C0D7F0050E58EC16F00724AC
:101160000001A46F000E0820A56F000E0920A66FD5
:10117000000E0A20A76FE8D758EC16F00001A45122
:10118000075CA5510858A6510958A7510A58DCE335
:10119000D76BBEEC15F0666E040E666005D016ECDB
:1011A00017F0FFFF665092D0FFFFD65101010019E2
:1011B00003E016EC17F0C8D73FEC15F0666E16EC9E
:1011C00017F02EEC06F0676E675009E0672805E01F
:1011D0006750A3EC16F08CEC14F0675077D058EC05
:1011E00016F052D05E50D96EDA6ADECF16F0DDCF3F
:1011F00017F0D6EC0AF06AD05CC016F05DC017F0AC
:10120000D6EC0AF063D062C016F063C017F064C079
:1012100018F06DEC10F05AD05FC016F060C017F0F7
:1012200061C018F06DEC10F051D05E50CAEC11F0B6
:101230004DD062C016F063C017F064C018F0E8EC3F
:1012400013F044D0E8EC16F041D05E5081EC0CF085
:101250003DD062C016F063C017F064C018F04BECCC
:101260000FF034D01DEC13F031D022EC11F02ED061
:1012700025EC0AF02BD073EC0EF028D0F8EC15F02A
:1012800025D0C2EC16F022D0FFFF01010151010A66
:10129000A9E0030AB1E0010AB6E0070ABDE0010ACD
:1012A000C4E0030AC6E0010ACDE0080ACEE01F0A46
:1012B000D0E0010AD7E0040AD8E03E0AD9E04F0A9C
:1012C000DAE0010ADBE0030ADCE06BD7FFFF120083
:1012D000FFFFFFFF43EC17F062EC12F0C8EC10F0D8
:1012E00058EC16F007C0E9F008C0EAF009C0EBF0CE
:1012F0000AC0ECF0FEEC16F00001ED69010E076E7D
:10130000000E086E070E87EC0DF0010E076E086EDA
:10131000050E87EC0DF0FFFF58EC16F007C0EFF05C
:1013200008C0F0F009C0F1F00AC0F2F0EF0E6DEC69
:1013300007F0D0510BE0A051EF5DA151F059A2513F
:10134000F159A351F25902E30FEC10F082B208D028
:10135000742804E0010ED6EC14F002D00FEC17F064
:10136000FFFF0001E951EF5D686EEA51F059696EC7
:10137000EB51F1596A6EEC51F2596B6E6B506A1079
:1013800005E1E80E685C030E69584AE307EC17F0C4
:10139000742815E03FEC17F0D96EDA6A0001AC5101
:1013A000DE5CAD51DE58AE51DE58DE50800A6C6E08
:1013B000AF51800A6C5803E3000ED6EC14F03FECFA
:1013C00017F0D96EDA6ADECFB4F1DDCFB5F10001E6
:1013D000EE6BF36BF30E076EEE0E2CEC16F00009BD
:1013E0000FE00001F351ED190BE0EE51686EF3517F
:1013F0000101AC6F68C0ADF1F3C0EDF0B0EC0FF0DF
:101400000001EE51686EF3510101B26F68C0B3F193
:10141000EFC0E9F0F0C0EAF0F1C0EBF0F2C0ECF0A0
:101420005D6A5C6ADE0E5E6EAA0E5F6E010E606E15
:101430000F0E616E8C0E626E010E636E0F0E646E87
:1014400098EC08F01BEC12F066D7FFFF03C116F012
:1014500004C118F00101056B066B080E6F6E94D085
:10146000810E046F030E076F480E076E060E086E9E
:10147000000E88EC13F03F0E076E090E086E010E89
:1014800088EC13F04E0E076E050E086E020E88EC07
:1014900013F084D0820E046F040E076F240E076EC3
:1014A000100E086E030E88EC13F0100E076E140E6B
:1014B000086E040E88EC13F0530E076E040E086ECF
:1014C000050E88EC13F0340E076E0B0E086E060E38
:1014D00088EC13F063D0010E076F46D0810E046FC5
:1014E000480E076E060E086E185088EC13F056D0A2
:1014F000810E046F3F0E076E090E086E185088ECBF
:1015000013F04CD0810E046F4E0E076E050E086E60
:10151000185088EC13F042D0820E046F240E076E30
:10152000100E086E185088EC13F038D0820E046F3D
:10153000100E076E140E086E185088EC13F02ED0A3
:10154000820E046F530E076E040E086E185088EC5E
:1015500013F024D0820E046F340E076E0B0E086E4B
:10156000185088EC13F01AD0FFFF1850B7E0010AAA
:10157000BFE0030AC7E0010ACFE0070AD7E0010A8B
:10158000DFE0030AE7E00AD0FFFF1650010A01E19D
:1015900067D7030A01E17ED7060A9DE0FFFF6FC00F
:1015A00017F08CEC14F017501200FFFFFFFF010141
:1015B0000251186E0351206E18C021F020C0BCF0FB
:1015C00021C0BDF00451186E0551256E18C026F0DB
:1015D00025C0BEF026C0BFF025C018F026C019F007
:1015E000D89019321832D89019321832D89019324E
:1015F000183218501F6E25C018F0070E181601E09B
:101600001F2A1FC002F1030E6F6E246A226A236A2A
:101610004FD0225020241B6E235021201C6E1BC053
:101620001DF01DC018F016C019F017C01AF0182AC6
:1016300004D0FFFFD8901A321932FFFF182EF9D7C5
:1016400019A015D024C018F0010E196E182A03D065
:10165000FFFFD8901936FFFF182EFAD7000E6F241F
:10166000D96EDA6A010EDA221950DF1217D0FFFFA5
:1016700024C018F0010E196E182A03D0FFFFD8906D
:101680001936FFFF182EFAD7191C1A6E000E6F2498
:10169000D96EDA6A010EDA221A50DF16FFFF242A09
:1016A000070E246402D0246A6F2AFFFF224A232AED
:1016B000FFFF2550225C26502358ABE325C018F0CD
:1016C000070E181601E06F2A6F50020F1E6E8CEC89
:1016D00014F01E501200FFFFFFFF715001E185D092
:1016E0000A0E80EC16F0000901E17FD0732802E1B8
:1016F000736A01D0732AFFFF7450086E73500101A2
:10170000AE6F08C0AFF17150735C0EE373680001F7
:10171000C46BC56B0101B06BB16B7450086E735034
:10172000AE6F08C0AFF161D07350020DF3500B0FD4
:10173000A96EA680A8CF0CF00C501F0B3C0DF3CF68
:10174000C4F0F4CFC5F00C38E842070B0001C06FBD
:10175000C16B1AD0C16B0A0E11D0C16B1E0E0ED018
:10176000C16B3C0E0BD0010EC16F2C0E07D0020EC8
:10177000C16FD00E03D0070EC16F080EFFFFC06F00
:1017800019D0C069C16916D0FFFFC0C008F0C1C040
:1017900009F009500FE10850010ADCE0030ADDE01E
:1017A000010ADEE0070ADFE0010AE1E0030AE3E004
:1017B000010AE7E0FFFF7350020DF3500C0FA96E12
:1017C000A680A8CF0CF00C503F0BC427000EC523F9
:1017D0000C44E846030BD26FC4510A5CC5510B5848
:1017E00085E2C4C0B0F1C5C0B1F1FFFF1200FFFF38
:1017F000FFFFD59E0BC0D9FF0CC0DAFFDF50756E1E
:101800000DC0D9FF0EC0DAFFDF50726E75503C0D6F
:101810007250F3240001C26F000EF420C36F0FC09A
:10182000D9FF10C0DAFFDF501D6E060E076E1D5087
:1018300062EC15F00001C96F060E076E1D5042ECF8
:1018400016F0116E115006081E6E1EC011F0126ABD
:10185000136A146ADC0E1102F3CF15F0F4CF16F000
:10186000176A186A1202F3501626F4501722000E57
:101870001822D90E1102F3501626F4501722000E2A
:101880001822DC0E1302F3501726F4501822D90E3A
:101890001202F3501726F4501822FF0E1102F350D3
:1018A0001726F4501822DC0E1402F3501826D90E15
:1018B0001302F3501826FF0E1202F3501826FF0EE3
:1018C0001102F3501826000E1524196E000E162072
:1018D0001A6E010E17201B6E000E18201C6E1AC007
:1018E00019F01BC01AF01CC01BF01C6A1BBE1C6840
:1018F0001950D76E1E50DC0DF3CFD6FFD58E1200D7
:10190000FFFFFFFF246E01010251166E0351206E8E
:1019100016C021F020C0BCF021C0BDF00451166EED
:101920000551226E16C023F022C0BEF023C0BFF0C6
:10193000286A070E1F6E266A276A58D02650202470
:101940001B6E275021201C6E1BC025F028C016F0EE
:10195000000E1F24D96EDA6A010EDA22DF50176EEC
:10196000162A03D0FFFFD8901732FFFF162EFAD7A2
:101970001750010B1E6E1E5016E025C016F0010E0A
:10198000176E186A162A04D0FFFFD890173618363B
:10199000FFFF162EF9D72450D96EDA6A1750DE12DF
:1019A0001850DD1219D025C016F0010E176E186AF6
:1019B000162A04D0FFFFD89017361836FFFF162ED0
:1019C000F9D7171C196E181C1A6E2450D96EDA6AD2
:1019D0001950DE161A50DD16FFFF282A070E28645C
:1019E00002D0286A1F2AFFFF264A272AFFFF22501B
:1019F000265C23502758A2E3060E6F6E6F50020F2D
:101A00001D6E8CEC14F01D501200FFFFFFFF0E50F6
:101A1000126E0F50136E146A156A6D0E1202F3CF18
:101A200016F0F4CF17F0186A196A1302F35017264C
:101A3000F4501822000E1922010E1202F35017263C
:101A4000F4501822000E19226D0E1402F3501826BD
:101A5000F4501922010E1302F3501826F4501922E3
:101A6000000E1202F3501826F45019226D0E1502C2
:101A7000F3501926010E1402F3501926000E13021A
:101A8000F3501926000E1202F350192616C01AF050
:101A900017C01BF018C01CF019C01DF00EC007F0D5
:101AA0000FC008F00A6A640E096E16EC14F00EC03E
:101AB00012F00FC013F0D89013321232D8901332B4
:101AC00012320750125E0850135A12501A26135041
:101AD0001B22000E1C221D220EC007F00FC008F0B2
:101AE000010E0A6E900E096E16EC14F007501A26BD
:101AF00008501B22000E1C221D221AC00EF01BC013
:101B00000FF01CC010F01DC011F0000CFFFFFFFF14
:101B10000E6E070E0E6401D072D0FFFF075010E06A
:101B20000EC009F0010E0A6E092A03D0FFFFD890FB
:101B30000A36FFFF092EFAD70A5000019F130FD073
:101B40000EC009F0010E0A6E092A03D0FFFFD890DB
:101B50000A36FFFF092EFAD70A1C00019F17FFFF64
:101B6000085010E00EC009F0010E0A6E092A03D0D9
:101B7000FFFFD8900A36FFFF092EFAD70A5000015E
:101B80008F130FD00EC009F0010E0A6E092A03D080
:101B9000FFFFD8900A36FFFF092EFAD70A1C000172
:101BA0008F17FFFF075014E00EC009F0010E0A6EF8
:101BB0000B6A092A04D0FFFFD8900A360B36FFFFC4
:101BC000092EF9D70A500001DE130B50DF1317D08E
:101BD0000EC009F0010E0A6E0B6A092A04D0FFFF3D
:101BE000D8900A360B36FFFF092EF9D70A1C0C6E67
:101BF0000B1C0D6E0C500001DE170D50DF17FFFFA0
:101C00001200FFFFFFFF5ED0716AFFFFA6B2FDD793
:101C10000A0EA96EA86AD890F2BED880F29EA68459
:101C2000550EA76EAA0EA76EA682A69401E3F28EA9
:101C3000010E076E000E66EC14F052D037EC17F070
:101C4000D96EDA6ADF50276E3BEC17F0D96EDA6A8C
:101C5000DF50286E285044E02850226E236A3C0E44
:101C6000246E256A6D50245E000E255A2250245C95
:101C70002550800A266E2350800A265831E32750CB
:101C8000030B076E2740E8423F0B010B086E2850FC
:101C9000B5EC04F0010E076E000E66EC14F020D0D7
:101CA00037EC17F0D96EDA6ADF50176E186A33EC2A
:101CB00017F0D96EDA6ADF50E3EC0EF011D0A4EC25
:101CC00012F00ED0FFFF2FEC17F0D96EDA6ADF505A
:101CD000800A9AE0020AB2E0010AF1E0120AE0E0AA
:101CE000FFFF1200FFFFFFFF0A0E6F6E02C1D1F06F
:101CF00058D0FF005FD003C1D6F0FFFFA6B2FDD7DA
:101D0000010EA96ED6C0A8FFD890F2BED880F29E70
:101D1000A684550EA76EAA0EA76EA682A69401E30E
:101D2000F28E010E076E000E66EC14F043D0040E26
:101D30000B6E010E0C6E050E0D6E010E0E6E070E73
:101D40000F6E010E106EF8EC0BF0640E0101092508
:101D5000546E556A000E552208C152F0536A06C1EE
:101D600050F0516A04C14EF04F6A05C14CF04D6A03
:101D700007C14AF04B6A4A0E2CEC03F02EC045F026
:101D80002FC046F030C047F031C048F0450EB3ECEC
:101D900016F00001CA81010E076E000E66EC14F009
:101DA00009D0FFFF0001D151010AA5E0110ABFE0EF
:101DB0006F0A9FE0FFFF6F50020F496E8CEC14F02A
:101DC00049501200FFFFFFFF1D6E0001D5511D5C41
:101DD00060E21750181005E1B86BB96BBA6BBB6BBA
:101DE00022D0172807E1182805E1B869B969BA694E
:101DF000BB6919D03FEC17F0D96EDA6ADECF19F063
:101E0000DECF1AF0DECF1BF0DECF1CF01750192406
:101E10000001B86F18501A20B96F000E1B20BA6F5E
:101E2000000E1C20BB6FFFFFCC511D24A96EA680A5
:101E3000A8CF1EF01E50CBC019F01A6A1926000E4A
:101E40001A221ABE02D01A0424E2FFFFCB511E242C
:101E5000A96EA680A8CFD4F0CB511E24196E1928E4
:101E60006E6ED451196E6E500101B86F19C0B9F180
:101E70000001D451030D6E50F326000EF422F4BE7F
:101E800002D0F40406E2FFFFD36B010ED06F0FEC1B
:101E900010F01200FFFFFFFF0101035102C119F012
:101EA0001A6A19C01AF0196A1910206E1A50216E98
:101EB00020C0BCF021C0BDF005C122F022C0BEF0A0
:101EC0000001BF6B0101046B22C005F1060E6F6EAD
:101ED000236A2CD02350020D080EF324D96E010E74
:101EE000F420DA6EDF50196E2350020D070EF32432
:101EF000D96E010EF420DA6EDF501A6E19501D6E85
:101F00001AC01EF023502024196E000E21201A6ED4
:101F1000D89019361A3619501624D96E1A5017202F
:101F2000DA6E1DC0DEFF1EC0DDFF232AFFFF225038
:101F3000235C0EE21850196E1A6A235020241B6E7F
:101F4000000E21201C6E19501B5C1A501C58C2E355
:101F50006F50020F1F6E8CEC14F01F501200FFFF29
:101F6000FFFF73285AE0230E80EC16F0000955E0BD
:101F7000235024100CE16DEC16F073686CEC0BF040
:101F800074501F6E73500101AE6F1FC0AFF123502C
:101F90000001C41942E12450C5193FE1742807E04B
:101FA000020E076E086A24EC17F0B5EC04F073C05B
:101FB00074F0030E076E010E086E24EC17F0B5ECFA
:101FC00004F00001D25107E0C0C017F0C1C018F002
:101FD000D205E3EC0EF03FEC17F0D96EDA6ADECFF3
:101FE0001FF0DECF20F0DECF21F0DECF22F00001A7
:101FF000D9511F24AC6F000E2020AD6F000E2120A0
:10200000AE6F000E2220AF6F6CEC0BF074501F6EA1
:1020100073500101AE6F1FC0AFF11200FFFFFFFF51
:10202000D451D35D16E3D36B3FEC17F0D96EDA6A67
:102030000001B851DE5CB951DE58BA51DE58DE50AD
:10204000800A136EBB51800A135803E30FEC17F09C
:1020500041D0D351030DF3506E24A96EA680A8CFB2
:1020600014F0156A060EFFFFD89014361536E82EC8
:10207000FAD758EC16F0145007240001A06F155041
:102080000820A16F000E0920A26F000E0A20A36F86
:10209000D351030DF3506E240F6E0F28A96EA68046
:1020A000A8CFCBFFD351030DF3506E24020FA96EBE
:1020B000A680A8CF16F0D32B165002E0CB5003E138
:1020C000CA94948407D016C007F0086A13EC16F07F
:1020D0009494CA84FFFF1200FFFFFFFF03C120F0AA
:1020E00020C0BCF00001BD6B01010451196E055107
:1020F0001E6E19C01FF01EC0BEF01FC0BFF01E50E4
:102100001E24026F030E6F6E20C021F02AD0000E35
:102110006F24D96EDA6A010EDA222150020DF350D3
:102120001624E16EF4501720E26EE6CF19F0E5CFE9
:102130001AF01AC019F01A6A1950DF6E6F2A21506E
:10214000020DF3501624D96EF4501720DA6E000EEB
:102150006F24E16EE26A010EE222DFCFE7FF6F2A11
:10216000212AFFFF20501E24196E000E1F201A6E18
:1021700021501B6E1C6A19501B5C1A501C58C7E377
:102180006F50020F1D6E8CEC14F01D501200FFFFFB
:10219000FFFF6DEC16F0020EA96EA680A8CFD9F055
:1021A000010EA96EA680A8CF13F0132802E17F0EBE
:1021B000136E0C6A0D6A1350F4EC16F0030EA96E40
:1021C000A680A8CF6DF06D2801E16D6A3C0E6D64AC
:1021D00004D0020E93EC16F032D0FFFF0A0EA96E67
:1021E000A680A8CF71F0712801E1716A71506D5C11
:1021F00004E2030E93EC16F022D07150020DF3505E
:102200000B0F126E12C0A9FFA680A8CFD5F0D5295A
:1022100002E1D56B05D01228CC6FCC51D525CB6F00
:10222000FFFFD551106E71500101B66F10C0B7F1AC
:1022300073680001C46BC56B74686CEC0BF0FFFF36
:102240001200FFFFFFFF02C118F00101075106C194
:1022500016F0176A16C017F0166A1612D8901634C0
:102260001A6E17341B6E1AC0BCF01BC0BDF00951AA
:1022700008C116F0176A16C017F0166A1612D89021
:1022800016341C6E17341D6E1CC0BEF01DC0BFF08E
:1022900018286F6E1E6A1CD0FFFFA6B2FDD71E5015
:1022A0001A24A96E0A0E1E24D96EDA6A010EDA22E9
:1022B000DF50A86ED890F2BED880F29EA684550E4C
:1022C000A76EAA0EA76EA682A69401E3F28E1E2A1E
:1022D000FFFF1E50166E176A1C50165C1D501758D3
:1022E000DBE36FC019F08CEC14F019501200FFFF03
:1022F000FFFF20C00EF021C00FF01CEC15F02250A3
:102300000E2623500F220EC02AF00FC02BF02C6A8D
:102310002D6A215003E1030E205C21E31EC00CF066
:102320001FC00DF040EC14F00C500D1003E1296AB1
:10233000020E02D0296A010EFFFF286E28C024F089
:1023400029C025F0000E25BEFF0E266E276E2450F4
:102350002A5E25502B5A26502C5A27502D5A1E06DD
:10236000D8A01F061EC00EF01FC00FF006EC0DF027
:102370000E502A260F502B2210502C2211502D22A5
:102380002AC01EF02BC01FF02CC020F02DC021F061
:102390001200FFFFFFFF1E6E01010251166E035176
:1023A0001C6E16C01DF01CC0BCF01DC0BDF00001AD
:1023B000BF6B010EBE6F1C500F0B1F6E0101042975
:1023C00016E11FC016F0010E176E186A162A04D007
:1023D000FFFFD89017361836FFFF162EF9D71E507C
:1023E000D96EDA6A1750DE121850DD1219D01FC0EC
:1023F00016F0010E176E186A162A04D0FFFFD89047
:1024000017361836FFFF162EF9D7171C196E181C31
:102410001A6E1E50D96EDA6A1950DE161A50DD1681
:10242000FFFF060E6F6E6F50020F1B6E8CEC14F0E8
:102430001B501200FFFFFFFF2D0E076E310E086EBE
:102440002F0EA0EC15F0326E3250D96EDA6ADF50E2
:1024500036E029682A682FC02BF030C02CF02950B4
:102460002B262A502C222B502D262C502E22325037
:10247000D96EDA6A640EDE180CE1100E31181FE115
:10248000000E076E086E050E87EC0DF06CEC0BF07D
:1024900016D03250D96EDA6A650EDE1803E102EC0E
:1024A0000EF00DD03250D96EDA6A150EDE1807E143
:1024B000C8EC10F0010E076E000E66EC14F0FFFF82
:1024C0001200FFFFFFFFF28CF28ED08ECD8ECD94E6
:1024D000CD92CF0ECD169D809F80F60ECF6E3C0E16
:1024E000CE6E9E90CD80D59CD59AD596070ED512EE
:1024F000F28AF1841B0ED76E280ED66EF2941DEC74
:1025000017F0CFEC16F09D8A9F9A076AFFFF0750DD
:10251000020DAA0EF324D96E010EF420DA6EDE6AE3
:10252000DD6A072A0E0E0764F1D7936A89908992B3
:10253000899489969290929292949296948694829B
:1025400094908B941200FFFFFFFF33EC17F0D96ECD
:10255000DA6ADF50206E2050070B216E040E2164D2
:1025600001D02ED0FFFF1F6A20AE01D01F2A1FB05E
:1025700009D0000E076E086E215087EC0DF00FECAD
:1025800017F01ED0FFFF010E076E2044E846030B34
:10259000010B086E215087EC0DF037EC17F0D96E67
:1025A000DA6ADF50176E186A3BEC17F0D96EDA6AF8
:1025B000DF50E3EC0EF0010E076E000E66EC14F037
:1025C000FFFF1200FFFFFFFF0B6E12681368106A17
:1025D0001ED0000E1024D96EDA6A010EDA22DF5006
:1025E000121A010E116EFFFF010E12140E6E0F6A09
:1025F000D890133212320E500F1004E0010E121A4E
:10260000A00E131A112A080E1164EDD7102AFFFF2D
:102610000B50105CDEE313C00CF00D6A12500A6E12
:10262000096A0C500910126E0D500A10136E12C078
:1026300007F013C008F01200FFFFFFFF040E0101B6
:10264000026F030E6F6E000E6F24D96EDA6A010EF0
:10265000DA22010EDF6E6F2A000E6F24D96EDA6A5D
:10266000010EDA22010EDF6E6F2A000E6F24D96E82
:10267000DA6A010EDA22010EDF6E6F2A000E6F2475
:10268000D96EDA6A010EDA22010EDF6E6F2A000EB1
:102690006F24D96EDA6A010EDA22DF686F2A6FC002
:1026A00016F08CEC14F016501200FFFF02EE00F052
:1026B00011EE00F0EE6AE550E150FCE1E250FAE183
:1026C00001EE00F0C80EEE6AE806FDE100EE80F0D3
:1026D000690EEE6AE806FDE1726A716A706A6F6AF5
:1026E0006E6A6D6A8C0EF66E2E0EF76E000EF86E28
:1026F0000900F5CF73F00900F5CF74F00900F5CFAC
:1027000075F076907692000EF86E000169EF09F090
:10271000FFFF0A6E0806000E6F24D96EDA6A010EFA
:10272000DA220AC0DFFF6F2A000E6F24D96EDA6A40
:10273000010EDA2208C0DFFF6F2A0B6A13D00750A0
:102740000B24096E09C0F6FF060EF76E000E6F240B
:10275000D96EDA6A010EDA220800FFFFF5CFDFFF3B
:102760000B2A6F2AFFFF08500B5CE9E31200FFFF02
:10277000FFFF9EB09DA00CD09E900001B02B000EDC
:10278000B123B223B323F60ECF6E3C0ECE6E1CD017
:10279000FFFFF2A419D0F2940001C92B0A0EC91947
:1027A0000FE1C96B722AC24BC32B3C0E721808E1B1
:1027B000726A752A180E751803E1C26BC36B756ACD
:1027C0001B0ED76E280ED66EFFFF76921100FFFF0C
:1027D000FFFF01010251196E03511E6E19C01FF057
:1027E0001EC0BCF01FC0BDF00001BF6B010EBE6F6C
:1027F00001010451196E05511B6E19C01CF0D890CF
:102800001E34D96E1F34DA6E1650D9261750DA22CC
:102810001BC0DEFF1CC0DDFF060E6F6E6F50020F87
:102820001D6E8CEC14F01D501200FFFFFFFF0C6AB0
:102830000D6A09500A101EE0010E0B6E05D0FFFF55
:10284000D89009360A360B2AFFFF0AAEF8D7FFFFE9
:10285000D8900C360D360950075C0A50085805E32D
:102860000950075E0A50085A0C80D8900A32093283
:102870000B2EEDD70CC007F00DC008F01200FFFFC3
:10288000FFFF010E0F6E0CC007F00DC008F00A6EBE
:10289000900E096EB2EC14F00750081012E00CC054
:1028A0000EF0030E0E160CE10CC007F00DC008F080
:1028B0000A6A640E096EB2EC14F00750081001E1C8
:1028C0000F6A0FC00CF00D6A1200FFFFFFFF0A6EC7
:1028D000075010E00AC008F0010E096E082A03D064
:1028E000FFFFD8900936FFFF082EFAD709500001E4
:1028F000CD130FD00AC008F0010E096E082A03D0CC
:10290000FFFFD8900936FFFF082EFAD7091C0001F7
:10291000CD17FFFF1200FFFFFFFF6F50E3EC12F037
:1029200007C014F008C015F0000E6F24D96EDA6AE3
:10293000010EDA2215C0DFFF6F2A000E6F24D96E58
:10294000DA6A010EDA2214C0DFFF6F2A000E076E6A
:10295000010E086E6FC009F081EC15F06F6A58EF38
:1029600016F0FFFFFFFF09500A101AE0010E0B6E70
:1029700005D0FFFFD89009360A360B2AFFFF0AAEB2
:10298000F8D7FFFF0950075C0A50085804E30950C4
:10299000075E0A50085AD8900A3209320B2EF1D736
:1029A00007C007F008C008F01200FFFFFFFF116E1C
:1029B000115003E1136A020E02D0136A010EFFFFE9
:1029C000126E12C007F0086A24EC17F0B5EC04F0A0
:1029D00074680001AC6BAD6BAE6BAF6B0FEC17F0B6
:1029E00074500F6E73500101AE6F0FC0AFF1120043
:1029F000FFFFFFFF076E14D089989298898892880C
:102A000018D08B9694968B86948613D08B90949046
:102A10008B8094800ED08B9294928B82948209D07A
:102A2000FFFF0750E9E0010AECE0030AEFE0010ACA
:102A3000F2E0FFFF1200FFFFFFFFF10E106E0B0E22
:102A4000116E10500E02F3CF12F0F4CF13F00F02FC
:102A5000F350132611500E02F3501326410E122488
:102A6000076EF40E1320086E0A6A640E096E16ECE7
:102A700014F007C00EF008C00FF01200FFFFFFFFB8
:102A8000096A040E6F6E11D0DCEC15F0086E000EB2
:102A90006F24D96EDA6A010EDA2208C0DFFF6F2ACE
:102AA0008B0E6F6402D0010E096EFFFF2AEC17F047
:102AB0000009EAE1095002E0FD0E01D06F50FFFF6E
:102AC0001200FFFFFFFF086E0A6A075017E0010EB1
:102AD000096E04D0FFFFD8900736092AFFFF07AE22
:102AE000F9D7FFFFD8900A360750085C03E3075078
:102AF000085E0A80D8900732092EF3D70A501200D8
:102B0000FFFFFFFF8B8A060EFFFFE82EFDD700F0C8
:102B10000A6A0CD0FFFFACA2FDD70A500724D96E79
:102B2000000E0820DA6EDF50AD6E0A2AFFFF095052
:102B30000A5CF0E3FFFFACA2FDD78B9A1200FFFF07
:102B4000FFFF096E095007E00950D96EDA6ABCC070
:102B5000DEFFBDC0DDFF075007E00750D96EDA6A1F
:102B6000BEC0DEFFBFC0DDFF085005E00850D96ED3
:102B7000DA6AD1C0DFFFE80E1200FFFFFFFF6F6AC5
:102B8000096AFFFF2AEC17F0000902E1FB0E11D0E1
:102B9000DCEC15F0086E000E6F24D96EDA6A010EB7
:102BA000DA2208C0DFFF6F2A092A030E0964E9D779
:102BB0006F50FFFF1200FFFFFFFFF29E0001C751A1
:102BC00012E0000EC825D96EDA6A020EDA22DF5052
:102BD000076EC707C82902E1C86B01D0C82BFFFFE9
:102BE000F28E075002D0F28E000EFFFF1200FFFFA0
:102BF000FFFF0A0E6F6E02C1E7F003C1E6F004C1E9
:102C0000E0F005C1E1F006C1E2F007C1E3F008C160
:102C1000E4F009C1E5F06F50020F166E8CEC14F071
:102C200016501200FFFFFFFF07C009F0030E091640
:102C3000093ABD500918CF0B0918BD6E07C009F03D
:102C400008C00AF0D8900A320932D8900A32093204
:102C50000950BE6E1200FFFFFFFF086E752802E1EB
:102C6000000E0DD0F29E0850D96EDA6A75C0DFFFF3
:102C70000750D96EDA6A72C0DFFFF28E010EFFFFD5
:102C80001200FFFFFFFF086E080E096E0A6AFFFFC1
:102C9000D89008340A340A6ED890083607500A5C77
:102CA00002E307500A5E092EF2D70A501200FFFF16
:102CB000FFFFF29EB0C00BF0B1C00CF0B2C00DF03F
:102CC000B3C00EF0F28E0BC007F00CC008F00DC0C0
:102CD00009F00EC00AF01200FFFFFFFF076AFFFFB6
:102CE0000750900FD96EDA6ADF6A0750800FD96EED
:102CF000DA6ADF6A072A0E0E0764F1D70E0CFFFFAF
:102D0000FFFF076E752802E1000E0AD0F29E075001
:102D1000D96EDA6AC2C0DEFFC3C0DDFFF28E010EDB
:102D2000FFFF1200FFFFFFFF0F6E010E076E086E20
:102D3000060E87EC0DF0020E076E010E086E0F50A6
:102D4000B5EF04F0FFFFFFFF076E01C108F0D6C02A
:102D500000F10850800F0101016F07C002F1030E5E
:102D60006F6E030CFFFFFFFF076E0750D96EDA6A24
:102D7000DECFDAF0DECFDBF0DECFDCF0DECFDDF071
:102D80001200FFFFFFFFCAC002F1030E6F6E6F500B
:102D9000020F166E8CEC14F016501200FFFFFFFFAE
:102DA000AC6AAC8AAC84400EAF6EAB6AAB8EAB88BB
:102DB000949A8B9A1200FFFFFFFF0B6E0001CA6B03
:102DC0000BC0D6F0040E076000D0FFFF1200FFFF1B
:102DD000FFFFCDC002F1030E6F6E6FC016F08CECDA
:102DE00014F016501200FFFFFFFF0E6E0CC007F02C
:102DF0000DC008F00E50DCEF16F0FFFFFFFF0F0EC6
:102E0000BD12CB68CA82CA9094941200FFFFFFFFE4
:102E1000DA2B000EDB23DC23DD23000CFFFFFFFF9A
:102E20000001D06BCA9494841200FFFFFFFFF29E52
:102E30001DEC17F0F28E1200FFFFFFFF0001C66BC2
:102E4000C86BC76B1200FFFFFFFF6D50745C3D0F36
:102E50001200FFFFFFFF0001C7511200FFFFFFFF3D
:102E6000E70E1200FFFFFFFFE60E1200FFFFFFFF5D
:102E7000E10E1200FFFFFFFFE00E1200FFFFFFFF59
:0F2E8000DA0E1200FFFFFFFF1200FFFFFFFFFF40
:022E9000FFFF42
:020000040020DA
:08000000000100FFFFFFFFFFFC
:020000040030CA
:0E000000FF22070EFF0185FF0FC00FE00F402B
:0200000400F00A
:10000000117FFF0609FF01041003FF1517090B06F6
:0800100009000130200000008E
:00000001FF
