:0600000000F040EF00F0EB
:0A000800FFFF7782FFFFC5EF13F042
:10001800FFFF7780FFFFD8CF01F0E8CF02F0E0CFF5
:1000280003F0D9CF04F0DACF05F09EBA9DAA16D016
:10003800FFFF9EAAFDD7AECF06F0000E0001C72530
:10004800D96EDA6A020EDA2206C0DFFFC82BC7298A
:1000580002E1C76B01D0C72BFFFF9E9AFFFF05C0C7
:10006800DAFF04C0D9FF03C0E0FF02C0E8FF01C007
:0C007800D8FF77901000FFFF89EF12F016
:1006000000010203040506070F1011152B54616247
:100610006C6F207320726173706973616E69656DB0
:10062000207475726F005461626C6F207320726168
:1006300073706973616E69656D00687474703A2FC8
:100640002F626F6C69642E727500526173706973EA
:10065000616E69650043323030302D424900424FAF
:100660004C494400312E3031004D4D4D0000FFFF0C
:10067000446E4450D96EDA6A0A0ED926010EDBBEEA
:1006800012D0DB5003E1460EDE5C0DE34450D96E20
:10069000DA6A0A0ED926010EDBBE0BD0DB5003E16D
:1006A0008B0EDE5C06E3FFFF4068416842684368EA
:1006B0005CD1FFFF4450D96EDA6A0A0ED926DECF2C
:1006C00032F0DDCF33F06C0E32241E6E070E332075
:1006D0001F6E4450D96EDA6A080ED926DECF34F088
:1006E000DDCF35F03428206E000E3520216E4450C9
:1006F000D96EDA6A060ED926DECF22F0DDCF23F0DE
:1007000060EC11F01EC040F01FC041F020C042F06C
:1007100021C043F0070E1F6EB20E1E6E216A010E3D
:10072000206E236A226E60EC11F01E50405E1F5056
:10073000415A2050425A2150435A4450D96EDA6AE5
:10074000040ED926DECF32F0DDCF33F032C034F0E4
:1007500033C035F0000E35BEFF0E366E376E40C02A
:1007600038F041C039F042C03AF043C03BF0180EB7
:100770003802F3CF3CF0F4CF3DF03E6A3F6A3902D5
:10078000F3503D26F4503E22000E3F223802F35033
:100790003D26F4503E22000E3F22180E3A02F3503E
:1007A0003E26F4503F22000E3902F3503E26F4500C
:1007B0003F22000E3802F3503E26F4503F22180E1E
:1007C0003B02F3503F26000E3A02F3503F26000E44
:1007D0003902F3503F26000E3802F3503F263450C2
:1007E0003C24406E35503D20416E36503E20426ED6
:1007F00037503F20436E4450D96EDA6A020ED92634
:10080000DECF32F0DDCF33F032C034F033C035F01C
:10081000000E35BEFF0E366E376E40C038F041C058
:1008200039F042C03AF043C03BF03C0E3802F3CFFF
:100830003CF0F4CF3DF03E6A3F6A3902F3503D266A
:10084000F4503E22000E3F223802F3503D26F45071
:100850003E22000E3F223C0E3A02F3503E26F45058
:100860003F22000E3902F3503E26F4503F22000E84
:100870003802F3503E26F4503F223C0E3B02F35028
:100880003F26000E3A02F3503F26000E3902F35085
:100890003F26000E3802F3503F2634503C24406E71
:1008A00035503D20416E36503E20426E37503F203D
:1008B000436E4450D96EDA6ADECF32F0DDCF33F0CA
:1008C00032C034F033C035F0000E35BEFF0E366E48
:1008D000376E40C038F041C039F042C03AF043C0F2
:1008E0003BF03C0E3802F3CF3CF0F4CF3DF03E6AD3
:1008F0003F6A3902F3503D26F4503E22000E3F225B
:100900003802F3503D26F4503E22000E3F223C0EAA
:100910003A02F3503E26F4503F22000E3902F350C3
:100920003E26F4503F22000E3802F3503E26F4508B
:100930003F223C0E3B02F3503F26000E3A02F3509A
:100940003F26000E3902F3503F26000E3802F350C6
:100950003F2634503C24406E35503D20416E365089
:100960003E20426E37503F20436EFFFF40C02EF0C6
:1009700041C02FF042C030F043C031F01200FFFF01
:10098000FFFF0C6E0C5001E171D13C0E0C6401D0E4
:100990006DD1FFFF0C060C40E8423F0B0D6E0CC002
:1009A00009F0030E0916D89009340E6E53D10EC00B
:1009B00009F0092A010E0A6E092A03D0FFFFD89018
:1009C0000A36FFFF092EFAD70A1C0B6E0D50900F46
:1009D000D96EDA6A0B50DF160EC009F0010E0A6EEE
:1009E000092A03D0FFFFD8900A36FFFF092EFAD755
:1009F0000A1C0B6E0D50900FD96EDA6A0B50DF1681
:100A00000EC009F0092A010E0A6E092A03D0FFFF61
:100A1000D8900A36FFFF092EFAD70A1C0B6E0D502C
:100A2000800FD96EDA6A0B50DF160EC009F0010E86
:100A30000A6E092A03D0FFFFD8900A36FFFF092E5D
:100A4000FAD75FD00EC009F0092A010E0A6E092AF2
:100A500003D0FFFFD8900A36FFFF092EFAD70D50BA
:100A6000900FD96EDA6A0A50DF120EC009F0010E3B
:100A70000A6E092A03D0FFFFD8900A36FFFF092E1D
:100A8000FAD70A1C0B6E0D50900FD96EDA6A0B5014
:100A9000DF16085014E00EC009F0092A010E0A6E94
:100AA000092A03D0FFFFD8900A36FFFF092EFAD794
:100AB0000D50800FD96EDA6A0A50DF1215D00EC0C1
:100AC00009F0092A010E0A6E092A03D0FFFFD89007
:100AD0000A36FFFF092EFAD70A1C0B6E0D50800F45
:100AE000D96EDA6A0B50DF16FFFF0EC009F0010E57
:100AF0000A6E092A03D0FFFFD8900A36FFFF092E9D
:100B0000FAD7FFFF0A1C0B6E0D50800FD96EDA6A00
:100B10000B50DF16ABD00EC009F0092A010E0A6E89
:100B2000092A03D0FFFFD8900A36FFFF092EFAD713
:100B30000A1C0B6E0D50900FD96EDA6A0B50DF163F
:100B40000EC009F0010E0A6E092A03D0FFFFD890EB
:100B50000A36FFFF092EFAD70D50900FD96EDA6AC8
:100B60000A50DF120EC009F0092A010E0A6E092A86
:100B700003D0FFFFD8900A36FFFF092EFAD7FFFFF8
:100B80000A1C0B6E0D50800FD96EDA6A0B50DF16FF
:100B90000850AAE00EC009F0010E0A6E092A03D01F
:100BA000FFFFD8900A36FFFF092EFAD70D50800FAD
:100BB000D96EDA6A0A50DF1259D00EC009F0092A3C
:100BC000010E0A6E092A03D0FFFFD8900A36FFFFF4
:100BD000092EFAD70D50900FD96EDA6A0A50DF123B
:100BE0000EC009F0010E0A6E092A03D0FFFFD8904B
:100BF0000A36FFFF092EFAD70D50900FD96EDA6A28
:100C00000A50DF12085014E00EC009F0092A010E44
:100C10000A6E092A03D0FFFFD8900A36FFFF092E7B
:100C2000FAD70D50800FD96EDA6A0A50DF120ED053
:100C30000EC009F0092A010E0A6E092A03D0FFFF2F
:100C4000D8900A36FFFF092EFAD799D7FFFF085030
:100C5000A1E14AD7FFFF075001E1A9D6010A01E14E
:100C6000F1D6030A01E157D7010AA7E0FFFF1200FE
:100C7000FFFFFFFF0C6E0C50D96EDA6ADECF08F072
:100C8000DECF09F0DECF0AF0DECF0BF00001B45169
:100C9000085CA86FB5510958A96FB6510A58AA6FD8
:100CA000B7510B58AB6FC451086EC551096E0A6A33
:100CB0000B6AA851085CA9510958AA510A58AB51AE
:100CC0000B580EE2010E726E0C50D96EDA6ADECF4E
:100CD000B4F0DECFB5F0DECFB6F0DECFB7F0F1D0B6
:100CE000725001E1EED0C251086EC351096E0A6A1A
:100CF0000B6AA851085CA9510958AA510A58AB516E
:100D00000B5801E3DED0726ADCD0F00E8916725007
:100D100003E090C08AFF03D0905180198A6EFFFFD4
:100D2000000ED4EC14F0725003E091C08AFF04D09E
:100D30000001915181198A6EFFFF010ED4EC14F06D
:100D4000725003E092C08AFF04D0000192518219D0
:100D50008A6EFFFF020ED4EC14F0725003E09CC0C8
:100D60008AFF04D000019C518C198A6EFFFF030E8C
:100D7000D4EC14F08980B0D0F00E8916725003E0E4
:100D800093C08AFF03D0935183198A6EFFFF000E30
:100D9000D4EC14F0725003E094C08AFF04D0000138
:100DA000945184198A6EFFFF010ED4EC14F0725036
:100DB00003E095C08AFF04D00001955185198A6E21
:100DC000FFFF020ED4EC14F0725003E09DC08AFFC6
:100DD00004D000019D518D198A6EFFFF030ED4ECE3
:100DE00014F0898279D0F00E8916725003E096C013
:100DF0008AFF03D0965186198A6EFFFF000ED4EC4D
:100E000014F0725003E097C08AFF04D0000197519C
:100E100087198A6EFFFF010ED4EC14F0725003E0C4
:100E200098C08AFF04D00001985188198A6EFFFF8C
:100E3000020ED4EC14F0725003E09EC08AFF04D07E
:100E400000019E518E198A6EFFFF030ED4EC14F040
:100E5000898442D0F00E8916725003E099C08AFF4F
:100E600003D0995189198A6EFFFF000ED4EC14F05B
:100E7000725003E09AC08AFF04D000019A518A1987
:100E80008A6EFFFF010ED4EC14F0725003E09BC099
:100E90008AFF04D000019B518B198A6EFFFF020E5E
:100EA000D4EC14F0725003E09FC08AFF04D000011C
:100EB0009F518F198A6EFFFF030ED4EC14F08986C0
:100EC0000BD0FFFFD85101E120D7010A01E154D72F
:100ED000030A89E0010ABEE0FFFF0001D82BD89584
:100EE0001200FFFFFFFFFE0E7124D96EDA6A000EBA
:100EF000DA22DF50156E146AFF0E7124D96EDA6A99
:100F0000000EDA22DF501410206E1550216E715041
:100F1000FE0FCAEC12F02050071803E12150081808
:100F200002E0FF0E0CD1226A256AFFFF2550010F57
:100F3000146E14C0F6FF060EF76E0800FFFFF550A2
:100F40000101011903E1010E226E04D0252A0B0EC6
:100F50002564EBD7FFFF225002E1010EF0D0236A97
:100F6000246ACAD00251146E0351286E14C029F0AD
:100F70000451146E0551236E14C024F0245003E173
:100F8000110E235C02E3030EDAD0295010E1100E9B
:100F9000285C0DE223502824146E24502920156E5D
:100FA000155005E1110E145CFFFF01E2C4D0FFFFF4
:100FB000020EC5D00251146E0351286E14C029F0E0
:100FC00004C127F0275002E02728DDE12950EFE196
:100FD000100E285CE9D70251146E0351286E14C01C
:100FE00029F0FFFF28C027F027500001CC5DFFFF4C
:100FF000DEE3A1D00251146E0351286E14C029F013
:10100000055104C114F0156A14C015F0146A1412C5
:10101000145028261550292228C027F027500001F7
:10102000CD5DE5D70251146E0351286E14C029F02E
:10103000055104C114F0156A14C015F0146A141295
:101040001450282615502922CCD7060E0319AFE1DB
:101050000451ADE10505ABE1075106C114F0156A75
:1010600014C015F0146A1412000ED89014361536F8
:1010700014C018F015C019F019BEFF0E1A6E1B6EC1
:10108000095108C114F0156A14C015F0146A14123D
:10109000000ED8901436153614C01CF015C01DF083
:1010A0001DBEFF0E1E6E1F6E1C501824146E1D50A8
:1010B0001920156E1E501A20166E1F501B20176E19
:1010C0001750161002E115046FD771D70E0E0219D2
:1010D00001E043D703C126F0260407E0020E2618DC
:1010E00004E0040E261801E04ED7040E261823E172
:1010F000060E046520D05BD7FFFF0151010A01E114
:1011000031D7030A01E12ED7010A8CE0070A01E179
:1011100071D7010A01E14ED7030A01E15CD7090A40
:1011200001E120D71F0A01E17DD7010A04E0040A8A
:101130008CE03E0ACBE0FFFF01C1E1F0000EFFFFB3
:101140001200FFFFFFFFE30E076EE60EA4EC15F0A2
:101150000001E86FE851D96EDA6ADF5001E1FBD097
:1011600066686768E6C068F0E7C069F066506826A0
:10117000675069226850E3276950E423E851D96E2B
:10118000DA6A060EDE1807E0E851D96EDA6A100E48
:10119000DE1801E0D2D0E651E71101E0CED08DC1DA
:1011A000E2F0ADD0FF00D7D08CEC15F0010E076E49
:1011B000000E41EC14F0BBD0736AFFFFA6B2FDD75E
:1011C000120EA96EA86AD890F2BED880F29EA684AC
:1011D000550EA76EAA0EA76EA682A69401E3F28E04
:1011E000010E076E000E41EC14F0A1D03C0E7360AE
:1011F00056D07350020DF350130FE56F01018F515C
:101200000001E96FFFFFA6B2FDD7E5C0A9FFE9C065
:10121000A8FFD890F2BED880F29EA684550EA76E85
:10122000AA0EA76EA682A69401E3F28E8EC1E9F003
:10123000FFFFA6B2FDD70001E529A96EE9C0A8FF0E
:10124000D890F2BED880F29EA684550EA76EAA0E44
:10125000A76EA682A69401E3F28E010E076E000E21
:10126000086E7350C0EC04F0732AFFFFA6B2FDD7DE
:10127000120EA96E73C0A8FFD890F2BED880F29E5D
:10128000A684550EA76EAA0EA76EA682A69401E3A9
:10129000F28E010E076E000E41EC14F048D0FFFFF5
:1012A000000E076E41EC14F042D08EC1E9F0E95116
:1012B000030B076EE941E8423F0B010B086E010189
:1012C0008F51C0EC04F001018E6B8F6B010E076E25
:1012D000000E41EC14F02BD08EC107F08FC108F046
:1012E00073EC15F08CC1CBFF22D08EC115F001013B
:1012F0008C51BDEC0EF01BD099EC13F018D0FFFF11
:10130000E251010A14E0110A01E14ED76F0A01E12E
:1013100049D7FF0A01E150D7010A01E167D7030A63
:10132000C4E0010AE9E0130AD7E0010ADEE0FFFFAA
:1013300001018C6B8D6B8E6B8F6B0001E851D96E48
:10134000DA6A150EDE1807E1B3EC0CF0010E076E39
:10135000000E41EC14F0FFFF1200FFFFFFFF82ECD4
:1013600016F046EC12F0B3EC0CF0D1EC15F007C01F
:10137000EAF008C0EBF009C0ECF00AC0EDF062EC56
:1013800016F00001EE6BEF6BF06BF16BF269010E82
:10139000076E000E086E070E42EC0EF0010E076E8F
:1013A000086E050E42EC0EF0FFFFD1EC15F007C001
:1013B000F5F008C0F6F009C0F7F00AC0F8F0F50E35
:1013C00039EC06F0752844E0EE51F55DA86FEF5159
:1013D000F659A96FF051F759AA6FF151F859AB6F4F
:1013E000FB516A6EFC516B6E6C6A6D6AA8516A5C47
:1013F000A9516B58AA516C58AB516D5815E2D3C026
:1014000007F0086A73EC15F0D4C0CBFF9494CA843B
:10141000010E0001C66FF5C0EEF0F6C0EFF0F7C0A8
:10142000F0F0F8C0F1F014D0C65112E0F9516A6E34
:10143000FA516B6E6C6A6D6AA8516A5CA9516B585F
:10144000AA516C58AB516D5803E2CA949484C66B90
:10145000FFFFCE510BE0A051F55DA151F659A2510D
:10146000F759A351F85902E354EC10F082B205D0B9
:10147000752803E0010E19EC15F0FFFF0001EA5199
:10148000F55D6A6EEB51F6596B6EEC51F7596C6E67
:10149000ED51F8596D6E6D506C1005E1E80E6A5C07
:1014A000030E6B584AE36BEC16F0752815E07AECE6
:1014B00016F0D96EDA6A0001AC51DE5CAD51DE582F
:1014C000AE51DE58DE50800A6E6EAF51800A6E5803
:1014D00003E3000E19EC15F07AEC16F0D96EDA6A17
:1014E000DECFB4F1DDCFB5F10001F36BF46BF40E98
:1014F000076EF30EBBEC15F000090FE00001F4518C
:10150000F2190BE0F3516A6EF4510101AC6F6AC03D
:10151000ADF1F4C0F2F0F5EC0FF00001F3516A6E9A
:10152000F4510101B26F6AC0B3F1F5C0EAF0F6C040
:10153000EBF0F7C0ECF0F8C0EDF0BCC02AF0BDC095
:101540002BF0DF0E2C6EAA0E2D6E010E2E6E0F0EDE
:101550002F6E8C0E306E010E316E0F0E326EB4ECAB
:101560000AF0A2EC08F020D7FFFF0001E16B2FC0CA
:10157000CDF032C0CCF07EEC16F0336E335003E188
:10158000FFFF000EA6D0D251331812E033C0D2F0C4
:10159000050ED1EC15F007240001A46F000E082001
:1015A000A56F000E0920A66F000E0A20A76FE8D7CE
:1015B000D1EC15F00001A451075CA5510858A651C3
:1015C0000958A7510A58DCE3D26BF7EC14F0346EDB
:1015D000040E346003D0FFFF34507BD0FFFFD151A5
:1015E00001010019CDE172EC07F0356E355009E0CC
:1015F000352805E03550F9EC15F067EC14F035505E
:1016000068D0D1EC15F049D02C50D96EDA6ADECF13
:1016100016F0DDCF17F01DEC0CF05BD02AC016F0F1
:101620002BC017F01DEC0CF054D030C016F031C0B8
:1016300017F032C018F0AFEC10F04BD02DC016F000
:101640002EC017F02FC018F0AFEC10F042D02C5085
:10165000B2EC11F03ED030C016F031C017F032C0FD
:1016600018F06BEC13F035D042EC16F032D02C5061
:101670003CEC0DF02ED030C016F031C017F032C067
:1016800018F02FEC0FF025D004EC13F022D00AEC68
:1016900011F01FD06CEC0BF01CD0FFFF01010151C9
:1016A000010AB2E0030ABAE0010ABFE0070AC6E095
:1016B000010ACDE0030ACFE0010AD6E0080AD7E02C
:1016C0001F0AD9E0010AE0E0040AE1E03E0AE2E094
:1016D00082D7FFFF1200FFFFFFFF03C116F004C116
:1016E00018F00101056B066B080E716E94D0810E27
:1016F000046F030E076F5E0E076E060E086E000E77
:101700003BEC13F0550E076E090E086E010E3BEC14
:1017100013F0640E076E050E086E020E3BEC13F01C
:1017200084D0820E046F040E076F3A0E076E100EFF
:10173000086E030E3BEC13F0260E076E140E086EB7
:10174000040E3BEC13F0690E076E040E086E050ED6
:101750003BEC13F04A0E076E0B0E086E060E3BECC8
:1017600013F063D0010E076F46D0810E046F5E0E3A
:10177000076E060E086E18503BEC13F056D0810E23
:10178000046F550E076E090E086E18503BEC13F0EF
:101790004CD0810E046F640E076E050E086E185053
:1017A0003BEC13F042D0820E046F3A0E076E100E1F
:1017B000086E18503BEC13F038D0820E046F260EE2
:1017C000076E140E086E18503BEC13F02ED0820EEC
:1017D000046F690E076E040E086E18503BEC13F090
:1017E00024D0820E046F4A0E076E0B0E086E18503E
:1017F0003BEC13F01AD0FFFF1850B7E0010ABFE02E
:10180000030AC7E0010ACFE0070AD7E0010ADFE0D8
:10181000030AE7E00AD0FFFF1650010A01E167D78B
:10182000030A01E17ED7060A9DE0FFFF71C017F0B1
:1018300067EC14F017501200FFFFFFFF0101025187
:10184000186E0351206E18C021F020C0BEF021C0D8
:10185000BFF00451186E0551256E18C026F025C042
:10186000C0F026C0C1F025C018F026C019F0D890ED
:1018700019321832D89019321832D89019321832D9
:1018800018501F6E25C018F0070E181601E01F2A09
:101890001FC002F1030E716E246A226A236A4FD0C0
:1018A000225020241B6E235021201C6E1BC01DF0D3
:1018B0001DC018F016C019F017C01AF0182A04D06D
:1018C000FFFFD8901A321932FFFF182EF9D719A04E
:1018D00015D024C018F0010E196E182A03D0FFFF8E
:1018E000D8901936FFFF182EFAD7000E7124D96E42
:1018F000DA6A010EDA221950DF1217D0FFFF24C076
:1019000018F0010E196E182A03D0FFFFD89019366F
:10191000FFFF182EFAD7191C1A6E000E7124D96E0B
:10192000DA6A010EDA221A50DF16FFFF242A070EA8
:10193000246402D0246A712AFFFF224A232AFFFF6F
:101940002550225C26502358ABE325C018F0070E23
:10195000181601E0712A7150020F1E6E67EC14F028
:101960001E501200FFFFFFFF020EA96EA680A8CF37
:10197000D3F0030EA96EA680A850040EA96EA6800F
:10198000A850050EA96EA680A8CFD4F0060EA96EA9
:10199000A680A8500001FA6FF96B070EA96EA68009
:1019A000A850FC6FFB6B080EA96EA680A850090E0C
:1019B000A96EA680A8500A0EA96EA680A8CFD9F05D
:1019C0000B0EA96EA680A8500C0EA96EA680A8507A
:1019D0000D0EA96EA680A8500E0EA96EA680A85066
:1019E0000F0EA96EA680A8500F6E106A060EFFFF9C
:1019F000D8900F361036E82EFAD70FC0C2F010C0BC
:101A0000C3F0100EA96EA680A8500F6E106A060EC5
:101A1000FFFFD8900F361036E82EFAD70FC0C4F06B
:101A200010C0C5F0120EA96EA680A8CF73F0D3C067
:101A300007F0086A73EC15F0D4C0CBFF8C0EA96ECA
:101A4000A680A8CF70F0702801E1706A010EA96E1F
:101A5000A6800C6A0D6AA8504EEC16F0E6EC15F064
:101A600003EC12F070500F6E0001CE510101B66F01
:101A70000FC0B7F11200FFFFFFFF246E01010251FA
:101A8000166E0351206E16C021F020C0BEF021C09A
:101A9000BFF00451166E0551226E16C023F022C00D
:101AA000C0F023C0C1F0286A070E1F6E266A276A9D
:101AB00058D0265020241B6E275021201C6E1BC09E
:101AC00025F028C016F0000E1F24D96EDA6A010E28
:101AD000DA22DF50176E162A03D0FFFFD890173294
:101AE000FFFF162EFAD71750010B1E6E1E5016E080
:101AF00025C016F0010E176E186A162A04D0FFFFD3
:101B0000D89017361836FFFF162EF9D72450D96E05
:101B1000DA6A1750DE121850DD1219D025C016F0FF
:101B2000010E176E186A162A04D0FFFFD8901736D8
:101B30001836FFFF162EF9D7171C196E181C1A6ECF
:101B40002450D96EDA6A1950DE161A50DD16FFFFDE
:101B5000282A070E286402D0286A1F2AFFFF264A77
:101B6000272AFFFF2250265C23502758A2E3060EA7
:101B7000716E7150020F1D6E67EC14F01D50120053
:101B8000FFFFFFFF0E50126E0F50136E146A156A9E
:101B90006D0E1202F3CF16F0F4CF17F0186A196A1F
:101BA0001302F3501726F4501822000E1922010ECA
:101BB0001202F3501726F4501822000E19226D0E4F
:101BC0001402F3501826F4501922010E1302F35098
:101BD0001826F4501922000E1202F3501826F45061
:101BE00019226D0E1502F3501926010E1402F3503E
:101BF0001926000E1302F3501926000E1202F3509C
:101C0000192616C01AF017C01BF018C01CF019C016
:101C10001DF00EC007F00FC008F00A6A640E096ECE
:101C2000F1EC13F00EC012F00FC013F0D890133285
:101C30001232D890133212320750125E0850135AE3
:101C400012501A2613501B22000E1C221D220EC0F9
:101C500007F00FC008F0010E0A6E900E096EF1EC4D
:101C600013F007501A2608501B22000E1C221D22BA
:101C70001AC00EF01BC00FF01CC010F01DC011F0F8
:101C8000000CFFFFFFFF0E6E070E0E6401D072D036
:101C9000FFFF075010E00EC009F0010E0A6E092A7E
:101CA00003D0FFFFD8900A36FFFF092EFAD70A505B
:101CB00000019F130FD00EC009F0010E0A6E092A11
:101CC00003D0FFFFD8900A36FFFF092EFAD70A1C6F
:101CD00000019F17FFFF085010E00EC009F0010E31
:101CE0000A6E092A03D0FFFFD8900A36FFFF092E9B
:101CF000FAD70A5000018F130FD00EC009F0010E61
:101D00000A6E092A03D0FFFFD8900A36FFFF092E7A
:101D1000FAD70A1C00018F17FFFF075014E00EC00E
:101D200009F0010E0A6E0B6A092A04D0FFFFD89051
:101D30000A360B36FFFF092EF9D70A500001DF13D0
:101D40000B50E01317D00EC009F0010E0A6E0B6A9B
:101D5000092A04D0FFFFD8900A360B36FFFF092E60
:101D6000F9D70A1C0C6E0B1C0D6E0C500001DF170E
:101D70000D50E017FFFF1200FFFFFFFF1A6E7050BB
:101D80001A5C6BE2155006E10001B86BB96BBA6BD7
:101D9000BB6B21D0152806E10001B869B969BA69A1
:101DA000BB6919D07AEC16F0D96EDA6ADECF16F07C
:101DB000DECF17F0DECF18F0DECF19F01550162465
:101DC0000001B86F000E1720B96F000E1820BA6F0F
:101DD000000E1920BB6FFFFF1A508D0FA96EA68051
:101DE000A8CF1BF01B5070C016F0176A1626000E05
:101DF00017228C0E1626000E172217BE02D01704CB
:101E00002CE2FFFF70501B248D0FA96EA680A8CF77
:101E1000D0F070501B248E0F6F6ED051166E6F5025
:101E20000101B86F16C0B9F10001D051030D6F5018
:101E3000F326000EF422F4BE02D0F4040EE2FFFFFB
:101E4000CF6B010ECE6F54EC10F07050166E000187
:101E5000CE510101B66F16C0B7F11200FFFFFFFFB0
:101E60000101035102C119F01A6A19C01AF0196A66
:101E70001910206E1A50216E20C0BEF021C0BFF094
:101E800005C122F022C0C0F00001C16B0101046B4A
:101E900022C005F1060E716E236A2CD02350020D6C
:101EA000080EF324D96E010EF420DA6EDF50196E9D
:101EB0002350020D070EF324D96E010EF420DA6EC2
:101EC000DF501A6E19501D6E1AC01EF023502024C8
:101ED000196E000E21201A6ED89019361A36195034
:101EE0001624D96E1A501720DA6E1DC0DEFF1EC0F0
:101EF000DDFF232AFFFF2250235C0EE21850196EEB
:101F00001A6A235020241B6E000E21201C6E1950CB
:101F10001B5C1A501C58C2E37150020F1F6E67EC15
:101F200014F01F501200FFFFFFFF4D6E4650D96E98
:101F3000DA6ADECF47F0DDCF48F048C047F0486AA4
:101F4000640E4724586E000E4820596E4650D96ED4
:101F5000DA6ADECF47F0DDCF48F04750566E576A59
:101F60004550D96EDA6ADECF47F0DDCF48F04850F1
:101F7000546E556A4D50D96EDA6ADECF47F0DDCF28
:101F800048F04850526E536A4D50D96EDA6ADECF2F
:101F900047F0DDCF48F04750506E516A4550D96E3A
:101FA000DA6ADECF47F0DDCF48F047504E6E4F6A19
:101FB000500E076E4E0E040F18EC16F04E0E37EC56
:101FC00003F02EC049F02FC04AF030C04BF031C0B2
:101FD0004CF0490E09EC16F0000E076E086E050E67
:101FE00042EC0EF003EF12F0FFFFFFFF74285AE0FF
:101FF000140E076E130EBBEC15F0000953E01350DE
:102000000CE114500AE1E6EC15F0746875500F6E9F
:1020100074500101AE6F0FC0AFF113500001D5191C
:1020200041E11450D6193EE1752806E0020E076E14
:10203000086A7528C0EC04F074C075F00001D7512F
:1020400007E1010E076E086E7528C0EC04F007D09A
:10205000020E076E010E086E7528C0EC04F0FFFF3B
:102060007AEC16F0D96EDA6ADECF0FF0DECF10F020
:10207000DECF11F0DECF12F00001D9510F24AC6F8A
:10208000000E1020AD6F000E1120AE6F000E12205A
:10209000AF6F03EC12F075500F6E74500101AE6F0C
:1020A0000FC0AFF11200FFFFFFFFD051CF5D16E36D
:1020B000CF6B7AEC16F0D96EDA6A0001B851DE5CAB
:1020C000B951DE58BA51DE58DE50800A136EBB514A
:1020D000800A135803E327EC16F03ED0CF51030DCE
:1020E000F3506F24A96EA680A850106E0F6AD1EC31
:1020F00015F00F5007240001A06F10500820A16FA9
:10210000000E0920A26F000E0A20A36FCF51030D0D
:10211000F3506F240F6E0F28A96EA680A8CFCBFFB7
:10212000CF51030DF3506F24020FA96EA680A8CFE4
:1021300014F0CF2B145002E0CB5004E1CA949484E5
:10214000C66B0AD014C007F0086A73EC15F09494BB
:10215000CA84010E0001C66FFFFF1200FFFFFFFFE0
:1021600003C120F020C0BEF00001BF6B010104518B
:10217000196E05511E6E19C01FF01EC0C0F01FC0A1
:10218000C1F01E501E24026F030E716E20C021F09C
:102190002AD0000E7124D96EDA6A010EDA2221509B
:1021A000020DF3501624E16EF4501720E26EE6CFD4
:1021B00019F0E5CF1AF01AC019F01A6A1950DF6E3B
:1021C000712A2150020DF3501624D96EF4501720B5
:1021D000DA6E000E7124E16EE26A010EE222DFCFB8
:1021E000E7FF712A212AFFFF20501E24196E000EDE
:1021F0001F201A6E21501B6E1C6A19501B5C1A504E
:102200001C58C7E37150020F1D6E67EC14F01D508F
:102210001200FFFFFFFF02C118F00101075106C1C4
:1022200016F0176A16C017F0166A1612D8901634F0
:102230001A6E17341B6E1AC0BEF01BC0BFF00951D6
:1022400008C116F0176A16C017F0166A1612D89051
:1022500016341C6E17341D6E1CC0C0F01DC0C1F0BA
:102260001828716E1E6A1CD0FFFFA6B2FDD71E5043
:102270001A24A96E0A0E1E24D96EDA6A010EDA2219
:10228000DF50A86ED890F2BED880F29EA684550E7C
:10229000A76EAA0EA76EA682A69401E3F28E1E2A4E
:1022A000FFFF1E50166E176A1C50165C1D50175803
:1022B000DBE371C019F067EC14F019501200FFFF56
:1022C000FFFF20C00EF021C00FF0B1EC14F022503F
:1022D0000E2623500F220EC02AF00FC02BF02C6ABE
:1022E0002D6A215003E1030E205C21E31EC00CF097
:1022F0001FC00DF01BEC14F00C500D1003E1296A07
:10230000020E02D0296A010EFFFF286E28C024F0B9
:1023100029C025F0000E25BEFF0E266E276E245024
:102320002A5E25502B5A26502C5A27502D5A1E060D
:10233000D8A01F061EC00EF01FC00FF0C1EC0DF09C
:102340000E502A260F502B2210502C2211502D22D5
:102350002AC01EF02BC01FF02CC020F02DC021F091
:102360001200FFFFFFFF1E6E01010251166E0351A6
:102370001C6E16C01DF01CC0BEF01DC0BFF00001D9
:10238000C16B010EC06F1C500F0B1F6E01010429A1
:1023900016E11FC016F0010E176E186A162A04D037
:1023A000FFFFD89017361836FFFF162EF9D71E50AC
:1023B000D96EDA6A1750DE121850DD1219D01FC01C
:1023C00016F0010E176E186A162A04D0FFFFD89077
:1023D00017361836FFFF162EF9D7171C196E181C62
:1023E0001A6E1E50D96EDA6A1950DE161A50DD16B2
:1023F000FFFF060E716E7150020F1B6E67EC14F03A
:102400001B501200FFFFFFFF73503EE00D0E076EE2
:102410000C0EBBEC15F0000937E0742802E1746A79
:1024200001D0742AFFFF7550096E74500101AE6F20
:1024300009C0AFF17350745C27E27450020DF35081
:10244000130FA96EA680A8CF0BF00B501F0B000135
:10245000D56F0B38E842070B010BD76F7450020D94
:10246000F350140FA96EA680A8CFD6F0D551096EEF
:10247000D6510101B06F09C0B1F10C500001D55D1A
:10248000CCE3D6510D5CC9E21200FFFFFFFFF28CD6
:10249000F28ED08ECD8ECD94CD92CF0ECD169D8066
:1024A0009F80F60ECF6E3C0ECE6E9E90CD80D59C5A
:1024B000D59AD596070ED512F28AF1841B0ED76EE7
:1024C0001F0ED66EF294D58E73EC16F035EC16F026
:1024D0009D8A9F9A076AFFFF0750020DAA0EF324F8
:1024E000D96E010EF420DA6EDE6ADD6A072A0E0E5E
:1024F0000764F1D7936A899089928994899692901A
:102500009292929492969486948294908B941200D4
:10251000FFFF02EE00F011EE00F0EE6AE550E15030
:10252000FCE1E250FAE101EE00F0C80EEE6AE806C6
:10253000FDE100EE80F0620EEE6AE806FDE1736AEE
:10254000726A716A706A6F6A0A0EF66E2D0EF76E05
:10255000000EF86E00EEF9F010EE04F00900F5CF71
:10256000EEFFE550E150FAE10E0EF66E2D0EF76E1D
:10257000000EF86E0900F5CF74F00900F5CF75F084
:102580000900F5CF76F077907792000EF86E000193
:10259000AEEF09F0FFFF0F6E12681368106A1ED0CD
:1025A000000E1024D96EDA6A010EDA22DF50121AF8
:1025B000010E116EFFFF010E12140D6E0E6AD890FF
:1025C000133212320D500E1004E0010E121AA00E3A
:1025D000131A112A080E1164EDD7102AFFFF0F50AD
:1025E000105CDEE313C00BF00C6A12500A6E096A2D
:1025F0000B500910126E0C500A10136E12C007F027
:1026000013C008F01200FFFFFFFF1B0E0101026F55
:10261000030E716E186AFFFF18500D0F166E16C06C
:10262000F6FF060EF76E000E7124D96EDA6A010EFF
:10263000DA220800FFFFF5CFDFFF182A712A180EF3
:102640001864E9D7000E7124D96EDA6A010EDA2215
:10265000210EDF6E712A000E7124D96EDA6A010E26
:10266000DA223E0EDF6E712A71C017F067EC14F0AB
:1026700017501200FFFFFFFF0A6E0806000E7124BC
:10268000D96EDA6A010EDA220AC0DFFF712A000E63
:102690007124D96EDA6A010EDA2208C0DFFF712ACE
:1026A0000B6A13D007500B24096E09C0F6FF060E03
:1026B000F76E000E7124D96EDA6A010EDA22080074
:1026C000FFFFF5CFDFFF0B2A712AFFFF08500B5CDD
:1026D000E9E31200FFFFFFFF01010251196E0351F0
:1026E0001E6E19C01FF01EC0BEF01FC0BFF000015B
:1026F000C16B010EC06F01010451196E05511B6EB3
:1027000019C01CF0D8901E34D96E1F34DA6E1650E2
:10271000D9261750DA221BC0DEFF1CC0DDFF060ED3
:10272000716E7150020F1D6E67EC14F01D50120097
:10273000FFFFFFFF8CC11DF01D50070B1E6E040E26
:102740001E6401D01FD0FFFF1C6A1DAE01D01C2AE1
:102750001CB007D0000E076E086E1E5042EC0EF043
:1027600011D0FFFF010E076E1D44E846030B010B5D
:10277000086E1E5042EC0EF08EC115F001018D5115
:10278000BDEC0EF0FFFF1200FFFFFFFF9EB09DA00B
:102790000CD09E900001B02B000EB123B223B323C6
:1027A000F60ECF6E3C0ECE6E18D0FFFFF2A415D001
:1027B000F2940001CA2B0A0ECA190BE1CA6BDA2B7C
:1027C0003C0EDA1906E1DA6B762A180E761801E16A
:1027D000766A1B0ED76E1F0ED66EFFFF7792110022
:1027E000FFFFFFFF0C6A0D6A09500A101EE0010E80
:1027F0000B6E05D0FFFFD89009360A360B2AFFFF73
:102800000AAEF8D7FFFFD8900C360D360950075C9A
:102810000A50085805E30950075E0A50085A0C8010
:10282000D8900A3209320B2EEDD70CC007F00DC03C
:1028300008F01200FFFFFFFF010E0F6E0CC007F043
:102840000DC008F00A6E900E096E8DEC14F0075062
:10285000081012E00CC00EF0030E0E160CE10CC0B6
:1028600007F00DC008F00A6A640E096E8DEC14F0D2
:102870000750081001E10F6A0FC00CF00D6A12003A
:10288000FFFFFFFF0A6E075010E00AC008F0010EBC
:10289000096E082A03D0FFFFD8900936FFFF082EE3
:1028A000FAD709500001CB130FD00AC008F0010E6F
:1028B000096E082A03D0FFFFD8900936FFFF082EC3
:1028C000FAD7091C0001CB17FFFF1200FFFFFFFF23
:1028D0007150CAEC12F007C014F008C015F0000ED9
:1028E0007124D96EDA6A010EDA2215C0DFFF712A6F
:1028F000000E7124D96EDA6A010EDA2214C0DFFFED
:10290000712A000E076E010E086E71C009F039ECD5
:1029100015F0716AD1EF15F0FFFFFFFF09500A10A3
:102920001AE0010E0B6E05D0FFFFD89009360A366B
:102930000B2AFFFF0AAEF8D7FFFF0950075C0A50C9
:10294000085804E30950075E0A50085AD8900A3222
:1029500009320B2EF1D707C007F008C008F01200AB
:10296000FFFFFFFFF10E106E0B0E116E10500E02E6
:10297000F3CF12F0F4CF13F00F02F35013261150DF
:102980000E02F3501326410E1224076EF40E13208C
:10299000086E0A6A640E096EF1EC13F007C00EF0BF
:1029A00008C00FF01200FFFFFFFF076E14D08998D8
:1029B00092988988928818D08B9694968B86948664
:1029C00013D08B9094908B8094800ED08B929492A5
:1029D0008B82948209D0FFFF0750E9E0010AECE006
:1029E000030AEFE0010AF2E0FFFF1200FFFFFFFF22
:1029F000096A716A11D058EC15F0086E000E712446
:102A0000D96EDA6A010EDA2208C0DFFF712A8B0E56
:102A1000716402D0010E096EFFFF7EEC16F0000912
:102A2000EAE1095002E0FD0E01D07150FFFF1200F3
:102A3000FFFFFFFF116E115003E1136A020E02D077
:102A4000136A010EFFFF126E12C007F0086A7528A4
:102A5000C0EC04F075680001AC6BAD6BAE6BAF6B96
:102A600075500F6E74500101AE6F0FC0AFF11200C0
:102A7000FFFFFFFF8B8A060EFFFFE82EFDD700F059
:102A80000A6A0CD0FFFFACA2FDD70A500724D96E0A
:102A9000000E0820DA6EDF50AD6E0A2AFFFF0950E3
:102AA0000A5CF0E3FFFFACA2FDD78B9A1200FFFF98
:102AB000FFFFF29EC85112E0000EC925D96EDA6AF6
:102AC000020EDA22DF50076EC807C92902E1C96B7E
:102AD00001D0C92BFFFFF28E075002D0F28E000EFC
:102AE000FFFF1200FFFFFFFF07C009F0030E0916EA
:102AF000093ABD500918CF0B0918BD6E07C009F07F
:102B000008C00AF0D8900A320932D8900A32093245
:102B10000950BE6E1200FFFFFFFF8EC160F08FC133
:102B200061F090C162F091C163F092C164F093C111
:102B300065F0620E456E640E466E600E94EC0FF00A
:102B40000001BC811200FFFFFFFF096E095007E082
:102B50000950D96EDA6ABEC0DEFFBFC0DDFF075084
:102B600007E00750D96EDA6AC0C0DEFFC1C0DDFFE2
:102B7000E10E1200FFFFFFFF086E762802E1000E53
:102B80000DD0F29E0850D96EDA6A76C0DFFF07508A
:102B9000D96EDA6ADAC0DFFFF28E010EFFFF120093
:102BA000FFFFFFFFF29EB0C00BF0B1C00CF0B2C04F
:102BB0000DF0B3C00EF0F28E0BC007F00CC008F0A1
:102BC0000DC009F00EC00AF01200FFFFFFFF076AF8
:102BD000FFFF0750900FD96EDA6ADF6A0750800F47
:102BE000D96EDA6ADF6A072A0E0E0764F1D70E0C77
:102BF000FFFFFFFF076E01C108F0D1C000F10850D0
:102C0000800F0101016F07C002F1030E716E030C0A
:102C1000FFFFFFFF076E0750D96EDA6ADECFDBF0E9
:102C2000DECFDCF0DECFDDF0DECFDEF01200FFFF26
:102C3000FFFF086E0850D96EDA6ADF50766E0750D3
:102C4000D96EDA6ADF500001DA6F1200FFFFFFFF72
:102C5000CE6BCA949484C66B7050076ECE5101013E
:102C6000B66F07C0B7F11200FFFFFFFFAC6AAC8A76
:102C7000AC84400EAF6EAB6AAB8EAB88949A8B9AE5
:102C80001200FFFFFFFFCBC002F1030E716E71C097
:102C900016F067EC14F016501200FFFFFFFF0E6EE7
:102CA0000CC007F00DC008F00E5058EF16F0FFFFF3
:102CB000FFFF0B6E0BC0D1F0040E076000D0FFFFCA
:102CC0001200FFFFFFFF0F0EBD12CB68CA82CA9031
:102CD00094941200FFFFFFFFDB2B000EDC23DD23AB
:102CE000DE23000CFFFFFFFF0001C76BC96BC86B41
:102CF0001200FFFFFFFFDB0E1200FFFFFFFFC851B6
:102D00001200FFFFFFFF1200FFFF00010004FFFFA2
:012D1000FFC3
:022D1200FFFFC1
:020000040020DA
:08000000000100FFFFFFFFFFFC
:020000040030CA
:0E000000FF22070EFF0185FF0FC00FE00F402B
:0200000400F00A
:10000000110A800F80FF01041003FF1517090B066A
:0800100009000130200000008E
:00000001FF
