:0600000000F040EF00F0EB
:0A000800FFFF7782FFFF70EF12F098
:10001800FFFF7780FFFFD8CF01F0E8CF02F0E0CFF5
:1000280003F0D9CF04F0DACF05F09EBA9DAA16D016
:10003800FFFF9EAAFDD7AECF06F0000E0001BF2538
:10004800D96EDA6A020EDA2206C0DFFFC02BBF299A
:1000580002E1BF6B01D0BF2BFFFF9E9AFFFF05C0D7
:10006800DAFF04C0D9FF03C0E0FF02C0E8FF01C007
:0C007800D8FF77901000FFFF34EF11F06C
:1006000000010203040506070F1011152B54616247
:100610006C6F207320726173706973616E69656DB0
:10062000207475726F005461626C6F207320726168
:1006300073706973616E69656D00687474703A2FC8
:100640002F626F6C69642E727500526173706973EA
:10065000616E69650043323030302D424900424FAF
:100660004C494400312E3031004D4D4D0000FFFF0C
:10067000446E4450D96EDA6A0A0ED926010EDBBEEA
:1006800012D0DB5003E1460EDE5C0DE34450D96E20
:10069000DA6A0A0ED926010EDBBE0BD0DB5003E16D
:1006A0008B0EDE5C06E3FFFF4068416842684368EA
:1006B0005CD1FFFF4450D96EDA6A0A0ED926DECF2C
:1006C00032F0DDCF33F06C0E32241E6E070E332075
:1006D0001F6E4450D96EDA6A080ED926DECF34F088
:1006E000DDCF35F03428206E000E3520216E4450C9
:1006F000D96EDA6A060ED926DECF22F0DDCF23F0DE
:100700000BEC10F01EC040F01FC041F020C042F0C2
:1007100021C043F0070E1F6EB20E1E6E216A010E3D
:10072000206E236A226E0BEC10F01E50405E1F50AC
:10073000415A2050425A2150435A4450D96EDA6AE5
:10074000040ED926DECF32F0DDCF33F032C034F0E4
:1007500033C035F0000E35BEFF0E366E376E40C02A
:1007600038F041C039F042C03AF043C03BF0180EB7
:100770003802F3CF3CF0F4CF3DF03E6A3F6A3902D5
:10078000F3503D26F4503E22000E3F223802F35033
:100790003D26F4503E22000E3F22180E3A02F3503E
:1007A0003E26F4503F22000E3902F3503E26F4500C
:1007B0003F22000E3802F3503E26F4503F22180E1E
:1007C0003B02F3503F26000E3A02F3503F26000E44
:1007D0003902F3503F26000E3802F3503F263450C2
:1007E0003C24406E35503D20416E36503E20426ED6
:1007F00037503F20436E4450D96EDA6A020ED92634
:10080000DECF32F0DDCF33F032C034F033C035F01C
:10081000000E35BEFF0E366E376E40C038F041C058
:1008200039F042C03AF043C03BF03C0E3802F3CFFF
:100830003CF0F4CF3DF03E6A3F6A3902F3503D266A
:10084000F4503E22000E3F223802F3503D26F45071
:100850003E22000E3F223C0E3A02F3503E26F45058
:100860003F22000E3902F3503E26F4503F22000E84
:100870003802F3503E26F4503F223C0E3B02F35028
:100880003F26000E3A02F3503F26000E3902F35085
:100890003F26000E3802F3503F2634503C24406E71
:1008A00035503D20416E36503E20426E37503F203D
:1008B000436E4450D96EDA6ADECF32F0DDCF33F0CA
:1008C00032C034F033C035F0000E35BEFF0E366E48
:1008D000376E40C038F041C039F042C03AF043C0F2
:1008E0003BF03C0E3802F3CF3CF0F4CF3DF03E6AD3
:1008F0003F6A3902F3503D26F4503E22000E3F225B
:100900003802F3503D26F4503E22000E3F223C0EAA
:100910003A02F3503E26F4503F22000E3902F350C3
:100920003E26F4503F22000E3802F3503E26F4508B
:100930003F223C0E3B02F3503F26000E3A02F3509A
:100940003F26000E3902F3503F26000E3802F350C6
:100950003F2634503C24406E35503D20416E365089
:100960003E20426E37503F20436EFFFF40C02EF0C6
:1009700041C02FF042C030F043C031F01200FFFF01
:10098000FFFF0C6E0C50D96EDA6ADECF08F0DECFB6
:1009900009F0DECF0AF0DECF0BF00001B051085CA9
:1009A000A46FB1510958A56FB2510A58A66FB3513F
:1009B0000B58A76FBC51086EBD51096E0A6A0B6ACD
:1009C000A451085CA5510958A6510A58A7510B58C3
:1009D0000EE2010E716E0C50D96EDA6ADECFB0F005
:1009E000DECFB1F0DECFB2F0DECFB3F0F1D0715098
:1009F00001E1EED0BA51086EBB51096E0A6A0B6A6A
:100A0000A451085CA5510958A6510A58A7510B5882
:100A100001E3DED0716ADCD0F00E8916715003E07C
:100A200090C08AFF03D0905180198A6EFFFF000E9C
:100A30007FEC13F0715003E091C08AFF04D00001F5
:100A4000915181198A6EFFFF010E7FEC13F07150F6
:100A500003E092C08AFF04D00001925182198A6E8D
:100A6000FFFF020E7FEC13F0715003E09CC08AFF81
:100A700004D000019C518C198A6EFFFF030E7FEC9D
:100A800013F08980B0D0F00E8916715003E093C046
:100A90008AFF03D0935183198A6EFFFF000E7FEC0B
:100AA00013F0715003E094C08AFF04D00001945108
:100AB00084198A6EFFFF010E7FEC13F0715003E082
:100AC00095C08AFF04D00001955185198A6EFFFFF9
:100AD000020E7FEC13F0715003E09DC08AFF04D03A
:100AE00000019D518D198A6EFFFF030E7FEC13F0FC
:100AF000898279D0F00E8916715003E096C08AFF82
:100B000003D0965186198A6EFFFF000E7FEC13F01A
:100B1000715003E097C08AFF04D0000197518719F4
:100B20008A6EFFFF010E7FEC13F0715003E098C056
:100B30008AFF04D00001985188198A6EFFFF020EC7
:100B40007FEC13F0715003E09EC08AFF04D00001D7
:100B50009E518E198A6EFFFF030E7FEC13F089847D
:100B600042D0F00E8916715003E099C08AFF03D07D
:100B7000995189198A6EFFFF000E7FEC13F07150B6
:100B800003E09AC08AFF04D000019A518A198A6E44
:100B9000FFFF010E7FEC13F0715003E09BC08AFF52
:100BA00004D000019B518B198A6EFFFF020E7FEC6F
:100BB00013F0715003E09FC08AFF04D000019F51E1
:100BC0008F198A6EFFFF030E7FEC13F089860BD01E
:100BD000FFFFCC5101E120D7010A01E154D7030AFC
:100BE00089E0010ABEE0FFFF0001CC2BCC9512008A
:100BF000FFFFFFFFFE0E7024D96EDA6A000EDA22C4
:100C0000DF50156E146AFF0E7024D96EDA6A000E7A
:100C1000DA22DF501410206E1550216E7050FE0F36
:100C200075EC11F02050071803E12150081802E07C
:100C3000FF0E0CD1226A256AFFFF2550010F146EAA
:100C400014C0F6FF060EF76E0800FFFFF550010115
:100C5000011903E1010E226E04D0252A0B0E256432
:100C6000EBD7FFFF225002E1010EF0D0236A246A85
:100C7000CAD00251146E0351286E14C029F00451D9
:100C8000146E0551236E14C024F0245003E1110E9C
:100C9000235C02E3030EDAD0295010E1100E285C29
:100CA0000DE223502824146E24502920156E15506F
:100CB00005E1110E145CFFFF01E2C4D0FFFF020E3C
:100CC000C5D00251146E0351286E14C029F004C11E
:100CD00027F0275002E02728DDE12950EFE1100E30
:100CE000285CE9D70251146E0351286E14C029F014
:100CF000FFFF28C027F027500001C35DFFFFDEE3A0
:100D0000A1D00251146E0351286E14C029F0055170
:100D100004C114F0156A14C015F0146A14121450AA
:100D200028261550292228C027F027500001C45D2D
:100D3000E5D70251146E0351286E14C029F00551F5
:100D400004C114F0156A14C015F0146A141214507A
:100D5000282615502922CCD7060E0319AFE10451DD
:100D6000ADE10505ABE1075106C114F0156A14C0E9
:100D700015F0146A1412000ED8901436153614C0EB
:100D800018F015C019F019BEFF0E1A6E1B6E09512E
:100D900008C114F0156A14C015F0146A1412000E7C
:100DA000D8901436153614C01CF015C01DF01DBEA9
:100DB000FF0E1E6E1F6E1C501824146E1D5019203D
:100DC000156E1E501A20166E1F501B20176E1750DE
:100DD000161002E115046FD771D70E0E021901E04B
:100DE00043D703C126F0260407E0020E261804E0CC
:100DF000040E261801E04ED7040E261823E1060E35
:100E0000046520D05BD7FFFF0151010A01E131D712
:100E1000030A01E12ED7010A8CE0070A01E171D72C
:100E2000010A01E14ED7030A01E15CD7090A01E199
:100E300020D71F0A01E17DD7010A04E0040A8CE0F3
:100E40003E0ACBE0FFFF01C1D4F0000EFFFF12000D
:100E5000FFFFFFFF0C6E0C5001E120D13C0E0C6433
:100E600001D01CD1FFFF0C060C40E8423F0B0D6E79
:100E70000CC009F0030E0916D89009340E6E05D186
:100E80000EC009F0092A010E0A6E092A03D0FFFFDD
:100E9000D8900A36FFFF092EFAD70A1C0B6E0D50A8
:100EA000900FD96EDA6A0B50DF160EC009F0010EF2
:100EB0000A6E092A03D0FFFFD8900A36FFFF092ED9
:100EC000FAD70A1C0B6E0D50900FD96EDA6A0B50D0
:100ED000DF160EC009F0092A010E0A6E092A03D096
:100EE000FFFFD8900A36FFFF092EFAD70A1C0B6EB7
:100EF0000D50800FD96EDA6A0B50DF160EC009F064
:100F0000010E0A6E092A03D0FFFFD8900A36FFFFB0
:100F1000092EFAD75FD00EC009F0092A010E0A6E19
:100F2000092A03D0FFFFD8900A36FFFF092EFAD70F
:100F30000D50900FD96EDA6A0A50DF120EC009F018
:100F4000010E0A6E092A03D0FFFFD8900A36FFFF70
:100F5000092EFAD70A1C0B6E0D50900FD96EDA6A63
:100F60000B50DF16085014E00EC009F0092A010EDC
:100F70000A6E092A03D0FFFFD8900A36FFFF092E18
:100F8000FAD70D50800FD96EDA6A0A50DF1215D0E9
:100F90000EC009F0092A010E0A6E092A03D0FFFFCC
:100FA000D8900A36FFFF092EFAD70A1C0B6E0D5097
:100FB000800FD96EDA6A0B50DF16FFFF0EC009F002
:100FC000010E0A6E092A03D0FFFFD8900A36FFFFF0
:100FD000092EFAD7FFFF0A1C0B6E0D50800FD96E39
:100FE000DA6A0B50DF165AD00EC009F0092A010E3A
:100FF0000A6E092A03D0FFFFD8900A36FFFF092E98
:10100000FAD70A1C0B6E0D50900FD96EDA6A0B508E
:10101000DF160EC009F0010E0A6E092A03D0FFFF89
:10102000D8900A36FFFF092EFAD70D50900FD96ECF
:10103000DA6A0A50DF120EC009F0092A010E0A6EA0
:10104000092A03D0FFFFD8900A36FFFF092EFAD7EE
:101050000A1C0B6E0D50800FD96EDA6A0B50DF162A
:101060000850ABE00EC009F0010E0A6E092A03D049
:10107000FFFFD8900A36FFFF092EFAD70D50800FD8
:10108000D96EDA6A0A50DF1209D0FFFF075001E17A
:10109000F7D6010A01E13FD7030AA6E0FFFF1200DD
:1010A000FFFFFFFF05EC15F0F1EC10F0BDEC0DF0CB
:1010B00063EC14F007C0DDF008C0DEF009C0DFF01B
:1010C0000AC0E0F0E5EC14F00001E16BE26BE36BC9
:1010D000E46BE569010E076E000E086E070E42EC28
:1010E0000DF0010E076E086E050E42EC0DF0FFFFCD
:1010F00063EC14F007C0E7F008C0E8F009C0E9F0BD
:101100000AC0EAF0E70EC0EC04F0752844E0E151B3
:10111000E75DA46FE251E859A56FE351E959A66F65
:10112000E451EA59A76FEE516A6EEF516B6E6C6A2B
:101130006D6AA4516A5CA5516B58A6516C58A751B1
:101140006D5815E2C7C007F0086A44EC12F0C8C039
:10115000CBFF9494CA84010E0001BE6FE7C0E1F09A
:10116000E8C0E2F0E9C0E3F0EAC0E4F014D0BE5118
:1011700012E0EC516A6EED516B6E6C6A6D6AA451AF
:101180006A5CA5516B58A6516C58A7516D5803E283
:10119000CA949484BE6BFFFF82B205D0752803E029
:1011A000010EC4EC13F0FFFF0001DD51E75D6A6E34
:1011B000DE51E8596B6EDF51E9596C6EE051EA5926
:1011C0006D6E6D506C1005E1E80E6A5C030E6B5895
:1011D0004AE3EEEC14F0752815E0FDEC14F0D96E3E
:1011E000DA6A0001A851DE5CA951DE58AA51DE5826
:1011F000DE50800A6E6EAB51800A6E5803E3000E1B
:10120000C4EC13F0FDEC14F0D96EDA6ADECFB4F161
:10121000DDCFB5F10001E66BEB6BEB0E076EE60E72
:101220004DEC14F000090FE00001EB51E5190BE063
:10123000E6516A6EEB510101AC6F6AC0ADF1EBC0D3
:10124000E5F0FBEC0EF00001E6516A6EEB51010196
:10125000B26F6AC0B3F1E7C0DDF0E8C0DEF0E9C00C
:10126000DFF0EAC0E0F0B4C02AF0B5C02BF0D20E37
:101270002C6EAA0E2D6E010E2E6E0F0E2F6E8C0E82
:10128000306E010E316E0F0E326E3DEC0AF04AECFC
:1012900009F02DD7FFFFD60E076ED90E36EC14F0ED
:1012A0000001DB6FDB51D96EDA6ADF5001E1E2D079
:1012B00066686768D9C068F0DAC069F06650682669
:1012C000675069226850D6276950D723DB51D96E01
:1012D000DA6A060EDE1807E0DB51D96EDA6A100E04
:1012E000DE1801E0B9D0D951DA1101E0B5D08DC1D5
:1012F000D5F09AD0FF00BED01EEC14F0010E076EA0
:10130000000EECEC12F0A2D0726AFFFFA6B2FDD77D
:10131000120EA96EA86AD890F2BED880F29EA6845A
:10132000550EA76EAA0EA76EA682A69401E3F28EB2
:10133000010E076E000EECEC12F088D03C0E7260CD
:1013400056D07250020DF350130FD86F01018F5118
:101350000001DC6FFFFFA6B2FDD7D8C0A9FFDCC03B
:10136000A8FFD890F2BED880F29EA684550EA76E34
:10137000AA0EA76EA682A69401E3F28E8EC1DCF0BF
:10138000FFFFA6B2FDD70001D829A96EDCC0A8FFD7
:10139000D890F2BED880F29EA684550EA76EAA0EF3
:1013A000A76EA682A69401E3F28E010E076E000ED0
:1013B000086E725029EC07F0722AFFFFA6B2FDD723
:1013C000120EA96E72C0A8FFD890F2BED880F29E0D
:1013D000A684550EA76EAA0EA76EA682A69401E358
:1013E000F28E010E076E000EECEC12F02FD0FFFF14
:1013F000000E076EECEC12F029D08EC1DCF0DC514F
:10140000030B076EDC41E8423F0B010B086E010144
:101410008F5129EC07F001018E6B8F6B010E076E67
:10142000000EECEC12F012D0FFFFD551010A0EE0D5
:10143000110A01E161D76F0A01E15CD7FF0A01E1FE
:1014400063D7010A01E17AD7030AD7E0FFFF010160
:101450008C6B8D6B8E6B8F6B0001DB51D96EDA6AF2
:10146000150EDE1807E1BDEC0DF0010E076E000E43
:10147000ECEC12F0FFFF1200FFFFFFFF0001D46B46
:101480002FC0C4F032C0C3F001EC15F0336E3350FE
:1014900003E1FFFF000EA6D0C651331812E033C09F
:1014A000C6F0050E63EC14F007240001A06F000ED7
:1014B0000820A16F000E0920A26F000E0A20A36F62
:1014C000E8D763EC14F00001A051075CA151085863
:1014D000A2510958A3510A58DCE3C66BA2EC13F0E1
:1014E000346E040E346003D0FFFF34507BD0FFFF16
:1014F000C55101010019CDE1F9EC05F0356E35500B
:1015000009E0352805E035508BEC14F012EC13F0AF
:10151000355068D063EC14F049D02C50D96EDA6A9B
:10152000DECF16F0DDCF17F0A6EC0BF05BD02AC0B3
:1015300016F02BC017F0A6EC0BF054D030C016F00C
:1015400031C017F032C018F05AEC0FF04BD02DC05C
:1015500016F02EC017F02FC018F05AEC0FF042D042
:101560002C505DEC10F03ED030C016F031C017F0BA
:1015700032C018F016EC12F035D0C5EC14F032D0B1
:101580002C503CEC0CF02ED030C016F031C017F0CF
:1015900032C018F035EC0EF025D0AFEC11F022D0AF
:1015A000B5EC0FF01FD0F5EC0AF01CD0FFFF0101E5
:1015B0000151010AB2E0030ABAE0010ABFE0070ADA
:1015C000C6E0010ACDE0030ACFE0010AD6E0080A2E
:1015D000D7E01F0AD9E0010AE0E0040AE1E03E0A90
:1015E000E2E082D7FFFF1200FFFFFFFF03C116F00A
:1015F00004C118F00101056B066B080E706E94D0E3
:10160000810E046F030E076F5E0E076E060E086EE6
:10161000000EE6EC11F0550E076E090E086E010E75
:10162000E6EC11F0640E076E050E086E020EE6EC95
:1016300011F084D0820E046F040E076F3A0E076E0D
:10164000100E086E030EE6EC11F0260E076E140E57
:10165000086E040EE6EC11F0690E076E040E086EBB
:10166000050EE6EC11F04A0E076E0B0E086E060E24
:10167000E6EC11F063D0010E076F46D0810E046FC7
:101680005E0E076E060E086E1850E6EC11F056D08E
:10169000810E046F550E076E090E086E1850E6ECA9
:1016A00011F04CD0810E046F640E076E050E086EAB
:1016B0001850E6EC11F042D0820E046F3A0E076E1D
:1016C000100E086E1850E6EC11F038D0820E046F40
:1016D000260E076E140E086E1850E6EC11F02ED090
:1016E000820E046F690E076E040E086E1850E6EC49
:1016F00011F024D0820E046F4A0E076E0B0E086E96
:101700001850E6EC11F01AD0FFFF1850B7E0010AAC
:10171000BFE0030AC7E0010ACFE0070AD7E0010AE9
:10172000DFE0030AE7E00AD0FFFF1650010A01E1FB
:1017300067D7030A01E17ED7060A9DE0FFFF70C06C
:1017400017F012EC13F017501200FFFFFFFF01011A
:101750000251186E0351206E18C021F020C0B6F05F
:1017600021C0B7F00451186E0551256E18C026F03F
:1017700025C0B8F026C0B9F025C018F026C019F071
:10178000D89019321832D89019321832D8901932AC
:10179000183218501F6E25C018F0070E181601E0F9
:1017A0001F2A1FC002F1030E706E246A226A236A88
:1017B0004FD0225020241B6E235021201C6E1BC0B2
:1017C0001DF01DC018F016C019F017C01AF0182A25
:1017D00004D0FFFFD8901A321932FFFF182EF9D724
:1017E00019A015D024C018F0010E196E182A03D0C4
:1017F000FFFFD8901936FFFF182EFAD7000E70247D
:10180000D96EDA6A010EDA221950DF1217D0FFFF03
:1018100024C018F0010E196E182A03D0FFFFD890CB
:101820001936FFFF182EFAD7191C1A6E000E7024F5
:10183000D96EDA6A010EDA221A50DF16FFFF242A67
:10184000070E246402D0246A702AFFFF224A232A4A
:10185000FFFF2550225C26502358ABE325C018F02B
:10186000070E181601E0702A7050020F1E6E12EC5F
:1018700013F01E501200FFFFFFFF276E01010251FF
:10188000166E0351206E16C021F020C0B6F021C0A4
:10189000B7F00451166E0551226E16C023F022C017
:1018A000B8F023C0B9F0286A070E1F6E246A256AB3
:1018B00058D0245020241B6E255021201C6E1BC0A4
:1018C00026F028C016F0000E1F24D96EDA6A010E29
:1018D000DA22DF50176E162A03D0FFFFD890173296
:1018E000FFFF162EFAD71750010B1E6E1E5016E082
:1018F00026C016F0010E176E186A162A04D0FFFFD4
:10190000D89017361836FFFF162EF9D72750D96E04
:10191000DA6A1750DE121850DD1219D026C016F000
:10192000010E176E186A162A04D0FFFFD8901736DA
:101930001836FFFF162EF9D7171C196E181C1A6ED1
:101940002750D96EDA6A1950DE161A50DD16FFFFDD
:10195000282A070E286402D0286A1F2AFFFF244A7B
:10196000252AFFFF2250245C23502558A2E3060EAF
:10197000706E7050020F1D6E12EC13F01D501200AD
:10198000FFFFFFFF0E50126E0F50136E146A156AA0
:101990006D0E1202F3CF16F0F4CF17F0186A196A21
:1019A0001302F3501726F4501822000E1922010ECC
:1019B0001202F3501726F4501822000E19226D0E51
:1019C0001402F3501826F4501922010E1302F3509A
:1019D0001826F4501922000E1202F3501826F45063
:1019E00019226D0E1502F3501926010E1402F35040
:1019F0001926000E1302F3501926000E1202F3509E
:101A0000192616C01AF017C01BF018C01CF019C018
:101A10001DF00EC007F00FC008F00A6A640E096ED0
:101A20009CEC12F00EC012F00FC013F0D8901332DD
:101A30001232D890133212320750125E0850135AE5
:101A400012501A2613501B22000E1C221D220EC0FB
:101A500007F00FC008F0010E0A6E900E096E9CECA4
:101A600012F007501A2608501B22000E1C221D22BD
:101A70001AC00EF01BC00FF01CC010F01DC011F0FA
:101A8000000CFFFFFFFF0E6E070E0E6401D072D038
:101A9000FFFF075010E00EC009F0010E0A6E092A80
:101AA00003D0FFFFD8900A36FFFF092EFAD70A505D
:101AB00000019F130FD00EC009F0010E0A6E092A13
:101AC00003D0FFFFD8900A36FFFF092EFAD70A1C71
:101AD00000019F17FFFF085010E00EC009F0010E33
:101AE0000A6E092A03D0FFFFD8900A36FFFF092E9D
:101AF000FAD70A5000018F130FD00EC009F0010E63
:101B00000A6E092A03D0FFFFD8900A36FFFF092E7C
:101B1000FAD70A1C00018F17FFFF075014E00EC010
:101B200009F0010E0A6E0B6A092A04D0FFFFD89053
:101B30000A360B36FFFF092EF9D70A500001D213DF
:101B40000B50D31317D00EC009F0010E0A6E0B6AAA
:101B5000092A04D0FFFFD8900A360B36FFFF092E62
:101B6000F9D70A1C0C6E0B1C0D6E0C500001D2171D
:101B70000D50D317FFFF1200FFFFFFFF020EA96EEB
:101B8000A680A8CFC7F0030EA96EA680A850040EA9
:101B9000A96EA680A850050EA96EA680A8CFC8F091
:101BA000060EA96EA680A8500001ED6FEC6B070E23
:101BB000A96EA680A850EF6FEE6B080EA96EA680E6
:101BC000A850090EA96EA680A8500A0EA96EA6807C
:101BD000A8CFCDF00B0EA96EA680A8500C0EA96E52
:101BE000A680A8500D0EA96EA680A8500E0EA96E54
:101BF000A680A8500F0EA96EA680A8500F6E106A7E
:101C0000060EFFFFD8900F361036E82EFAD70FC019
:101C1000BAF010C0BBF0100EA96EA680A8500F6ECF
:101C2000106A060EFFFFD8900F361036E82EFAD74E
:101C30000FC0BCF010C0BDF0120EA96EA680A8CFD8
:101C400072F0C7C007F0086A44EC12F0C8C0CBFFBE
:101C5000010EA96EA6800C6A0D6AA850D1EC14F092
:101C600078EC14F0AEEF10F0FFFFFFFF010103511D
:101C700002C119F01A6A19C01AF0196A1910206EF7
:101C80001A50216E20C0B6F021C0B7F005C122F075
:101C900022C0B8F00001B96B0101046B22C005F14C
:101CA000060E706E236A2CD02350020D080EF3240A
:101CB000D96E010EF420DA6EDF50196E2350020D3A
:101CC000070EF324D96E010EF420DA6EDF501A6E7F
:101CD00019501D6E1AC01EF023502024196E000EDC
:101CE00021201A6ED89019361A3619501624D96E3A
:101CF0001A501720DA6E1DC0DEFF1EC0DDFF232A3A
:101D0000FFFF2250235C0EE21850196E1A6A23500E
:101D100020241B6E000E21201C6E19501B5C1A50D3
:101D20001C58C2E37050020F1F6E12EC13F01F50CC
:101D30001200FFFFFFFF4D6E4650D96EDA6ADECF0C
:101D400047F0DDCF48F048C047F0486A640E4724AA
:101D5000586E000E4820596E4650D96EDA6ADECFB2
:101D600047F0DDCF48F04750566E576A4550D96E60
:101D7000DA6ADECF47F0DDCF48F04850546E556A3E
:101D80004D50D96EDA6ADECF47F0DDCF48F04850CB
:101D9000526E536A4D50D96EDA6ADECF47F0DDCF0E
:101DA00048F04750506E516A4550D96EDA6ADECF1E
:101DB00047F0DDCF48F047504E6E4F6A500E076E29
:101DC0004E0E040FAAEC14F04E0E37EC03F02EC0AA
:101DD00049F02FC04AF030C04BF031C04CF0490EF2
:101DE0009BEC14F0000E076E086E050E42EC0DF031
:101DF000AEEF10F0FFFFFFFF74285AE0140E076EDD
:101E0000130E4DEC14F0000953E013500CE1145084
:101E10000AE178EC14F0746875500F6E745001018B
:101E2000AE6F0FC0AFF113500001C91941E114505A
:101E3000CA193EE1752806E0020E076E086A752889
:101E400029EC07F074C075F00001CB5107E1010ED9
:101E5000076E086E752829EC07F007D0020E076E92
:101E6000010E086E752829EC07F0FFFFFDEC14F059
:101E7000D96EDA6ADECF0FF0DECF10F0DECF11F0D0
:101E8000DECF12F00001CD510F24A86F000E1020FC
:101E9000A96F000E1120AA6F000E1220AB6FAEECDE
:101EA00010F075500F6E74500101AE6F0FC0AFF19E
:101EB0001200FFFFFFFF03C120F020C0B6F00001B9
:101EC000B76B01010451196E05511E6E19C01FF048
:101ED0001EC0B8F01FC0B9F01E501E24026F030EC2
:101EE000706E20C021F02AD0000E7024D96EDA6AFC
:101EF000010EDA222150020DF3501624E16EF45047
:101F00001720E26EE6CF19F0E5CF1AF01AC019F0EB
:101F10001A6A1950DF6E702A2150020DF3501624F0
:101F2000D96EF4501720DA6E000E7024E16EE26A6A
:101F3000010EE222DFCFE7FF702A212AFFFF2050A7
:101F40001E24196E000E1F201A6E21501B6E1C6A73
:101F500019501B5C1A501C58C7E37050020F1D6EBD
:101F600012EC13F01D501200FFFFFFFF02C118F02A
:101F70000101075106C116F0176A16C017F0166A5C
:101F80001612D89016341A6E17341B6E1AC0B6F09B
:101F90001BC0B7F0095108C116F0176A16C017F038
:101FA000166A1612D89016341C6E17341D6E1CC09B
:101FB000B8F01DC0B9F01828706E1E6A1CD0FFFF63
:101FC000A6B2FDD71E501A24A96E0A0E1E24D96E81
:101FD000DA6A010EDA22DF50A86ED890F2BED880FD
:101FE000F29EA684550EA76EAA0EA76EA682A69490
:101FF00001E3F28E1E2AFFFF1E50166E176A1C5058
:10200000165C1D501758DBE370C019F012EC13F08A
:1020100019501200FFFFFFFF20C00EF021C00FF08B
:102020005CEC13F022500E2623500F220EC02AF033
:102030000FC02BF02C6A2D6A215003E1030E205CA7
:1020400021E31EC00CF01FC00DF0C6EC12F00C50C6
:102050000D1003E1296A020E02D0296A010EFFFF6A
:10206000286E28C024F029C025F0000E25BEFF0EE2
:10207000266E276E24502A5E25502B5A26502C5A45
:1020800027502D5A1E06D8A01F061EC00EF01FC0D6
:102090000FF0C1EC0CF00E502A260F502B221050DE
:1020A0002C2211502D222AC01EF02BC01FF02CC054
:1020B00020F02DC021F01200FFFFFFFF1F6E010175
:1020C0000251166E03511C6E16C01DF01CC0B6F0F6
:1020D0001DC0B7F00001B96B010EB86F1C500F0B9B
:1020E0001E6E0101042916E11EC016F0010E176EC6
:1020F000186A162A04D0FFFFD89017361836FFFF4B
:10210000162EF9D71F50D96EDA6A1750DE12185002
:10211000DD1219D01EC016F0010E176E186A162AAD
:1021200004D0FFFFD89017361836FFFF162EF9D7C8
:10213000171C196E181C1A6E1F50D96EDA6A1950C6
:10214000DE161A50DD16FFFF060E706E7050020F7D
:102150001B6E12EC13F01B501200FFFFFFFF7250BA
:102160003EE00D0E076E0C0E4DEC14F0000937E04A
:10217000742802E1746A01D0742AFFFF7550096E59
:1021800074500101AE6F09C0AFF17250745C27E268
:102190007450020DF350130FA96EA680A8CF0BF058
:1021A0000B501F0B0001C96F0B38E842070B010BE6
:1021B000CB6F7450020DF350140FA96EA680A8CFF8
:1021C000CAF0C951096ECA510101B06F09C0B1F11D
:1021D0000C500001C95DCCE3CA510D5CC9E212008C
:1021E000FFFFFFFFF28CF28ED08ECD8ECD94CD927C
:1021F000CF0ECD169D809F80F60ECF6E3C0ECE6E1C
:102200009E90CD80D59CD59AD596070ED512F28A90
:10221000F1841B0ED76E1F0ED66EF294D58EF6EC9F
:1022200014F0B8EC14F09D8A9F9A076AFFFF0750DC
:10223000020DAA0EF324D96E010EF420DA6EDE6AC6
:10224000DD6A072A0E0E0764F1D7936A8990899296
:10225000899489969290929292949296948694827E
:1022600094908B941200FFFF02EE00F011EE00F04C
:10227000EE6AE550E150FCE1E250FAE101EE00F0D7
:10228000C80EEE6AE806FDE100EE80F0550EEE6A3B
:10229000E806FDE1736A726A716A706A6F6A100E0D
:1022A000F66E2A0EF76E000EF86E00EEECF010EEF1
:1022B00004F00900F5CFEEFFE550E150FAE1140E0D
:1022C000F66E2A0EF76E000EF86E0900F5CF74F068
:1022D0000900F5CF75F00900F5CF76F07790779289
:1022E000000EF86E000151EF08F0FFFF0F6E12684C
:1022F0001368106A1ED0000E1024D96EDA6A010E1F
:10230000DA22DF50121A010E116EFFFF010E1214B5
:102310000D6E0E6AD890133212320D500E1004E07A
:10232000010E121AA00E131A112A080E1164EDD70D
:10233000102AFFFF0F50105CDEE313C00BF00C6A95
:1023400012500A6E096A0B500910126E0C500A10D6
:10235000136E12C007F013C008F01200FFFFFFFF5A
:102360001B0E0101026F030E706E186AFFFF1850FA
:102370000D0F166E16C0F6FF060EF76E000E7024D7
:10238000D96EDA6A010EDA220800FFFFF5CFDFFF0F
:10239000182A702A180E1864E9D7000E7024D96E16
:1023A000DA6A010EDA22210EDF6E702A000E702426
:1023B000D96EDA6A010EDA223E0EDF6E702A70C024
:1023C00017F012EC13F017501200FFFFFFFF0A6E18
:1023D0000806000E7024D96EDA6A010EDA220AC0ED
:1023E000DFFF702A000E7024D96EDA6A010EDA223D
:1023F00008C0DFFF702A0B6A13D007500B24096E48
:1024000009C0F6FF060EF76E000E7024D96EDA6A68
:10241000010EDA220800FFFFF5CFDFFF0B2A702A3A
:10242000FFFF08500B5CE9E31200FFFFFFFF010113
:102430000251196E03511E6E19C01FF01EC0B6F076
:102440001FC0B7F00001B96B010EB86F0101045154
:10245000196E05511B6E19C01CF0D8901E34D96E30
:102460001F34DA6E1650D9261750DA221BC0DEFF51
:102470001CC0DDFF060E706E7050020F1D6E12EC58
:1024800013F01D501200FFFFFFFF07A003D0096AE1
:10249000092A02D0FFFF096AFFFF093ABD50091857
:1024A000EF0B0918BD6E07A203D0096A092A02D0F2
:1024B000FFFF096AFFFF093A0946BD500918DF0B03
:1024C0000918BD6E07C009F008C00AF0D8900A329A
:1024D0000932D8900A3209320950BE6E1200FFFF4D
:1024E000FFFF9EB09DA00CD09E900001AC2B000E73
:1024F000AD23AE23AF23F60ECF6E3C0ECE6E18D0BA
:10250000FFFFF2A415D0F2940001C12B0A0EC119ED
:102510000BE1C16B732A3C0E731806E1736A762ACD
:10252000180E761801E1766A1B0ED76E1F0ED66E56
:10253000FFFF77921100FFFFFFFF0C6A0D6A095041
:102540000A101EE0010E0B6E05D0FFFFD890093671
:102550000A360B2AFFFF0AAEF8D7FFFFD8900C36D9
:102560000D360950075C0A50085805E30950075E0C
:102570000A50085A0C80D8900A3209320B2EEDD737
:102580000CC007F00DC008F01200FFFFFFFF010EA6
:102590000F6E0CC007F00DC008F00A6E900E096EA9
:1025A00038EC13F00750081012E00CC00EF0030EC8
:1025B0000E160CE10CC007F00DC008F00A6A640E9C
:1025C000096E38EC13F00750081001E10F6A0FC0D4
:1025D0000CF00D6A1200FFFFFFFF0A6E075010E0BB
:1025E0000AC008F0010E096E082A03D0FFFFD89038
:1025F0000936FFFF082EFAD709500001C2130FD089
:102600000AC008F0010E096E082A03D0FFFFD89017
:102610000936FFFF082EFAD7091C0001C217FFFF79
:102620001200FFFFFFFF705075EC11F007C014F0AF
:1026300008C015F0000E7024D96EDA6A010EDA2295
:1026400015C0DFFF702A000E7024D96EDA6A010E01
:10265000DA2214C0DFFF702A000E076E010E086E2A
:1026600070C009F0E4EC13F0706A63EF14F0FFFF40
:10267000FFFF09500A101AE0010E0B6E05D0FFFF94
:10268000D89009360A360B2AFFFF0AAEF8D7FFFFAB
:102690000950075C0A50085804E30950075E0A50C5
:1026A000085AD8900A3209320B2EF1D707C007F02A
:1026B00008C008F01200FFFFFFFFF10E106E0B0EB6
:1026C000116E10500E02F3CF12F0F4CF13F00F0280
:1026D000F350132611500E02F3501326410E12240C
:1026E000076EF40E1320086E0A6A640E096E9CECE5
:1026F00012F007C00EF008C00FF01200FFFFFFFF3E
:10270000076E14D0899892988988928818D08B96F1
:1027100094968B86948613D08B9094908B80948023
:102720000ED08B9294928B82948209D0FFFF075037
:10273000E9E0010AECE0030AEFE0010AF2E0FFFF42
:102740001200FFFFFFFF096A706A11D003EC14F05A
:10275000086E000E7024D96EDA6A010EDA2208C003
:10276000DFFF702A8B0E706402D0010E096EFFFF2E
:1027700001EC15F00009EAE1095002E0FD0E01D07C
:102780007050FFFF1200FFFFFFFF116E115003E1B9
:10279000136A020E02D0136A010EFFFF126E12C0FE
:1027A00007F0086A752829EC07F075680001A86B26
:1027B000A96BAA6BAB6B75500F6E74500101AE6FB5
:1027C0000FC0AFF11200FFFFFFFF8B8A060EFFFF65
:1027D000E82EFDD700F00A6A0CD0FFFFACA2FDD7AF
:1027E0000A500724D96E000E0820DA6EDF50AD6E55
:1027F0000A2AFFFF09500A5CF0E3FFFFACA2FDD7F5
:102800008B9A1200FFFFFFFFF29EC05112E0000EF4
:102810006F24D96EDA6A020EDA22DF50076EC00723
:102820006F2802E16F6A01D06F2AFFFFF28E075016
:1028300002D0F28E000EFFFF1200FFFFFFFF8EC1DD
:1028400060F08FC161F090C162F091C163F092C1FC
:1028500064F093C165F0620E456E640E466E600EC4
:102860009AEC0EF00001B4811200FFFFFFFF096E29
:10287000095007E00950D96EDA6AB6C0DEFFB7C06A
:10288000DDFF075007E00750D96EDA6AB8C0DEFFF7
:10289000B9C0DDFFD40E1200FFFFFFFF086E7628DF
:1028A00002E1000E0DD0F29E0850D96EDA6A76C0B1
:1028B000DFFF0750D96EDA6A73C0DFFFF28E010EB8
:1028C000FFFF1200FFFFFFFFF29EACC00BF0ADC098
:1028D0000CF0AEC00DF0AFC00EF0F28E0BC007F0E2
:1028E0000CC008F00DC009F00EC00AF01200FFFF86
:1028F000FFFF076AFFFF0750900FD96EDA6ADF6AA1
:102900000750800FD96EDA6ADF6A072A0E0E076455
:10291000F1D70E0CFFFFFFFF076E01C108F0C5C025
:1029200000F10850800F0101016F07C002F1030E92
:10293000706E030CFFFFFFFF076E0750D96EDA6A57
:10294000DECFCEF0DECFCFF0DECFD0F0DECFD1F0D5
:102950001200FFFFFFFF086E0850D96EDA6ADF50E1
:10296000766E0750D96EDA6ADF50736E1200FFFF81
:10297000FFFFAC6AAC8AAC84400EAF6EAB6AAB8E24
:10298000AB88949A8B9A1200FFFFFFFFC2C002F13E
:10299000030E706E70C016F012EC13F01650120099
:1029A000FFFFFFFF0E6E0CC007F00DC008F00E50C9
:1029B000DBEF14F0FFFFFFFF0B6E0BC0C5F0040E42
:1029C000076000D0FFFF1200FFFFFFFF0F0EBD12D8
:1029D000CB68CA82CA9094941200FFFFFFFFCE2BEF
:1029E000000ECF23D023D123000CFFFFFFFF0001F7
:1029F000BF6B6F6AC06B1200FFFFFFFFCE0E1200AD
:102A0000FFFFFFFFC0511200FFFFFFFF1200FFFF9B
:072A100000010004FFFFFFBD
:022A1800FFFFBE
:020000040020DA
:08000000000100FFFFFFFFFFFC
:020000040030CA
:0E000000FF22070EFF0185FF0FC00FE00F402B
:0200000400F00A
:10000000110A800F80FF01041003FF1517090B066A
:0800100009000130200000008E
:00000001FF
