:0600000000F040EF00F0EB
:0A000800FFFF7682FFFF84EF13F084
:10001800FFFF7680FFFFD8CF01F0E8CF02F0E0CFF6
:1000280003F0D9CF04F0DACF05F09EBA9DAA16D016
:10003800FFFF9EAAFDD7AECF06F0000E6D24D96E45
:10004800DA6A020EDA2206C0DFFF0001CA2B6D2829
:1000580002E16D6A01D06D2AFFFF9E9AFFFF05C07D
:10006800DAFF04C0D9FF03C0E0FF02C0E8FF01C007
:0C007800D8FF76901000FFFF22EF13F07D
:1006000000010203040506070F1011152B6465662F
:100610005461626C6F207320726173706973616ED4
:1006200069656D00687474703A2F2F626F6C69642D
:100630002E727500526173706973616E6965004353
:10064000323030302D424900424F4C494400312E67
:100650003031004D4D4D0000FFFF446E4450D96EC7
:10066000DA6A0A0ED926010EDBBE12D0DB5003E196
:10067000460EDE5C0DE34450D96EDA6A0A0ED926C6
:10068000010EDBBE0BD0DB5003E18B0EDE5C06E31C
:10069000FFFF40684168426843685CD1FFFF4450F7
:1006A000D96EDA6A0A0ED926DECF32F0DDCF33F00A
:1006B0006C0E32241E6E070E33201F6E4450D96E0E
:1006C000DA6A080ED926DECF34F0DDCF35F03428D3
:1006D000206E000E3520216E4450D96EDA6A060E67
:1006E000D926DECF22F0DDCF23F0F5EC10F01EC0CE
:1006F00040F01FC041F020C042F021C043F0070E7F
:100700001F6EB20E1E6E216A010E206E236A226ECB
:10071000F5EC10F01E50405E1F50415A2050425AD6
:100720002150435A4450D96EDA6A040ED926DECFDE
:1007300032F0DDCF33F032C034F033C035F0000E8C
:1007400035BEFF0E366E376E40C038F041C039F00E
:1007500042C03AF043C03BF0180E3802F3CF3CF0F1
:10076000F4CF3DF03E6A3F6A3902F3503D26F45023
:100770003E22000E3F223802F3503D26F4503E2226
:10078000000E3F22180E3A02F3503E26F4503F224C
:10079000000E3902F3503E26F4503F22000E38027C
:1007A000F3503E26F4503F22180E3B02F3503F26F2
:1007B000000E3A02F3503F26000E3902F3503F2656
:1007C000000E3802F3503F2634503C24406E355022
:1007D0003D20416E36503E20426E37503F20436EE2
:1007E0004450D96EDA6A020ED926DECF32F0DDCF60
:1007F00033F032C034F033C035F0000E35BEFF0E9A
:10080000366E376E40C038F041C039F042C03AF021
:1008100043C03BF03C0E3802F3CF3CF0F4CF3DF048
:100820003E6A3F6A3902F3503D26F4503E22000EE4
:100830003F223802F3503D26F4503E22000E3F2264
:100840003C0E3A02F3503E26F4503F22000E39028D
:10085000F3503E26F4503F22000E3802F3503E265D
:10086000F4503F223C0E3B02F3503F26000E3A026A
:10087000F3503F26000E3902F3503F26000E380297
:10088000F3503F2634503C24406E35503D20416E9D
:1008900036503E20426E37503F20436E4450D96E52
:1008A000DA6ADECF32F0DDCF33F032C034F033C05D
:1008B00035F0000E35BEFF0E366E376E40C038F094
:1008C00041C039F042C03AF043C03BF03C0E380220
:1008D000F3CF3CF0F4CF3DF03E6A3F6A3902F3506B
:1008E0003D26F4503E22000E3F223802F3503D26B2
:1008F000F4503E22000E3F223C0E3A02F3503E26B8
:10090000F4503F22000E3902F3503E26F4503F22AD
:10091000000E3802F3503E26F4503F223C0E3B02BC
:10092000F3503F26000E3A02F3503F26000E3902E4
:10093000F3503F26000E3802F3503F2634503C243B
:10094000406E35503D20416E36503E20426E37504D
:100950003F20436EFFFF40C02EF041C02FF042C049
:1009600030F043C031F01200FFFFFFFF0E6E0E505B
:1009700001E171D13C0E0E6401D06DD1FFFF0E0676
:100980000E40E8423F0B0F6E0EC00BF0030E0B162D
:10099000D8900B34106E53D110C00BF00B2A010EFF
:1009A0000C6E0B2A03D0FFFFD8900C36FFFF0B2EE6
:1009B000FAD70C1C0D6E0F50900FD96EDA6A0D50DD
:1009C000DF1610C00BF0010E0C6E0B2A03D0FFFFD8
:1009D000D8900C36FFFF0B2EFAD70C1C0D6E0F5063
:1009E000900FD96EDA6A0D50DF1610C00BF00B2A8B
:1009F000010E0C6E0B2A03D0FFFFD8900C36FFFFC0
:100A00000B2EFAD70C1C0D6E0F50800FD96EDA6AC0
:100A10000D50DF1610C00BF0010E0C6E0B2A03D028
:100A2000FFFFD8900C36FFFF0B2EFAD75FD010C017
:100A30000BF00B2A010E0C6E0B2A03D0FFFFD8908F
:100A40000C36FFFF0B2EFAD70F50900FD96EDA6AD3
:100A50000C50DF1210C00BF0010E0C6E0B2A03D0ED
:100A6000FFFFD8900C36FFFF0B2EFAD70C1C0D6E33
:100A70000F50900FD96EDA6A0D50DF160A5014E04D
:100A800010C00BF00B2A010E0C6E0B2A03D0FFFFD7
:100A9000D8900C36FFFF0B2EFAD70F50800FD96E6F
:100AA000DA6A0C50DF1215D010C00BF00B2A010EC1
:100AB0000C6E0B2A03D0FFFFD8900C36FFFF0B2ED5
:100AC000FAD70C1C0D6E0F50800FD96EDA6A0D50DC
:100AD000DF16FFFF10C00BF0010E0C6E0B2A03D0C7
:100AE000FFFFD8900C36FFFF0B2EFAD7FFFF0C1C30
:100AF0000D6E0F50800FD96EDA6A0D50DF16ABD035
:100B000010C00BF00B2A010E0C6E0B2A03D0FFFF56
:100B1000D8900C36FFFF0B2EFAD70C1C0D6E0F5021
:100B2000900FD96EDA6A0D50DF1610C00BF0010E6F
:100B30000C6E0B2A03D0FFFFD8900C36FFFF0B2E54
:100B4000FAD70F50900FD96EDA6A0C50DF1210C02E
:100B50000BF00B2A010E0C6E0B2A03D0FFFFD8906E
:100B60000C36FFFF0B2EFAD7FFFF0C1C0D6E0F503B
:100B7000800FD96EDA6A0D50DF160A50AAE010C055
:100B80000BF0010E0C6E0B2A03D0FFFFD8900C3631
:100B9000FFFF0B2EFAD70F50800FD96EDA6A0C5078
:100BA000DF1259D010C00BF00B2A010E0C6E0B2A6D
:100BB00003D0FFFFD8900C36FFFF0B2EFAD70F5053
:100BC000900FD96EDA6A0C50DF1210C00BF0010ED4
:100BD0000C6E0B2A03D0FFFFD8900C36FFFF0B2EB4
:100BE000FAD70F50900FD96EDA6A0C50DF120A5004
:100BF00014E010C00BF00B2A010E0C6E0B2A03D070
:100C0000FFFFD8900C36FFFF0B2EFAD70F50800F46
:100C1000D96EDA6A0C50DF120ED010C00BF00B2A1E
:100C2000010E0C6E0B2A03D0FFFFD8900C36FFFF8D
:100C30000B2EFAD799D7FFFF0A50A1E14AD7FFFF41
:100C4000095001E1A9D6010A01E1F1D6030A01E147
:100C500057D7010AA7E0FFFF1200FFFFFFFFFE0EBC
:100C60007024D96EDA6A000EDA22DF50156E146A2B
:100C7000FF0E7024D96EDA6A000EDA22DF501410EB
:100C8000206E1550216E7050FE0FAFEC12F0205008
:100C9000071803E12150081802E0FF0E1BD1226A59
:100CA000256AFFFF2550010F146E14C0F6FF060ED3
:100CB000F76E0800FFFFF5500101011903E1010E75
:100CC000226E04D0252A0E0E2564EBD7FFFF22509A
:100CD00002E1010EFFD0236A246AD4D00251146EBF
:100CE0000351286E14C029F00451146E0551236E6F
:100CF00014C024F0245003E1110E235C02E3030E20
:100D0000E9D0295010E1100E285C0DE22350282470
:100D1000146E24502920156E155005E1110E145C37
:100D2000FFFF01E2D3D0FFFF020ED4D00251146EB8
:100D30000351286E14C029F004C127F0275002E0A7
:100D40002728DDE12950EFE1100E285CE9D7025198
:100D5000146E0351286E14C029F0FFFF28C027F03D
:100D600027500001CF5DFFFFDEE3B0D00251146ECB
:100D70000351286E14C029F0055104C114F0156AFE
:100D800014C015F0146A1412145028261550292284
:100D900028C027F027500001D05DE5D70251146E1E
:100DA0000351286E14C029F0055104C114F0156ACE
:100DB00014C015F0146A1412145028261550292254
:100DC000CCD7060E0319AFE10451ADE10505ABE147
:100DD000075106C114F0156A14C015F0146A1412F4
:100DE000000ED8901436153614C018F015C019F03E
:100DF00019BEFF0E1A6E1B6E095108C114F0156A58
:100E000014C015F0146A1412000ED890143615365A
:100E100014C01CF015C01DF01DBEFF0E1E6E1F6E0F
:100E20001C501824146E1D501920156E1E501A20C7
:100E3000166E1F501B20176E1750161002E1150476
:100E40006FD771D70E0E021901E043D703C126F008
:100E5000260407E0020E261804E0040E261801E01E
:100E60004ED7040E261832E1060E04652FD05BD74C
:100E70007F0E02192BE0020529E0100E021901E095
:100E80003ED724D0FFFF0151010A01E127D7030A11
:100E900001E124D7010A82E0070A01E167D7010ACC
:100EA00001E144D7030A01E152D7090A01E116D74B
:100EB0001F0A01E173D7010A09E0040A82E03E0A31
:100EC000C1E04F0AD5E0010AD8A4030AFFFF01C11F
:100ED000E9F0000EFFFF1200FFFFFFFF0C6E0C5049
:100EE000D96EDA6ADECF08F0DECF09F0DECF0AF085
:100EF000DECF0BF00001B451085CA86FB551095862
:100F0000A96FB6510A58AA6FB7510B58AB6FC651AB
:100F1000086EC751096E0A6A0B6AA851085CA9518C
:100F20000958AA510A58AB510B580EE2010E716EC6
:100F30000C50D96EDA6ADECFB4F0DECFB5F0DECF7A
:100F4000B6F0DECFB7F0F1D0715001E1EED0C45170
:100F5000086EC551096E0A6A0B6AA851085CA9514E
:100F60000958AA510A58AB510B5801E3DED0716AF7
:100F7000DCD0F00E8916715003E090C08AFF03D0D8
:100F8000905180198A6EFFFF000EA2EC14F0715090
:100F900003E091C08AFF04D00001915181198A6E4B
:100FA000FFFF010EA2EC14F0715003E092C08AFF23
:100FB00004D00001925182198A6EFFFF020EA2EC4A
:100FC00014F0715003E09CC08AFF04D000019C51D2
:100FD0008C198A6EFFFF030EA2EC14F08980B0D04A
:100FE000F00E8916715003E093C08AFF03D093512D
:100FF00083198A6EFFFF000EA2EC14F0715003E01B
:1010000094C08AFF04D00001945184198A6EFFFFB6
:10101000010EA2EC14F0715003E095C08AFF04D0D9
:101020000001955185198A6EFFFF020EA2EC14F0A3
:10103000715003E09DC08AFF04D000019D518D19BD
:101040008A6EFFFF030EA2EC14F0898279D0F00EB5
:101050008916715003E096C08AFF03D09651861915
:101060008A6EFFFF000EA2EC14F0715003E097C0EF
:101070008AFF04D00001975187198A6EFFFF010E85
:10108000A2EC14F0715003E098C08AFF04D0000174
:10109000985188198A6EFFFF020EA2EC14F071506D
:1010A00003E09EC08AFF04D000019E518E198A6E13
:1010B000FFFF030EA2EC14F0898442D0F00E8916D3
:1010C000715003E099C08AFF03D0995189198A6E43
:1010D000FFFF000EA2EC14F0715003E09AC08AFFEB
:1010E00004D000019A518A198A6EFFFF010EA2EC0A
:1010F00014F0715003E09BC08AFF04D000019B51A3
:101100008B198A6EFFFF020EA2EC14F0715003E0FF
:101110009FC08AFF04D000019F518F198A6EFFFF84
:10112000030EA2EC14F089860BD0FFFFD85101E129
:1011300020D7010A01E154D7030A89E0010ABEE081
:10114000FFFF0001D82BD8951200FFFFFFFF000121
:10115000E96B61C0D0F064C0CFF0DFEC16F0656ED3
:10116000655003E1FFFF000EBFD0D751651812E0B4
:1011700065C0D7F0050E23EC16F007240001A46F1C
:10118000000E0820A56F000E0920A66F000E0A2091
:10119000A76FE8D723EC16F00001A451075CA55116
:1011A0000858A6510958A7510A58DCE3D76B89ECB7
:1011B00015F0666E040E666005D0D1EC16F0FFFFE8
:1011C000665092D0FFFFD6510101001903E0D1EC27
:1011D00016F0C8D7E8EC14F0666ED1EC16F02EECE1
:1011E00006F0676E675009E0672805E067505EEC1F
:1011F00016F058EC14F0675077D023EC16F052D06C
:101200005E50D96EDA6ADECF16F0DDCF17F0E4EC6F
:101210000AF06AD05CC016F05DC017F0E4EC0AF08A
:1012200063D062C016F063C017F064C018F099EC88
:101230000FF05AD05FC016F060C017F061C018F010
:1012400099EC0FF051D05E5047EC11F04DD062C0D8
:1012500016F063C017F064C018F0B4EC13F044D07B
:10126000A3EC16F041D05E508EEC0CF03DD062C085
:1012700016F063C017F064C018F07CEC0EF034D0A8
:10128000E9EC12F031D04BEC10F02ED033EC0AF038
:101290002BD0A1EC10F028D0C3EC15F025D07DECBC
:1012A00016F022D0FFFF01010151010AA9E0030A53
:1012B000B1E0010AB6E0070ABDE0010AC4E0030A92
:1012C000C6E0010ACDE0080ACEE01F0AD0E0010A1C
:1012D000D7E0040AD8E03E0AD9E04F0ADAE0010A72
:1012E000DBE0030ADCE06BD7FFFF1200FFFFFFFF2C
:1012F000F8EC16F02EEC12F098EC11F023EC16F04E
:1013000007C0EAF008C0EBF009C0ECF00AC0EDF04D
:10131000B9EC16F00001EE69010E076E000E086EC2
:10132000070E94EC0DF0010E076E086E050E94EC9E
:101330000DF0FFFF23EC16F007C0F0F008C0F1F04D
:1013400009C0F2F00AC0F3F0F00E6DEC07F0D151D5
:101350000BE0A051F05DA151F159A251F259A351F6
:10136000F35902E3F4EC0FF082B208D0742804E0E1
:10137000010E0BEC15F002D0CAEC16F0FFFF0001D5
:10138000EA51F05D686EEB51F159696EEC51F2591A
:101390006A6EED51F3596B6E6B506A1005E1E80E01
:1013A000685C030E69584AE3C2EC16F0742815E035
:1013B000F4EC16F0D96EDA6A0001AC51DE5CAD5186
:1013C000DE58AE51DE58DE50800A6C6EAF51800A96
:1013D0006C5803E3000E0BEC15F0F4EC16F0D96E2C
:1013E000DA6ADECFB4F1DDCFB5F10001EF6BF46B5B
:1013F000F40E076EEF0EF7EC15F000090FE0000198
:10140000F451EE190BE0EF51686EF4510101AC6F2D
:1014100068C0ADF1F4C0EEF0E1EC0EF00001EF5168
:10142000686EF4510101B26F68C0B3F1F0C0EAF028
:10143000F1C0EBF0F2C0ECF0F3C0EDF05D6A5C6A75
:10144000DF0E5E6EAA0E5F6E010E606E0F0E616E95
:101450008C0E626E010E636E0F0E646EA6EC08F0C9
:10146000E7EC11F066D7FFFF03C116F004C118F0D6
:101470000101056B066B080E706E94D0810E046F2F
:10148000030E076F480E076E060E086E000E54EC32
:1014900013F03F0E076E090E086E010E54EC13F0A8
:1014A0004E0E076E050E086E020E54EC13F084D03B
:1014B000820E046F040E076F240E076E100E086E66
:1014C000030E54EC13F0100E076E140E086E040E8B
:1014D00054EC13F0530E076E040E086E050E54EC18
:1014E00013F0340E076E0B0E086E060E54EC13F05C
:1014F00063D0010E076F46D0810E046F480E076E51
:10150000060E086E185054EC13F056D0810E046F7E
:101510003F0E076E090E086E185054EC13F04CD0B5
:10152000810E046F4E0E076E050E086E185054ECB7
:1015300013F042D0820E046F240E076E100E086E58
:10154000185054EC13F038D0820E046F100E076E52
:10155000140E086E185054EC13F02ED0820E046F47
:10156000530E076E040E086E185054EC13F024D07E
:10157000820E046F340E076E0B0E086E185054EC7A
:1015800013F01AD0FFFF1850B7E0010ABFE0030ABA
:10159000C7E0010ACFE0070AD7E0010ADFE0030A4B
:1015A000E7E00AD0FFFF1650010A01E167D7030AFE
:1015B00001E17ED7060A9DE0FFFF70C017F058ECEE
:1015C00014F017501200FFFFFFFF01010251186EC7
:1015D0000351206E18C021F020C0BCF021C0BDF026
:1015E0000451186E0551256E18C026F025C0BEF0B6
:1015F00026C0BFF025C018F026C019F0D8901932C7
:101600001832D89019321832D8901932183218502E
:101610001F6E25C018F0070E181601E01F2A1FC004
:1016200002F1030E706E246A226A236A4FD02250A0
:1016300020241B6E235021201C6E1BC01DF01DC0DA
:1016400018F016C019F017C01AF0182A04D0FFFFBE
:10165000D8901A321932FFFF182EF9D719A015D0D9
:1016600024C018F0010E196E182A03D0FFFFD8907D
:101670001936FFFF182EFAD7000E7024D96EDA6AD9
:10168000010EDA221950DF1217D0FFFF24C018F024
:10169000010E196E182A03D0FFFFD8901936FFFFEC
:1016A000182EFAD7191C1A6E000E7024D96EDA6A39
:1016B000010EDA221A50DF16FFFF242A070E2464D7
:1016C00002D0246A702AFFFF224A232AFFFF2550F6
:1016D000225C26502358ABE325C018F0070E1816DD
:1016E00001E0702A7050020F1E6E58EC14F01E506C
:1016F0001200FFFFFFFF0001DA5101E183D00A0E63
:101700004BEC16F000097EE0732802E1736A01D009
:10171000732AFFFF7450086E73500101AE6F08C04A
:10172000AFF10001DA51735C0DE37368C86BC96BEC
:101730000101B06BB16B7450086E7350AE6F08C08E
:10174000AFF160D07350020DF350130FA96EA68055
:10175000A8CF0CF00C501F0B3C0DF3CFC8F0F4CF0A
:10176000C9F00C38E842070BC06FC16B1AD0C16BCF
:101770000A0E11D0C16B1E0E0ED0C16B3C0E0BD0E9
:10178000010EC16F2C0E07D0020EC16FD00E03D018
:10179000070EC16F080EFFFFC06F19D0C069C16985
:1017A00016D0FFFFC0C008F0C1C009F009500FE11A
:1017B0000850010ADCE0030ADDE0010ADEE0070A66
:1017C000DFE0010AE1E0030AE3E0010AE7E0FFFFEE
:1017D0007350020DF350140FA96EA680A8CF0CF021
:1017E0000C503F0BC827000EC9230C44E846030BDE
:1017F000D36FC8510A5CC9510B5886E2C8C0B0F11A
:10180000C9C0B1F1FFFF1200FFFFFFFFD59E0BC063
:10181000D9FF0CC0DAFFDF50756E0DC0D9FF0EC0C6
:10182000DAFFDF50726E75503C0D7250F3240001E8
:10183000C26F000EF420C36F0FC0D9FF10C0DAFFD3
:10184000DF501D6E060E076E1D502DEC15F00001C9
:10185000CC6F060E076E1D500DEC16F0116E115078
:1018600006081E6E1EC011F0126A136A146AE50E95
:101870001102F3CF15F0F4CF16F0176A186A1202AE
:10188000F3501626F4501722000E1822D90E11021A
:10189000F3501626F4501722000E1822E50E1302FC
:1018A000F3501726F4501822D90E1202F3501726BF
:1018B000F4501822FF0E1102F3501726F45018228C
:1018C000E50E1402F3501826D90E1302F350182611
:1018D000FF0E1202F3501826FF0E1102F3501826C5
:1018E000000E1524196E000E16201A6E010E172018
:1018F0001B6E000E18201C6E1AC019F01BC01AF0C7
:101900001CC01BF01C6A1BBE1C681950D76E1E50F1
:10191000E50DF3CFD6FFD58E1200FFFFFFFF246E3B
:1019200001010251166E0351206E16C021F020C035
:10193000BCF021C0BDF00451166E0551226E16C0D8
:1019400023F022C0BEF023C0BFF0286A070E1F6E2E
:10195000266A276A58D0265020241B6E2750212043
:101960001C6E1BC025F028C016F0000E1F24D96E77
:10197000DA6A010EDA22DF50176E162A03D0FFFF53
:10198000D8901732FFFF162EFAD71750010B1E6E94
:101990001E5016E025C016F0010E176E186A162AA2
:1019A00004D0FFFFD89017361836FFFF162EF9D750
:1019B0002450D96EDA6A1750DE121850DD1219D091
:1019C00025C016F0010E176E186A162A04D0FFFF04
:1019D000D89017361836FFFF162EF9D7171C196E38
:1019E000181C1A6E2450D96EDA6A1950DE161A5075
:1019F000DD16FFFF282A070E286402D0286A1F2A56
:101A0000FFFF264A272AFFFF2250265C2350275833
:101A1000A2E3060E706E7050020F1D6E58EC14F0AB
:101A20001D501200FFFFFFFF0E50126E0F50136E7D
:101A3000146A156A6D0E1202F3CF16F0F4CF17F088
:101A4000186A196A1302F3501726F4501822000E70
:101A50001922010E1202F3501726F4501822000E1C
:101A600019226D0E1402F3501826F4501922010E9B
:101A70001302F3501826F4501922000E1202F350EC
:101A80001826F45019226D0E1502F3501926010E76
:101A90001402F3501926000E1302F3501926000EFB
:101AA0001202F350192616C01AF017C01BF018C006
:101AB0001CF019C01DF00EC007F00FC008F00A6A34
:101AC000640E096EE2EC13F00EC012F00FC013F0BA
:101AD000D89013321232D890133212320750125E5D
:101AE0000850135A12501A2613501B22000E1C22A3
:101AF0001D220EC007F00FC008F0010E0A6E900EF6
:101B0000096EE2EC13F007501A2608501B22000E53
:101B10001C221D221AC00EF01BC00FF01CC010F0BA
:101B20001DC011F0000CFFFFFFFF0E6E070E0E64CC
:101B300001D072D0FFFF075010E00EC009F0010E77
:101B40000A6E092A03D0FFFFD8900A36FFFF092E3C
:101B5000FAD70A5000019F130FD00EC009F0010EF2
:101B60000A6E092A03D0FFFFD8900A36FFFF092E1C
:101B7000FAD70A1C00019F17FFFF085010E00EC0A3
:101B800009F0010E0A6E092A03D0FFFFD8900A3629
:101B9000FFFF092EFAD70A5000018F130FD00EC095
:101BA00009F0010E0A6E092A03D0FFFFD8900A3609
:101BB000FFFF092EFAD70A1C00018F17FFFF0750FD
:101BC00014E00EC009F0010E0A6E0B6A092A04D057
:101BD000FFFFD8900A360B36FFFF092EF9D70A50BF
:101BE0000001DF130B50E01317D00EC009F0010EF7
:101BF0000A6E0B6A092A04D0FFFFD8900A360B360A
:101C0000FFFF092EF9D70A1C0C6E0B1C0D6E0C5031
:101C10000001DF170D50E017FFFF1200FFFFFFFF6D
:101C20001B6E6F501B5C66E21550161006E100013A
:101C3000B86BB96BBA6BBB6B23D0152808E11628BB
:101C400006E10001B869B969BA69BB6919D0F4EC59
:101C500016F0D96EDA6ADECF17F0DECF18F0DECFDD
:101C600019F0DECF1AF0155017240001B86F165086
:101C70001820B96F000E1920BA6F000E1A20BB6F22
:101C8000FFFF1B508D0FA96EA680A8CF1CF01C5023
:101C90006FC017F0186A1726000E18228C0E172630
:101CA000000E182218BE02D0180424E2FFFF6F5065
:101CB0001C248D0FA96EA680A8CFD5F06F501C24D0
:101CC0008E0F6E6ED551176E6E500101B86F17C032
:101CD000B9F10001D551030D6E50F326000EF42228
:101CE000F4BE02D0F40406E2FFFFD46B010ED16F04
:101CF000F4EC0FF01200FFFFFFFF0101035102C1DE
:101D000019F01A6A19C01AF0196A1910206E1A50BF
:101D1000216E20C0BCF021C0BDF005C122F022C060
:101D2000BEF00001BF6B0101046B22C005F1060E7D
:101D3000706E236A2CD02350020D080EF324D96E46
:101D4000010EF420DA6EDF50196E2350020D070EDB
:101D5000F324D96E010EF420DA6EDF501A6E19509A
:101D60001D6E1AC01EF023502024196E000E212073
:101D70001A6ED89019361A3619501624D96E1A5080
:101D80001720DA6E1DC0DEFF1EC0DDFF232AFFFF15
:101D90002250235C0EE21850196E1A6A2350202438
:101DA0001B6E000E21201C6E19501B5C1A501C5813
:101DB000C2E37050020F1F6E58EC14F01F50120057
:101DC000FFFFFFFF732858E0210E4BEC16F00009CF
:101DD00053E0215022100CE138EC16F073687AECD5
:101DE0000BF074501D6E73500101AE6F1DC0AFF14A
:101DF00021500001C81940E12250C9193DE1742861
:101E000006E0020E096E0A6A7428B5EC04F073C08D
:101E100074F0030E096E010E0A6E7428B5EC04F01E
:101E20000001D35107E0C0C015F0C1C016F0D305C2
:101E30000FEC0EF0F4EC16F0D96EDA6ADECF1DF07E
:101E4000DECF1EF0DECF1FF0DECF20F00001D95133
:101E50001D24AC6F000E1E20AD6F000E1F20AE6F54
:101E6000000E2020AF6F7AEC0BF074501D6E735093
:101E70000101AE6F1DC0AFF11200FFFFFFFF48D0A0
:101E80000001DA6BFFFFA6B2FDD7120EA96EA86A99
:101E9000D890F2BED880F29EA684550EA76EAA0EE8
:101EA000A76EA682A69401E3F28E010E076E000EC5
:101EB00032EC14F03BD0ECEC16F0D96EDA6ADF505D
:101EC000206E2050030B096E2040E8423F0B010BAF
:101ED0000A6EF0EC16F0D96EDA6ADF50B5EC04F059
:101EE000010E076E000E32EC14F020D0ECEC16F070
:101EF000D96EDA6ADF50156E166AE8EC16F0D96E04
:101F0000DA6ADF500FEC0EF011D070EC12F00ED048
:101F1000FFFFE4EC16F0D96EDA6ADF50800AB0E019
:101F2000020AC9E0010AF1E0120AE0E0FFFF120034
:101F3000FFFFFFFF03C120F020C0BCF00001BD6B1C
:101F400001010451196E05511E6E19C01FF01EC00B
:101F5000BEF01FC0BFF01E501E24026F030E706E35
:101F600020C021F02AD0000E7024D96EDA6A010E4A
:101F7000DA222150020DF3501624E16EF45017209E
:101F8000E26EE6CF19F0E5CF1AF01AC019F01A6A1E
:101F90001950DF6E702A2150020DF3501624D96EAD
:101FA000F4501720DA6E000E7024E16EE26A010E22
:101FB000E222DFCFE7FF702A212AFFFF20501E24F4
:101FC000196E000E1F201A6E21501B6E1C6A1950CC
:101FD0001B5C1A501C58C7E37050020F1D6E58EC62
:101FE00014F01D501200FFFFFFFFD551D45D16E322
:101FF000D46BF4EC16F0D96EDA6A0001B851DE5CED
:10200000B951DE58BA51DE58DE50800A136EBB510A
:10201000800A135803E3CAEC16F03AD0D451030DEA
:10202000F3506E24A96EA680A850106E0F6A23ECA0
:1020300016F00F5007240001A06F10500820A16F68
:10204000000E0920A26F000E0A20A36FD451030DC9
:10205000F3506E240F6E0F28A96EA680A8CFCBFF79
:10206000D451030DF3506E24020FA96EA680A8CFA1
:1020700014F0D42B145002E0CB5003E1CA949484A2
:1020800007D014C007F0086ADEEC15F09494CA84F7
:10209000FFFF1200FFFFFFFF02C118F0010107510F
:1020A00006C116F0176A16C017F0166A1612D890F5
:1020B00016341A6E17341B6E1AC0BCF01BC0BDF06C
:1020C000095108C116F0176A16C017F0166A1612E1
:1020D000D89016341C6E17341D6E1CC0BEF01DC087
:1020E000BFF01828706E1E6A1CD0FFFFA6B2FDD785
:1020F0001E501A24A96E0A0E1E24D96EDA6A010E29
:10210000DA22DF50A86ED890F2BED880F29EA68464
:10211000550EA76EAA0EA76EA682A69401E3F28EB4
:102120001E2AFFFF1E50166E176A1C50165C1D50AB
:102130001758DBE370C019F058EC14F01950120076
:10214000FFFFFFFF0A0E706E02C1D2F03CD0FF000D
:1021500043D0040E0B6E010E0C6E050E0D6E010EBB
:102160000E6E070E0F6E010E106E05EC0CF0640E75
:1021700001010925546E556A000E552208C152F01E
:10218000536A06C150F0516A04C14EF04F6A05C14E
:102190004CF04D6A07C14AF04B6A4A0E2CEC03F032
:1021A0002EC045F02FC046F030C047F031C048F097
:1021B000450E6EEC16F00001CD81010E076E000E8B
:1021C00032EC14F009D0FFFF0001D251010A04E003
:1021D000110ABFE06F0ABBE0FFFF7050020F496EAB
:1021E00058EC14F049501200FFFFFFFF20C00EF022
:1021F00021C00FF0C5EC14F022500E2623500F2200
:102200000EC02AF00FC02BF02C6A2D6A215003E17A
:10221000030E205C21E31EC00CF01FC00DF00CEC7F
:1022200014F00C500D1003E1296A020E02D0296A45
:10223000010EFFFF286E28C024F029C025F0000EF3
:1022400025BEFF0E266E276E24502A5E25502B5A7F
:1022500026502C5A27502D5A1E06D8A01F061EC0E5
:102260000EF01FC00FF013EC0DF00E502A260F5089
:102270002B2210502C2211502D222AC01EF02BC0D0
:102280001FF02CC020F02DC021F01200FFFFFFFF37
:102290001E6E01010251166E03511C6E16C01DF018
:1022A0001CC0BCF01DC0BDF00001BF6B010EBE6FB5
:1022B0001C500F0B1F6E0101042916E11FC016F000
:1022C000010E176E186A162A04D0FFFFD890173631
:1022D0001836FFFF162EF9D71E50D96EDA6A17503E
:1022E000DE121850DD1219D01FC016F0010E176E45
:1022F000186A162A04D0FFFFD89017361836FFFF49
:10230000162EF9D7171C196E181C1A6E1E50D96E8E
:10231000DA6A1950DE161A50DD16FFFF060E706ECF
:102320007050020F1B6E58EC14F01B501200FFFF90
:10233000FFFF0A0EA96EA680A8CFD9F00F0EA96ED6
:10234000A680A8500F6E106A060EFFFFD8900F36B9
:102350001036E82EFAD70FC0C4F010C0C5F0100E2A
:10236000A96EA680A8500F6E106A060EFFFFD890C7
:102370000F361036E82EFAD70FC0C6F010C0C7F0DF
:10238000120EA96EA680A8CFDAF08C0EA96EA680D8
:10239000A8CF6FF06F2801E16F6A6F500F6E0001D8
:1023A000DA510101B66F0FC0B7F1010EA96EA68018
:1023B0000C6A0D6AA850AFEC16F038EC16F0736892
:1023C0000001C86BC96B74687AEF0BF0FFFFFFFF69
:1023D000250E076E290E086E270E6BEC15F02A6E7F
:1023E0002A50D96EDA6ADF5036E02168226827C0A9
:1023F00023F028C024F021502326225024222350E9
:102400002526245026222A50D96EDA6A640EDE1858
:102410000CE1100E29181FE1000E076E086E050E64
:1024200094EC0DF07AEC0BF016D02A50D96EDA6AE3
:10243000650EDE1803E13EEC0FF00DD02A50D96E88
:10244000DA6A150EDE1807E198EC11F0010E076E3E
:10245000000E32EC14F0FFFF1200FFFFFFFFF28CC2
:10246000F28ED08ECD8ECD94CD92CF0ECD169D8096
:102470009F80F60ECF6E3C0ECE6E9E90CD80D59C8A
:10248000D59AD596070ED512F28AF1841B0ED76E17
:102490005E0ED66EF294D8EC16F08AEC16F09D8A99
:1024A0009F9A076AFFFF0750020DAA0EF324D96E08
:1024B000010EF420DA6EDE6ADD6A072A0E0E07646A
:1024C000F1D7936A89908992899489969290929291
:1024D000929492969486948294908B941200FFFF2B
:1024E000FFFFE8EC16F0D96EDA6ADF501E6E1E5060
:1024F000070B1F6E040E1F6401D02ED0FFFF1D6A54
:102500001EAE01D01D2A1DB009D0000E076E086E48
:102510001F5094EC0DF0CAEC16F01ED0FFFF010E18
:10252000076E1E44E846030B010B086E1F5094EC27
:102530000DF0ECEC16F0D96EDA6ADF50156E166A03
:10254000F0EC16F0D96EDA6ADF500FEC0EF0010EE7
:10255000076E000E32EC14F0FFFF1200FFFFFFFFCA
:102560000B6E12681368106A1ED0000E1024D96E0C
:10257000DA6A010EDA22DF50121A010E116EFFFF25
:10258000010E12140E6E0F6AD890133212320E50D2
:102590000F1004E0010E121AA00E131A112A080ED1
:1025A0001164EDD7102AFFFF0B50105CDEE313C05F
:1025B0000CF00D6A12500A6E096A0C500910126E66
:1025C0000D500A10136E12C007F013C008F012006D
:1025D000FFFFFFFF040E0101026F030E706E000E7D
:1025E0007024D96EDA6A010EDA22010EDF6E702ACB
:1025F000000E7024D96EDA6A010EDA22010EDF6E47
:10260000702A000E7024D96EDA6A010EDA22010EE9
:10261000DF6E702A000E7024D96EDA6A010EDA229B
:10262000010EDF6E702A000E7024D96EDA6A010E78
:10263000DA22DF68702A70C016F058EC14F01650D9
:102640001200FFFF02EE00F011EE00F0EE6AE5501E
:10265000E150FCE1E250FAE101EE00F0C80EEE6A52
:10266000E806FDE100EE80F06A0EEE6AE806FDE1A4
:10267000726A716A706A6F6A6E6A6D6AF60EF66ED9
:102680002D0EF76E000EF86E0900F5CF73F00900FD
:10269000F5CF74F00900F5CF75F076907692000EC4
:1026A000F86E000177EF09F0FFFF0A6E0806000ED2
:1026B0007024D96EDA6A010EDA220AC0DFFF702AAE
:1026C000000E7024D96EDA6A010EDA2208C0DFFF2C
:1026D000702A0B6A13D007500B24096E09C0F6FF4D
:1026E000060EF76E000E7024D96EDA6A010EDA2239
:1026F0000800FFFFF5CFDFFF0B2A702AFFFF08500D
:102700000B5CE9E31200FFFFFFFF9EB09DA00CD021
:102710009E900001B02B000EB123B223B323F60E1E
:10272000CF6E3C0ECE6E1CD0FFFFF2A419D0F294F7
:102730000001CC2B0A0ECC190FE1CC6B722AC24BD4
:10274000C32B3C0E721808E1726A752A180E7518B0
:1027500003E1C26BC36B756A1B0ED76E5E0ED66E3D
:10276000FFFF76921100FFFFFFFF01010251196E7A
:1027700003511E6E19C01FF01EC0BCF01FC0BDF07B
:102780000001BF6B010EBE6F01010451196E0551AE
:102790001B6E19C01CF0D8901E34D96E1F34DA6E2F
:1027A0001650D9261750DA221BC0DEFF1CC0DDFFF1
:1027B000060E706E7050020F1D6E58EC14F01D5016
:1027C0001200FFFFFFFF0C6A0D6A09500A101EE09D
:1027D000010E0B6E05D0FFFFD89009360A360B2A82
:1027E000FFFF0AAEF8D7FFFFD8900C360D36095020
:1027F000075C0A50085805E30950075E0A50085A5A
:102800000C80D8900A3209320B2EEDD70CC007F09D
:102810000DC008F01200FFFFFFFF010E0F6E0CC08D
:1028200007F00DC008F00A6E900E096E7EEC14F0F1
:102830000750081012E00CC00EF0030E0E160CE14B
:102840000CC007F00DC008F00A6A640E096E7EEC39
:1028500014F00750081001E10F6A0FC00CF00D6A68
:102860001200FFFFFFFF0A6E075010E00AC008F0D9
:10287000010E096E082A03D0FFFFD8900936FFFF2A
:10288000082EFAD709500001CE130FD00AC008F065
:10289000010E096E082A03D0FFFFD8900936FFFF0A
:1028A000082EFAD7091C0001CE17FFFF1200FFFF08
:1028B000FFFF7050AFEC12F007C014F008C015F025
:1028C000000E7024D96EDA6A010EDA2215C0DFFF1D
:1028D000702A000E7024D96EDA6A010EDA2214C052
:1028E000DFFF702A000E076E010E086E70C009F03F
:1028F0004CEC15F0706A23EF16F0FFFFFFFF095054
:102900000A101AE0010E0B6E05D0FFFFD8900936B1
:102910000A360B2AFFFF0AAEF8D7FFFF0950075C03
:102920000A50085804E30950075E0A50085AD89024
:102930000A3209320B2EF1D707C007F008C008F0A1
:102940001200FFFFFFFF076E14D0899892988988C4
:10295000928818D08B9694968B86948613D08B9001
:1029600094908B8094800ED08B9294928B829482E0
:1029700009D0FFFF0750E9E0010AECE0030AEFE0AD
:10298000010AF2E0FFFF1200FFFFFFFFF10E106EE1
:102990000B0E116E10500E02F3CF12F0F4CF13F0A5
:1029A0000F02F350132611500E02F3501326410E5E
:1029B0001224076EF40E1320086E0A6A640E096E64
:1029C000E2EC13F007C00EF008C00FF01200FFFF9A
:1029D000FFFF096A040E706E11D0A7EC15F0086EA7
:1029E000000E7024D96EDA6A010EDA2208C0DFFF09
:1029F000702A8B0E706402D0010E096EFFFFDFECAF
:102A000016F00009EAE1095002E0FD0E01D0705015
:102A1000FFFF1200FFFFFFFF136E135003E1156A63
:102A2000020E02D0156A010EFFFF146E14C009F0E9
:102A30000A6A7428B5EC04F074680001AC6BAD6BE5
:102A4000AE6BAF6BCAEC16F07450116E735001018F
:102A5000AE6F11C0AFF11200FFFFFFFF086E0A6AF0
:102A6000075017E0010E096E04D0FFFFD89007361B
:102A7000092AFFFF07AEF9D7FFFFD8900A360750A3
:102A8000085C03E30750085E0A80D8900732092EDD
:102A9000F3D70A501200FFFFFFFF8B8A060EFFFFDD
:102AA000E82EFDD700F00A6A0CD0FFFFACA2FDD7DC
:102AB0000A500724D96E000E0820DA6EDF50AD6E82
:102AC0000A2AFFFF09500A5CF0E3FFFFACA2FDD722
:102AD0008B9A1200FFFFFFFF096E095007E00950B3
:102AE000D96EDA6ABCC0DEFFBDC0DDFF075007E06B
:102AF0000750D96EDA6ABEC0DEFFBFC0DDFF0850E6
:102B000005E00850D96EDA6AD2C0DFFFE90E120084
:102B1000FFFFFFFF706A096AFFFFDFEC16F0000994
:102B200002E1FB0E11D0A7EC15F0086E000E702428
:102B3000D96EDA6A010EDA2208C0DFFF702A092A8C
:102B4000030E0964E9D77050FFFF1200FFFFFFFF7B
:102B5000F29E0001CA5112E0000ECB25D96EDA6A4E
:102B6000020EDA22DF50076ECA07CB2902E1CB6BD7
:102B700001D0CB2BFFFFF28E075002D0F28E000E59
:102B8000FFFF1200FFFFFFFF0A0E706E02C1E8F0A8
:102B900003C1E7F004C1E1F005C1E2F006C1E3F0D2
:102BA00007C1E4F008C1E5F009C1E6F07050020F7A
:102BB000166E58EC14F016501200FFFFFFFF07C00E
:102BC00009F0030E0916093ABD500918CF0B091870
:102BD000BD6E07C009F008C00AF0D8900A32093269
:102BE000D8900A3209320950BE6E1200FFFFFFFF73
:102BF000086E752802E1000E0DD0F29E0850D96EC5
:102C0000DA6A75C0DFFF0750D96EDA6A72C0DFFF7B
:102C1000F28E010EFFFF1200FFFFFFFF086E080E8D
:102C2000096E0A6AFFFFD89008340A340A6ED890F9
:102C3000083607500A5C02E307500A5E092EF2D7F5
:102C40000A501200FFFFFFFFF29EB0C00BF0B1C0B0
:102C50000CF0B2C00DF0B3C00EF0F28E0BC007F056
:102C60000CC008F00DC009F00EC00AF01200FFFF02
:102C7000FFFF076AFFFF0750900FD96EDA6ADF6A1D
:102C80000750800FD96EDA6ADF6A072A0E0E0764D2
:102C9000F1D70E0CFFFFFFFF076E752802E1000E53
:102CA0000AD0F29E0750D96EDA6AC2C0DEFFC3C0F6
:102CB000DDFFF28E010EFFFF1200FFFFFFFF076E28
:102CC00001C108F0D6C000F10850800F0101016F6A
:102CD00007C002F1030E706E030CFFFFFFFF076ECB
:102CE0000750D96EDA6ADECFDBF0DECFDCF0DECF64
:102CF000DDF0DECFDEF01200FFFFFFFFCDC002F1FE
:102D0000030E706E7050020F166E58EC14F01650D1
:102D10001200FFFFFFFFAC6AAC8AAC84400EAF6EBE
:102D2000AB6AAB8EAB88949A8B9A1200FFFFFFFFC1
:102D30000B6E0001CD6B0BC0D6F0040E076000D007
:102D4000FFFF1200FFFFFFFFCEC002F1030E706E07
:102D500070C016F058EC14F016501200FFFFFFFF81
:102D60000E6E0CC007F00DC008F00E5097EF16F075
:102D7000FFFFFFFF0F0EBD12CB68CA82CA9094946A
:102D80001200FFFFFFFFDB2B000EDC23DD23DE2321
:102D9000000CFFFFFFFF0001D16BCA949484120066
:102DA000FFFFFFFFF29ED8EC16F0F28E1200FFFF3D
:102DB000FFFF6D6A0001CB6BCA6B1200FFFFFFFFC4
:102DC0000001CA511200FFFFFFFFE80E1200FFFFD3
:102DD000FFFFE70E1200FFFFFFFFE20E1200FFFFF2
:102DE000FFFFE10E1200FFFFFFFFDB0E1200FFFFEF
:092DF000FFFF1200FFFFFFFFFFCF
:022DFA00FFFFD9
:020000040020DA
:08000000000100FFFFFFFFFFFC
:020000040030CA
:0E000000FF22070EFF0185FF0FC00FE00F402B
:0200000400F00A
:10000000110A800F80FF01041003FF1517090B066A
:0800100009000130200000008E
:00000001FF
