:0600000000F040EF00F0EB
:0A000800FFFF7282FFFF9AEF13F072
:10001800FFFF7280FFFFD8CF01F0E8CF02F0E0CFFA
:1000280003F0D9CF04F0DACF05F09EBA9DAA16D016
:10003800FFFF9EAAFDD7AECF06F0000E0001BF2538
:10004800D96EDA6A020EDA2206C0DFFF692ABF29F2
:1000580002E1BF6B01D0BF2BFFFF9E9AFFFF05C0D7
:10006800DAFF04C0D9FF03C0E0FF02C0E8FF01C007
:0C007800D8FF72901000FFFF8AEF12F01A
:10060000000102030405060F1011155461626C6F9E
:10061000207320726173706973616E69656D2074F7
:0506200075726F00007F
:10062600FFFFE40E076EE60E22EC15F00001E36F05
:10063600E351D96EDA6ADF5001E118D36068616868
:10064600E6C062F0E7C063F0605062266150632244
:100656006250E4276350E523E351D96EDA6A050E4A
:10066600DE1806E0E351D96EDA6A0F0EDE183CE1B9
:10067600E75118E1100EE65D15E2E55103E10F0EB4
:10068600E45D10E3D8C060F0D9C061F00F0E626E71
:10069600FFFFD89061326032622EFAD760A002D096
:1006A600FF00E4D2FFFFE75103E10A0EE65DD8B092
:1006B600DDD2E55104E1090EE45D01E2D7D2D8C0EE
:1006C60060F0D9C061F0090E626EFFFFD89061320A
:1006D6006032622EFAD760A0C9D26D6AFFFF800E23
:1006E6000101AB6FAA6FC2D2E351D96EDA6A060E68
:1006F600DE1807E0E351D96EDA6A100EDE1801E063
:10070600ACD2E7516CE10E0EE65D69E2E55103E11C
:100716000D0EE45D64E30101A651A71160E03C0EF5
:100726006D6059D06D50020DF350130F0001E16F4B
:100736000101A7510001E26FFFFFA6B2FDD7E1C09C
:10074600A9FFE2C0A8FFD890F2BED880F29EA68488
:10075600550EA76EAA0EA76EA682A69401E3F28E88
:10076600A6C1E2F0FFFFA6B2FDD70001E129A96EFE
:10077600E2C0A8FFD890F2BED880F29EA684550E9D
:10078600A76EAA0EA76EA682A69401E3F28E0101B9
:10079600A66BA76B010E076E000E086E6D50FEEC81
:1007A60008F06D2AFFFFA6B2FDD7120EA96E6DC026
:1007B600A8FFD890F2BED880F29EA684550EA76EEA
:1007C600AA0EA76EA682A69401E3F28E800E010100
:1007D600AB6FAA6F04D0FFFF010EAB6FAA6BFFFFD2
:1007E6000001E651E71119E101018C518D1115E067
:1007F6008CC1E2F00001E251030B076EE241E842D0
:100806003F0B010B086E01018D51FEEC08F0010152
:100816008C6B8D6B800EAB6FAA6F0001E75138E1D0
:10082600020EE65D35E2E451E51132E001018F5139
:100836000001C66FFFFFA6B2FDD7020EA96EC6C0A5
:10084600A8FFD890F2BED880F29EA684550EA76E59
:10085600AA0EA76EA682A69401E3F28E8EC1C7F0F9
:10086600FFFFA6B2FDD7030EA96EC7C0A8FFD8909A
:10087600F2BED880F29EA684550EA76EAA0EA76E6B
:10088600A682A69401E3F28E800E0101AB6FAA6FD9
:100896000001E7513AE1030EE65D37E2E55103E177
:1008A600020EE45D32E3010191510001C96FFFFFC1
:1008B600A6B2FDD7040EA96EC9C0A8FFD890F2BE95
:1008C600D880F29EA684550EA76EAA0EA76EA682A3
:1008D600A69401E3F28E90C1C8F0FFFFA6B2FDD741
:1008E600050EA96EC8C0A8FFD890F2BED880F29EA9
:1008F600A684550EA76EAA0EA76EA682A69401E33D
:10090600F28E800E0101AB6FAA6FC6C007F0086AAF
:100916006EEC13F0C8C0CBFF0001E75144E1040EB2
:10092600E65D41E2E55103E1030EE45D3CE30101CE
:1009360093510001F76FF86BFFFFA6B2FDD7060EC5
:10094600A96EF7C0A8FFD890F2BED880F29EA68402
:10095600550EA76EAA0EA76EA682A69401E3F28E86
:100966000001F751F86FF76B92C1F9F0FA6BFFFFD0
:10097600A6B2FDD7070EA96EF9C0A8FFD890F2BEA1
:10098600D880F29EA684550EA76EAA0EA76EA682E2
:10099600A69401E3F28E0001F951FA6FF96B800E0D
:1009A6000101AB6FAA6F0001E75126E1050EE65D76
:1009B60023E2E55103E1040EE45D1EE394C1D0F0A9
:1009C600FFFFA6B2FDD70A0EA96ED0C0A8FFD89029
:1009D600F2BED880F29EA684550EA76EAA0EA76E0A
:1009E600A682A69401E3F28E94C1B2F195C1B3F149
:1009F600800E0101AB6FAA6F0001E7513AE1060EC6
:100A0600E65D37E2E55103E1050EE45D32E30101FF
:100A160097510001C56FFFFFA6B2FDD7080EA96E5C
:100A2600C5C0A8FFD890F2BED880F29EA684550E07
:100A3600A76EAA0EA76EA682A69401E3F28E96C1B1
:100A4600CAF0FFFFA6B2FDD7090EA96ECAC0A8FF5D
:100A5600D890F2BED880F29EA684550EA76EAA0E36
:100A6600A76EA682A69401E3F28E800E0101AB6FFB
:100A7600AA6F0001E7513AE1070EE65D37E2E5515C
:100A860003E1060EE45D32E3010199510001CF6FE7
:100A9600FFFFA6B2FDD70B0EA96ECFC0A8FFD89058
:100AA600F2BED880F29EA684550EA76EAA0EA76E39
:100AB600A682A69401E3F28E98C1D1F0FFFFA6B2FA
:100AC600FDD70E0EA96ED1C0A8FFD890F2BED88071
:100AD600F29EA684550EA76EAA0EA76EA682A694AF
:100AE60001E3F28E800E0101AB6FAA6F0001E751A0
:100AF6003AE1080EE65D37E2E55103E1070EE45DF3
:100B060032E301019B510001D36FFFFFA6B2FDD76F
:100B16000C0EA96ED3C0A8FFD890F2BED880F29E64
:100B2600A684550EA76EAA0EA76EA682A69401E30A
:100B3600F28E9AC1D2F0FFFFA6B2FDD70D0EA96EB6
:100B4600D2C0A8FFD890F2BED880F29EA684550ED9
:100B5600A76EAA0EA76EA682A69401E3F28E800E59
:100B66000101AB6FAA6F0001E7514CE1090EE65D8A
:100B760049E2E55103E1080EE45D44E301019D51BC
:100B86000001BA6FBB6BFFFFA6B2FDD70F0EA96EB1
:100B9600BAC0A8FFD890F2BED880F29EA684550EA1
:100BA600A76EAA0EA76EA682A69401E3F28E000196
:100BB600060EFFFFD890BA37BB37E82EFAD79CC18E
:100BC600BCF0BD6BFFFFA6B2FDD7100EA96EBCC070
:100BD600A8FFD890F2BED880F29EA684550EA76EC6
:100BE600AA0EA76EA682A69401E3F28E0001060E57
:100BF600FFFFD890BC37BD37E82EFAD7800E01012B
:100C0600AB6FAA6F0001E75131E10A0EE65D2EE2F5
:100C1600E55103E1090EE45D29E3E75127E10C0EF6
:100C2600E65D24E2E55103E10B0EE45D1FE39EC1A0
:100C3600DBF09FC1DCF0A0C1DDF0A1C1DEF0A2C1F6
:100C4600DFF0A3C1E0F0DD0E456EDF0E466EDB0E73
:100C5600E8EC0FF00001B48141D5E351D96EDA6AB0
:100C6600150EDE1803E185EC0EF038D5FFFF1200F5
:100C7600FFFFFFFF446E4450D96EDA6A0A0ED9268A
:100C8600010EDBBE12D0DB5003E1460EDE5C0DE347
:100C96004450D96EDA6A0A0ED926010EDBBE0BD095
:100CA600DB5003E18B0EDE5C06E3FFFF4068416824
:100CB600426843685CD1FFFF4450D96EDA6A0A0E77
:100CC600D926DECF32F0DDCF33F06C0E32241E6E25
:100CD600070E33201F6E4450D96EDA6A080ED926E5
:100CE600DECF34F0DDCF35F03428206E000E35200F
:100CF600216E4450D96EDA6A060ED926DECF22F06E
:100D0600DDCF23F0B2EC11F01EC040F01FC041F061
:100D160020C042F021C043F0070E1F6EB20E1E6EB9
:100D2600216A010E206E236A226EB2EC11F01E506B
:100D3600405E1F50415A2050425A2150435A445057
:100D4600D96EDA6A040ED926DECF32F0DDCF33F063
:100D560032C034F033C035F0000E35BEFF0E366EAD
:100D6600376E40C038F041C039F042C03AF043C057
:100D76003BF0180E3802F3CF3CF0F4CF3DF03E6A5C
:100D86003F6A3902F3503D26F4503E22000E3F22C0
:100D96003802F3503D26F4503E22000E3F22180E34
:100DA6003A02F3503E26F4503F22000E3902F35029
:100DB6003E26F4503F22000E3802F3503E26F450F1
:100DC6003F22180E3B02F3503F26000E3A02F35024
:100DD6003F26000E3902F3503F26000E3802F3502C
:100DE6003F2634503C24406E35503D20416E3650EF
:100DF6003E20426E37503F20436E4450D96EDA6A29
:100E0600020ED926DECF32F0DDCF33F032C034F019
:100E160033C035F0000E35BEFF0E366E376E40C05D
:100E260038F041C039F042C03AF043C03BF03C0EC6
:100E36003802F3CF3CF0F4CF3DF03E6A3F6A390208
:100E4600F3503D26F4503E22000E3F223802F35066
:100E56003D26F4503E22000E3F223C0E3A02F3504D
:100E66003E26F4503F22000E3902F3503E26F4503F
:100E76003F22000E3802F3503E26F4503F223C0E2D
:100E86003B02F3503F26000E3A02F3503F26000E77
:100E96003902F3503F26000E3802F3503F263450F5
:100EA6003C24406E35503D20416E36503E20426E09
:100EB60037503F20436E4450D96EDA6ADECF32F0A7
:100EC600DDCF33F032C034F033C035F0000E35BE1E
:100ED600FF0E366E376E40C038F041C039F042C062
:100EE6003AF043C03BF03C0E3802F3CF3CF0F4CF6F
:100EF6003DF03E6A3F6A3902F3503D26F4503E22E9
:100F0600000E3F223802F3503D26F4503E22000EDA
:100F16003F223C0E3A02F3503E26F4503F22000E8A
:100F26003902F3503E26F4503F22000E3802F350A9
:100F36003E26F4503F223C0E3B02F3503F26000E65
:100F46003A02F3503F26000E3902F3503F26000EB8
:100F56003802F3503F2634503C24406E35503D2035
:100F6600416E36503E20426E37503F20436EFFFFA3
:100F760040C02EF041C02FF042C030F043C031F0E7
:100F86001200FFFFFFFF0C6E0C50D96EDA6ADECF3F
:100F960008F0DECF09F0DECF0AF0DECF0BF000015D
:100FA600B051085CA46FB1510958A56FB2510A58E7
:100FB600A66FB3510B58A76FBC51086EBD51096E91
:100FC6000A6A0B6AA451085CA5510958A6510A5829
:100FD600A7510B580EE2010E6C6E0C50D96EDA6AF0
:100FE600DECFB0F0DECFB1F0DECFB2F0DECFB3F0C1
:100FF600F1D06C5001E1EED0BA51086EBB51096ECA
:101006000A6A0B6AA451085CA5510958A6510A58E8
:10101600A7510B5801E3DED06C6ADCD0F00E8916BE
:101026006C5003E090C08AFF03D0905180198A6EFD
:10103600FFFF000E83EC14F06C5003E091C08AFFB2
:1010460004D00001915181198A6EFFFF010E83ECD5
:1010560014F06C5003E092C08AFF04D00001925154
:1010660082198A6EFFFF020E83EC14F06C5003E0C7
:101076009CC08AFF04D000019C518C198A6EFFFF28
:10108600030E83EC14F08980B0D0F00E89166C50F4
:1010960003E093C08AFF03D0935183198A6EFFFF42
:1010A600000E83EC14F06C5003E094C08AFF04D069
:1010B6000001945184198A6EFFFF010E83EC14F02F
:1010C6006C5003E095C08AFF04D000019551851944
:1010D6008A6EFFFF020E83EC14F06C5003E09DC095
:1010E6008AFF04D000019D518D198A6EFFFF030E01
:1010F60083EC14F0898279D0F00E89166C5003E0E7
:1011060096C08AFF03D0965186198A6EFFFF000E9D
:1011160083EC14F06C5003E097C08AFF04D0000102
:10112600975187198A6EFFFF010E83EC14F06C50FD
:1011360003E098C08AFF04D00001985188198A6E8E
:10114600FFFF020E83EC14F06C5003E09EC08AFF92
:1011560004D000019E518E198A6EFFFF030E83ECA8
:1011660014F0898442D0F00E89166C5003E099C0C1
:101176008AFF03D0995189198A6EFFFF000E83EC0E
:1011860014F06C5003E09AC08AFF04D000019A5113
:101196008A198A6EFFFF010E83EC14F06C5003E08F
:1011A6009BC08AFF04D000019B518B198A6EFFFFFA
:1011B600020E83EC14F06C5003E09FC08AFF04D04B
:1011C60000019F518F198A6EFFFF030E83EC14F006
:1011D60089860BD0FFFFCE5101E120D7010A01E13C
:1011E60054D7030A89E0010ABEE0FFFF0001CE2BB7
:1011F600CE951200FFFFFFFF0C6E0C5001E120D1CF
:101206003C0E0C6401D01CD1FFFF0C060C40E842DA
:101216003F0B0D6E0CC009F0030E0916D890093469
:101226000E6E05D10EC009F0092A010E0A6E092AB2
:1012360003D0FFFFD8900A36FFFF092EFAD70A1C03
:101246000B6E0D50900FD96EDA6A0B50DF160EC07A
:1012560009F0010E0A6E092A03D0FFFFD8900A365C
:10126600FFFF092EFAD70A1C0B6E0D50900FD96E90
:10127600DA6A0B50DF160EC009F0092A010E0A6E53
:10128600092A03D0FFFFD8900A36FFFF092EFAD7A6
:101296000A1C0B6E0D50800FD96EDA6A0B50DF16E2
:1012A6000EC009F0010E0A6E092A03D0FFFFD8907E
:1012B6000A36FFFF092EFAD75FD00EC009F0092AB9
:1012C600010E0A6E092A03D0FFFFD8900A36FFFFE7
:1012D600092EFAD70D50900FD96EDA6A0A50DF122E
:1012E6000EC009F0010E0A6E092A03D0FFFFD8903E
:1012F6000A36FFFF092EFAD70A1C0B6E0D50900F07
:10130600D96EDA6A0B50DF16085014E00EC009F0E9
:10131600092A010E0A6E092A03D0FFFFD8900A3661
:10132600FFFF092EFAD70D50800FD96EDA6A0A50E0
:10133600DF1215D00EC009F0092A010E0A6E092A1D
:1013460003D0FFFFD8900A36FFFF092EFAD70A1CF2
:101356000B6E0D50800FD96EDA6A0B50DF16FFFF49
:101366000EC009F0010E0A6E092A03D0FFFFD890BD
:101376000A36FFFF092EFAD7FFFF0A1C0B6E0D5027
:10138600800FD96EDA6A0B50DF165AD00EC009F0FC
:10139600092A010E0A6E092A03D0FFFFD8900A36E1
:1013A600FFFF092EFAD70A1C0B6E0D50900FD96E4F
:1013B600DA6A0B50DF160EC009F0010E0A6E092A12
:1013C60003D0FFFFD8900A36FFFF092EFAD70D503B
:1013D600900FD96EDA6A0A50DF120EC009F0092A98
:1013E600010E0A6E092A03D0FFFFD8900A36FFFFC6
:1013F600092EFAD70A1C0B6E0D50800FD96EDA6AC9
:101406000B50DF160850ABE00EC009F0010E0A6E55
:10141600092A03D0FFFFD8900A36FFFF092EFAD714
:101426000D50800FD96EDA6A0A50DF1209D0FFFF1D
:10143600075001E1F7D6010A01E13FD7030AA6E00A
:10144600FFFF1200FFFFFFFFFE0E6B24D96EDA6A64
:10145600000EDA22DF50156E146AFF0E6B24D96E69
:10146600DA6A000EDA22DF501410206E1550216E53
:101476006B50FE0FCCEC12F02050071803E1215000
:10148600081802E0FF0EF0D0226A256AFFFF2550F9
:10149600010F146E14C0F6FF060EF76E0800FFFF6C
:1014A600F5500101011903E1010E226E04D0252A2F
:1014B600090E2564EBD7FFFF225002E1010ED4D0BE
:1014C600236A246AB4D00251146E0351276E14C0E5
:1014D60028F00451146E0551236E14C024F02450D4
:1014E60003E1110E235C02E3030EBED0285010E187
:1014F600100E275C0DE223502724146E245028205A
:10150600156E155005E1110E145CFFFF01E2AAD01D
:10151600FFFF020EA9D00251146E0351276E14C0AC
:1015260028F004C126F0265002E02628DDE12850E6
:10153600EFE1100E275CE9D70251146E0351276EB6
:1015460014C028F0FFFF27C026F026500001C15D19
:10155600FFFFDEE387D00251146E0351276E14C0DD
:1015660028F0055104C114F0156A14C015F0146A68
:101576001412145027261550282227C026F026506C
:101586000001C25DE5D70251146E0351276E14C0E7
:1015960028F0055104C114F0156A14C015F0146A38
:1015A60014121450272615502822CCD7060E0319DC
:1015B600AFE10451ADE10505ABE1075106C114F0F9
:1015C600156A14C015F0146A1412000ED890143659
:1015D600153614C018F015C019F019BEFF0E1A6E94
:1015E6001B6E095108C114F0156A14C015F0146A6F
:1015F6001412000ED8901436153614C01CF015C0FF
:101606001DF01DBEFF0E1E6E1F6E1C501824146E9C
:101616001D501920156E1E501A20166E1F501B20C5
:10162600176E1750161002E115046FD771D7FFFF1A
:101636000151010A01E147D7030A01E144D7010A32
:10164600A2E0070A88E0010A01E165D7030A01E181
:1016560073D7090A01E137D71F0A95E0010A02E0AC
:10166600040AA4E0FFFF000EFFFF1200FFFFFFFFCA
:10167600E5EC15F047EC12F085EC0EF04FEC15F0AA
:1016860007C0E8F008C0E9F009C0EAF00AC0EBF0CC
:10169600C5EC15F00001EC6BED6BEE6BEF6BF069D2
:1016A600010E076E000E086E070E05EC0FF0010E18
:1016B600076E086E050E05EC0FF0FFFF4FEC15F0F8
:1016C60007C0F2F008C0F3F009C0F4F00AC0F5F064
:1016D600F20EC5EC07F0702844E0EC51F25DA46F01
:1016E600ED51F359A56FEE51F459A66FEF51F55927
:1016F600A76FF951646EFA51656E666A676AA451FE
:10170600645CA5516558A6516658A751675815E2FD
:10171600C6C007F0086A6EEC13F0C8C0CBFF9494FD
:10172600CA84010E0001BE6FF2C0ECF0F3C0EDF00A
:10173600F4C0EEF0F5C0EFF014D0BE5112E0F75150
:10174600646EF851656E666A676AA451645CA55159
:101756006558A6516658A751675803E2CA949484FF
:10176600BE6BFFFF82B205D0702803E0010EC8EC05
:1017760014F0FFFF0001E851F25D646EE951F35980
:10178600656EEA51F459666EEB51F559676E67500E
:10179600661005E1E80E645C030E65584AE3CEEC7C
:1017A60015F0702815E0DDEC15F0D96EDA6A000147
:1017B600A851DE5CA951DE58AA51DE58DE50800AD7
:1017C600686EAB51800A685803E3000EC8EC14F04B
:1017D600DDEC15F0D96EDA6ADECFB4F1DDCFB5F106
:1017E6000001F16BF66BF60E076EF10E39EC15F093
:1017F60000090FE00001F651F0190BE0F151646E9B
:10180600F6510101AC6F64C0ADF1F6C0F0F049ECE1
:1018160010F00001F151646EF6510101B26F64C01F
:10182600B3F1F2C0E8F0F3C0E9F0F4C0EAF0F5C0B5
:10183600EBF0B4C029F0B5C02AF0D80E2B6EAA0E74
:101846002C6E010E2D6E0F0E2E6E8C0E2F6E010E4F
:10185600306E0F0E316E33EC0CF013EC03F02DD717
:10186600FFFF0001DA6B2EC0C2F031C0C1F0E1EC1F
:1018760015F0326E325003E1FFFF000E9ED00001DC
:10188600C451321812E032C0C4F0050E4FEC15F008
:1018960007240001A06F000E0820A16F000E09208A
:1018A600A26F000E0A20A36FE7D74FEC15F00001D8
:1018B600A051075CA1510858A2510958A3510A58D2
:1018C600DBE3C46BA6EC14F0336E040E336003D076
:1018D600FFFF335072D0FFFF0001C3510101001911
:1018E600CBE126EC0AF0346E345009E0342805E0EA
:1018F600345077EC15F016EC14F034505ED04FEC03
:1019060015F043D02B50D96EDA6ADECF16F0DDCF54
:1019160017F0E3EC0CF051D029C016F02AC017F0EE
:10192600E3EC0CF04AD02FC016F030C017F031C0EF
:1019360018F0A8EC10F041D02CC016F02DC017F00E
:101946002EC018F0A8EC10F038D02B505EEC11F039
:1019560034D02FC016F030C017F031C018F03DEC6F
:1019660013F02BD02B507CEC0DF027D02FC016F0A7
:1019760030C017F031C018F080EC0FF01ED006EC26
:1019860013F01BD005EC11F018D0FFFF0101015137
:10199600010AB8E0030AC0E0010AC5E0070ACCE084
:1019A600010AD3E0030AD5E0090ADCE01F0ADEE0FB
:1019B600010AE5E0040AE6E08BD7FFFF1200FFFF0D
:1019C600FFFF010E0001DA6F01010251186E03518B
:1019D600206E18C021F020C0B6F021C0B7F0045127
:1019E600186E0551256E18C026F025C0B8F026C021
:1019F600B9F025C018F026C019F0D890193218325F
:101A0600D89019321832D8901932183218501F6EE1
:101A160025C018F0070E181601E01F2A1FC002F194
:101A2600030E6B6E246A226A236A4FD0225020244A
:101A36001B6E235021201C6E1BC01DF01DC018F00C
:101A460016C019F017C01AF0182A04D0FFFFD89054
:101A56001A321932FFFF182EF9D719A015D024C053
:101A660018F0010E196E182A03D0FFFFD890193608
:101A7600FFFF182EFAD7000E6B24D96EDA6A010E14
:101A8600DA221950DF1217D0FFFF24C018F0010E1A
:101A9600196E182A03D0FFFFD8901936FFFF182EAB
:101AA600FAD7191C1A6E000E6B24D96EDA6A010E6B
:101AB600DA221A50DF16FFFF242A070E246402D00A
:101AC600246A6B2AFFFF224A232AFFFF2550225C45
:101AD60026502358ABE325C018F0070E181601E070
:101AE6006B2A6B50020F1E6E16EC14F01E5012007D
:101AF600FFFFFFFF276E0F0E0001DA6F0101025193
:101B0600166E0351206E16C021F020C0B6F021C01B
:101B1600B7F00451166E0551226E16C023F022C08E
:101B2600B8F023C0B9F0286A070E1F6E246A256A2A
:101B360058D0245020241B6E255021201C6E1BC01B
:101B460026F028C016F0000E1F24D96EDA6A010EA0
:101B5600DA22DF50176E162A03D0FFFFD89017320D
:101B6600FFFF162EFAD71750010B1E6E1E5016E0F9
:101B760026C016F0010E176E186A162A04D0FFFF4B
:101B8600D89017361836FFFF162EF9D72750D96E7C
:101B9600DA6A1750DE121850DD1219D026C016F078
:101BA600010E176E186A162A04D0FFFFD890173652
:101BB6001836FFFF162EF9D7171C196E181C1A6E49
:101BC6002750D96EDA6A1950DE161A50DD16FFFF55
:101BD600282A070E286402D0286A1F2AFFFF244AF3
:101BE600252AFFFF2250245C23502558A2E3060E27
:101BF6006B6E6B50020F1D6E16EC14F01D5012002A
:101C0600FFFFFFFF0E50126E0F50136E146A156A17
:101C16006D0E1202F3CF16F0F4CF17F0186A196A98
:101C26001302F3501726F4501822000E1922010E43
:101C36001202F3501726F4501822000E19226D0EC8
:101C46001402F3501826F4501922010E1302F35011
:101C56001826F4501922000E1202F3501826F450DA
:101C660019226D0E1502F3501926010E1402F350B7
:101C76001926000E1302F3501926000E1202F35015
:101C8600192616C01AF017C01BF018C01CF019C090
:101C96001DF00EC007F00FC008F00A6A640E096E48
:101CA600C6EC13F00EC012F00FC013F0D89013322A
:101CB6001232D890133212320750125E0850135A5D
:101CC60012501A2613501B22000E1C221D220EC073
:101CD60007F00FC008F0010E0A6E900E096EC6ECF2
:101CE60013F007501A2608501B22000E1C221D2234
:101CF6001AC00EF01BC00FF01CC010F01DC011F072
:101D0600000CFFFFFFFF020EA96EA680A8CFC6F04B
:101D1600030EA96EA680A8CFC7F0040EA96EA680F2
:101D2600A8CFC9F0050EA96EA680A8CFC8F0060EEA
:101D3600A96EA680A8500001F86FF76B070EA96E72
:101D4600A680A850FA6FF96B080EA96EA680A8CFD8
:101D5600C5F0090EA96EA680A8CFCAF00A0EA96E14
:101D6600A680A8CFD0F00B0EA96EA680A8CFCFF084
:101D76000C0EA96EA680A8CFD3F00D0EA96EA68074
:101D8600A8CFD2F00E0EA96EA680A8CFD1F00F0E66
:101D9600A96EA680A8500F6E106A060EFFFFD89097
:101DA6000F361036E82EFAD70FC0BAF010C0BBF0C7
:101DB600100EA96EA680A8500F6E106A060EFFFFC1
:101DC600D8900F361036E82EFAD70FC0BCF010C0E8
:101DD600BDF0120EA96EA680A8CF6DF0C6C007F0A2
:101DE600086A6EEC13F0C8C0CBFF010EA96EA68080
:101DF6000C6A0D6AA850B1EC15F064EC15F004EF0E
:101E060012F0FFFFFFFF0E6E070E0E6401D072D0B8
:101E1600FFFF075010E00EC009F0010E0A6E092AF6
:101E260003D0FFFFD8900A36FFFF092EFAD70A50D3
:101E360000019F130FD00EC009F0010E0A6E092A89
:101E460003D0FFFFD8900A36FFFF092EFAD70A1CE7
:101E560000019F17FFFF085010E00EC009F0010EA9
:101E66000A6E092A03D0FFFFD8900A36FFFF092E13
:101E7600FAD70A5000018F130FD00EC009F0010ED9
:101E86000A6E092A03D0FFFFD8900A36FFFF092EF3
:101E9600FAD70A1C00018F17FFFF075014E00EC087
:101EA60009F0010E0A6E0B6A092A04D0FFFFD890CA
:101EB6000A360B36FFFF092EF9D70A500001D81350
:101EC6000B50D91317D00EC009F0010E0A6E0B6A1B
:101ED600092A04D0FFFFD8900A360B36FFFF092ED9
:101EE600F9D70A1C0C6E0B1C0D6E0C500001D8178E
:101EF6000D50D917FFFF1200FFFFFFFF100E000164
:101F0600DA6F0101035102C119F01A6A19C01AF0F9
:101F1600196A1910206E1A50216E20C0B6F021C021
:101F2600B7F005C122F022C0B8F00001B96B01017B
:101F3600046B22C005F1060E6B6E236A2CD023506B
:101F4600020D080EF324D96E010EF420DA6EDF506E
:101F5600196E2350020D070EF324D96E010EF420DC
:101F6600DA6EDF501A6E19501D6E1AC01EF023501D
:101F76002024196E000E21201A6ED89019361A36B2
:101F860019501624D96E1A501720DA6E1DC0DEFFBE
:101F96001EC0DDFF232AFFFF2250235C0EE21850ED
:101FA600196E1A6A235020241B6E000E21201C6E07
:101FB60019501B5C1A501C58C2E36B50020F1F6E5F
:101FC60016EC14F01F501200FFFFFFFF4D6E465037
:101FD600D96EDA6ADECF47F0DDCF48F048C047F069
:101FE600486A640E4724586E000E4820596E4650C3
:101FF600D96EDA6ADECF47F0DDCF48F04750566E2D
:10200600576A4550D96EDA6ADECF47F0DDCF48F021
:102016004850546E556A4D50D96EDA6ADECF47F095
:10202600DDCF48F04850526E536A4D50D96EDA6A89
:10203600DECF47F0DDCF48F04750506E516A45502D
:10204600D96EDA6ADECF47F0DDCF48F047504E6EE4
:102056004F6A500E076E4E0E040F96EC15F04E0E9C
:102066003CEC06F02EC049F02FC04AF030C04BF0D1
:1020760031C04CF0490E87EC15F0000E076E086E65
:10208600050E05EC0FF004EF12F0FFFFFFFF6F28BF
:102096005AE0140E076E130E39EC15F0000953E0E2
:1020A60013500CE114500AE164EC15F06F6870509F
:1020B6000F6E6F500101AE6F0FC0AFF113500001EC
:1020C600CB1941E11450CC193EE1702806E0020E0E
:1020D600076E086A7028FEEC08F06FC070F0000109
:1020E600CD5107E1010E076E086E7028FEEC08F070
:1020F60007D0020E076E010E086E7028FEEC08F07F
:10210600FFFFDDEC15F0D96EDA6ADECF0FF0DECF19
:1021160010F0DECF11F0DECF12F00001D0510F2407
:10212600A86F000E1020A96F000E1120AA6F000ED6
:102136001220AB6F04EC12F070500F6E6F5001015D
:10214600AE6F0FC0AFF11200FFFFFFFF030E0001DD
:10215600DA6F03C120F020C0B6F0B76B010104515D
:10216600196E05511E6E19C01FF01EC0B8F01FC0B3
:10217600B9F01E501E24026F030E6B6E20C021F0B4
:102186002AD0000E6B24D96EDA6A010EDA222150AB
:10219600020DF3501624E16EF4501720E26EE6CFDE
:1021A60019F0E5CF1AF01AC019F01A6A1950DF6E45
:1021B6006B2A2150020DF3501624D96EF4501720C5
:1021C600DA6E000E6B24E16EE26A010EE222DFCFC8
:1021D600E7FF6B2A212AFFFF20501E24196E000EEE
:1021E6001F201A6E21501B6E1C6A19501B5C1A5058
:1021F6001C58C7E36B50020F1D6E16EC14F01D50F1
:102206001200FFFFFFFF150E0001DA6F02C118F082
:102216000101075106C116F0176A16C017F0166AB3
:102226001612D89016341A6E17341B6E1AC0B6F0F2
:102236001BC0B7F0095108C116F0176A16C017F08F
:10224600166A1612D89016341C6E17341D6E1CC0F2
:10225600B8F01DC0B9F018286B6E1E6A1CD0FFFFBF
:10226600A6B2FDD71E501A24A96E0A0E1E24D96ED8
:10227600DA6A010EDA22DF50A86ED890F2BED88054
:10228600F29EA684550EA76EAA0EA76EA682A694E7
:1022960001E3F28E1E2AFFFF1E50166E176A1C50AF
:1022A600165C1D501758DBE36BC019F016EC14F0E2
:1022B60019501200FFFFFFFF1F6E050E0001DA6FB7
:1022C60001010251166E03511C6E16C01DF01CC092
:1022D600B6F01DC0B7F00001B96B010EB86F1C5007
:1022E6000F0B1E6E0101042916E11EC016F0010E29
:1022F600176E186A162A04D0FFFFD89017361836BC
:10230600FFFF162EF9D71F50D96EDA6A1750DE1264
:102316001850DD1219D01EC016F0010E176E186A7D
:10232600162A04D0FFFFD89017361836FFFF162E50
:10233600F9D7171C196E181C1A6E1F50D96EDA6A57
:102346001950DE161A50DD16FFFF060E6B6E6B5027
:10235600020F1B6E16EC14F01B501200FFFFFFFF5E
:1023660020C00EF021C00FF060EC14F022500E26B3
:1023760023500F220EC02AF00FC02BF02C6A2D6AB4
:10238600215003E1030E205C21E31EC00CF01FC0A8
:102396000DF0F0EC13F00C500D1003E1296A020E5B
:1023A60002D0296A010EFFFF286E28C024F029C03A
:1023B60025F0000E25BEFF0E266E276E24502A5EDF
:1023C60025502B5A26502C5A27502D5A1E06D8A077
:1023D6001F061EC00EF01FC00FF004EC0EF00E50CC
:1023E6002A260F502B2210502C2211502D222AC0A3
:1023F6001EF02BC01FF02CC020F02DC021F01200C3
:10240600FFFFFFFF6D503EE00D0E076E0C0E39EC20
:1024160015F0000937E06F2802E16F6A01D06F2AD4
:10242600FFFF7050096E6F500101AE6F09C0AFF12A
:102436006D506F5C27E26F50020DF350130FA96EBB
:10244600A680A8CF0BF00B501F0B0001CB6F0B38EB
:10245600E842070B010BCD6F6F50020DF350140FBE
:10246600A96EA680A8CFCCF0CB51096ECC51010144
:10247600B06F09C0B1F10C500001CB5DCCE3CC517B
:102486000D5CC9E21200FFFFFFFFF28CF28ED08EC8
:10249600CD8ECD94CD92CF0ECD169D809F80F60E1B
:1024A600CF6E3C0ECE6E9E90CD80D59CD59AD5969D
:1024B600070ED512F28AF1841B0ED76E1F0ED66E4A
:1024C600F294D58ED6EC15F0A4EC15F09D8A9F9A61
:1024D600076AFFFF0750020DAA0EF324D96E010EFC
:1024E600F420DA6EDE6ADD6A072A0E0E0764F1D77B
:1024F600936A8990899289948996929092929294FD
:1025060092969486948294908B941200FFFF02EE2A
:1025160000F011EE00F0EE6AE550E150FCE1E25009
:10252600FAE101EE00F0C80EEE6AE806FDE100EE03
:1025360080F05B0EEE6AE806FDE16E6A6D6A6C6A13
:102546006B6A6A6A696AD00EF66E2B0EF76E000E1B
:10255600F86E00EEF7F010EE04F00900F5CFEEFF8E
:10256600E550E150FAE1D40EF66E2B0EF76E000E32
:10257600F86E0900F5CF6FF00900F5CF70F009008D
:10258600F5CF71F072907292000EF86E00013AEF7C
:102596000BF0FFFF0F6E12681368106A1ED0000E54
:1025A6001024D96EDA6A010EDA22DF50121A010EF1
:1025B600116EFFFF010E12140D6E0E6AD8901332C3
:1025C60012320D500E1004E0010E121AA00E131A4C
:1025D600112A080E1164EDD7102AFFFF0F50105C68
:1025E600DEE313C00BF00C6A12500A6E096A0B5038
:1025F6000910126E0C500A10136E12C007F013C0A9
:1026060008F01200FFFFFFFF1B0E0101026F030E11
:102616006B6E186AFFFF18500B0F166E16C0F6FF8A
:10262600060EF76E000E6B24D96EDA6A010EDA22F8
:102636000800FFFFF5CFDFFF182A6B2A180E186473
:10264600E9D7000E6B24D96EDA6A010EDA22210E62
:10265600DF6E6B2A000E6B24D96EDA6A010EDA225F
:102666003E0EDF6E6B2A6BC017F016EC14F0175097
:102676001200FFFFFFFF060E0001DA6F0101025193
:10268600196E03511E6E19C01FF01EC0B6F01FC092
:10269600B7F00001B96B010EB86F01010451196E54
:1026A60005511B6E19C01CF0D8901E34D96E1F340C
:1026B600DA6E1650D9261750DA221BC0DEFF1CC070
:1026C600DDFF060E6B6E6B50020F1D6E16EC14F0DE
:1026D6001D501200FFFFFFFF07A003D0096A092A59
:1026E60002D0FFFF096AFFFF093ABD500918EF0B38
:1026F6000918BD6E07A203D0096A092A02D0FFFF96
:10270600096AFFFF093A0946BD500918DF0B091887
:10271600BD6E07C009F008C00AF0D8900A32093227
:10272600D8900A3209320950BE6E1200FFFFFFFF31
:102736009EB09DA00CD09E900001AC2B000EAD2348
:10274600AE23AF23F60ECF6E3C0ECE6E18D0FFFF33
:10275600F2A415D0F2940001C02B0A0EC0190BE1A9
:10276600C06B6E2A3C0E6E1806E16E6A712A180E50
:10277600711801E1716A1B0ED76E1F0ED66EFFFF30
:1027860072921100FFFFFFFF0C6A0D6A09500A10D2
:102796001EE0010E0B6E05D0FFFFD89009360A36F3
:1027A6000B2AFFFF0AAEF8D7FFFFD8900C360D367E
:1027B6000950075C0A50085805E30950075E0A509D
:1027C600085A0C80D8900A3209320B2EEDD70CC06D
:1027D60007F00DC008F01200FFFFFFFF010E0F6E9D
:1027E6000CC007F00DC008F00A6E900E096E3CECA6
:1027F60014F00750081012E00CC00EF0030E0E166F
:102806000CE10CC007F00DC008F00A6A640E096EF0
:102816003CEC14F00750081001E10F6A0FC00CF0F1
:102826000D6A1200FFFFFFFF6B50CCEC12F007C0E1
:1028360014F008C015F0000E6B24D96EDA6A010E8A
:10284600DA2215C0DFFF6B2A000E6B24D96EDA6A16
:10285600010EDA2214C0DFFF6B2A000E076E010E8E
:10286600086E6BC009F0E8EC14F06B6A4FEF15F0D8
:10287600FFFFFFFF09500A101AE0010E0B6E05D08C
:10288600FFFFD89009360A360B2AFFFF0AAEF8D7A3
:10289600FFFF0950075C0A50085804E30950075E19
:1028A6000A50085AD8900A3209320B2EF1D707C0BF
:1028B60007F008C008F01200FFFFFFFFF10E106ED0
:1028C6000B0E116E10500E02F3CF12F0F4CF13F070
:1028D6000F02F350132611500E02F3501326410E29
:1028E6001224076EF40E1320086E0A6A640E096E2F
:1028F600C6EC13F007C00EF008C00FF01200FFFF81
:10290600FFFF076E14D0899892988988928818D00C
:102916008B9694968B86948613D08B9094908B800E
:1029260094800ED08B9294928B82948209D0FFFF72
:102936000750E9E0010AECE0030AEFE0010AF2E0E1
:10294600FFFF1200FFFFFFFF096A6B6A11D007EC59
:1029560015F0086E000E6B24D96EDA6A010EDA22C3
:1029660008C0DFFF6B2A8B0E6B6402D0010E096E66
:10297600FFFFE1EC15F00009EAE1095002E0FD0E67
:1029860001D06B50FFFF1200FFFFFFFF116E1150C9
:1029960003E1136A020E02D0136A010EFFFF126EE4
:1029A60012C007F0086A7028FEEC08F07068000193
:1029B600A86BA96BAA6BAB6B70500F6E6F500101C1
:1029C600AE6F0FC0AFF11200FFFFFFFF8B8A060E3E
:1029D600FFFFE82EFDD700F00A6A0CD0FFFFACA27D
:1029E600FDD70A500724D96E000E0820DA6EDF5094
:1029F600AD6E0A2AFFFF09500A5CF0E3FFFFACA2A6
:102A0600FDD78B9A1200FFFFFFFFF29E695012E07E
:102A1600000E6A24D96EDA6A020EDA22DF50076ED9
:102A260069066A2802E16A6A01D06A2AFFFFF28E05
:102A3600075002D0F28E000EFFFF1200FFFFFFFFCD
:102A4600096E095007E00950D96EDA6AB6C0DEFF92
:102A5600B7C0DDFF075007E00750D96EDA6AB8C085
:102A6600DEFFB9C0DDFFDA0E1200FFFFFFFF086EC2
:102A7600712802E1000E0DD0F29E0850D96EDA6A76
:102A860071C0DFFF0750D96EDA6A6EC0DFFFF28EC3
:102A9600010EFFFF1200FFFFFFFFF29EACC00BF01E
:102AA600ADC00CF0AEC00DF0AFC00EF0F28E0BC094
:102AB60007F00CC008F00DC009F00EC00AF01200B5
:102AC600FFFFFFFF076AFFFF0750900FD96EDA6A14
:102AD600DF6A0750800FD96EDA6ADF6A072A0E0EA0
:102AE6000764F1D70E0CFFFFFFFF076E01C108F068
:102AF600C3C000F10850800F0101016F07C002F149
:102B0600030E6B6E030CFFFFFFFF076E0750D96EB7
:102B1600DA6ADECFD4F0DECFD5F0DECFD6F0DECF68
:102B2600D7F01200FFFFFFFF086E0850D96EDA6A71
:102B3600DF50716E0750D96EDA6ADF506E6E120082
:102B4600FFFFFFFFAC6AAC8AAC84400EAF6EAB6A87
:102B5600AB8EAB88949A8B9A1200FFFFFFFF0E6E26
:102B66000CC007F00DC008F00E50BBEF15F0FFFFCC
:102B7600FFFF0B6E0BC0C3F0040E076000D0FFFF13
:102B86001200FFFFFFFF0F0EBD12CB68CA82CA906C
:102B960094941200FFFFFFFFD42B000ED523D623FB
:102BA600D723000CFFFFFFFF0001BF6B6A6A696A4B
:102BB6001200FFFFFFFFD40E1200FFFFFFFF695058
:102BC6001200FFFFFFFF1200FFFF00010004FFFFDE
:012BD600FFFF
:022BD800FFFFFD
:020000040020DA
:08000000000100FFFFFFFFFFFC
:020000040030CA
:0E000000FF22070EFF0185FF0FC00FE00F402B
:0200000400F00A
:10000000110A800F80FF01041003FF1517090B066A
:0800100009000130200000008E
:00000001FF
