:0600000000F016EF00F015
:10000800FFFF7A82FFFFD9CF01F0DACF02F002EFCB
:100018000FF07A80FFFFE0CF04F004C0E0FF7A9091
:100028001000FFFFD3EF0FF0FFFF6B0E056E6D0E94
:100038002DEC12F06A6E6A50D96EDA6ADF5001E16F
:1000480007D35E685F686DC060F06EC061F05E5097
:1000580060265F50612260506B2661506C226A50A6
:10006800D96EDA6A050EDE1806E06A50D96EDA6AC9
:100078000F0EDE183CE16E5018E1100E6D5C15E2B3
:100088006C5003E10F0E6B5C10E3D6C05EF0D7C076
:100098005FF00F0E606EFFFFD8905F325E32602E09
:1000A800FAD75EA002D0FF00D3D2FFFF6E5003E163
:1000B8000A0E6D5CD8B0CCD26C5004E1090E6B5CB2
:1000C80001E2C6D2D6C05EF0D7C05FF0090E606EFE
:1000D800FFFFD8905F325E32602EFAD75EA0B8D2AA
:1000E800756AFFFF800E0101AB6FAA6FB1D26A502B
:1000F800D96EDA6A060EDE1807E06A50D96EDA6A37
:10010800100EDE1801E09BD26E5068E10E0E6D5C99
:1001180065E26C5003E10D0E6B5C60E30101A651D2
:10012800A7115CE03C0E756055D07550020DF35078
:10013800130F686EA751696EFFFFA6B2FDD768C09E
:10014800A9FF69C0A8FFD890F2BED880F29EA68405
:10015800550EA76EAA0EA76EA682A69401E3F28E8C
:10016800A6C169F0FFFFA6B2FDD76828A96E69C0CD
:10017800A8FFD890F2BED880F29EA684550EA76E2E
:10018800AA0EA76EA682A69401E3F28E0101A66BC1
:10019800A76B010E056E000E066E7550F1EC05F0AA
:1001A800752AFFFFA6B2FDD7120EA96E75C0A8FF6B
:1001B800D890F2BED880F29EA684550EA76EAA0EDD
:1001C800A76EA682A69401E3F28E800E0101AB6FA2
:1001D800AA6F04D0FFFF010EAB6FAA6BFFFF6D5033
:1001E8006E1017E101018C518D1113E08CC169F07B
:1001F8006950030B056E6940E8423F0B010B066E20
:100208008D51F1EC05F001018C6B8D6B800EAB6F9D
:10021800AA6F6E5037E1020E6D5C34E26B506C10C1
:1002280031E001018F51736EFFFFA6B2FDD7020EB8
:10023800A96E73C0A8FFD890F2BED880F29EA6849B
:10024800550EA76EAA0EA76EA682A69401E3F28E9B
:100258008EC1C6F0FFFFA6B2FDD7030EA96EC6C0B9
:10026800A8FFD890F2BED880F29EA684550EA76E3D
:10027800AA0EA76EA682A69401E3F28E800E010153
:10028800AB6FAA6F6E503AE1030E6D5C37E26C50AB
:1002980003E1020E6B5C32E3010191510001C76F6B
:1002A800FFFFA6B2FDD7040EA96EC7C0A8FFD8905D
:1002B800F2BED880F29EA684550EA76EAA0EA76E2F
:1002C800A682A69401E3F28E90C174F0FFFFA6B255
:1002D800FDD7050EA96E74C0A8FFD890F2BED880CD
:1002E800F29EA684550EA76EAA0EA76EA682A694A5
:1002F80001E3F28E800E0101AB6FAA6F73C005F0A7
:10030800066A80EC10F074C0CBFF6E5044E1040E16
:100318006D5C41E26C5003E1030E6B5C3CE3010150
:1003280093510001ED6FEE6BFFFFA6B2FDD7060EED
:10033800A96EEDC0A8FFD890F2BED880F29EA68420
:10034800550EA76EAA0EA76EA682A69401E3F28E9A
:100358000001ED51EE6FED6B92C1EFF0F06BFFFF16
:10036800A6B2FDD7070EA96EEFC0A8FFD890F2BEBF
:10037800D880F29EA684550EA76EAA0EA76EA682F6
:10038800A69401E3F28E0001EF51F06FEF6B800E3F
:100398000101AB6FAA6F6E5026E1050E6D5C23E27A
:1003A8006C5003E1040E6B5C1EE394C1CEF0FFFFBA
:1003B800A6B2FDD70A0EA96ECEC0A8FFD890F2BE8D
:1003C800D880F29EA684550EA76EAA0EA76EA682A6
:1003D800A69401E3F28E94C1B2F195C1B3F1800EF7
:1003E8000101AB6FAA6F6E503AE1060E6D5C37E201
:1003F8006C5003E1050E6B5C32E30101975100017B
:10040800C56FFFFFA6B2FDD7080EA96EC5C0A8FF2D
:10041800D890F2BED880F29EA684550EA76EAA0E7A
:10042800A76EA682A69401E3F28E96C1C8F0FFFFDC
:10043800A6B2FDD7090EA96EC8C0A8FFD890F2BE13
:10044800D880F29EA684550EA76EAA0EA76EA68225
:10045800A69401E3F28E800E0101AB6FAA6F6E5075
:100468003AE1070E6D5C37E26C5003E1060E6B5CF7
:1004780032E3010199510001CD6FFFFFA6B2FDD70C
:100488000B0EA96ECDC0A8FFD890F2BED880F29E00
:10049800A684550EA76EAA0EA76EA682A69401E39F
:1004A800F28E98C1CFF0FFFFA6B2FDD70E0EA96E4F
:1004B800CFC0A8FFD890F2BED880F29EA684550E71
:1004C800A76EAA0EA76EA682A69401E3F28E800EEE
:1004D8000101AB6FAA6F6E503AE1080E6D5C37E20E
:1004E8006C5003E1070E6B5C32E301019B51000184
:1004F800D16FFFFFA6B2FDD70C0EA96ED1C0A8FF21
:10050800D890F2BED880F29EA684550EA76EAA0E89
:10051800A76EA682A69401E3F28E9AC1D0F0FFFFDF
:10052800A6B2FDD70D0EA96ED0C0A8FFD890F2BE16
:10053800D880F29EA684550EA76EAA0EA76EA68234
:10054800A69401E3F28E800E0101AB6FAA6F6E5084
:100558004CE1090E6D5C49E26C5003E1080E6B5CDE
:1005680044E301019D510001BA6FBB6BFFFFA6B2C6
:10057800FDD70F0EA96EBAC0A8FFD890F2BED880DA
:10058800F29EA684550EA76EAA0EA76EA682A69402
:1005980001E3F28E0001060EFFFFD890BA37BB3791
:1005A800E82EFAD79CC1BCF0BD6BFFFFA6B2FDD701
:1005B800100EA96EBCC0A8FFD890F2BED880F29EDB
:1005C800A684550EA76EAA0EA76EA682A69401E36E
:1005D800F28E0001060EFFFFD890BC37BD37E82E1B
:1005E800FAD7800E0101AB6FAA6F6E5031E10A0E87
:1005F8006D5C2EE26C5003E1090E6B5C29E36E50D2
:1006080027E10C0E6D5C24E26C5003E10B0E6B5C71
:100618001FE39EC162F09FC163F0A0C164F0A1C155
:1006280065F0A2C166F0A3C167F0640E436E660E62
:10063800446E620EE6EC0CF00001B48152D56A50AB
:10064800D96EDA6A150EDE1803E183EC0BF049D592
:10065800FFFF1200FFFFFFFF426E4250D96EDA6AB9
:100668000A0ED926010EDBBE12D0DB5003E1460E7E
:10067800DE5C0DE34250D96EDA6A0A0ED926010E05
:10068800DBBE0BD0DB5003E18B0EDE5C06E3FFFF25
:100698003E683F68406841685CD1FFFF4250D96EB0
:1006A800DA6A0A0ED926DECF30F0DDCF31F06C0ED3
:1006B80030241C6E070E31201D6E4250D96EDA6A46
:1006C800080ED926DECF32F0DDCF33F032281E6E89
:1006D800000E33201F6E4250D96EDA6A060ED926F4
:1006E800DECF20F0DDCF21F0B0EC0EF01CC03EF0E4
:1006F8001DC03FF01EC040F01FC041F0070E1D6E28
:10070800B20E1C6E1F6A010E1E6E216A206EB0ECBE
:100718000EF01C503E5E1D503F5A1E50405A1F504E
:10072800415A4250D96EDA6A040ED926DECF30F02B
:10073800DDCF31F030C032F031C033F0000E33BEBF
:10074800FF0E346E356E3EC036F03FC037F040C005
:1007580038F041C039F0180E3602F3CF3AF0F4CF32
:100768003BF03C6A3D6A3702F3503B26F4503C228A
:10077800000E3D223602F3503B26F4503C22000E78
:100788003D22180E3802F3503C26F4503D22000E4C
:100798003702F3503C26F4503D22000E3602F35047
:1007A8003C26F4503D22180E3902F3503D26000E27
:1007B8003802F3503D26000E3702F3503D26000E56
:1007C8003602F3503D2632503A243E6E33503B20D9
:1007D8003F6E34503C20406E35503D20416E4250B3
:1007E800D96EDA6A020ED926DECF30F0DDCF31F0CD
:1007F80030C032F031C033F0000E33BEFF0E346E1D
:10080800356E3EC036F03FC037F040C038F041C0CA
:1008180039F03C0E3602F3CF3AF0F4CF3BF03C6AA5
:100828003D6A3702F3503B26F4503C22000E3D222D
:100838003602F3503B26F4503C22000E3D223C0E7B
:100848003802F3503C26F4503D22000E3702F35094
:100858003C26F4503D22000E3602F3503C26F4505C
:100868003D223C0E3902F3503D26000E3802F3506B
:100878003D26000E3702F3503D26000E3602F35097
:100888003D2632503A243E6E33503B203F6E345062
:100898003C20406E35503D20416E4250D96EDA6A98
:1008A800DECF30F0DDCF31F030C032F031C033F080
:1008B800000E33BEFF0E346E356E3EC036F03FC0BC
:1008C80037F040C038F041C039F03C0E3602F3CF63
:1008D8003AF0F4CF3BF03C6A3D6A3702F3503B26CE
:1008E800F4503C22000E3D223602F3503B26F450D1
:1008F8003C22000E3D223C0E3802F3503C26F450B8
:100908003D22000E3702F3503C26F4503D22000EE3
:100918003602F3503C26F4503D223C0E3902F35087
:100928003D26000E3802F3503D26000E3702F350E4
:100938003D26000E3602F3503D2632503A243E6ED4
:1009480033503B203F6E34503C20406E35503D20A4
:10095800416EFFFF3EC02CF03FC02DF040C02EF08E
:1009680041C02FF01200FFFFFFFF0A6E0A50D96E38
:10097800DA6ADECF06F0DECF07F0DECF08F0DECF92
:1009880009F00001B051065CA46FB1510758A56F7A
:10099800B2510858A66FB3510958A76FBC51066EDB
:1009A800BD51076E086A096AA451065CA55107582B
:1009B800A6510858A75109580EE2010E726E0A5046
:1009C800D96EDA6ADECFB0F0DECFB1F0DECFB2F0AA
:1009D800DECFB3F0F1D0725001E1EED0BA51066E1D
:1009E800BB51076E086A096AA451065CA5510758ED
:1009F800A6510858A751095801E3DED0726ADCD025
:100A0800F00E8916725003E090C08AFF03D090510F
:100A180080198A6EFFFF000E8EEC11F0725003E011
:100A280091C08AFF04D00001915181198A6EFFFF9D
:100A3800010E8EEC11F0725003E092C08AFF04D0D0
:100A48000001925182198A6EFFFF020E8EEC11F09E
:100A5800725003E09CC08AFF04D000019C518C199D
:100A68008A6EFFFF030E8EEC11F08980B0D0F00E75
:100A78008916725003E093C08AFF03D093518319FB
:100A88008A6EFFFF000E8EEC11F0725003E094C0E6
:100A98008AFF04D00001945184198A6EFFFF010E69
:100AA8008EEC11F0725003E095C08AFF04D000016B
:100AB800955185198A6EFFFF020E8EEC11F0725067
:100AC80003E09DC08AFF04D000019D518D198A6EF4
:100AD800FFFF030E8EEC11F0898279D0F00E891693
:100AE800725003E096C08AFF03D0965186198A6E29
:100AF800FFFF000E8EEC11F0725003E097C08AFFE2
:100B080004D00001975187198A6EFFFF010E8EEC01
:100B180011F0725003E098C08AFF04D00001985188
:100B280088198A6EFFFF020E8EEC11F0725003E0F6
:100B38009EC08AFF04D000019E518E198A6EFFFF65
:100B4800030E8EEC11F0898442D0F00E8916725093
:100B580003E099C08AFF03D0995189198A6EFFFF73
:100B6800000E8EEC11F0725003E09AC08AFF04D098
:100B780000019A518A198A6EFFFF010E8EEC11F05E
:100B8800725003E09BC08AFF04D000019B518B196F
:100B98008A6EFFFF020E8EEC11F0725003E09FC0C8
:100BA8008AFF04D000019F518F198A6EFFFF030E40
:100BB8008EEC11F089860BD0FFFFCC5101E120D7D4
:100BC800010A01E154D7030A89E0010ABEE0FFFFE8
:100BD8000001CC2BCC951200FFFFFFFF0A6E0A50D4
:100BE80001E120D13C0E0A6401D01CD1FFFF0A06A6
:100BF8000A40E8423F0B0B6E0AC007F0030E0716C7
:100C0800D89007340C6E05D10CC007F0072A010EE6
:100C1800086E072A03D0FFFFD8900836FFFF072E7B
:100C2800FAD7081C096E0B50900FD96EDA6A095072
:100C3800DF160CC007F0010E086E072A03D0FFFF6D
:100C4800D8900836FFFF072EFAD7081C096E0B50FC
:100C5800900FD96EDA6A0950DF160CC007F0072A20
:100C6800010E086E072A03D0FFFFD8900836FFFF51
:100C7800072EFAD7081C096E0B50800FD96EDA6A56
:100C88000950DF160CC007F0010E086E072A03D0C2
:100C9800FFFFD8900836FFFF072EFAD75FD00CC0A9
:100CA80007F0072A010E086E072A03D0FFFFD89025
:100CB8000836FFFF072EFAD70B50900FD96EDA6A65
:100CC8000850DF120CC007F0010E086E072A03D087
:100CD800FFFFD8900836FFFF072EFAD7081C096EC9
:100CE8000B50900FD96EDA6A0950DF16065014E0DF
:100CF8000CC007F0072A010E086E072A03D0FFFF71
:100D0800D8900836FFFF072EFAD70B50800FD96E00
:100D1800DA6A0850DF1215D00CC007F0072A010E56
:100D2800086E072A03D0FFFFD8900836FFFF072E6A
:100D3800FAD7081C096E0B50800FD96EDA6A095071
:100D4800DF16FFFF0CC007F0010E086E072A03D05C
:100D5800FFFFD8900836FFFF072EFAD7FFFF081CC1
:100D6800096E0B50800FD96EDA6A0950DF165AD017
:100D78000CC007F0072A010E086E072A03D0FFFFF0
:100D8800D8900836FFFF072EFAD7081C096E0B50BB
:100D9800900FD96EDA6A0950DF160CC007F0010E01
:100DA800086E072A03D0FFFFD8900836FFFF072EEA
:100DB800FAD70B50900FD96EDA6A0850DF120CC0C0
:100DC80007F0072A010E086E072A03D0FFFFD89004
:100DD8000836FFFF072EFAD7081C096E0B50800F44
:100DE800D96EDA6A0950DF160650ABE00CC007F07E
:100DF800010E086E072A03D0FFFFD8900836FFFFC0
:100E0800072EFAD70B50800FD96EDA6A0850DF1216
:100E180009D0FFFF055001E1F7D6010A01E13FD7EC
:100E2800030AA6E0FFFF1200FFFFFFFFFE0E71247A
:100E3800D96EDA6A000EDA22DF50136E126AFF0EDC
:100E48007124D96EDA6A000EDA22DF5012101E6E93
:100E580013501F6E7150FE0F15EC10F01E50051840
:100E680003E11F50061802E0FF0EEFD0206A236A44
:100E7800FFFF9D0E2324F66EF76A7D0EF722080009
:100E8800FFFFF5500101011903E1010E206E04D0A6
:100E9800232A090E2364ECD7FFFF205002E1010E3C
:100EA800D4D0216A226AB4D00251126E0351256E41
:100EB80012C026F00451126E0551216E12C022F0A4
:100EC800225003E1110E215C02E3030EBED026502E
:100ED80010E1100E255C0DE221502524126E2250DF
:100EE8002620136E135005E1110E125CFFFF01E27C
:100EF800AAD0FFFF020EA9D00251126E0351256E2F
:100F080012C026F004C124F0245002E02428DDE1B8
:100F18002650EFE1100E255CE9D70251126E0351FD
:100F2800256E12C026F0FFFF25C024F024500001D2
:100F3800C15DFFFFDEE387D00251126E0351256EBB
:100F480012C026F0055104C112F0136A12C013F042
:100F5800126A1212125025261350262225C024F098
:100F680024500001C25DE5D70251126E0351256E6F
:100F780012C026F0055104C112F0136A12C013F012
:100F8800126A12121250252613502622CCD7060EAA
:100F98000319AFE10451ADE10505ABE1075106C105
:100FA80012F0136A12C013F0126A1212000ED890CF
:100FB8001236133612C016F013C017F017BEFF0E04
:100FC800186E196E095108C112F0136A12C013F095
:100FD800126A1212000ED8901236133612C01AF086
:100FE80013C01BF01BBEFF0E1C6E1D6E1A5016247C
:100FF800126E1B501720136E1C501820146E1D50B3
:101008001920156E1550141002E113046FD771D70B
:10101800FFFF0151010A01E147D7030A01E144D763
:10102800010AA2E0070A88E0010A01E165D7030A7C
:1010380001E173D7090A01E137D71F0A95E0010AD0
:1010480002E0040AA4E0FFFF000EFFFF1200FFFF0A
:10105800FFFFE7EC12F090EC0FF083EC0BF05AEC8A
:1010680012F005C0DEF006C0DFF007C0E0F008C0EF
:10107800E1F0FFFFFFFF0F0EBD12FFFFCB68FFFF80
:10108800CA82FFFFCA90FFFF9494FFFF01D0FFFFC1
:10109800FFFF0001E26BE36BE46BE56BE669010EB1
:1010A800056E000E066E070E03EC0CF0010E056EC1
:1010B800066E050E03EC0CF0FFFF5AEC12F005C0AB
:1010C800E8F006C0E9F007C0EAF008C0EBF0E80E67
:1010D800B8EC04F082B247D0792803E0010ED3ECD3
:1010E80011F00001E251E85DA46FE351E959A56FE1
:1010F800E451EA59A66FE551EB59A76FEF51D96F43
:10110800F051DA6FDB6BDC6BA451D95DA551DA596C
:10111800A651DB59A751DC5915E273C005F0066AE0
:1011280080EC10F074C0CBFF9494CA84010E0001C7
:10113800BE6FE8C0E2F0E9C0E3F0EAC0E4F0EBC05B
:10114800E5F015D0BE5113E0ED51D96FEE51DA6FCD
:10115800DB6BDC6BA451D95DA551DA59A651DB597B
:10116800A751DC5904E2FFFFCA949484BE6BFFFFC9
:10117800DE51E85DD96FDF51E959DA6FE051EA597C
:10118800DB6FE151EB59DC6FDC51DB1105E1E80E57
:10119800D95D030EDA594AE3D0EC12F0792815E04C
:1011A800DFEC12F0D96EDA6A0001A851DE5CA951B1
:1011B800DE58AA51DE58DE50800ADD6FAB51800A36
:1011C800DD5903E3000ED3EC11F0DFEC12F0D96E19
:1011D800DA6ADECFB4F1DDCFB5F10001E76BEC6B75
:1011E800EC0E056EE70E44EC12F000090FE000016A
:1011F800EC51E6190BE0E751D96FEC510101AC6FE6
:10120800D9C0ADF1ECC0E6F047EC0DF00001E751B4
:10121800D96FEC510101B26FD9C0B3F1E8C0DEF06B
:10122800E9C0DFF0EAC0E0F0EBC0E1F0B4C027F0BD
:10123800B5C028F0D60E296EAA0E2A6E010E2B6EA6
:101248000F0E2C6E8C0E2D6E010E2E6E0F0E2F6E45
:1012580031EC09F018EC00F02FD7FFFF0001D86B34
:101268002CC0C2F02FC0C1F0E3EC12F0306E305049
:1012780003E1FFFF000E9ED00001C451301812E0B8
:1012880030C0C4F0050E5AEC12F005240001A06F1E
:10129800000E0620A16F000E0720A26F000E082086
:1012A800A36FE7D75AEC12F00001A051055CA151D9
:1012B8000658A2510758A3510858DBE3C46BB1EC98
:1012C80011F0316E040E316003D0FFFF315072D03F
:1012D800FFFF0001C35101010019CBE119EC07F030
:1012E800326E325009E0322805E0325082EC12F0BA
:1012F800FCEC10F032505ED05AEC12F043D029507A
:10130800D96EDA6ADECF14F0DDCF15F0E1EC09F022
:1013180051D027C014F028C015F0E1EC09F04AD0EC
:101328002DC014F02EC015F02FC016F0A6EC0DF04D
:1013380041D02AC014F02BC015F02CC016F0A6EC32
:101348000DF038D029505CEC0EF034D02DC014F0DC
:101358002EC015F02FC016F04FEC10F02BD02950EE
:101368007AEC0AF027D02DC014F02EC015F02FC04B
:1013780016F07EEC0CF01ED022EC11F01BD003EC22
:101388000EF018D0FFFF01010151010AB8E0030A6D
:10139800C0E0010AC5E0070ACCE0010AD3E0030A6D
:1013A800D5E0090ADCE01F0ADEE0010AE5E0040AEC
:1013B800E6E08BD7FFFF1200FFFFFFFF010E0001E1
:1013C800D86F01010251166E03511E6E16C01FF030
:1013D8001EC0B6F01FC0B7F00451166E0551236E3B
:1013E80016C024F023C0B8F024C0B9F023C016F00A
:1013F80024C017F0D89017321632D8901732163208
:10140800D8901732163216501D6E23C016F0070EEC
:10141800161601E01D2A1DC002F1030E716E226A24
:10142800206A216A4FD020501E24196E21501F2097
:101438001A6E19C01BF01BC016F014C017F015C0A7
:1014480018F0162A04D0FFFFD89018321732FFFF81
:10145800162EF9D717A015D022C016F0010E176E58
:10146800162A03D0FFFFD8901736FFFF162EFAD79B
:10147800000E7124D96EDA6A010EDA221750DF12D3
:1014880017D0FFFF22C016F0010E176E162A03D0E0
:10149800FFFFD8901736FFFF162EFAD7171C186EC5
:1014A800000E7124D96EDA6A010EDA221850DF169E
:1014B800FFFF222A070E226402D0226A712AFFFF48
:1014C800204A212AFFFF2350205C24502158ABE3F7
:1014D80023C016F0070E161601E0712A7150020F8C
:1014E8001C6EFCEC10F01C501200FFFFFFFF256E75
:1014F8000F0E0001D86F01010251146E03511E6EC8
:1015080014C01FF01EC0B6F01FC0B7F00451146E0F
:101518000551206E14C021F020C0B8F021C0B9F0E8
:10152800266A070E1D6E226A236A58D022501E248E
:10153800196E23501F201A6E19C024F026C014F00B
:10154800000E1D24D96EDA6A010EDA22DF50156EFC
:10155800142A03D0FFFFD8901532FFFF142EFAD7B4
:101568001550010B1C6E1C5016E024C014F0010E1F
:10157800156E166A142A04D0FFFFD8901536163651
:10158800FFFF142EF9D72550D96EDA6A1550DE12EE
:101598001650DD1219D024C014F0010E156E166A0B
:1015A800142A04D0FFFFD89015361636FFFF142EE4
:1015B800F9D7151C176E161C186E2550D96EDA6AE5
:1015C8001750DE161850DD16FFFF262A070E266470
:1015D80002D0266A1D2AFFFF224A232AFFFF205035
:1015E800225C21502358A2E3060E716E7150020F3F
:1015F8001B6EFCEC10F01B501200FFFFFFFF0C509D
:10160800106E0D50116E126A136A6D0E1002F3CF30
:1016180014F0F4CF15F0166A176A1102F350152664
:10162800F4501622000E1722010E1002F350152650
:10163800F4501622000E17226D0E1202F3501626D1
:10164800F4501722010E1102F3501626F4501722F7
:10165800000E1002F3501626F45017226D0E1302D6
:10166800F3501726010E1202F3501726000E11022E
:10167800F3501726000E1002F350172614C018F066
:1016880015C019F016C01AF017C01BF00CC005F0F1
:101698000DC006F0086A640E076EACEC10F00CC0C2
:1016A80010F00DC011F0D89011321032D8901132CC
:1016B80010320550105E0650115A1050182611505D
:1016C8001922000E1A221B220CC005F00DC006F0CC
:1016D800010E086E900E076EACEC10F0055018263F
:1016E80006501922000E1A221B2218C00CF019C02D
:1016F8000DF01AC00EF01BC00FF0000CFFFFFFFF2B
:10170800020EA96EA680A8CF73F0030EA96EA6805C
:10171800A8CFC6F0040EA96EA680A8CFC7F0050E04
:10172800A96EA680A8CF74F0060EA96EA680A85050
:101738000001EE6FED6B070EA96EA680A850F06F42
:10174800EF6B080EA96EA680A8CFC5F0090EA96E8A
:10175800A680A8CFC8F00A0EA96EA680A8CFCEF0A2
:101768000B0EA96EA680A8CFCDF00C0EA96EA68090
:10177800A8CFD1F00D0EA96EA680A8CFD0F00E0E7E
:10178800A96EA680A8CFCFF00F0EA96EA680A8508C
:101798000D6E0E6A060EFFFFD8900D360E36E82E37
:1017A800FAD70DC0BAF00EC0BBF0100EA96EA68015
:1017B800A8500D6E0E6A060EFFFFD8900D360E3635
:1017C800E82EFAD70DC0BCF00EC0BDF0120EA96EFF
:1017D800A680A8CF75F073C005F0066A80EC10F0FB
:1017E80074C0CBFF010EA96EA6800A6A0B6AA850C6
:1017F800BCEC12F06FEC12F04DEF0FF0FFFFFFFFA3
:101808000C6E070E0C6401D072D0FFFF055010E07B
:101818000CC007F0010E086E072A03D0FFFFD8900E
:101828000836FFFF072EFAD7085000019F130FD084
:101838000CC007F0010E086E072A03D0FFFFD890EE
:101848000836FFFF072EFAD7081C00019F17FFFF75
:10185800065010E00CC007F0010E086E072A03D0EE
:10186800FFFFD8900836FFFF072EFAD7085000016F
:101878008F130FD00CC007F0010E086E072A03D093
:10188800FFFFD8900836FFFF072EFAD7081C000183
:101898008F17FFFF055014E00CC007F0010E086E0B
:1018A800096A072A04D0FFFFD89008360936FFFFD7
:1018B800072EF9D708500001D6130950D71317D0AF
:1018C8000CC007F0010E086E096A072A04D0FFFF52
:1018D800D89008360936FFFF072EF9D7081C0A6E7C
:1018E800091C0B6E0A500001D6170B50D717FFFFC3
:1018F8001200FFFFFFFF100E0001D86F0101035116
:1019080002C117F0186A17C018F0176A17101E6E70
:1019180018501F6E1EC0B6F01FC0B7F005C120F0EA
:1019280020C0B8F00001B96B0101046B20C005F1BB
:10193800060E716E216A2CD02150020D080EF32478
:10194800D96E010EF420DA6EDF50176E2150020DA9
:10195800070EF324D96E010EF420DA6EDF50186EEC
:1019680017501B6E18C01CF021501E24176E000E55
:101978001F20186ED8901736183617501424D96EB1
:1019880018501520DA6E1BC0DEFF1CC0DDFF212AAF
:10199800FFFF2050215C0EE21650176E186A215086
:1019A8001E24196E000E1F201A6E1750195C18504D
:1019B8001A58C2E37150020F1D6EFCEC10F01D5056
:1019C8001200FFFFFFFF4B6E4450D96EDA6ADECF7C
:1019D80045F0DDCF46F046C045F0466A640E452422
:1019E800566E000E4620576E4450D96EDA6ADECF26
:1019F80045F0DDCF46F04550546E556A4350D96ED8
:101A0800DA6ADECF45F0DDCF46F04650526E536AB3
:101A18004B50D96EDA6ADECF45F0DDCF46F046503E
:101A2800506E516A4B50D96EDA6ADECF45F0DDCF81
:101A380046F045504E6E4F6A4350D96EDA6ADECF93
:101A480045F0DDCF46F045504C6E4D6A4E0E056EA2
:101A58004C0E040FA1EC12F04C0E2FEC03F02CC02E
:101A680047F02DC048F02EC049F02FC04AF0470E6D
:101A780092EC12F0000E056E066E050E03EC0CF0EB
:101A88004DEF0FF0FFFFFFFF77285AE0120E056EAB
:101A9800110E44EC12F0000953E011500CE1125001
:101AA8000AE16FEC12F0776879500D6E77500101FA
:101AB800AE6F0DC0AFF111500001C91941E11250CC
:101AC800CA193EE1792806E0020E056E066A7928F1
:101AD800F1EC05F077C079F00001CB5107E1010E78
:101AE800056E066E7928F1EC05F007D0020E056E3A
:101AF800010E066E7928F1EC05F0FFFFDFEC12F01D
:101B0800D96EDA6ADECF0DF0DECF0EF0DECF0FF041
:101B1800DECF10F00001CE510D24A86F000E0E206C
:101B2800A96F000E0F20AA6F000E1020AB6F4DECAE
:101B38000FF079500D6E77500101AE6F0DC0AFF107
:101B48001200FFFFFFFF030E0001D86F03C11EF054
:101B58001EC0B6F0B76B01010451176E05511C6E1B
:101B680017C01DF01CC0B8F01DC0B9F01C501C24D3
:101B7800026F030E716E1EC01FF02AD0000E712472
:101B8800D96EDA6A010EDA221F50020DF3501424BE
:101B9800E16EF4501520E26EE6CF17F0E5CF18F0AD
:101BA80018C017F0186A1750DF6E712A1F50020DFF
:101BB800F3501424D96EF4501520DA6E000E7124F7
:101BC800E16EE26A010EE222DFCFE7FF712A1F2AE7
:101BD800FFFF1E501C24176E000E1D20186E1F508C
:101BE800196E1A6A1750195C18501A58C7E37150C1
:101BF800020F1B6EFCEC10F01B501200FFFFFFFFE2
:101C0800150E0001D86F02C116F00101075106C177
:101C180014F0156A14C015F0146A1412D89014340C
:101C2800186E1534196E18C0B6F019C0B7F00951FE
:101C380008C114F0156A14C015F0146A1412D8906B
:101C480014341A6E15341B6E1AC0B8F01BC0B9F0E4
:101C58001628716E1C6A1CD0FFFFA6B2FDD71C5057
:101C68001824A96E0A0E1C24D96EDA6A010EDA222B
:101C7800DF50A86ED890F2BED880F29EA684550E8A
:101C8800A76EAA0EA76EA682A69401E3F28E1C2A5E
:101C9800FFFF1C50146E156A1A50145C1B5015581F
:101CA800DBE371C017F0FCEC10F017501200FFFFD7
:101CB800FFFF1D6E050E0001D86F01010251146E61
:101CC80003511A6E14C01BF01AC0B6F01BC0B7F04F
:101CD8000001B96B010EB86F1A500F0B1C6E010191
:101CE800042916E11CC014F0010E156E166A142A98
:101CF80004D0FFFFD89015361636FFFF142EF9D7FB
:101D08001D50D96EDA6A1550DE121650DD1219D040
:101D18001CC014F0010E156E166A142A04D0FFFFB9
:101D2800D89015361636FFFF142EF9D7151C176EE6
:101D3800161C186E1D50D96EDA6A1750DE16185028
:101D4800DD16FFFF060E716E7150020F196EFCEC66
:101D580010F019501200FFFFFFFF1EC00CF01FC04B
:101D68000DF06BEC11F020500C2621500D220CC008
:101D780028F00DC029F02A6A2B6A1F5003E1030ED0
:101D88001E5C21E31CC00AF01DC00BF0D6EC10F05D
:101D98000A500B1003E1276A020E02D0276A010ECF
:101DA800FFFF266E26C022F027C023F0000E23BEB8
:101DB800FF0E246E256E2250285E2350295A245087
:101DC8002A5A25502B5A1C06D8A01D061CC00CF0F8
:101DD8001DC00DF002EC0BF00C5028260D502922E6
:101DE8000E502A220F502B2228C01CF029C01DF0AB
:101DF8002AC01EF02BC01FF01200FFFFFFFF9EB08D
:101E08009DA00CD09E900001AC2B000EAD23AE23FC
:101E1800AF23F60ECF6E3C0ECE6E33D0FFFFF2A48A
:101E280016D0F2940001C02B0A0EC0190BE1C06B4A
:101E3800762A3C0E761806E1766A782A180E781803
:101E480001E1786A1B0ED76E1F0ED66E1AD0FFFFFF
:101E58009EBA9DAA16D0FFFF9EAAFDD7AECF03F06B
:101E6800000E0001BF25D96EDA6A020EDA2203C01D
:101E7800DFFF6F2ABF2902E1BF6B01D0BF2BFFFF35
:101E88009E9AFFFF02C0DAFF01C0D9FF7A921100C3
:101E9800FFFFFFFF75503EE00B0E056E0A0E44EC87
:101EA80012F0000937E0772802E1776A01D0772A33
:101EB800FFFF7950076E77500101AE6F07C0AFF191
:101EC8007550775C27E27750020DF350130FA96E17
:101ED800A680A8CF09F009501F0B0001C96F093867
:101EE800E842070B010BCB6F7750020DF350140F2C
:101EF800A96EA680A8CFCAF0C951076ECA510101C0
:101F0800B06F07C0B1F10A500001C95DCCE3CA51F6
:101F18000B5CC9E21200FFFFFFFFF28CF28ED08E3D
:101F2800CD8ECD94CD92CF0ECD169D809F80F60E8E
:101F3800CF6E3C0ECE6E9E90CD80D59CD59AD59610
:101F4800070ED512F28AF1841B0ED76E1F0ED66EBD
:101F5800F294D58ED8EC12F0AFEC12F09D8A9F8ADD
:101F6800056AFFFF0550020DAA0EF324D96E010E73
:101F7800F420DA6EDE6ADD6A052A0E0E0564F1D7F2
:101F8800936A899089928994899692909292929470
:101F980092969486948294908B941200FFFF02EE9E
:101FA80000F011EE00F0EE6AE550E150FCE1E2507D
:101FB800FAE101EE00F0C80EEE6AE806FDE100EE77
:101FC80080F0590EEE6AE806FDE100EE6FF0080EAB
:101FD800EE6AE806FDE1D40EF66E250EF76E000EE9
:101FE800F86E00EEEDF010EE04F00900F5CFEEFF0C
:101FF800E550E150FAE1D80EF66E250EF76E000EA8
:10200800F86E0900F5CF77F00900F5CF78F00900F0
:10201800F5CF79F07A907A92000EF86E00012CEFE5
:1020280008F0FFFF0D6E106811680E6A1ED0000ED2
:102038000E24D96EDA6A010EDA22DF50101A010E68
:102048000F6EFFFF010E10140B6E0C6AD890113240
:1020580010320B500C1004E0010E101AA00E111AC9
:102068000F2A080E0F64EDD70E2AFFFF0D500E5CE5
:10207800DEE311C009F00A6A1050086E076A0950B9
:102088000710106E0A500810116E10C005F011C02C
:1020980006F01200FFFFFFFF060E0001D86F0101D6
:1020A8000251176E03511C6E17C01DF01CC0B6F00C
:1020B8001DC0B7F00001B96B010EB86F01010451E2
:1020C800176E0551196E17C01AF0D8901C34D96EC6
:1020D8001D34DA6E1450D9261550DA2219C0DEFFE5
:1020E8001AC0DDFF060E716E7150020F1B6EFCECFC
:1020F80010F01B501200FFFFFFFF05A003D0076A76
:10210800072A02D0FFFF076AFFFF073ABD500718EA
:10211800EF0B0718BD6E05A203D0076A072A02D085
:10212800FFFF076AFFFF073A0746BD500718DF0B96
:102138000718BD6E05C007F006C008F0D890083231
:102148000732D890083207320750BE6E1200FFFFE0
:10215800FFFF096A0A6A075008101EE0010E0B6E9D
:1021680005D0FFFFD890073608360B2AFFFF08AEC8
:10217800F8D7FFFFD89009360A360750055C085093
:10218800065805E30750055E0850065A0980D8909E
:10219800083207320B2EEDD709C005F00AC006F049
:1021A8001200FFFFFFFF010E0D6E0AC005F00BC005
:1021B80006F0086E900E076E47EC11F005500610F9
:1021C80012E00AC00CF0030E0C160CE10AC005F070
:1021D8000BC006F0086A640E076E47EC11F0055054
:1021E800061001E10D6A0DC00AF00B6A1200FFFF2C
:1021F800FFFF715015EC10F005C012F006C013F087
:10220800000E7124D96EDA6A010EDA2213C0DFFFDC
:10221800712A000E7124D96EDA6A010EDA2212C010
:10222800DFFF712A000E056E010E066E71C007F001
:10223800F3EC11F0716A5AEF12F0FFFFFFFF160E70
:102248000101026F030E716E156AFFFFA70E1524B8
:10225800F66EF76A7D0EF722000E7124D96EDA6ADF
:10226800010EDA220800FFFFF5CFDFFF152A712AD9
:10227800130E1564EAD77150020F146EFCEC10F0BF
:1022880014501200FFFFFFFF075008101AE0010E5C
:10229800096E05D0FFFFD89007360836092AFFFFD8
:1022A80008AEF8D7FFFF0750055C0850065804E34E
:1022B8000750055E0850065AD89008320732092E92
:1022C800F1D705C005F006C006F01200FFFFFFFFBA
:1022D800F10E0E6E0B0E0F6E0E500C02F3CF10F0B7
:1022E800F4CF11F00D02F35011260F500C02F350E9
:1022F8001126410E1024056EF40E1120066E086A90
:10230800640E076EACEC10F005C00CF006C00DF0C2
:102318001200FFFFFFFF056E14D0899892988988F4
:10232800928818D08B9694968B86948613D08B902F
:1023380094908B8094800ED08B9294928B8294820E
:1023480009D0FFFF0550E9E0010AECE0030AEFE0DD
:10235800010AF2E0FFFF1200FFFFFFFF076A716A40
:1023680011D012EC12F0066E000E7124D96EDA6AE2
:10237800010EDA2206C0DFFF712A8B0E716402D0CB
:10238800010E076EFFFFE3EC12F00009EAE10750C7
:1023980002E0FD0E01D07150FFFF1200FFFFFFFFAA
:1023A8000F6E0F5003E1116A020E02D0116A010E7E
:1023B800FFFF106E10C005F0066A7928F1EC05F0F1
:1023C80079680001A86BA96BAA6BAB6B79500D6E8D
:1023D80077500101AE6F0DC0AFF11200FFFFFFFF94
:1023E8008B8A060EFFFFE82EFDD700F0086A0CD096
:1023F800FFFFACA2FDD708500524D96E000E0620B9
:10240800DA6EDF50AD6E082AFFFF0750085CF0E374
:10241800FFFFACA2FDD78B9A1200FFFFFFFFF29ED1
:102428006F5012E0000E7024D96EDA6A020EDA22BA
:10243800DF50056E6F06702802E1706A01D0702ABD
:10244800FFFFF28E055002D0F28E000EFFFF120041
:10245800FFFFFFFF076E075007E00750D96EDA6AE3
:10246800B6C0DEFFB7C0DDFF055007E00550D96EE6
:10247800DA6AB8C0DEFFB9C0DDFFD80E1200FFFF70
:10248800FFFF066E782802E1000E0DD0F29E06507E
:10249800D96EDA6A78C0DFFF0550D96EDA6A76C07D
:1024A800DFFFF28E010EFFFF1200FFFFFFFFF29E1B
:1024B800ACC009F0ADC00AF0AEC00BF0AFC00CF074
:1024C800F28E09C005F00AC006F00BC007F00CC078
:1024D80008F01200FFFFFFFF056AFFFF0550900F8D
:1024E800D96EDA6ADF6A0550800FD96EDA6ADF6A58
:1024F800052A0E0E0564F1D70E0CFFFFFFFF056ECF
:1025080001C106F0C3C000F10650800F0101016F40
:1025180005C002F1030E716E030CFFFFFFFF056E8D
:102528000550D96EDA6ADECFD2F0DECFD3F0DECF37
:10253800D4F0DECFD5F01200FFFFFFFF066E065085
:10254800D96EDA6ADF50786E0550D96EDA6ADF50D4
:10255800766E1200FFFFFFFFAC6AAC8AAC84400EB7
:10256800AF6EAB6AAB8EAB88949A8B9A1200FFFF62
:10257800FFFF0C6E0AC005F00BC006F00C50C6EF4A
:1025880012F0FFFFFFFF096E09C0C3F0040E0560DB
:1025980000D0FFFF1200FFFFFFFFD22B000ED32356
:1025A800D423D523000CFFFFFFFF0001BF6B706A27
:1025B8006F6A1200FFFFFFFFD20E1200FFFFFFFF3E
:1025C8006F501200FFFFFFFF1200FFFF0001000421
:0325D800FFFFFF03
:0225DC00FFFFFF
:107D9C00000102030405060F1011155461626C6F8B
:107DAC00207320726173706973616E69656D000078
:020000040020DA
:08000000000100FFFFFFFFFFFC
:020000040030CA
:0E000000FF22070EFF0185FF0FC00FE00F402B
:0200000400F00A
:10000000110A800F80FF01041003FF1517090B066A
:0800100009000130200000008E
:00000001FF
